:020000040800F2
:1000000080730020A18A0008512401088D8A00080D
:100010008D8A00088D8A00088D8A00080000000083
:10002000000000000000000000000000CD8B000870
:100030008D8A000800000000198B00086DA80008D8
:100040007D8E00087D8E00087D8E00087D8E000864
:100050007D8E00087D8E00087D8E00087D8E000854
:100060007D8E00087D8E00087D8E00087D8E000844
:100070007D8E00087D8E00087D8E00087D8E000834
:100080007D8E00087D8E00087D8E00087D8E000824
:100090007D8E00087D8E00087D8E00087D8E000814
:1000A0007D8E00087D8E00087D8E00087D8E000804
:1000B0007D8E00087D8E00087D8E00087D8E0008F4
:1000C0007D8E00087D8E00087D8E00087D8E0008E4
:1000D0007D8E00087D8E00087D8E00087D8E0008D4
:1000E0007D8E00087D8E00087D8E00087D8E0008C4
:1000F0007D8E00087D8E00087D8E00087D8E0008B4
:100100007D8E00087D8E00087D8E00087D8E0008A3
:100110007D8E00087D8E00087D8E00087D8E000893
:100120007D8E00087D8E00087D8E00087D8E000883
:100130007D8E00087D8E00087D8E00087D8E000873
:100140007D8E00087D8E00087D8E00087D8E000863
:100150007D8E00087D8E00087D8E00087D8E000853
:100160007D8E00087D8E00087D8E00087D8E000843
:100170007D8E00087D8E00087D8E00087D8E000833
:100180007D8E00087D8E00087D8E00087D8E000823
:100190007D8E00087D8E00087D8E00087D8E000813
:0C01A0007D8E00087D8E00087D8E00081A
:1001B00081F0004102E000BF83F0004330B54FEA18
:1001C00041044FEA430594EA050F08BF90EA020F85
:1001D0001FBF54EA000C55EA020C7FEA645C7FEA18
:1001E000655C00F0E2804FEA5454D4EB5555B8BF3B
:1001F0006D420CDD2C4480EA020281EA030382EAAC
:10020000000083EA010180EA020281EA0303362D3D
:1002100088BF30BD11F0004F4FEA01314FF4801C10
:100220004CEA113102D0404261EB410113F0004F22
:100230004FEA03334CEA133302D0524263EB4303D9
:1002400094EA050F00F0A780A4F10104D5F1200E77
:100250000DDB02FA0EFC22FA05F2801841F10001D2
:1002600003FA0EF2801843FA05F359410EE0A5F1A6
:1002700020050EF1200E012A03FA0EFC28BF4CF0D7
:10028000020C43FA05F3C01851EBE37101F000458D
:1002900007D54FF0000EDCF1000C7EEB00006EEB9A
:1002A0000101B1F5801F1BD3B1F5001F0CD3490824
:1002B0005FEA30004FEA3C0C04F101044FEA44527B
:1002C00012F5800F80F09A80BCF1004F08BF5FEA02
:1002D000500C50F1000041EB045141EA050130BDE2
:1002E0005FEA4C0C404141EB0101013C28BFB1F5F4
:1002F000801FE9D291F0000F04BF01460020B1FA3F
:1003000081F308BF2033A3F10B03B3F120020CDA11
:100310000C3208DD02F1140CC2F10C0201FA0CF0EF
:1003200021FA02F10CE002F11402D8BFC2F1200C54
:1003300001FA02F120FA0CFCDCBF41EA0C0190400A
:10034000E41AA2BF01EB0451294330BD6FEA040453
:100350001F3C1CDA0C340EDC04F11404C4F120023E
:1003600020FA04F001FA02F340EA030021FA04F350
:1003700045EA030130BDC4F10C04C4F1200220FAA7
:1003800002F001FA04F340EA0300294630BD21FAE5
:1003900004F0294630BD94F0000F83F4801306BFAB
:1003A00081F480110134013D4EE77FEA645C18BF9F
:1003B0007FEA655C29D094EA050F08BF90EA020F36
:1003C00005D054EA000C04BF1946104630BD91EA2E
:1003D000030F1EBF0021002030BD5FEA545C05D131
:1003E0004000494128BF41F0004130BD14F5800470
:1003F0003CBF01F5801130BD01F0004545F0FE41E4
:1004000041F470014FF0000030BD7FEA645C1ABF18
:10041000194610467FEA655C1CBF0B46024650EA4F
:10042000013406BF52EA033591EA030F41F400217B
:1004300030BD00BF90F0000F04BF0021704730B501
:100440004FF4806404F132044FF000054FF00001D6
:1004500050E700BF90F0000F04BF0021704730B597
:100460004FF4806404F1320410F0004548BF40426C
:100470004FF000013EE700BF42004FEAE2014FEAC1
:1004800031014FEA02701FBF12F07F4393F07F4F9C
:1004900081F06051704732F07F4208BF704793F09F
:1004A0007F4F04BF41F40021704730B54FF46074B2
:1004B00001F0004521F000411CE700BF50EA0102B5
:1004C00008BF704730B54FF000050AE050EA01025E
:1004D00008BF704730B511F0004502D5404261EBCE
:1004E00041014FF4806404F132045FEA915C3FF40F
:1004F000D8AE4FF003025FEADC0C18BF03325FEAAC
:10050000DC0C18BF033202EBDC02C2F1200300FA5C
:1005100003FC20FA02F001FA03FE40EA0E0021FA81
:1005200002F11444BDE600BF70B54FF0FF0C4CF46F
:10053000E06C1CEA11541DBF1CEA135594EA0C0F21
:1005400095EA0C0F00F0DEF82C4481EA030621EA5C
:100550004C5123EA4C5350EA013518BF52EA033597
:1005600041F4801143F4801338D0A0FB02CE4FF049
:100570000005E1FB02E506F00042E0FB03E54FF079
:100580000006E1FB03569CF0000F18BF4EF0010E71
:10059000A4F1FF04B6F5007F64F5407404D25FEA6D
:1005A0004E0E6D4146EB060642EAC62141EA555120
:1005B0004FEAC52040EA5E504FEACE2EB4F1FD0C62
:1005C00088BFBCF5E06F1ED8BEF1004F08BF5FEAE0
:1005D000500E50F1000041EB045170BD06F0004692
:1005E00046EA010140EA020081EA0301B4EB5C043F
:1005F000C2BFD4EB0C0541EA045170BD41F4801137
:100600004FF0000E013C00F3AB8014F1360FDEBF5B
:10061000002001F0004170BDC4F10004203C35DA37
:100620000C341BDC04F11404C4F1200500FA05F3BA
:1006300020FA04F001FA05F240EA020001F000425B
:1006400021F0004110EBD37021FA04F642EB0601D1
:100650005EEA430E08BF20EAD37070BDC4F10C04FB
:10066000C4F1200500FA04F320FA05F001FA04F2BF
:1006700040EA020001F0004110EBD37041F10001AB
:100680005EEA430E08BF20EAD37070BDC4F12005B6
:1006900000FA05F24EEA020E20FA04F301FA05F21E
:1006A00043EA020321FA04F001F0004121FA04F2C6
:1006B00020EA020000EBD3705EEA430E08BF20EA96
:1006C000D37070BD94F0000F0FD101F000464000D0
:1006D00041EB010111F4801F08BF013CF7D041EA52
:1006E000060195F0000F18BF704703F00046520056
:1006F00043EB030313F4801F08BF013DF7D043EA27
:100700000603704794EA0C0F0CEA135518BF95EADC
:100710000C0F0CD050EA410618BF52EA4306D1D163
:1007200081EA030101F000414FF0000070BD50EA82
:10073000410606BF1046194652EA430619D094EA0C
:100740000C0F02D150EA013613D195EA0C0F05D1F6
:1007500052EA03361CBF104619460AD181EA03014A
:1007600001F0004141F0FE4141F470014FF0000002
:1007700070BD41F0FE4141F4780170BD70B54FF09D
:10078000FF0C4CF4E06C1CEA11541DBF1CEA13551D
:1007900094EA0C0F95EA0C0F00F0A7F8A4EB0504FF
:1007A00081EA030E52EA03354FEA013100F08880F6
:1007B0004FEA03334FF0805545EA131343EA1263BF
:1007C0004FEA022245EA111545EA10654FEA002674
:1007D0000EF000419D4208BF964244F1FD0404F52D
:1007E000407402D25B084FEA3202B61A65EB030589
:1007F0005B084FEA32024FF480104FF4002CB6EB46
:10080000020E75EB030E22BFB61A754640EA0C00C5
:100810005B084FEA3202B6EB020E75EB030E22BF05
:10082000B61A754640EA5C005B084FEA3202B6EB46
:10083000020E75EB030E22BFB61A754640EA9C0005
:100840005B084FEA3202B6EB020E75EB030E22BFD5
:10085000B61A754640EADC0055EA060E18D04FEA93
:10086000051545EA16754FEA06164FEAC30343EA33
:1008700052734FEAC2025FEA1C1CC0D111F4801F00
:100880000BD141EA00014FF000004FF0004CB6E7F9
:1008900011F4801F04BF01430020B4F1FD0C88BF98
:1008A000BCF5E06F3FF6AFAEB5EB030C04BFB6EBA3
:1008B000020C5FEA500C50F1000041EB045170BD96
:1008C0000EF0004E4EEA113114EB5C04C2BFD4EBC3
:1008D0000C0541EA045170BD41F480114FF0000E47
:1008E000013C90E645EA060E8DE60CEA135594EAC3
:1008F0000C0F08BF95EA0C0F3FF43BAF94EA0C0FC6
:100900000AD150EA01347FF434AF95EA0C0F7FF43A
:1009100025AF104619462CE795EA0C0F06D152EA8E
:1009200003353FF4FDAE1046194622E750EA410672
:1009300018BF52EA43067FF4C5AE50EA41047FF483
:100940000DAF52EA43057FF4EBAE12E77BB972B903
:100950000029BEBF00204FF0004106E008BF00287C
:100960001CBF6FF000414FF0FF3000F057B8ADF101
:10097000080C6DE904CE002909DB002B1ADB00F01E
:1009800069F8DDF804E0DDE9022304B07047404275
:1009900061EB4101002B1BDB00F05CF8DDF804E0AB
:1009A000DDE9022304B0404261EB4101524263EBB6
:1009B00043037047524263EB430300F04BF8DDF80A
:1009C00004E0DDE9022304B0404261EB41017047DD
:1009D000524263EB430300F03DF8DDF804E0DDE94B
:1009E000022304B0524263EB4303704753B94AB940
:1009F000002908BF00281CBF4FF0FF314FF0FF3027
:100A000000F00CB8ADF1080C6DE904CE00F022F84E
:100A1000DDF804E0DDE9022304B07047704700BF51
:100A200010F8012B11F8013B012A28BF9A42F7D098
:100A3000D01A7047034611F8012B03F8012B002A46
:100A4000F9D17047034613F8012B002AFBD1181A7D
:100A5000013870472DE9F04786468C460846089EC7
:100A6000154674461946002B40F0C2808542B2FA02
:100A700082F245D94AB1C2F1200300FA02FC2EFAF3
:100A800003F3954043EA0C0C94404FEA154EA8B28C
:100A9000BCFBFEF8230C0EFB18CC08FB00F943EA64
:100AA0000C43994528D9EB1808F1FF3704D2994532
:100AB00002D9A8F102072B44A3EB0903A4B2B3FBAC
:100AC000FEFC0EFB1C330CFB00F044EA0344A04286
:100AD00014D92C190CF1FF3304D2A04202D9ACF185
:100AE00002032C44241A43EA07401EB1D4400023D9
:100AF00034607360BDE8F0874746DDE76346F1E7A1
:100B000092BB431B01214FEA154EAFB2B3FBFEFC73
:100B1000200C0EFB1C330CFB07F840EA03439845FE
:100B200062D9EB180CF1FF3004D2984502D9ACF130
:100B300002002B44A3EB0803A4B2B3FBFEFC0EFBA4
:100B40001C330CFB07F744EA0344A7424ED92C1987
:100B50000CF1FF3304D2A74202D9ACF102032C44BA
:100B6000E41B43EA0040C0E7C2F1200320FA03F18E
:100B7000954090402EFA03F303434FEA154EAFB26F
:100B8000B1FBFEFC0EFB1C10190C0CFB07F841EA34
:100B90000041884504FA02F422D969180CF1FF30AB
:100BA00004D2884502D9ACF102002944A1EB080126
:100BB0009BB2B1FBFEFC0EFB1C110CFB07F743EADA
:100BC00001439F420ED9EB180CF1FF3104D29F4232
:100BD00002D9ACF102012B44DB1B41EA004192E750
:100BE0006046E3E76146F7E76046A3E76346B7E799
:100BF000834206D916B9002108467BE7C6E900E022
:100C0000F9E7B3FA83F78FB9834201D3724508D865
:100C1000BEEB020460EB030301209C461EB90021D9
:100C200068E73846FAE7C6E9004CF8E7C7F1200C58
:100C3000BB4022FA0CF41C432EFA0CF120FA0CF300
:100C4000B84001434FEA14490EFA07F5B3FBF9F82F
:100C50001FFA84FE09FB18300B0C08FB0EFA43EA5E
:100C600000439A4502FA07F240D9E31808F1FF3031
:100C700004D29A4502D9A8F102002344A3EB0A0347
:100C800089B2B3FBF9F809FB183308FB0EFE41EA01
:100C900003418E452CD9611808F1FF3304D28E45EB
:100CA00002D9A8F10203214443EA0040A0FB0298C4
:100CB000A1EB0E014145CE46434602D306D14D4538
:100CC00004D2B9EB020E68EB04030138002EA6D063
:100CD000B5EB0E0261EB030101FA0CFC22FA07F3FB
:100CE0004CEA0303F940C6E9003198E74046C5E7FE
:100CF0004346D9E7000000002DE9F04F8DB0099080
:100D00000C46154614F01CFA0022431880F083802C
:100D100013444B4FA7FB032C2CF0030202EB9C0265
:100D20009B1AC01A61F100024FF0CC3100FB01F1B7
:100D300007FB0211A0FB07031944420842EAC172F3
:100D40004FEA51099246012C67D06C6821463D4814
:100D5000FFF766FE28B121463B48FFF761FE0028F9
:100D600062D135A3D3E9002350464946FFF7EEFD93
:100D700080460A9130A3D3E9002350464946FFF745
:100D8000E5FD15461C46314A002328462146FFF75B
:100D9000DDFD06460F462D4A002328462146FFF773
:100DA000D5FD15461C464EF66022002328462146F6
:100DB000FFF7CCFD81460B914EF6602200232846BA
:100DC0002146FFF7C3FD15461C464FF47A720023F7
:100DD00028462146FFF7BAFD83468A464FF47A72C9
:100DE000002328462146FFF7B1FDCDE90623CDF8C3
:100DF00010B0CDF814A0CDF808900B9A039200968D
:100E0000019742460A9B1249099810F0F0FA002017
:100E10000DB0BDE8F08F01227AE74B460D490998E5
:100E200010F0E5FA0020F3E722460B49099810F08C
:100E3000FCFA6FF00400EBE7005C26050000000000
:100E4000CDCCCCCC108301081483010880EE360091
:100E500038830108FC82010820830108000000009B
:100E600030B589B004460C9D0020C4F81401C4F8C4
:100E7000180104F58E70C4F81C01C4F8200104F5B3
:100E80009270C4F82401C4F828012DB3287928BB36
:100E90000120C4F82C019FED147B8DED067B002012
:100EA00004900393029001900094114B204613F09C
:100EB00002FF55B1296811B120460BF0F3F86B79A8
:100EC0001BB1237B43F00103237320460BF08AFE02
:100ED000C4F8104109B030BD0120DAE740F201103A
:100EE000D7E700BFAFF30080FFFFFFFFFFFFFFFF6B
:100EF00045BF00082A4B986A03EB800383ED000A84
:100F000000229FED280A1AE0831A04332649A1FB28
:100F100003C121F0030C0CEB91015B1A02F1040CEC
:100F2000224901EB8C01D1ED017A1D4901EB8303CC
:100F300093ED007A67EE877A30EE270A0132042AB1
:100F4000E2DD012219E0831A05331749A1FB03C131
:100F500021F0030C0CEB91015B1A144901EB8201A7
:100F6000D1ED007A04330E4901EB830393ED017A4E
:100F700067EE877A30EE670A0132042AE3DD08491A
:100F8000031D01EB830383ED010A0130064BA3FB34
:100F9000002323F0030202EB9303C01A8862704718
:100FA0008C1B002000000000CDCCCCCCB81B002056
:100FB00008B502480AF0A4FE08BD00BFC005002025
:100FC00000B583B0164B174A5A6117499961174803
:100FD000D86119625A624FF07E521A60144A5A6000
:100FE000144A9A60144ADA60144A1A612C220021C9
:100FF000134814F0E0FA134B1B6803F00703022BAD
:1010000002D803B05DF804FB4FF4FA5300934FF499
:101010007A730D4A03210B480FF0D8F9F1E700BFAE
:10102000B81B0020AC8BDB3BAC8BDB3CC1A8243D68
:10103000E3A517C093181440690087BFC9E53F3E78
:101040008C1B0020EC0400200864010800B583B06C
:101050004FF0FF324FF0FF330B480AF099FE0B4B75
:101060001A680B4BA3FB02135B09642101FB1323DA
:1010700003F50063ADF80630002200230DF10601F0
:1010800004480AF073FCE3E7C0050020881B002039
:101090001F85EB5160050020F0B585B002AF504BC5
:1010A0001B6803F00703022B0ED84D4B1B6803F09F
:1010B0000703022B34D97D2300936423494A03217B
:1010C00047480FF083F92BE0474A032144480FF0CB
:1010D00068F9EAE76FF0004067E013287CDD14212F
:1010E0003AB10520387000207870B870F870386810
:1010F00018616FF300046FF341046FF382046FF320
:10110000C504012363F38814C1F30A0161F3532476
:101110006FF31F5400232146314802F093FCB5467B
:101120004FF0FF324FF0FF33B91D30480AF090FC0A
:1011300009F080FC0546FB88A3F5006300EE103A39
:10114000B8EEC00ADFED2A7A20EE270AFFF7D2FEBA
:1011500009F070FC401BC308264AA2FB03235D086C
:10116000254A116801311160244A1268B2EB530F0D
:1011700001D2224B1D60224B1B68AB4201D9204B90
:101180001D6044F247239842CAD91E4A13680133AE
:101190001360134B1B6813F0070FC1D06E468AB063
:1011A00002AB13F1100295D01420002A95D084468A
:1011B000042803DDDFF850E0C3F814E0BCF1080FA9
:1011C00000DD9961BCF10C0F00DDDD61BCF1100F99
:1011D00083DD6421196280E76FF01B0180E700BFA7
:1011E000EC040020686401084064010860050020E8
:1011F0000000003A19866118881B0020801B00201F
:10120000B8000020841B00208C64010810B40A4C34
:101210002468046009480068086009490968116089
:10122000084A1268B2F1FF3F03D01A605DF8044B20
:1012300070470022F9E700BF881B0020841B0020B4
:10124000801B0020B800002010B582B0134B1B6833
:1012500013F0060F16D1114B1B6813F0060F17D1B0
:10126000FFF7AEFE0E4C00220E49204613F077FF2A
:1012700002220023CDE9002320460CF081F8002053
:1012800002B010BD084A022104480FF08AF8E2E7D4
:10129000064A022101480FF084F8E1E7EC0400203F
:1012A000F8080020B10F0008CC640108F4640108BC
:1012B00038B5836805699C697CB112F4000F06D0CB
:1012C0002D6801238B401D4201D082F0C062044B87
:1012D000134002F0B072A04738BD6FF05700FBE733
:1012E0004000000608B5144813F056FB58B9134BDC
:1012F0001B6813F0070F00D108BD114A01210F48E8
:101300000FF04FF8F8E74FF4D0110E480EF072F9D5
:101310000A4B1B6803F00703022B07D809480EF09D
:1013200091F94FF4FA600EF0A1F9F7E7064A0321AC
:1013300002480FF036F8F1E7A45B0108F80400203A
:101340004C650108F86601086465010808B50248A3
:101350000AF0D6FC08BD00BF9005002038B5002576
:1013600019E02B46134A032113480FF024F8134CBD
:1013700001220D2120460EF058F964200EF076F976
:1013800000220D2120460EF050F932200EF06EF9A9
:101390000B480AF025FD4FF0FF324FF0FF330848AD
:1013A0000AF0F6FC0135044B1B6803F00703022B1F
:1013B000DDD9D6E77C650108F8040020A45B0108AC
:1013C0009005002010B5FFF73FFF031E0ADB3548EC
:1013D00013F0E2FA10BB344B1B6813F0070F17D160
:1013E000002010BD304A126812F0070F0AD12E4BB0
:1013F0001B6813F0070FEAD02C4A01212A480EF08F
:10140000D0FFE4E72A4A012127480EF0D4FFEEE797
:10141000284A012124480EF0C4FFE1E7264C4FF48E
:10142000803120460EF0E6F84FF0B86120460EF00D
:10143000B1F82249224B4B6001238B6019480EF012
:101440000BF9194B1B6803F00703022B17D8164B37
:101450001B6803F00703022B17D8134B1B6803F01C
:101460000703022B17D8104B1B6803F00703022B4E
:10147000B6D9144A03210C480EF093FFB0E7124A84
:10148000032109480EF08DFFE1E7104A03210648C9
:101490000EF087FFE1E70E4A032103480EF081FFBB
:1014A000E1E700BF7C5C0108F8040020CC6501087E
:1014B0009C650108FC650108F0660108E01B00203E
:1014C0004D1300089C66010818660108346601087F
:1014D000686601082DE9F0472DED028B84B002AF5C
:1014E00013F02EFE002243182CD21344A64AA2FB6E
:1014F000034525F0030404EB95041B1BC01A61F19E
:1015000000014FF0CC3300FB03F302FB0133A0FBDF
:1015100002021344440844EAC3749C4B1B6803F062
:101520000703022B10D8994B1B6803F00703022B0B
:1015300065D996230093C823954A032193480EF05A
:1015400045FF5CE00122D0E7924A03218F480EF06C
:1015500028FFE8E701205DE06FF00040F4E0132889
:1015600040F3098114213AB10520387100207871C7
:10157000B871F871786818616FF300086FF341086B
:101580006FF382086FF3C508022363F38818C1F371
:101590000A0161F353286FF31F58002341467B482B
:1015A00002F050FAAD467C490A6801327B4BA3FB3E
:1015B00002031B09322000FB13230B60C834A20F67
:1015C000A3001B1942F10002DB18524153EA020149
:1015D00000F0D4801D4611466FF0010098426FF074
:1015E0000043934102D205466FF000416FF00100C5
:1015F000401B4FF0FF3363EB01010BF07BFA09F066
:1016000019FA0546644B1E6813F09AFD0346002044
:101610005A189FD20244DFF870C1ACFB02E020F000
:10162000030E0EEB900EA2EB0E029B1A61F100006E
:101630004FF0CC3103FB01F10CFB0011A3FB0C328A
:1016400011445B0843EAC1735549320101EB0619A5
:101650008B50544A1368591C1160C9F80C3004218E
:10166000781811F011FA7A68DFF860A1AAFB02136A
:101670009B094FF47A7101FB132307EE903AF8EEC1
:10168000677A9FED498A87EE887AF3EE097A77EEDA
:10169000277AB1EE047A77EEC77AC9ED017A042190
:1016A000781811F0F1F97A68AAFB02131B0A4FF4BB
:1016B0007A6101FB132307EE903AF8EE677A87EE22
:1016C000887ADFED3A7A77EE277AB3EE047A77EE0E
:1016D000C77AC9ED027A0421781811F0D5F97B6830
:1016E0005809334AA2FB0020C009324A02FB1030DD
:1016F0000BF042FA09F09EF9401BC3082E4AA2FBE8
:10170000032359082D4A1268B2EB530F01D22B4B19
:1017100019602B4B98427FF646AF2A4A1368013373
:1017200013601A4B1B6813F0060F3FF43CAF1C4BC1
:1017300003EB0613D3F80CC06D468AB002AB13F16D
:1017400010023FF409AF1420002A3FF408AF064608
:10175000042803DDDFF878E0C3F814E0082E01DD8B
:10176000C3F818C00C2E00DDD961102E7FF7F7AE3C
:1017700015491962F3E66FF01B01F4E66FF0010002
:101780004FF0FF3139E700BFCDCCCCCC04050020B1
:101790002867010800670108F81B00201F85EB512E
:1017A000FC1B0020F41B00200000C8420000704217
:1017B000C55A7C0AA086010019866118EC1B00201E
:1017C00027868001F01B0020F0490200D34D6210F3
:1017D00048670108044B1B680360044B1B680B60DF
:1017E000034B1B6813607047F41B0020F01B0020A4
:1017F000EC1B0020094B1B686BB1094B1A68313296
:10180000084BA3FB02131B09322101FB13230648DB
:1018100000EB031070470020704700BFF41B00204E
:10182000F81B00201F85EB51FC1B0020F0B5154B69
:101830001C68322C28BF32240CB306460D464FF0EC
:10184000000EF446A6451BDAAC4519DA0E4B1A68B1
:10185000A2EB0E0231320D4BA3FB02131B09322106
:1018600001FB132306EB0C17094A02EB03130FCB02
:1018700087E80F000EF1010E0CF1010CE2E7A4461F
:101880006046F0BDF41B0020F81B00201F85EB51C3
:10189000FC1B002030B585B0044601AA02A903A8AC
:1018A0000DF06FFE294920460FF0A1FD2849204682
:1018B0000FF09DFD274920460FF099FD039A264918
:1018C00020460FF094FD029A244920460FF08FFD28
:1018D000234A039BB2FBF3F2224920460FF087FD17
:1018E000019A214920460FF082FD204920460FF041
:1018F0007EFD1F4D294620460FF079FD1D492046EB
:101900000FF075FD019A1C4920460FF070FD1B4930
:1019100020460FF06CFD1A4920460FF068FD19496A
:1019200020460FF064FD184920460FF060FD29465F
:1019300020460FF05CFD154920460FF058FD144974
:1019400020460FF054FD002005B030BD9867010817
:10195000C8670108F46701080068010824680108E5
:1019600040420F004068010860680108786801087B
:10197000F475010890680108B4680108D46801088A
:10198000F8680108206901084469010870690108C4
:101990008469010830B52DED028B89B004463F49BA
:1019A0000FF025FD05AA06A907A80DF0EAFD01AB79
:1019B00002AA03A904A8FFF729FC059A3849204682
:1019C0000FF015FD019A374920460FF010FD029ADD
:1019D000354920460FF00BFD049B23B9002009B0C8
:1019E000BDEC028B30BD029D019BED1A2A462F49AA
:1019F00020460FF0FCFC029B059AD31A07EE903AA2
:101A0000F8EE677A07EE102AB8EE477A87EE878AF3
:101A1000DFED277A28EE278A18EE100AFEF72CFD54
:101A200002460B46234920460FF0E1FC224920469E
:101A30000FF0DDFC214920460FF0D9FC092D18D903
:101A40001D2D1BD81E4920460FF0D1FCF3EE047A61
:101A5000B4EEE78AF1EE10FA15DCF2EE047AB4EE99
:101A6000E78AF1EE10FA13DD164920460FF0BFFCAD
:101A7000B4E7154920460FF0BAFCE7E713492046C2
:101A80000FF0B5FCE2E7124920460FF0B0FCA5E7E5
:101A9000104920460FF0ABFCA0E700BFA469010885
:101AA000D0690108F0690108086A0108206A010884
:101AB0000000C842306A0108F47501084C6A010848
:101AC000886A0108EC6A0108686A0108A06A0108CE
:101AD000D06A01080C6B010830B585B004466B462E
:101AE00001AA02A903A8FFF791FB2D4920460FF098
:101AF0007EFC039A2B4920460FF079FC029A2A4972
:101B000020460FF074FC294920460FF070FC009A23
:101B1000274920460FF06BFC019A264920460FF01A
:101B200066FC039B13B9002005B030BDDDED027AE1
:101B3000B8EE677A07EE903AF8EE677AC7EE276A52
:101B4000DFED1D7A66EEA77A17EE900AFEF794FC99
:101B500002460B46194920460FF049FC029AB2B9D9
:101B6000174920460FF043FC019B002BDBD0009D62
:101B7000002DD8D05D1B2A46124920460FF037FCB5
:101B8000142DD0D9104920460FF031FCCBE70F4976
:101B900020460FF02CFC0E4920460FF028FCE3E70E
:101BA0003C6B0108686B0108806B0108986B0108A9
:101BB000B06B0108C46B01080000C842D86B010873
:101BC000F06B0108206A0108A06C0108246C010870
:101BD000606C0108F0B58DB007465D490FF007FC59
:101BE0005C4938460FF003FC5B4938460FF0FFFBB9
:101BF00013F0A6FA03460A460020591819D20144E8
:101C00005648A0FB014525F0030404EB9504091B8D
:101C10005B1A62F100014FF0CC3203FB02F200FBD1
:101C20000122A3FB003002445E0846EAC27600258A
:101C300021E00120E3E707EE904AB8EEE70ADFED86
:101C4000487A20EE270A0CF051FFDDED037A30EEE2
:101C5000270A8DED030A0134B4F57A7FEBDB0135F9
:101C6000404BA3FB05235B09642202FB135343B3E0
:101C70000A200DF00BFD13F063FA0022431831D255
:101C80001344364CA4FB032C2CF0030202EB9C0201
:101C90009B1AC01A61F100014FF0CC3200FB02F236
:101CA00004FB0122A0FB04031A44430843EAC27365
:101CB0009B1B47F22F52934216D800230393002414
:101CC000CAE707AB06AA05A904A8FFF79FFA069B77
:101CD0000193059B0093049B2A46234938460FF045
:101CE00086FBC5E70122CBE7204938460FF07FFB92
:101CF00008AB09AA0AA90BA8FFF788FA1C493846BD
:101D00000FF075FB1B4938460FF071FB2A461A4944
:101D100038460FF06CFB0B9A184938460FF067FBFA
:101D20000A9A174938460FF062FB0A9B33B91549E6
:101D300038460FF05CFB00200DB0F0BD124938466C
:101D40000FF055FB114938460FF051FBF3E700BF88
:101D5000DC6C0108046D0108346D0108CDCCCCCCDD
:101D6000CDCCCC3D1F85EB51786D0108A86D0108E5
:101D7000F4750108C46D0108EC6D0108086E0108D6
:101D8000806B0108246E01085C6E0108906E0108EA
:101D90002DE9F0438FB00546012938D9506813F07A
:101DA00018FC0646431F372B2AD832469949284645
:101DB0000FF01DFB984928460FF019FB13F0C0F9EE
:101DC0000022431825D21344944AA2FB034727F06C
:101DD000030404EB97041B1B4FF00008C01A61F1C9
:101DE00000014FF0CC3300FB03F302FB0133A0FBF7
:101DF00002421344640844EAC3742746C14634E0EF
:101E0000874928460FF011FB6FF01500F8E00A260D
:101E1000CBE70122D7E7012252E001227FE013F055
:101E20008FF90022431880F0B0801344DFF8ECC132
:101E3000ACFB034222F0030404EB92041B1BC01A08
:101E400061F100024FF0CC3100FB01F10CFB0211FB
:101E5000A0FB0C031944440844EAC174DDF818805F
:101E6000DDF81C9064200DF011FC13F069F90022DC
:101E7000431880F08C801344684AA2FB03CE2EF0F6
:101E8000030C0CEB9E0CA3EB0C03C01A61F10003D6
:101E90004FF0CC3100FB01F102FB0311A0FB020269
:101EA0001144400840EAC170C01B4FF47A7306FB2E
:101EB00003F398426DD213F043F900224318AAD2DB
:101EC0001344564AA2FB03CE2EF0030C0CEB9E0CDF
:101ED000A3EB0C03C01A61F100034FF0CC3100FBFF
:101EE00001F102FB0311A0FB02031944400840EA80
:101EF000C170001BB0F57A7FB4D309AB08AA07A95B
:101F000006A8FFF783F9069CA4EB0804079BA3EB44
:101F1000090913F015F900224318BFF47EAF1344EA
:101F2000DFF8F8C0ACFB03E222F0030E0EEB920EDA
:101F3000A3EB0E03C01A61F100024FF0CC3100FB9D
:101F400001F10CFB0211A0FB0C031944420842EA08
:101F5000C172D21B334BA3FB0232099B0493089B33
:101F60000393CDF80890079B01930094069B920978
:101F70002D4928460FF03BFAB9F1000F3FF44FAF5F
:101F80002A4928460FF033FA49E701224DE701229A
:101F900071E7274928460FF02AFA0AAB0BAA0CA9C9
:101FA0000DA8FFF733F9234928460FF020FA2249FC
:101FB00028460FF01CFA0D9A204928460FF017FA10
:101FC0000C9A1F4928460FF012FA0D98FEF732FAC4
:101FD000804689463046FEF73DFA02460B464046AB
:101FE0004946FEF7CBFB02460B46164928460FF042
:101FF000FEF90C9B3BB9144928460FF0F8F9002074
:102000000FB0BDE8F083114928460FF0F0F9002029
:10201000F6E700BFF06E0108246F0108CDCCCCCCF0
:10202000C46E0108D34D62104C6F0108906F010817
:10203000C06F0108F4750108DC6F0108086E010823
:10204000806B0108F86F01081C70010854700108CA
:1020500010B504461A490FF0CAF91A4920460FF084
:10206000C6F9194920460FF0C2F9184920460FF069
:10207000BEF9174920460FF0BAF9164920460FF06D
:10208000B6F9154920460FF0B2F9144920460FF071
:10209000AEF9134920460FF0AAF9124920460FF075
:1020A000A6F9114920460FF0A2F9104920460FF079
:1020B0009EF90F4920460FF09AF9002010BD00BF8D
:1020C000287201085872010880720108987201088C
:1020D000BC720108D4720108EC7201080473010893
:1020E00020730108387301085C73010888730108C4
:1020F000B073010810B52DED028B84B0044601AA1F
:1021000002A903A8FFF766FB274920460FF06FF9E5
:10211000039A264920460FF06AF9029A244920467C
:102120000FF065F9019A234920460FF060F9039BEF
:1021300023B9002004B0BDEC028B10BDDDED027AA6
:10214000B8EE677A07EE903AF8EE677A87EE278A5C
:10215000DFED197A28EE278A18EE100AFEF78CF9BF
:1021600002460B46154920460FF041F9F1EE047A7C
:10217000B4EEE78AF1EE10FA0BD4F2EE0E7AB4EE7A
:10218000E78AF1EE10FA09D50D4920460FF02FF934
:10219000CFE70C4920460FF02AF9CAE70A49204642
:1021A0000FF025F9C5E700BFD473010804740108D6
:1021B000806B01081C7401080000C8423C740108CF
:1021C0007874010854740108987401082DE9F04FDF
:1021D0008DB08046012936D9506813F0FAF90546CA
:1021E000431F372B28D82A467D4940460FF0FFF879
:1021F0007C4940460FF0FBF812F0A2FF0022431882
:1022000023D21344784AA2FB034626F0030404EBCE
:1022100096041B1BC01A61F100014FF0CC3300FB88
:1022200003F302FB0133A0FB02421344640844EAB7
:10223000C374264600273FE06C4940460FF0F5F88E
:102240006FF01500C8E00F25CDE70122D9E7012284
:102250005EE0012289E000200021CDE90401CDF8F3
:1022600008B0CDF804A000974B462246604940468E
:102270000FF0BDF812F064FF0022431880F0A38035
:102280001344594FA7FB034222F0030404EB9204CA
:102290001B1BC01A61F100024FF0CC3100FB01F1B1
:1022A00007FB0211A0FB07031944440844EAC17468
:1022B000099F64200DF0FAF912F042FF0022431842
:1022C00080F083801344DFF820C1ACFB03E222F0EE
:1022D000030E0EEB920EA3EB0E03C01A61F1000287
:1022E0004FF0CC3100FB01F10CFB0211A0FB0C0301
:1022F0001944400840EAC170801B4FF47A7305FB13
:1023000003F3984263D212F01BFF002243189ED2BF
:102310001344DFF8D4C0ACFB03E222F0030E0EEB53
:10232000920EA3EB0E03C01A61F100024FF0CC3104
:1023300000FB01F10CFB0211A0FB0C031944400847
:1023400040EAC170001B40F6B7339842B1D90BAADE
:102350000AA909A8FFF73EFAFFF74CFA079012F016
:10236000EFFE00224318BFF474AF13441E4CA4FBCD
:1023700003C222F0030C0CEB920CA3EB0C03C01A6B
:1023800061F100024FF0CC3100FB01F104FB0211BE
:10239000A0FB04031944400840EAC170841B154B9C
:1023A000A3FB0434A409DDF82490A9EB0707DDF8AA
:1023B00028A0DDF82CB0079B002B3FF44CAF5868E9
:1023C000FEF75AF849E701225AE701227AE70A495B
:1023D00040460FF00CF800200DB0BDE8F08F00BFB4
:1023E000BC740108F0740108CDCCCCCCC46E0108DB
:1023F0002C750108D34D6210C06F010870B50446FA
:10240000FFF7F8F9002846D00546264920460EF089
:10241000EEFFEA68244920460EF0E9FF2A682349C6
:1024200020460EF0E4FF6868FEF726F802460B46E9
:102430001F4920460EF0DBFFA868FEF71DF8024694
:102440000B461C4920460EF0D2FF12F079FE0246E0
:102450000020531824D20344174EA6FB030C2CF083
:10246000030000EB9C001B1AD21A61F100004FF030
:10247000CC3102FB01F106FB0011A2FB062319443B
:10248000520842EAC1722B68D21A0C4920460EF05B
:10249000AEFF002070BD0A4920460EF0A8FFF8E705
:1024A0000120D8E790750108A8750108B8750108E2
:1024B000CC750108E4750108CDCCCCCCF8750108C9
:1024C0006C7501082DE9F047D6B0074601293FD9C0
:1024D000506813F07EF80146431E132B31D806A82E
:1024E000FFF7A4F98046A8B30246304938460EF0FB
:1024F0007EFF2F4938460EF07AFF2E4938460EF0FF
:1025000076FF12F01DFE034600205A1827D202441F
:102510002948A0FB024525F0030404EB9504121B97
:102520009B1A61F100014FF0CC3203FB02F200FB79
:102530000122A3FB00310A445D0845EAC27500246C
:102540002BE01E4938460EF070FF6FF0150828E0AA
:102550000521C4E71A4938460EF049FF21E0012061
:10256000D5E706AA210102EB04135658D3F804A0BC
:10257000D3F80C90AA1B04929868FDF77DFFCDE973
:1025800002015046FDF778FFCDE9000133464A4687
:102590000C4938460EF02BFF01344445E1DB4FF087
:1025A0000008404656B0BDE8F08700BF50760108ED
:1025B0007C760108B4760108CDCCCCCC0876010835
:1025C00034760108E876010810B5044604490EF097
:1025D0000EFF044920460EF00AFF002010BD00BF88
:1025E000407801086478010808B504490EF0FFFE40
:1025F000002000F061FE002008BD00BF9C780108AB
:1026000010B5044619490EF0F2FE194920460EF0A5
:10261000EEFE184920460EF0EAFE12F091FD024649
:10262000002053181FD203441348A0FB03CE2EF002
:10263000030C0CEB9E0CA3EB0C03D21A61F100010E
:102640004FF0CC3302FB03F300FB0133A2FB00206D
:102650000344520842EAC3725B08084920460EF060
:10266000C6FE002010BD0120DDE700BFC0780108D4
:10267000D4780108F0780108CDCCCCCC04790108DD
:1026800010B504461D490EF0B2FE1D4A1D492046F4
:102690000EF0ADFE42F210721B4920460EF0A7FE6E
:1026A00012F04EFD02460020531825D2034417486D
:1026B000A0FB03CE2EF0030C0CEB9E0CA3EB0C0343
:1026C000D21A61F100014FF0CC3302FB03F300FB9F
:1026D0000133A2FB00200344520842EAC3725B08A4
:1026E0000B4920460EF083FE4FF4804209492046F4
:1026F0000EF07DFE002010BD0120D7E71C790108F7
:102700003C7901084879010860790108CDCCCCCC2E
:102710007C7901089079010810B5044604490EF04F
:1027200066FE2146034812F092FC002010BD00BF57
:10273000B07901083927000870B505460C4612F03B
:10274000ACFA064648B1284612F0A4FA03463246CF
:10275000034920460EF04BFE70BD024EF3E700BF6A
:10276000DC790108D07901082DE9F04F91B005928C
:102770000293134602F004020092C3F3C20310F066
:102780000302019240F02A8280468A460133041DEA
:1027900000284ED0B8F1000F05D0A4EB0802043297
:1027A000524500F21E82029A551E019A0492069228
:1027B000039200264FF0FF3B0427B946B8F1000F03
:1027C00001D0029A22605A1E0792002B40F35C81CE
:1027D000059B13F0020228D00120A4EB08018B080E
:1027E0001AB1B1F5007F80F0028203990F2900F23F
:1027F0000182B8F1000F00F05F81DBB201F140020D
:102800006A4402F8103C02F820BC002800F0508115
:1028100063F07F0301F140026A4402F8103C049B1C
:1028200001330493039B0133039304340021404696
:102830003DE001F0070A5444CAF1080AAAE700265D
:1028400034E0002632E0002630E00827B9462DE0CB
:10285000252B2BD10BF1010B01260427B94625E0CE
:10286000472BEED82A2B14D32A3BDBB24FF0010CB6
:102870000CFA03F34FF6DA7C13EA0C0F16D113F0BF
:10288000625F40F0C18013F0010F40F08D800026A0
:102890000CE0252B03D10BF1FF3B002606E001D90C
:1028A000002603E0202B01D0232BCCD115466A1C37
:1028B0006B78002B00F01981002EC9D07A2BBED87E
:1028C0004C2BCDD34C3B2E2B62D80FF2080C5CF86E
:1028D00023F000BFAD2800089129000891290008C5
:1028E00091290008912900089129000891290008E0
:1028F00091290008912900089129000891290008D0
:1029000091290008A12900089129000891290008AF
:1029100091290008912900089129000891290008AF
:102920009129000891290008092A00089129000826
:10293000A1290008A1290008092A0008092A00087D
:10294000092A0008AD280008A12900084B28000822
:1029500091290008AD28000891290008652A00087F
:10296000A1290008652A000891290008912900087A
:102970006D2A00089B290008A12900089129000858
:1029800091290008A129000891290008952900082B
:1029900000268BE70427B94688E70427B94685E770
:1029A0002B786C2B24D000263C44013CB4FBF7F47C
:1029B00007FB04F420B1231A4B44534500F2148161
:1029C000002958D1B9F1040F00F08780B9F1080F40
:1029D00040F013811A9B073323F0070303F1080526
:1029E0001A9593ED007B08B184ED007B08345DE718
:1029F00012F8023C6C2B03D000260427B946D3E71B
:102A000000260827B946CFE72B784C2B1AD01A9B03
:102A1000073323F0070303F108061A96D3E900678A
:102A2000073424F0070440B1231A0833534513D860
:102A30002B784C2B13D0C4E90067083400260827F4
:102A4000B94633E71A9B073323F0070303F108065F
:102A50001A96D3E90067E3E76FF01B00BBE0C4E917
:102A60000067EAE700260427B9469DE731460026BD
:102A70000427B94698E780461A9B191D1A911B68CE
:102A80000293079B154699E6624B029A9A4204D339
:102A9000614B9A420AD3002300E00023002B7FF40D
:102AA00097AE059B03F00202002096E60123F5E7AE
:102AB000069B01330693B5E610B10AF1010AB1E6AF
:102AC000009B13B10AF1020AACE60298FDF7BAFFC7
:102AD0000AEB000303F1020AA4E61A9B1D1D1A95D6
:102AE0001B6800B123600434E0E68046231AB3F586
:102AF000806F80F0858090B1002202609B08037097
:102B0000009B83B1069BC370049B88F802301BBBFB
:102B1000019DDDF80C90DDF810B0029F3DE05344BC
:102B2000A3F1080057E0069B4370EDE7013398429C
:102B3000EED903F140026A4412F8101C12F9102C6D
:102B4000002AF3DA01F07F01A4EB080201325245BA
:102B500059D804F8011BE9E7019B0398E7E7009BBC
:102B600043B305F140036B4413F8203C04F8013BE8
:102B7000019EA4EB080333440133534546D805F1C5
:102B800040036B4413F8103C04F8013B32463946CD
:102B9000204612F0E8FC34440135A94519D9BBF1AF
:102BA000000FDCD005F140036B4413F9103C002BFF
:102BB000D5DAF1E705F140036B4413F8103C58F8FF
:102BC0002370002248F823203846FDF73BFF461CBF
:102BD000CFE7A4EB080011B0BDE8F08F6FF00D0057
:102BE000F9E76FF01B00F6E76FF01B00F3E76FF0FB
:102BF0001500F0E76FF01500EDE76FF01500EAE75C
:102C00006FF01500E7E76FF01B00E4E76FF01B00C3
:102C1000E1E700BF405A0108A8AD01082DE9F04FD7
:102C200097B000AF8346BA61FB60D7F88030C3F33A
:102C3000C0033B62396111B90CF0CBFD38619BF8E0
:102C40000260B14636B1D7F8803013F0010F0DD1D4
:102C5000002300E000239BF803207A6242B1D7F8FA
:102C6000802012F0020F22D1002202E00123F2E7BD
:102C7000002202B9EBB19BF80050AA00BA60DBF861
:102C800004207A610BEB8505BA69F2B1002B40F0A4
:102C90000581B9F1000F00F01081D7F8803013F0F2
:102CA000040F40F00E810020F8610646FAE0012290
:102CB000DFE7BB691BB1FA683969584698473C6938
:102CC00020465C37BD46BDE8F08F3C6953BB4D44A0
:102CD0004FF00008D7F8803003F00503FB604FF099
:102CE000000AC7F81080A046C7F81CB0D7F804B097
:102CF000BEE00444013501364E45EBD22A7800236C
:102D00005BF822201946B8690CF078FDBAF1000F83
:102D1000EFD0D7F888309845EBD22AF8180008F1A0
:102D20000108E6E70026B046D7F884A0E4E70025CE
:102D30003B6A7BB9002D7DD0D7F8803013F0010FAE
:102D40007DD1FB68002B73D10223A8EB03088CE034
:102D50000125EDE7494678690CF096FD0028E9D099
:102D6000B94B1B6813F0060F40D06C46002387F860
:102D70002C30022387F82D308AB0694611F11002F9
:102D800037D012251AB1042D01DDB04B4B61002361
:102D900087F82830022387F829306ABB112D44DDDB
:102DA000122362B1042087F82C00002087F82D0040
:102DB00087F82E00012087F82F00F86A08616FF36A
:102DC000000B6FF3410B6FF3820B6FF3C50B022106
:102DD00061F3881BC3F30A0363F3532B6FF31F5B89
:102DE00000235946984800F02DFEA546A8F1020898
:102DF0003BE06FF00045C5E72B46082D01DD786903
:102E000088610C2B01DDC1F81C9001F1200300202A
:102E10000128C3D800F1300C07F1280EF4441CF847
:102E200030CC03F801CB0130F2E76FF01B03B8E7B9
:102E300001238AE7D7F8803013F0020F15D0002362
:102E400022461946B8690CF0D9FCD7F8843053B142
:102E50003B69D7F88820934205D2D7F8842022F81E
:102E6000130001333B61013880440AF1010A354601
:102E70007B6A9A4510D22E4616F8029B6B78FA6947
:102E800052F82340724B9C42FFF451AF714B9C426D
:102E9000FFF45EAF00254BE7444611E707F144001D
:102EA0000023FB6118B14A46294612F05CFB4D44F1
:102EB0004FF00008C7F804901EE00020F8610646B5
:102EC000F0E7FE6107F134000026EBE700253B6ADE
:102ED00033BB002D3BD0D7F8803013F0010F26D044
:102EE000731C06F1300207F12801561806F8149CED
:102EF000DEB208F1010825467B6A984549D22C4686
:102F000014F802AB95F801905BF82930504A9342CF
:102F1000DCD3504A934201D30025D8E70125D6E7F8
:102F2000514678690CF0B0FC0028D2D0E1E7D7F820
:102F3000803013F0040FDCD0FA69531C303207F1F3
:102F400028010A4402F8249CDBB2FB61D1E7D7F8E0
:102F5000803013F0020F09D0731C06F1300207F124
:102F60002801561806F8149CDEB2C2E7F9694B1C1A
:102F700001F1300207F12800024402F824AC8A1C57
:102F8000D2B2FA6107F1580252FA83F303F8249C93
:102F9000AFE7D7F804909BF8003087F854309BF8DF
:102FA0000130334487F85530D7F8803013F0020FE2
:102FB0000ED1FB69C3F3470387F85730D7F8803049
:102FC00013F0010F06D113F0040F3AD1002302E0F1
:102FD0000023F1E7002387F85630DBF80000386360
:102FE000786DCBF80000D7F80CA05246B968584667
:102FF000BB699847041EFFF663AE386BCBF8000040
:103000005246F96907F13400BB69984700285DDB37
:1030100004EB0008B9684944786A01EB4001524664
:103020003869411A2846BB699847041EFFF648AE26
:1030300008EB04054FF00008C7F824B0B346BC699C
:1030400022E0FB69C7E700BFE4040020587B0108C9
:10305000405A0108A8AD01084FF0000901E04FF007
:1030600000095246012107F12C00A04700282FDB60
:1030700005444B463246514620460CF0BFFB002823
:1030800028DB054408F10108D84518D208F13003BF
:1030900007F12802134413F8143C87F82C307A6A9D
:1030A00052F82360D7F88430002BD5D0D7F8883079
:1030B0009845D4D2D7F8843033F81890D1E7FA681D
:1030C00000210846BB6998472C46F9E50446F7E518
:1030D0000446F5E50446F3E5014B1860704700BF70
:1030E000BC00002080B505460E461746984609F0FC
:1030F0009DFD034612F09AFC0446DFF8189049F84B
:103100000030424639463046A84754F8090005F0D9
:10311000E9FC00BF08000000034A536843F00203C3
:1031200053600020704700BF002004E0084B1A687D
:1031300042F480721A601A6842F400721A601A68C7
:1031400042F480621A60034B034A1A60704700BF62
:10315000003C0240900100200024F40010B584B02F
:1031600004468368642103FB01F14268B1FBF2F17C
:10317000C068029001910092D21A216805480CF0B3
:10318000B0FBD4E90623044904480CF0AAFB04B0C0
:1031900010BD00BF247C0108007E0108647C01088A
:1031A000F0B595B00446D0F8B0700E6811F075FD1A
:1031B00010B10546037833B92346204A0B2101A8F4
:1031C0000AF08CFA01AD6946204611F0A8FD0246CE
:1031D00060BB04950597009BFF1A069708A9204637
:1031E00011F0AAFD044600B101240EA811F0B1FDB2
:1031F00000B10134B4B9089A099C931844EB040057
:103200009B1844EB0000410141EAD3615D015B1969
:1032100040EB01019818DDE90E2344EB0101FDF7B5
:10322000E5FB079004A8B04715B0F0BD2946044857
:103230000CF057FB00230093CBE700BF8C7C010808
:10324000907C010810B586B0044600EB00130F48CF
:1032500000EBC31005AA4FF40061803011F04DFD62
:1032600008B106B010BD059BC3F50061642201FBE7
:1032700002F2D20A02924FF40062019200912246B9
:10328000034904480CF02DFBEBE700BF0061002070
:10329000B87C0108BC7C010800B583B000900191A6
:1032A0006946044811F0DDFE0CF0EEFE03B05DF857
:1032B00004FB00BFA131000810B5044603480CF020
:1032C00010FB21460248FFF7E7FF10BDF47C010820
:1032D0005D31000870B506460D46084C04E02A46EC
:1032E0003146204698471034054B9C4204D223684F
:1032F0009B69002BF3D1F6E770BD00BF905F01081A
:10330000A05F010808B511F01BFF0022431819D275
:1033100013440D4AA2FB03CE2EF0030C0CEB9E0CC3
:10332000A3EB0C03C01A61F100014FF0CC3300FB9A
:1033300003F302FB0133A0FB02021344400840EAFE
:10334000C37008BD0122E3E7CDCCCCCC2DE9F04120
:10335000074605460AE007EA0807144B03EB061385
:103360005B680422196820460CF092FFD5B195FAEB
:10337000A5F6B6FA86F60D4C04EB06140123B3400D
:103380006FEA030825EA0305237B002BEED0330107
:10339000064AD3581B69002BDDD0204698470028E9
:1033A000E4D1D8E73846BDE8F08100BF905F01085E
:1033B0002DE9F04180460F461F4BBFF35B8F53E86A
:1033C000005F6A1C43E800210029F8D1BFF35B8F3E
:1033D0006DBB1A4C002607E063680422196820467A
:1033E0000CF056FF01361034154B9C4211D2237B52
:1033F000002BF7D020460CF060FE23681B69002BE1
:10340000EAD0204698470028E6D00123B3401D4368
:10341000E8E7B8F1000F0BD055B12846FFF796FF4B
:103420000546002FF8D00A200CF053FEF4E70025E3
:103430002846BDE8F08100BF301F0020905F0108E2
:10344000A05F010808B5064B186018B1054B1B6852
:10345000092B00DC08BD044808F052FCFAE700BF65
:10346000241F00202C1F0020A805002008B50248BA
:1034700008F046FC08BD00BFA805002038B5054689
:103480000B4C00E010340B4B9C420FD263685B790D
:10349000002BF7D0294620460CF02BFE0028F1D057
:1034A00023681B68294620469847EBE738BD00BFD4
:1034B000905F0108A05F010830B589B000220F4974
:1034C0000F4811F04CFE0F4D00220023CDE90623DA
:1034D000002404940E2303930294019400940A4B55
:1034E0004FF440720949284611F0E5FB0849284687
:1034F00008F0D8FD204609B030BD00BF6D3400088B
:1035000078110020600C00209138000880500020C5
:10351000187D010848B108B5054A1060054B1960CF
:10352000084600F08FFD002008BD6FF015007047C1
:10353000C0000020201F002008B5054B1B781BB1E0
:10354000034B01221A7008BD024808F0D9FBF7E7C7
:10355000A0390020A805002008B5104BBFF35B8FF1
:1035600053E8001F013143E80012002AF8D1BFF3ED
:103570005B8F30B90A4811F0FEFD0A4808F0C0FB25
:1035800008BD094BBFF35B8F53E8001F013943E8C7
:103590000012002AF8D1BFF35B8FEBE7281F002051
:1035A00078110020A80500202C1F0020064B0020C9
:1035B0000146BFF35B8F53E8000F43E80012002A77
:1035C000F9D1BFF35B8F7047281F002038B5FFF794
:1035D000EDFF0546094C00E01034094B9C420BD22C
:1035E00063685B79002BF7D023685B68002BF3D00E
:1035F000294620469847EFE738BD00BF905F010895
:10360000A05F0108034B18680028D4BF00200120E8
:10361000704700BF281F002010B5044C0449204605
:103620000CF0C7FA034B1C6010BD00BFA0040020C3
:10363000207D01081C1F002008B500230D4A1370CF
:103640000D4A13600D4A13604FF47A710C48FFF76E
:1036500061FFFFF7E1FF00F085F90A4A06E0094B38
:10366000D31A1B11013351680B711032064B9A4269
:10367000F5D308BDA1390020281F00202C1F0020F1
:1036800005330008905F0108A05F010808B50146F6
:1036900001480CF050FD08BDA004002008B5024808
:1036A0000CF06AFB08BD00BFA004002008B501466D
:1036B000024B18680CF045FD08BD00BF1C1F002020
:1036C00008B502480CF041FD08BD00BFA004002071
:1036D00010B582B000220023CDE900232C4B1878CE
:1036E00008B902B010BD68460CF047FD044680B131
:1036F000FFF7C4FE2046FFF7D9FF264BBFF35B8FD1
:1037000053E8001F013943E80012002AF8D1BFF343
:103710005B8FFFF777FF58B91F4A1368516813F59D
:103720007A7341F1000113605160FFF7C9FFD8E7D8
:1037300011F006FD0022431827D21344174AA2FBBA
:10374000034C2CF0030404EB9C041B1BC01A61F116
:1037500000014FF0CC3300FB03F302FB0133A0FB6D
:1037600002021344400840EAC3705B080A490A6831
:103770004968801A63EB010340F2E932904273F129
:103780000003C9D3FFF722FFC6E70122D5E700BF38
:10379000A03900202C1F002070110020CDCCCCCCF3
:1037A0000F4B1B7803B1704710B500210120FFF7C4
:1037B000FFFD0C4C00E010340B4B9C4208D26368B8
:1037C0005B79002BF7D023689B6820469847F2E787
:1037D000FFF77EFF0028FBD1014B01221A7010BDBC
:1037E000A1390020905F0108A05F010810B582B0E8
:1037F0001A4BBFF35B8F53E8002F511C43E80010B6
:103800000028F8D1BFF35B8F154B1B7863B9154BBC
:103810001B68B3B1BAB1092A13D1134811F0ABFC3C
:10382000124808F06DFA0CE0EFF31184102383F3D3
:103830001288BFF36F8FFFF74BFF84F31188BFF33C
:103840006F8F02B010BD00220023CDE9002342F2A9
:1038500010720023044809F093FDF2E72C1F0020AA
:10386000A1390020241F002078110020A805002085
:1038700010B50446044B1B689847A06021460348D6
:103880000CF07FFC10BD00BFC0000020A004002091
:103890002DE9F04100210846FFF78AFD804650B12E
:1038A0004FF4FA76002712F0C1F8154B1858FFF7BD
:1038B000C9FD002515E04FF0FF364FF0FF37F2E766
:1038C0004046FFF743FD804670B94FF0FF364FF09A
:1038D000FF3709E02C4632463B460A4808F058FAC2
:1038E0002546B8F1000FEBD1FFF7F2FE04460028A1
:1038F000F6D1002DEED000210846FFF7EBFCEAE7F9
:1039000008000000A8050020014800EB8100704776
:10391000E40400200248034BC01AC008704700BFEF
:10392000905F0108E85E010810B50C46FFF7F2FF52
:10393000A04203D9024B53F8340010BD0020FCE72D
:10394000E85E010810B50C46FFF7E4FFA04204D979
:10395000034B03EBC403187910BD0020FCE700BF44
:10396000E85E010810B500240EE021460020FFF7B4
:10397000E9FF094A52F8243023F0070300F007005A
:10398000184342F824000134044B054A9B1AB4EB57
:10399000D30FEAD310BD00BFE4040020905F0108FC
:1039A000E85E01082DE9F8430D46164698460028C2
:1039B00012DBC4B2002320460CF01BFC074610B1FA
:1039C000404500D947463B463246E9B220460CF016
:1039D000F2FB3846BDE8F8830C4B0D4AA3EB020915
:1039E0004FEA1919002427460DE0094B03EB041395
:1039F00058684346324629460079FFF7D3FF87428D
:103A000038BF074601344C45EFD3E2E7A05F010819
:103A1000905F010800B589B00592069300230793D3
:103A200062B1074A0C9B02930B9B01930A9B009384
:103A300005ABFFF7F3F809B05DF804FB0022F1E7EE
:103A4000E10201082DE9F04F8BB004AF05461E4698
:103A50008846C1F34A24002C00F08F809146002252
:103A6000FA603A617A6104230293FB1801930A23F6
:103A7000009307F10C0321464846FFF7CFF8B0F555
:103A8000006F5ED3464B1B6813F0060F00F0848076
:103A9000D9F804106D4600233B7302237B738AB070
:103AA00004AC14F1100221D012201AB1042801DD57
:103AB0003C4B636100233B7002237B70CAB1034619
:103AC000082800DDA1610C2B02DD40F2FF73E361E9
:103AD00004F12003002101290BD801F118063E440E
:103AE00016F8186C03F8016B0131F4E76FF0004031
:103AF000DBE7112822DD122342B1042139730021B2
:103B00007973B9730121F973F868206100216FF3AB
:103B100000016FF341016FF382016FF3C5010220D1
:103B200060F38811C3F30A0363F353210023C1F345
:103B300013011B480CF057FCAD462DE06FF01B0342
:103B4000DAE760F35328C0F30A0A0AEB185017307B
:103B500020F007008008FFF799FD8346B0B10423E9
:103B60000293FB1801930A230093534600F11002BD
:103B700021464846FFF74EFF08E004EB1154173486
:103B800024F00704A008FFF781FD83463346424630
:103B9000294658460CF0BDFB1C37BD46BDE8F08FEA
:103BA000F0040020447D01082DE9F04F85B08046E7
:103BB0000D4617461E46DDF838B0DDF84090B9F1E5
:103BC000000F46D0119B039300934B460F9A102190
:103BD0000020FEF7C9FDB0F5006F2DD282460BEB39
:103BE0000003173323F0070300246FF300046FF37F
:103BF00041046FF3820468F3C50467F3881460F32B
:103C000053246BF31F549808FFF740FD074650B14B
:103C10001030B9F1000F06D0119B00934B460F9A5C
:103C20005146FEF7A1FD33462246294638460CF0A0
:103C300070FB05B0BDE8F08F074B1B6813F0060F53
:103C4000F7D040F2FF73054A022103480CF0B3FBA2
:103C5000EFE70020C2E700BFF0040020847D0108E8
:103C6000406820B1034BC01A40F38F0070474FF0FB
:103C7000FF307047E40400200EB400B582B0014666
:103C800003AB53F8042B0193034805F019FA02B073
:103C90005DF804EB03B070471D04010810B584B053
:103CA00011F0440F05D01A4B1B6833B9002004B043
:103CB00010BD1849FFF7E0FFF9E717490968B2FBA3
:103CC000F1F2B2FBF3FC03FB1C224FF47A7E0EFBF5
:103CD00002F2B2FBF3F403FB14210EFB01F1B1FB82
:103CE000F3F10E4AA2FB0C32D20A4FF4616303FBDC
:103CF00012CC0B4BA3FB0CE35B0902910194C3EBC9
:103D00000311ACEB810100910649FFF7B5FFCEE747
:103D1000381F0020BC7D0108341F0020C5B3A291CC
:103D200089888888C87D010861B108B52AB1064A2A
:103D300052F8232012B9054A00E0044A0449FFF76B
:103D40009BFF08BD704700BF687E0108E47D010845
:103D5000EC7D01082DE9F04105461746069EDDF889
:103D60001C8081B900242EB1324611492846FFF744
:103D700083FF0444B8F1000F14D06FB1099B042BEA
:103D800013D00C4909E00C4B099A53F822200B4937
:103D9000FFF772FF0446E6E7064942462846FFF76A
:103DA0006BFF04442046BDE8F0810549F5E700BFFC
:103DB000047E0108F47D01087C7E0108FC7D010879
:103DC000F07D01082DE9F04F87B005460C460492BE
:103DD00005939DF84C7001F0020B01F0010AC1F34C
:103DE000C00801F480790CF0D2F918B302461649E4
:103DF0002846FFF741FF0646BBF1000F1CD13A46AB
:103E0000514628460CF035FBB9F1000F01D00023D4
:103E100011930397129B0293119B0193109B0093A4
:103E20000023049A41462846FFF794FF304407B028
:103E3000BDE8F08F0026DFE7059A21462846FFF708
:103E40002DFF0644DBE700BF087E010811F0100FCC
:103E50000BD108B511F0200F03D00449FFF70CFF78
:103E600008BD0349FFF708FFFAE77047F47501083A
:103E70000C7E01082DE9F04105460F46164698468E
:103E80000699FFF7E3FF0024444505DA2449284654
:103E9000FFF7F2FE0134F7E7002409E02049284645
:103EA000FFF7EAFE0BE01F492846FFF7E5FE013465
:103EB0000F2C0CDC002C02DD14F0070FEED0B44206
:103EC000F1D23A5D18492846FFF7D6FEEFE71749C9
:103ED0002846FFF7D1FE002409E011492846FFF7E4
:103EE000CBFE0BE012492846FFF7C6FE01340F2C2B
:103EF00013DC002C02DD14F0070FEED0B44207D221
:103F00003A5D0C4B9B5C13F0970FEBD12E22E9E747
:103F100003492846FFF7B0FEE8E7BDE8F08100BF9F
:103F2000007E0108187E0108107E01081C7E010831
:103F30004090010898AC01082DE9F04184B0044696
:103F40009DF82C500C9F0E9E95B9012B1ED0194840
:103F50004FF0000827B13B46224617490BF064FC9E
:103F6000C6B905BB20460CF042FA04B0BDE8F081AA
:103F700003950A980290019300920B4600220F9934
:103F80002046FFF71FFF80460C48E3E70B484FF041
:103F90000008DFE70F9B0093434632460D99204609
:103FA0000CF07FFADDE72A460F9920460CF06DFAF7
:103FB000D8E700BF55040108C19000081D0401089E
:103FC0002DE9F04383B00646056842F20F738B4239
:103FD00028BF0B46184A0521684609F07FFB0446B6
:103FE0007368D3F804900B27DFF8548005E04A4645
:103FF00039464046A8473F1A8044002FF7D17368DE
:10400000D3F804806F4605E0424621463846A8476B
:10401000241A0744002CF7D173685F681B24074EED
:1040200005E03A4621463046A847241A0644002CAB
:10403000F7D103B0BDE8F083BCA00108207E0108E1
:104040003C7E0108074B01221A6004E04008054A43
:1040500013685B001360044B9842F7D8034B186059
:10406000704700BF341F002040420F00381F00205F
:10407000014B036000207047907E0108072801D99A
:1040800000207047024B034483F8BB1001207047A7
:104090003C1F0020072801D900207047024B034431
:1040A00093F8BB00704700BF3C1F002010B5037899
:1040B000C3F341130A33064C54F8233023B1984715
:1040C000002803DB012010BD0020FCE70020FAE7F8
:1040D0003C1F00200A30024B43F82010704700BFFD
:1040E0003C1F0020014B5862704700BF3C1F00205E
:1040F000136800221A705A7001221A70064A92F848
:10410000C3203AB1022242F001021A7002230B606E
:10411000012070470022F6E73C1F002030B545889B
:104120004FEA152EAEF10403DBB2012B21D9EDB21B
:10413000BEF1070F1FD8114B5B6A002400E0034457
:10414000187840B193F801C0F445F8D1A54201D0E8
:104150000134F4E7012068B11360BEF1020F02D010
:104160001B780B6006E09A78DB7842EA03230B6049
:1041700000E0002030BD0020FCE700BF3C1F002015
:1041800038B50C460D4B5B6A156800E013441A788D
:104190008AB193F801C0BCF1040FF7D193F802C0C3
:1041A000B0F804E0F445F1D16046FFF773FF2870E2
:1041B0000120206000E0002038BD00BF3C1F00202F
:1041C000034B93F8BA00003818BF0120704700BFB6
:1041D0003C1F0020074B5B6A00E013441A783AB199
:1041E00059780229F9D119798142F6D9012070470D
:1041F000002070473C1F002030F0800318D0104989
:10420000104B99421AD210B403E024310D4B99425D
:104210000CD20C6A00230A7F9A42F6D904EBC3023F
:104220001279824206D00133DBB2F4E7002002E0CB
:104230000120704701205DF8044B70470020704753
:10424000B4060020D8060020014B9861704700BFDB
:104250003C1F0020014BD861704700BF3C1F00206D
:10426000F8B506460A4D0B4B9D420FD22F6A00242B
:1042700001E00134E4B22B7FA34205D907EBC4006F
:10428000B0470028F5DAF8BD2435ECE70020FAE75E
:10429000B4060020D806002038B50C4B00E02433CB
:1042A0000B4CA3420FD25C680A4D6D6AAC42F6D348
:1042B0001D69002DF3D094F802C08488E4B2A445AF
:1042C000EDD1A84701E06FF0850038BDB4060020AD
:1042D000D80600203C1F00202DE9F0410546884605
:1042E0001746134C05E03A4641462846B0471CE0C5
:1042F0002434104B9C4216D263680F4A526A934290
:10430000F6D3A669002EF3D09A78B5F804C05FFA08
:104310008CFC6245E7D05B79012BE9D13A464146F6
:104320002846B047E4E76FF08500BDE8F08100BFA4
:10433000B4060020D80600203C1F0020F8B5074630
:104340000E4615460A4C00E024340A4B9C420AD221
:104350006369002BF8D02A46314638469847034611
:104360000028F1D101E06FF085031846F8BD00BFC9
:10437000B4060020D806002008B510F0700F07D151
:1043800000F07F0310F0800F10D10120984008BD8D
:10439000084B1B6813F0070F01D10020F7E7034615
:1043A000054A012103480CF006F8F6E71033012016
:1043B0009840ECE730050020907E010838B50446AF
:1043C000007905F07BFB05462079FFF7D5FF044A0D
:1043D000D2F8C43023EA0003C2F8C430284638BDFE
:1043E0003C1F002038B5054605F068FB10F1780F3A
:1043F0000ED00446C0B92846FFF7BEFF104AD2F8D7
:10440000C43023EA0003C2F8C4300024204638BD7B
:104410000C4B1B6813F0060FEDD02B460A4A022105
:1044200008480BF0C8FFE6E7064B1B6813F0070FC0
:10443000ECD02B46054A012102480BF0BCFFE5E712
:104440003C1F002030050020AC7E0108D07E010812
:1044500070B582B00D468488E4B28DF807402046DE
:10446000FFF7CAFE064630B134F0800306D0FFF7EE
:10447000A7FE18B90646304602B070BDCDB11A4B42
:104480001B6803F00703022B0CD89DF8070005F00A
:1044900083FA164BDB69002BEDD00DF107010820E4
:1044A0009847E8E72346124A03210F480BF083FFA1
:1044B000EBE70D4B1B6803F00703022B0CD89DF8AC
:1044C000070005F093FA094BDB69002BD3D00DF1FF
:1044D000070109209847CEE72346064A03210248F0
:1044E0000BF069FFEBE700BF300500203C1F002008
:1044F000F47E0108087F010830B583B00446807857
:104500008DF80000A388ADF80230E37803F00303D0
:104510008DF80430FFF730FF0546314BD3F8C43037
:1045200003421AD168460EF051FB10F1780F1FD0EC
:1045300058BB9DF8000005F087FA10F1780F33D0D2
:1045400000283ED1264B012083F8B900D3F8C420BF
:104550001543C3F8C45003B030BD20460BF0F1FF43
:1045600010F092FB0028DDD1962008F005FBD9E77A
:104570001C4B1B6813F0060FDBD09DF800301A4A65
:10458000022118480BF017FFD3E7164B1B6813F0F6
:10459000070F01D10020DEE79DF80030134A01210A
:1045A00010480BF008FFF5E70E4B1B6813F0060FE1
:1045B000C8D09DF800300E4A02210A480BF0FBFEDD
:1045C000C0E7084B1B6813F0070F01D10020C2E7BA
:1045D0009DF80030074A012102480BF0ECFEF5E798
:1045E0003C1F002030050020207F0108447F010887
:1045F000687F0108887F01082DE9F84306461A4BB9
:104600005C6A0027FF25A846B94607E094F80380B6
:10461000A578B088854213D023781C442378CBB189
:104620006378042BF2D0052BF6D1B3889D42F3D1E9
:104630007288D2B2414620460BF098FF0746EBE75E
:1046400071888845E8D1C9B2C0B2FFF717FD0746A7
:10465000A146E1E7044BDB6913B1494607209847BF
:104660003846BDE8F88300BF3C1F0020024B002203
:104670001A605A60704700BFF71F00202DE9F04113
:104680000546224B5C6A43881BB10027FF26B046D3
:1046900010E0FFF7EBFF6A881C4B83F8BA20DB6958
:1046A00013B11B490320984701271EE094F80380AB
:1046B00023781C442378BBB16378042BF6D0052BF8
:1046C00007D0022BF4D166796B889E42F0D1012786
:1046D000EEE76B889E42EBD1B8F1000FE8D120469F
:1046E000FFF70AFF0746E3E717B93846BDE8F08150
:1046F000FFF7BCFF6A88054B83F8BA20DB69002B03
:10470000F3D0034903209847EFE700BF3C1F002088
:10471000F61F002010B5146890F90030002B0ADB5A
:104720004378013B082B3BD8DFE803F0253A303AC9
:104730001A3A3A3A22004378062B07D0082B08D0C1
:104740000BB1002010BDFFF7D3FCFBE7FFF7E6FC41
:10475000F8E7144B93F8BA30237001200860F1E7B2
:104760004088C0B205F05EF8B0FA80F04009E9E791
:10477000FFF784FFE6E74388012B01D00020E1E743
:10478000084B002283F8C3200120DBE74388012B7C
:1047900001D00020D6E70120024B83F8C300D1E707
:1047A0000020CFE73C1F002070B505460E460428C8
:1047B00003D0012803D0134C11E0FFF757FF124B31
:1047C00093F8B930002BF6D000F098FD0F48FFF7B2
:1047D00047FD0D4B002283F8B920ECE724340C4B45
:1047E0009C4207D2E368002BF8D032462946204687
:1047F0009847F3E7044B1B6A13B1314628469847A4
:1048000070BD00BFB40600203C1F0020BD4300085F
:10481000D806002070B504460D461646184B9B6915
:104820000BB1984748B1237803F01F03012B0DD03B
:10483000022B13D013B16FF0150070BD324629461C
:104840002046FFF767FF88B10020F6E73246294689
:1048500020460BF094FE60B10020EEE73246294678
:1048600020460BF0D6FE38B10020E6E76FF01500C9
:10487000E3E76FF01500E0E76FF01500DDE700BF3C
:104880003C1F002070B50E4E0E4B9E4215D2356A6D
:10489000002401E00134E4B2337F9C420BD205EBEB
:1048A000C40355F8341018790EF085F90028F1D0BA
:1048B0004FF0FF3070BD2436E6E70020FAE700BF76
:1048C000B4060020D80600202DE9F84306468946A4
:1048D00090461F46032504E008F07EF86B1EB5B134
:1048E0001D463B4642464946304605F00FF9044610
:1048F00010F10B0F0BD1074B186810F0060FEBD01F
:104900003346054A022103480BF055FDE4E72046F3
:10491000BDE8F88330050020AC7F010810B582B0F7
:10492000154B1B7DF3B9144CE268019201ABA168F1
:104930008020FFF7C9FFA368019A1344A360E368CE
:104940009B1AE360B3B9AAB1E28823699A4211DDE8
:1049500094F8C82093FBF2F102FB113353B9012202
:10496000227507E00021044B19750B460A4680208A
:1049700005F0CCF802B010BD3C1F002000B585B09A
:1049800000230393002840F0908019B34E4BDA685F
:10499000002A72DD03AB4C49896800200EF04BF908
:1049A000002877DB484A936803990B449360D368E7
:1049B0005B1AD360002B7AD1104602F1380342F81B
:1049C000083F00F11001FFF771FB002869D0FFF7E5
:1049D000A5FF6CE0082201A90EF02DF900282EDBBE
:1049E0009DF80400384B18709DF805205A70BDF8EA
:1049F00006205A80BDF808209A80BDF80A10D98098
:104A000003F138029A6000221A751A61DA6010F018
:104A1000800F02D1802916D839BB2C4A02F1080137
:104A2000A2F10800FFF742FB18B3274BDA88196997
:104A30008A42A8BF0A46DA60FFF770FF37E080209D
:104A400004F0AAFF33E0224B1B6813F0070F06D1D6
:104A5000802004F0A1FF002004F09EFF27E01D4A03
:104A600001211B480BF09DFCF2E7174B1961D9603F
:104A70001DE0802004F090FF19E003AB00221249F2
:104A8000896810460EF0D7F8002810DA802004F06C
:104A900083FF0CE0802004F07FFF002004F07CFF07
:104AA00005E0802004F078FF01E0802802D005B006
:104AB0005DF804FB044BDB681BB9034B1B7D002B2B
:104AC000F5D0FFF72BFFF2E73C1F0020441F00202A
:104AD00030050020D47F010808B5FFF703FB084923
:104AE0000020FFF7F7FA07490120FFF7F3FA06491C
:104AF0000220FFF7EFFA0548FFF7A6FB002008BDEC
:104B000015480008994200083D430008D9420008B2
:104B100070B582B005464FF0FF324FF0FF33544876
:104B200007F018F8534B93F8B830002B68D1514B6D
:104B30005B6A002B77D001200BF001FD041E66DBC1
:104B40004C4B5E6A1D624C4C2046FFF783FB2046AF
:104B500004F062FE0EF027F8041E58DB00F000FCA3
:104B6000041E54DB7378012B74D1F379002B71D0C0
:104B7000404A82F8C830ADF8023000238DF8043086
:104B80008DF8003068460EF021F8041E3FDB8023CC
:104B90008DF8003068460EF019F8041E37DB3749EF
:104BA00000200EF008F8041E31DB344980200EF09E
:104BB00002F8041E2BDBFFF765FE041E27DB002036
:104BC00004F042FF041E22DB0020FFF7D5FB294A38
:104BD000D2F8C4300343C2F8C430802004F034FF5C
:104BE000041E14DB8020FFF7C7FB224BD3F8C42040
:104BF0000243C3F8C420012283F8B820002406E051
:104C00001F4B1B6813F0060F07D16FF0770418488D
:104C100007F020F8204602B070BD1A4A0221184859
:104C20000BF0BFFBF1E700F08FF9FFF755FF114BD9
:104C30005B6A002B7FF47FAF114B1B6813F0070FEB
:104C400002D14FF0FF34E2E70F4A01210C480BF08C
:104C5000A8FBF6E70A4B1B6813F0070F02D16FF0B1
:104C60001504D4E7094A012105480BF09AFBF6E741
:104C70004C0500203C1F0020A94700087D49000882
:104C800030050020F07F0108148001083C800108F5
:104C90000246064800E02430054B984203D24368A0
:104CA0009342F8D100E00020704700BFB406002016
:104CB000D806002010B58AB00DF1040C1D4C0FCCA5
:104CC000ACE80F0023688CF80030002306930793AC
:104CD00008930993184A136053609360D36013825A
:104CE000102106A805F0CAFA002820DD0828B8BF60
:104CF0000820A0F1080C002217E00CEB0203283377
:104D00006B4413F8103C51000AA800EB131010F884
:104D100024EC094800F812E003F00F0301312833B6
:104D20006B4413F8243C43540132072AE5DD024862
:104D30000AB010BD788001080820002070B5044634
:104D4000FFF7B8FF98B10546FBF77CFE064670B149
:104D5000102804D0094B1B6813F0060F08D1324607
:104D6000102EA8BF10222946A01C10F0FCFB70BD1D
:104D7000034A022101480BF014FBF0E72C05002048
:104D80008C8001082DE9F04383B000AF04464FF05A
:104D900001137B600025A846A9462E4604E0204664
:104DA0000BF071FC23781C442378002B00F0B380B7
:104DB0006378052BF6D801A252F823F0CB4E0008F9
:104DC0009F4D0008134F0008CB4E0008D54D00083A
:104DD0007F4E0008E378002BE4D1A3784BB920463E
:104DE000FFF756FF814648B1836813B1414620461C
:104DF000984708F101085FFA88F8D3E74C4B1B6825
:104E000013F0070F32D06D4688B06B4613F11002D5
:104E10002FD00C213AB10846042901DD454E5E61D0
:104E2000082800DD9C610B2926DD0C243AB1032102
:104E3000397000217970B970F970386818610021F3
:104E40006FF300016FF341016FF382016FF3C5014E
:104E5000012363F38811C4F30A0464F353216FF34D
:104E60001F5100233248FEF7EDFDAD464FF0FF30F5
:104E700056E06FF00041CDE76FF01B04D6E7B9F1C3
:104E8000000F0ED03A1D494620460BF01CFC0028AE
:104E900088D0274B1B6813F0070F10D14FF0FF305D
:104EA0003EE0234B1B6813F0070F02D14FF0FF3099
:104EB00036E0214A01211E480BF073FAF6E71F4A3B
:104EC00001211B480BF06DFAE8E7032D0BD075B9F3
:104ED0008EB1A31BB370C3F30723F37086F804806D
:104EE0000135EDB25EE72046FFF728FFEFE72046E9
:104EF0000BF0B7FBF4E70E4B1B6813F0070F02D162
:104F00004FF0FF300CE00E4A012109480BF049FA3E
:104F1000F6E7264646E7A01C0A4B984204D100203B
:104F20000C37BD46BDE8F083FFF72CFFF8E700BF64
:104F30002C050020D8800108F88001083C81010878
:104F40005C810108B306002008B50D4B1B780BB13E
:104F50000C4808BD0B48FFF715FF20B9084B01228C
:104F60001A700848F5E7084B1B6813F0070F01D1CA
:104F70000020EEE7054A012103480BF012FAF7E79B
:104F8000A2390020D80500202C0500207C810108D2
:104F9000002300E00133032B12D803EBC3020949BD
:104FA00011F832208242F5D103EBC301054A02EB2E
:104FB000C1025268002AEDD0024800EBC1007047E0
:104FC000002070471C2000202DE9F04184B00446E9
:104FD00010F8345C50F8303C13F1100F24D1036901
:104FE00013F0020F3DD050F8282C2AB913F0040F0B
:104FF00022D143F00403036103AB54F82C1C284670
:10500000FFF762FC0346D8B954F82C2C039B1A44D2
:1050100044F82C2C54F8282CD21A44F8282C54F894
:10502000242C134444F8243C54F8303C13F1100F62
:1050300058D104B0BDE8F081002340F8303CF3E7DC
:10504000364A126812F0070F04D16FF0150344F8C6
:10505000303CE9E70095324A012130480BF0B6F9BF
:10506000F3E703AB50F8282C50F82C1C284604F02A
:10507000D3FD0346A0B954F82C3C039E334444F8B6
:105080002C3C54F8283C9B1B44F8283C54F8243C06
:10509000334444F8243CA6B9002344F8303CC3E729
:1050A0001E4A126812F0070F04D16FF0150344F87E
:1050B000303CB9E700951A4A012118480BF086F9EF
:1050C000F3E728460DF0C7FDB6FBF0F300FB1366CF
:1050D000002EE1D154F8283C002BDDD0284604F006
:1050E00001FEA1E754F8206C54F8247C54F81C8C81
:1050F0000FF0CAFD68B9002344F8203CA4F1180061
:1051000006F0FEFD002E94D0424639462846B047B0
:105110008FE7214603480FF052FD8AE7340500204F
:10512000AC810108B011002070B582B006460C4673
:10513000FFF72EFF631EDBB2012B0AD8054650B1E4
:105140000FF0A2FD08B1012C1CD105F13400FFF7CE
:105150003BFF02B070BD012CFBD101AB01220DF170
:105160000301304604F058FD019B002BF5D1084B9C
:105170001B6813F0070FECD0064A012104480BF01E
:1051800010F9E6E705F1340103480FF018FDE0E7F8
:1051900034050020CC810108B01100202DE9F84F22
:1051A0000546884616461F460BF030FB002877D18F
:1051B000EFF31189102383F31288BFF36F8F00245C
:1051C000032C35D804EBC400C0001830364B18440B
:1051D00004300022002306F0DBFD824608B10134D2
:1051E000EEE704EBC404E2002F4B03EBC404D4F855
:1051F00004B01BF1100F2FD09D54C4F80880E66056
:10520000002323610A9B636167640B9BA3616FF0BA
:105210000F03636028460DF01EFD70BB17F0020FF0
:1052200039D004F1340121480FF0C9FCD34606E01F
:105230001F4B1B6813F0070F08D16FF00B0B89F39E
:105240001188BFF36F8F5846BDE8F88F194A0121C6
:1052500017480BF0A6F8F0E7154B1B6813F0070F83
:1052600004D104F11C0006F04BFDE8E72B46124A7E
:1052700001210F480BF09FF8F3E728460DF0EBFCF7
:10528000B6FBF0F300FB1366002EC7D0636C43F04F
:1052900004036364C2E7284604F024FD8346CEE796
:1052A0006FF00F0BCFE700BF1C200020B0110020D3
:1052B00034050020E88101080482010810B5EFF3ED
:1052C0001184102383F31288BFF36F8FFFF760FE02
:1052D00020B10146436813F1100F04D084F3118804
:1052E000BFF36F8F10BD6FF08B0343603431024802
:1052F0000FF065FCF2E700BFB011002038B50024C4
:1053000004E085F31188BFF36F8F0134032C21D89B
:10531000EFF31185102383F31288BFF36F8F04EB33
:10532000C403DA000C4B13445B6813F1100FE8D18F
:10533000094A04EBC401CB0013446FF08B015960A0
:1053400004EBC403D90030311144043103480FF099
:1053500036FCD6E738BD00BF1C200020B01100206D
:1053600070B5002414E0E50004EBC403D80030302D
:10537000094E3044094904300FF006FC2B19D800BF
:10538000183030440430012211460FF066FB01341E
:10539000032CE8D9002070BD1C200020C94F000854
:1053A00008B50169012381F84B300B6813B191F8FE
:1053B000493003B908BD083101480FF000FCF9E796
:1053C000B011002008B50169012381F84A300B684B
:1053D00013B191F8483003B908BD083101480FF006
:1053E000EEFBF9E7B011002030B583B00546144656
:1053F0000A1E17DD04F14C01D4F88C000AF0E4FD1C
:10540000012384F84930236813B194F84B3073B901
:10541000D4F88C20938891895B1A9BB21269D31AB5
:105420003F2B0AD994F89E305BB903B030BD04F12C
:10543000080109480FF0C3FBEAE7012384F8A03014
:10544000F3E70194054B00930123402204F14C0142
:105450002846FFF7A3FEE8E7B0110020E953000853
:1054600070B50569EFF31186102383F31288BFF33B
:105470006F8FD5F890000AF0A7FD044686F31188D7
:10548000BFF36F8F08B9204670BD0022002305F1DD
:10549000180102480FF0A9FBF5E700BFB01100208A
:1054A00038B50D461446012382F84830136813B10D
:1054B00092F84A305BB9D4F890305A89DB8893422D
:1054C0000BD004F118015DB1002200230BE002F1C2
:1054D000080107480FF073FBEDE73DB904F118012F
:1054E0004FF47A72002302480FF07FFB38BD00BFF3
:1054F000B011002030B583B08DF807100469002387
:1055000084F8483006E0174B01221A7021E0012090
:105510000BF075FAEFF31185102383F31288BFF3B4
:105520006F8F01220DF10701D4F890000AF04CFDB5
:1055300085F31188BFF36F8F01280AD00FF0A4FB09
:1055400018B994F8A130002BE1D1064B1B78002B41
:10555000D9D00A22002304F1180103480FF045FBBB
:1055600003B030BDA3390020B011002070B504464F
:105570000E4615468188C9B218480BF017F930B3AA
:1055800094F90020002A18DB6278202A04D0222A0D
:105590000ED06FF0850019E02A68116840F8101CE1
:1055A0009188927920F80C1C00F80A2C00200DE05C
:1055B000628800F8092C002008E06278212A09D1CD
:1055C000A0F110032B6007233360002070BD6FF043
:1055D0001200FBE76FF08500F8E700BF3C210020D8
:1055E00008B5014603480BF0F5F810B1012200F8A8
:1055F000072C08BD3C21002008B503464FF0000CE5
:1056000080F89EC080F89FC080F849C080F848C0EC
:105610000B4A92E80300C3F89400A3F89810090C11
:1056200083F89A1083F89CC083F89BC083F8A0C0CD
:105630004022614603F14C000FF0BDFF08BD00BFE2
:105640002061010830B583B00446D0F8A4305D680D
:105650000139052906D8DFE801F003050723262ACA
:10566000FFF7CAFF03B030BD90F89E30002BF9D190
:10567000012380F89E302B6A02460021187BFFF739
:10568000B3FE94F84830002BECD12B6A187D0194BE
:105690000B4B0093022300221146FFF77FFDE1E749
:1056A000FFF7AAFFDEE7012380F89F30DAE790F8E2
:1056B0009F30002BD6D0002380F89F30D2E700BF68
:1056C000A154000838B50C461546014604480BF0B5
:1056D0005BF820B12A462146A438FFF7B3FF38BD56
:1056E0003C21002010B50469C4F8A40004F1A8030B
:1056F0000022C4F8A8200B4A526872B11360094A0C
:105700005360094904F108000FF03EFA074904F11B
:1057100018000FF05EFA002010BD024A53601360BB
:10572000EFE700BF3C2100203D0801083157000889
:10573000F0B585B00446A0F11806D0F88C305B684F
:105740001B6A1D7D28460BF061F810B994F886306D
:105750000BB905B0F0BD4FF4806203A9A06F0BF048
:105760005EF907460028F4D0002384F8303010F0AA
:105770003F0F00D1471E0196074B009302233A4684
:1057800003992846FFF70AFDA06F3A4600F10A0187
:105790000AF0FAFBDDE700BFA154000830B583B082
:1057A000084D002400944FF0FF334FF48062064907
:1057B0002846FBF755FB0549284606F073FC2046B2
:1057C00003B030BDB01100200054002068820108F1
:1057D00010B5044605F02EF90246034920460BF0A9
:1057E00006FE002010BD00BFA082010830B583B0C6
:1057F000054613460022019201AA0A21586801F0C9
:105800003BFE019C24B90BF01CF9204603B030BDCF
:105810002246034928460BF008FE019CF5E700BF2D
:10582000D082010808B5034A03490BF0E0FD0020CF
:1058300008BD00BF3C790108D08301082DE9F04183
:1058400082B0054616460023019301AA0A21B068DA
:1058500001F012FE04465FFA80F8184928460BF062
:10586000D5FD019F8FB9B8F1040F15D870680AF003
:10587000D8FC00281ADB02B2E3B2002108460AF085
:10588000EAFC384602B0BDE8F0813A460C492846A9
:105890000BF0CBFD019FF4E7E2B20A4928460BF07A
:1058A000C4FD28460BF002FE0127EAE772680649AC
:1058B00028460BF0BAFD6FF01507E2E7FC830108FC
:1058C000648401088C840108A484010800B583B0B5
:1058D000009000238DF80430694604480FF0B7FBB0
:1058E0009DF8040003B05DF804FB00BF630A0108E3
:1058F00010B5044605F07EF80246074920460BF035
:1059000076FD064920460BF072FD214604480FF053
:10591000A8FB002010BD00BF0885010828850108EC
:105920009159000870B58CB00446084606A90FF0DE
:1059300003FA054600B1012568460FF00AFA00B9DE
:105940002DB1114920460BF052FD0CB070BD069DE3
:10595000079E681946EB0603401946EB03035A01FC
:1059600042EAD0624101401843EB02014019DDE9EF
:10597000002346EB0101FBF739F803462A460349A9
:1059800020460BF034FDE0E75C8501083485010812
:1059900070B58EB004460D46D0F8B0600FF07DF9BA
:1059A000034610F043F8234A125894422DD0224A5D
:1059B0006BB300932346214928460BF018FDD4E928
:1059C0000A23CDE9002394F90E30227B1C49284696
:1059D0000BF00DFD202205A9204606F075FB0246BE
:1059E000636F184928460BF002FD21462846FFF751
:1059F00099FF0DA920460FF092F9024648B11249CD
:105A000028460BF0F4FC0EB070BD104AD0E7104BE6
:105A1000CFE70D9BF11A642201FB02F2B2FBF6F212
:105A200002920196009132460A4928460BF0DFFCAB
:105A3000E9E700BF08000000007E01088485010836
:105A400090850108BC850108D4850108FC9B0108EC
:105A5000808501080486010870B590B005460024D1
:105A6000089409940A940B940C940D940E940F943A
:105A70004FF02033089309930A930B930C930D93E3
:105A8000ADF83830014615480FF0EBFA14B100209C
:105A900010B070BD04EB0413114E06EBC31607AA39
:105AA0004FF4006106F180000FF027F9079AC2F564
:105AB0000061642301FB03F3DB0A05934FF40063E9
:105AC000049303910292019308AB0093234632465C
:105AD000044928460BF08BFC0134D7E7E95A00084B
