:020000040800F2
:1000000080730020D5A0000855310108C1A0000868
:10001000C1A00008C1A00008C1A0000800000000A5
:1000200000000000000000000000000001A2000825
:10003000C1A00008000000004DA10008A1BE0008FA
:10004000B1A40008B1A40008B1A40008B1A400083C
:10005000B1A40008B1A40008B1A40008B1A400082C
:10006000B1A40008B1A40008B1A40008B1A400081C
:10007000B1A40008B1A40008B1A40008B1A400080C
:10008000B1A40008B1A40008B1A40008B1A40008FC
:10009000B1A40008B1A40008B1A40008B1A40008EC
:1000A000B1A40008B1A40008B1A40008B1A40008DC
:1000B000B1A40008B1A40008B1A40008B1A40008CC
:1000C000B1A40008B1A40008B1A40008B1A40008BC
:1000D000B1A40008B1A40008B1A40008B1A40008AC
:1000E000B1A40008B1A40008B1A40008B1A400089C
:1000F000B1A40008B1A40008B1A40008B1A400088C
:10010000B1A40008B1A40008B1A40008B1A400087B
:10011000B1A40008B1A40008B1A40008B1A400086B
:10012000B1A40008B1A40008B1A40008B1A400085B
:10013000B1A40008B1A40008B1A40008B1A400084B
:10014000B1A40008B1A40008B1A40008B1A400083B
:10015000B1A40008B1A40008B1A40008B1A400082B
:10016000B1A40008B1A40008B1A40008B1A400081B
:10017000B1A40008B1A40008B1A40008B1A400080B
:10018000B1A40008B1A40008B1A40008B1A40008FB
:10019000B1A40008B1A40008B1A40008B1A40008EB
:0C01A000B1A40008B1A40008B1A400083C
:1001B00081F0004102E000BF83F0004330B54FEA18
:1001C00041044FEA430594EA050F08BF90EA020F85
:1001D0001FBF54EA000C55EA020C7FEA645C7FEA18
:1001E000655C00F0E2804FEA5454D4EB5555B8BF3B
:1001F0006D420CDD2C4480EA020281EA030382EAAC
:10020000000083EA010180EA020281EA0303362D3D
:1002100088BF30BD11F0004F4FEA01314FF4801C10
:100220004CEA113102D0404261EB410113F0004F22
:100230004FEA03334CEA133302D0524263EB4303D9
:1002400094EA050F00F0A780A4F10104D5F1200E77
:100250000DDB02FA0EFC22FA05F2801841F10001D2
:1002600003FA0EF2801843FA05F359410EE0A5F1A6
:1002700020050EF1200E012A03FA0EFC28BF4CF0D7
:10028000020C43FA05F3C01851EBE37101F000458D
:1002900007D54FF0000EDCF1000C7EEB00006EEB9A
:1002A0000101B1F5801F1BD3B1F5001F0CD3490824
:1002B0005FEA30004FEA3C0C04F101044FEA44527B
:1002C00012F5800F80F09A80BCF1004F08BF5FEA02
:1002D000500C50F1000041EB045141EA050130BDE2
:1002E0005FEA4C0C404141EB0101013C28BFB1F5F4
:1002F000801FE9D291F0000F04BF01460020B1FA3F
:1003000081F308BF2033A3F10B03B3F120020CDA11
:100310000C3208DD02F1140CC2F10C0201FA0CF0EF
:1003200021FA02F10CE002F11402D8BFC2F1200C54
:1003300001FA02F120FA0CFCDCBF41EA0C0190400A
:10034000E41AA2BF01EB0451294330BD6FEA040453
:100350001F3C1CDA0C340EDC04F11404C4F120023E
:1003600020FA04F001FA02F340EA030021FA04F350
:1003700045EA030130BDC4F10C04C4F1200220FAA7
:1003800002F001FA04F340EA0300294630BD21FAE5
:1003900004F0294630BD94F0000F83F4801306BFAB
:1003A00081F480110134013D4EE77FEA645C18BF9F
:1003B0007FEA655C29D094EA050F08BF90EA020F36
:1003C00005D054EA000C04BF1946104630BD91EA2E
:1003D000030F1EBF0021002030BD5FEA545C05D131
:1003E0004000494128BF41F0004130BD14F5800470
:1003F0003CBF01F5801130BD01F0004545F0FE41E4
:1004000041F470014FF0000030BD7FEA645C1ABF18
:10041000194610467FEA655C1CBF0B46024650EA4F
:10042000013406BF52EA033591EA030F41F400217B
:1004300030BD00BF90F0000F04BF0021704730B501
:100440004FF4806404F132044FF000054FF00001D6
:1004500050E700BF90F0000F04BF0021704730B597
:100460004FF4806404F1320410F0004548BF40426C
:100470004FF000013EE700BF42004FEAE2014FEAC1
:1004800031014FEA02701FBF12F07F4393F07F4F9C
:1004900081F06051704732F07F4208BF704793F09F
:1004A0007F4F04BF41F40021704730B54FF46074B2
:1004B00001F0004521F000411CE700BF50EA0102B5
:1004C00008BF704730B54FF000050AE050EA01025E
:1004D00008BF704730B511F0004502D5404261EBCE
:1004E00041014FF4806404F132045FEA915C3FF40F
:1004F000D8AE4FF003025FEADC0C18BF03325FEAAC
:10050000DC0C18BF033202EBDC02C2F1200300FA5C
:1005100003FC20FA02F001FA03FE40EA0E0021FA81
:1005200002F11444BDE600BF70B54FF0FF0C4CF46F
:10053000E06C1CEA11541DBF1CEA135594EA0C0F21
:1005400095EA0C0F00F0DEF82C4481EA030621EA5C
:100550004C5123EA4C5350EA013518BF52EA033597
:1005600041F4801143F4801338D0A0FB02CE4FF049
:100570000005E1FB02E506F00042E0FB03E54FF079
:100580000006E1FB03569CF0000F18BF4EF0010E71
:10059000A4F1FF04B6F5007F64F5407404D25FEA6D
:1005A0004E0E6D4146EB060642EAC62141EA555120
:1005B0004FEAC52040EA5E504FEACE2EB4F1FD0C62
:1005C00088BFBCF5E06F1ED8BEF1004F08BF5FEAE0
:1005D000500E50F1000041EB045170BD06F0004692
:1005E00046EA010140EA020081EA0301B4EB5C043F
:1005F000C2BFD4EB0C0541EA045170BD41F4801137
:100600004FF0000E013C00F3AB8014F1360FDEBF5B
:10061000002001F0004170BDC4F10004203C35DA37
:100620000C341BDC04F11404C4F1200500FA05F3BA
:1006300020FA04F001FA05F240EA020001F000425B
:1006400021F0004110EBD37021FA04F642EB0601D1
:100650005EEA430E08BF20EAD37070BDC4F10C04FB
:10066000C4F1200500FA04F320FA05F001FA04F2BF
:1006700040EA020001F0004110EBD37041F10001AB
:100680005EEA430E08BF20EAD37070BDC4F12005B6
:1006900000FA05F24EEA020E20FA04F301FA05F21E
:1006A00043EA020321FA04F001F0004121FA04F2C6
:1006B00020EA020000EBD3705EEA430E08BF20EA96
:1006C000D37070BD94F0000F0FD101F000464000D0
:1006D00041EB010111F4801F08BF013CF7D041EA52
:1006E000060195F0000F18BF704703F00046520056
:1006F00043EB030313F4801F08BF013DF7D043EA27
:100700000603704794EA0C0F0CEA135518BF95EADC
:100710000C0F0CD050EA410618BF52EA4306D1D163
:1007200081EA030101F000414FF0000070BD50EA82
:10073000410606BF1046194652EA430619D094EA0C
:100740000C0F02D150EA013613D195EA0C0F05D1F6
:1007500052EA03361CBF104619460AD181EA03014A
:1007600001F0004141F0FE4141F470014FF0000002
:1007700070BD41F0FE4141F4780170BD70B54FF09D
:10078000FF0C4CF4E06C1CEA11541DBF1CEA13551D
:1007900094EA0C0F95EA0C0F00F0A7F8A4EB0504FF
:1007A00081EA030E52EA03354FEA013100F08880F6
:1007B0004FEA03334FF0805545EA131343EA1263BF
:1007C0004FEA022245EA111545EA10654FEA002674
:1007D0000EF000419D4208BF964244F1FD0404F52D
:1007E000407402D25B084FEA3202B61A65EB030589
:1007F0005B084FEA32024FF480104FF4002CB6EB46
:10080000020E75EB030E22BFB61A754640EA0C00C5
:100810005B084FEA3202B6EB020E75EB030E22BF05
:10082000B61A754640EA5C005B084FEA3202B6EB46
:10083000020E75EB030E22BFB61A754640EA9C0005
:100840005B084FEA3202B6EB020E75EB030E22BFD5
:10085000B61A754640EADC0055EA060E18D04FEA93
:10086000051545EA16754FEA06164FEAC30343EA33
:1008700052734FEAC2025FEA1C1CC0D111F4801F00
:100880000BD141EA00014FF000004FF0004CB6E7F9
:1008900011F4801F04BF01430020B4F1FD0C88BF98
:1008A000BCF5E06F3FF6AFAEB5EB030C04BFB6EBA3
:1008B000020C5FEA500C50F1000041EB045170BD96
:1008C0000EF0004E4EEA113114EB5C04C2BFD4EBC3
:1008D0000C0541EA045170BD41F480114FF0000E47
:1008E000013C90E645EA060E8DE60CEA135594EAC3
:1008F0000C0F08BF95EA0C0F3FF43BAF94EA0C0FC6
:100900000AD150EA01347FF434AF95EA0C0F7FF43A
:1009100025AF104619462CE795EA0C0F06D152EA8E
:1009200003353FF4FDAE1046194622E750EA410672
:1009300018BF52EA43067FF4C5AE50EA41047FF483
:100940000DAF52EA43057FF4EBAE12E74FF0FF3CE8
:1009500006E000BF4FF0010C02E000BF4FF0010CB9
:100960004DF804CD4FEA410C7FEA6C5C4FEA430C32
:1009700018BF7FEA6C5C1BD001B050EA410C0CBF81
:1009800052EA430C91EA030F02BF90EA020F0020E3
:10099000704710F1000F91EA030F58BF994208BF4A
:1009A00090422CBFD8176FEAE37040F00100704707
:1009B0004FEA410C7FEA6C5C02D150EA013C07D15E
:1009C0004FEA430C7FEA6C5CD6D152EA033CD3D0A9
:1009D0005DF8040B704700BF8446104662468C46A3
:1009E0001946634600E000BF01B5FFF7B7FF0028D6
:1009F00048BF10F1000F01BD4DF808EDFFF7F4FFFF
:100A00000CBF012000205DF808FB00BF4DF808ED89
:100A1000FFF7EAFF34BF012000205DF808FB00BFAC
:100A20004DF808EDFFF7E0FF94BF012000205DF8CE
:100A300008FB00BF4DF808EDFFF7CEFF94BF012083
:100A400000205DF808FB00BF4DF808EDFFF7C4FF7C
:100A500034BF012000205DF808FB00BF4FEA4102CF
:100A600012F5001215D211D56FF47873B3EB625200
:100A700012D94FEAC12343F0004343EA505311F027
:100A8000004F23FA02F018BF404270474FF00000B9
:100A9000704750EA013005D111F0004008BF6FF0F7
:100AA000004070474FF00000704700BF4FEA41021E
:100AB000B2F1E04324BFB3F5001CDCF1FE5C0DD9BC
:100AC00001F0004C4FEAC0024CEA5070B2F1004F06
:100AD00040EB830008BF20F00100704711F0804F09
:100AE00021D113F13872BCBF01F00040704741F4CE
:100AF00080114FEA5252C2F11802C2F1200C10FAD2
:100B00000CF320FA02F018BF40F001004FEAC123B5
:100B10004FEAD32303FA0CFC40EA0C0023FA02F359
:100B20004FEA4303CCE77FEA625307D150EA01332F
:100B30001EBF4FF0FE4040F44000704701F00040FF
:100B400040F0FE4040F40000704700BF7BB972B92E
:100B50000029BEBF00204FF0004106E008BF00287A
:100B60001CBF6FF000414FF0FF3000F057B8ADF1FF
:100B7000080C6DE904CE002909DB002B1ADB00F01C
:100B800069F8DDF804E0DDE9022304B07047404273
:100B900061EB4101002B1BDB00F05CF8DDF804E0A9
:100BA000DDE9022304B0404261EB4101524263EBB4
:100BB00043037047524263EB430300F04BF8DDF808
:100BC00004E0DDE9022304B0404261EB41017047DB
:100BD000524263EB430300F03DF8DDF804E0DDE949
:100BE000022304B0524263EB4303704753B94AB93E
:100BF000002908BF00281CBF4FF0FF314FF0FF3025
:100C000000F00CB8ADF1080C6DE904CE00F022F84C
:100C1000DDF804E0DDE9022304B07047704700BF4F
:100C200010F8012B11F8013B012A28BF9A42F7D096
:100C3000D01A7047034611F8012B03F8012B002A44
:100C4000F9D17047034613F8012B002AFBD1181A7B
:100C5000013870472DE9F04786468C460846089EC5
:100C6000154674461946002B40F0C2808542B2FA00
:100C700082F245D94AB1C2F1200300FA02FC2EFAF1
:100C800003F3954043EA0C0C94404FEA154EA8B28A
:100C9000BCFBFEF8230C0EFB18CC08FB00F943EA62
:100CA0000C43994528D9EB1808F1FF3704D2994530
:100CB00002D9A8F102072B44A3EB0903A4B2B3FBAA
:100CC000FEFC0EFB1C330CFB00F044EA0344A04284
:100CD00014D92C190CF1FF3304D2A04202D9ACF183
:100CE00002032C44241A43EA07401EB1D4400023D7
:100CF00034607360BDE8F0874746DDE76346F1E79F
:100D000092BB431B01214FEA154EAFB2B3FBFEFC71
:100D1000200C0EFB1C330CFB07F840EA03439845FC
:100D200062D9EB180CF1FF3004D2984502D9ACF12E
:100D300002002B44A3EB0803A4B2B3FBFEFC0EFBA2
:100D40001C330CFB07F744EA0344A7424ED92C1985
:100D50000CF1FF3304D2A74202D9ACF102032C44B8
:100D6000E41B43EA0040C0E7C2F1200320FA03F18C
:100D7000954090402EFA03F303434FEA154EAFB26D
:100D8000B1FBFEFC0EFB1C10190C0CFB07F841EA32
:100D90000041884504FA02F422D969180CF1FF30A9
:100DA00004D2884502D9ACF102002944A1EB080124
:100DB0009BB2B1FBFEFC0EFB1C110CFB07F743EAD8
:100DC00001439F420ED9EB180CF1FF3104D29F4230
:100DD00002D9ACF102012B44DB1B41EA004192E74E
:100DE0006046E3E76146F7E76046A3E76346B7E797
:100DF000834206D916B9002108467BE7C6E900E020
:100E0000F9E7B3FA83F78FB9834201D3724508D863
:100E1000BEEB020460EB030301209C461EB90021D7
:100E200068E73846FAE7C6E9004CF8E7C7F1200C56
:100E3000BB4022FA0CF41C432EFA0CF120FA0CF3FE
:100E4000B84001434FEA14490EFA07F5B3FBF9F82D
:100E50001FFA84FE09FB18300B0C08FB0EFA43EA5C
:100E600000439A4502FA07F240D9E31808F1FF302F
:100E700004D29A4502D9A8F102002344A3EB0A0345
:100E800089B2B3FBF9F809FB183308FB0EFE41EAFF
:100E900003418E452CD9611808F1FF3304D28E45E9
:100EA00002D9A8F10203214443EA0040A0FB0298C2
:100EB000A1EB0E014145CE46434602D306D14D4536
:100EC00004D2B9EB020E68EB04030138002EA6D061
:100ED000B5EB0E0261EB030101FA0CFC22FA07F3F9
:100EE0004CEA0303F940C6E9003198E74046C5E7FC
:100EF0004346D9E7000000002DE9F04F8DB009907E
:100F00000C46154614F09EFF0022431880F08380A3
:100F100013444B4FA7FB032C2CF0030202EB9C0263
:100F20009B1AC01A61F100024FF0CC3100FB01F1B5
:100F300007FB0211A0FB07031944420842EAC172F1
:100F40004FEA51099246012C67D06C6821463D4812
:100F5000FFF766FE28B121463B48FFF761FE0028F7
:100F600062D135A3D3E9002350464946FFF7EEFD91
:100F700080460A9130A3D3E9002350464946FFF743
:100F8000E5FD15461C46314A002328462146FFF759
:100F9000DDFD06460F462D4A002328462146FFF771
:100FA000D5FD15461C464EF66022002328462146F4
:100FB000FFF7CCFD81460B914EF6602200232846B8
:100FC0002146FFF7C3FD15461C464FF47A720023F5
:100FD00028462146FFF7BAFD83468A464FF47A72C7
:100FE000002328462146FFF7B1FDCDE90623CDF8C1
:100FF00010B0CDF814A0CDF808900B9A039200968B
:10100000019742460A9B1249099811F072F8002094
:101010000DB0BDE8F08F01227AE74B460D490998E3
:1010200011F067F80020F3E722460B49099811F008
:101030007EF86FF00400EBE7005C2605000000007E
:10104000CDCCCCCC509501085495010880EE3600EB
:10105000789501083C9501086095010800000000A2
:1010600030B589B004460C9D0020C4F81401C4F8C2
:10107000180104F58E70C4F81C01C4F8200104F5B1
:101080009270C4F82401C4F828012DB3287928BB34
:101090000120C4F82C019FED147B8DED067B002010
:1010A00004900393029001900094114B204614F099
:1010B00084FC55B1296811B120460CF0C9FA6B794E
:1010C0001BB1237B43F00103237320460DF060F82E
:1010D000C4F8104109B030BD0120DAE740F2011038
:1010E000D7E700BFAFF30080FFFFFFFFFFFFFFFF69
:1010F000F1D40008000000007FB58DED000B019BCE
:10110000254A23F00043934207D89FED211B00207E
:1011100007B05DF804EB00F00FB9204A934204D900
:1011200007B05DF804EB00F03BB802A800F0BCF992
:1011300000F00300012810D0022815D008BB9DED57
:10114000041B9DED020B012000F0F6F853EC102B70
:1011500043EC102B07B05DF804FB9DED041B9DEDE7
:10116000020B00F029F8F1E79DED041B9DED020B49
:10117000012000F0E1F851EC100B024601F10043B0
:10118000E6E79DED041B9DED020B00F015F8F2E77C
:101190000000000000000000FB21E93FFFFFEF7F9F
:1011A00008B515F01CFA9FED020B08BDAFF30080E7
:1011B000000000000000F87F2DE9F74F59EC108B7C
:1011C00029F00046B6F1795F8DED001BC0F08880F4
:1011D00042464B4640464946FFF7A6F9504B00228F
:1011E00004460D46FFF7A0F93FA3D3E9002382464A
:1011F0008B4620462946FFF797F93DA3D3E9002304
:10120000FEF7DCFF22462B46FFF78EF93AA3D3E91F
:101210000023FEF7D1FF22462B46FFF785F938A3BE
:10122000D3E90023FEF7CAFF22462B46FFF77CF9DD
:1012300035A3D3E90023FEF7BFFF22462B46FFF775
:1012400073F933A3D3E90023FEF7B8FF22462B46F8
:10125000FFF76AF922462B46FFF766F9DDE900231E
:1012600004460D4640464946FFF75EF90B460246E6
:1012700029462046FEF7A0FF2A4B9E42804689461B
:1012800010D802460B4650465946FEF795FF0B46CE
:10129000254902460020FEF78FFF41EC100B03B0FA
:1012A000BDE8F08F214B20499E428CBF204DA6F512
:1012B0000015002422462B460020FEF77DFF224623
:1012C00006460F462B4650465946FEF775FF4246E6
:1012D0004B46FEF771FF02460B4630463946DAE7C9
:1012E0009FED0D0BDBE700BFD43888BEE9FAA8BD3F
:1012F000C4B1B4BD9EEE213EAD529C804F7E923E65
:101300009015CB19A001FA3E7751C1166CC1563F1A
:101310004C5555555555A53F000000000000F03FC5
:101320000000E03F3233D33F0000F03F0000E93FD0
:101330000000D23F000000002DE9F04F55EC104BAB
:1013400025F0004385B0B3F1795F8DED021B804637
:1013500052D322462B4620462946FFF7E5F882461F
:101360008B4602460B4620462946FFF7DDF841A38F
:10137000D3E90023CDE9000150465946FFF7D4F8E0
:101380003EA3D3E90023FEF717FF52465B46FFF763
:10139000CBF83CA3D3E90023FEF710FF52465B468F
:1013A000FFF7C2F839A3D3E90023FEF705FF524641
:1013B0005B46FFF7B9F837A3D3E90023FEF7FEFE3B
:1013C00006460F46B8F1000F1BD102460B465046A9
:1013D0005946FFF7A9F831A3D3E90023FEF7ECFE45
:1013E000DDE90023FFF7A0F802460B462046294618
:1013F000FEF7E4FE04460D4645EC104B05B0BDE893
:10140000F08FDDE902011A4B0022FFF78DF832461A
:10141000804689463B46DDE90001FFF785F8024634
:101420000B4640464946FEF7C7FE52465B46FFF76D
:101430007BF8DDE90223FEF7BFFE0BA3D3E900230F
:1014400006460F46DDE90001FFF76EF802460B463F
:1014500030463946FEF7B0FE02460B462046294686
:10146000FEF7AAFEC6E700BF495555555555C5BFFD
:101470000000E03F7CD5CF5A3AD9E53DEB9C2B8A62
:10148000E6E55A3E7DFEB157E31DC73ED561C11961
:10149000A0012A3FA6F810111111813F4955555559
:1014A0005555C53F000000002DE9F04F5BEC10AB37
:1014B000C54B8DB02BF0004898450446CDF810B0D0
:1014C00007D80022002380ED000BC0E9022300258D
:1014D00028E0BE4B984578D8049BBD4D002B504664
:1014E000ABA3D3E90023594638DDFEF765FEA845D6
:1014F00006460F461AD0A8A3D3E90023FEF75CFEE8
:1015000002460B468046894630463946FEF754FE71
:10151000A1A3D3E90023FEF74FFEC4E90089C4E983
:101520000201012528460DB0BDE8F08F9CA3D3E948
:101530000023FEF741FE9CA3D3E9002306460F4695
:10154000FEF73AFE02460B4680468946304639464B
:10155000FEF732FE94A3D3E90023DCE7FEF72EFE6C
:10156000A84506460F4618D08BA3D3E90023FEF703
:1015700025FE02460B468046894630463946FEF730
:101580001BFE85A3D3E90023FEF718FE4FF0FF35BD
:10159000C4E90089C4E90201C4E781A3D3E90023B7
:1015A000FEF70CFE80A3D3E9002306460F46FEF7A4
:1015B00005FE02460B468046894630463946FEF710
:1015C000FBFD79A3D3E90023DEE7824B984500F2C7
:1015D000CE802BF0004776A3D3E90023504639464E
:1015E000FEF7A2FF7C4B0022FEF7E8FDFFF736FA7C
:1015F0000546FEF72FFF02460B46CDE9022364A302
:10160000D3E90023FEF790FF02460B4650463946C9
:10161000FEF7D2FD60A3D3E9002382468B46DDE9C5
:101620000201FEF781FF02460B4606460F46504672
:101630005946FEF7C1FD1F2D05DC684B6A1E53F8A5
:101640002230434508D14FEA28530593C1F30A538A
:10165000C3EB1853102B02DCC4E9000139E050A39E
:10166000D3E90023DDE90201FEF75EFF06460F46DF
:1016700002460B4650465946FEF79EFD02460B4673
:101680008046894650465946FEF796FD32463B460F
:10169000FEF792FD44A3D3E9002306460F46DDE999
:1016A0000201FEF741FF32463B46FEF785FD02464A
:1016B0000B4606460F4640464946FEF77DFD059A15
:1016C000C1F30A53D31A312B20DCC4E90001C2460E
:1016D000CB46D4E90089504642464B465946FEF770
:1016E0006BFD3B463246FEF767FD049B002BC4E9C9
:1016F0000201BFF617AF09F10043636001F1004337
:10170000C4F80080A060E3606D420BE72AA3D3E930
:101710000023DDE90201FEF707FF06460F460246F9
:101720000B4640464946FEF747FD82468B46024639
:101730000B4640464946FEF73FFD32463B46FEF724
:101740003BFD1FA3D3E9002306460F46DDE9020156
:10175000FEF7EAFE32463B46FEF72EFD06460F46F2
:1017600002460B4650465946FEF726FD74E71C4BD1
:10177000984537D952465B4650465946FEF71CFD00
:10178000C4E90201C4E90001A1E600BFAFF3008093
:1017900000004054FB21F93F3163621A61B4D03D2F
:1017A0000000601A61B4D03D7370032E8A19A33B08
:1017B00083C8C96D305FE43F0000002E8A19A33B47
:1017C000C14920259A837B39FB21E93F7BD902401F
:1017D000FB21F93FFB2139410000E03F7CBA0108C1
:1017E000FFFFEF7F4FEA2855A5F21645A8EB0551FC
:1017F00050460F46FFF732F9FEF72CFE02460B4625
:1018000050463946CDE90623FEF7D6FC224B00228E
:10181000FEF78AFE0F460646FFF720F9FEF71AFE8E
:1018200002460B4630463946CDE90823FEF7C4FC94
:10183000194B0022FEF778FECDE90A010DF13009BF
:101840004FF003080026002779E9020132463B46A3
:10185000C24608F1FF38FFF7CFF80028F4D10F4B4C
:101860000193022300932A465346214606A800F01E
:1018700017F8049B002B0546BFF654AED4E90021AF
:1018800001F10043C4E90023D4E9022101F100433E
:10189000C4E9022338E700BF00007041FCBA010828
:1018A0002DE9F04F2DED028BADF51B7D12F1140FDC
:1018B00009930191BE4BA6990A9053F821300493E5
:1018C000099B03F1FF33A8BFD41E0693B2BF0024C7
:1018D000182394FBF3F46FF0170304FB033303EBBB
:1018E000020B049B069A9FEDAE8B03EB0208A79BAD
:1018F000A71A22AE03EB87090025454513DD099B96
:1019000022AA02EBC3050DF5E47A4FF00008049B10
:10191000984531DC9FEDA27BDDF828908DED027BB0
:101920002F4600261BE0EF4207D459F82500FEF7AA
:1019300091FDE6E802010135DFE751EC180BF8E70D
:10194000D7E90023F9E80201FEF7EEFD02460B4657
:10195000DDE90201FEF732FCCDE902010136069B0A
:101960009E42A7F10807EBDD9DED027B08F101081F
:10197000AAEC027B0835CAE7049BDDF810900EAA9A
:1019800002EB83030C93A79B03EB84030B934FEAB7
:10199000C9030D939AAB03EBC90313ED287B8DEDBF
:1019A000027B0DF1380A72AB03EBC906D0464F46F5
:1019B000002FA6F1080677DC58469DED020B0EF0CD
:1019C0006BFB55EC104B00224FF07F53204629460D
:1019D000FEF7AAFD41EC100B0EF0BEFB754B51EC6F
:1019E000100B0022FEF7A0FD02460B4620462946BA
:1019F000FEF7E2FB0D460446FFF730F80890FEF7CD
:101A000029FD02460B4620462946FEF7D5FBBBF1D1
:101A1000000F06460F466BDD09F1FF310EAB089C47
:101A200053F82130CBF1180043FA00F214448240FD
:101A30009B1A0EAA089442F82130CBF117021341E9
:101A40000293029B002B62DD089B00220133089366
:101A500014466FF07F40914500F3B880BBF1000F52
:101A600007DDBBF1010F00F0CA80BBF1020F00F0EF
:101A7000D180029B022B4AD132463B464E49002080
:101A8000FEF79AFB06460F46002C40D058469FEDC5
:101A9000460B0EF001FB3046394653EC102BFEF797
:101AA0008BFB06460F4632E0444B0022DDE9020183
:101AB000FEF73AFDFEF7D2FFFEF7CCFC404B0022CA
:101AC00004460D46FEF730FD02460B46DDE90201F5
:101AD000FEF772FBFEF7C2FFD6E9002348F8040BBD
:101AE00029462046FEF76AFB013FCDE902015FE788
:101AF00006D109F1FF330EAA52F82330DB159FE718
:101B0000304B0022FEF796FF002843D102900022BE
:101B1000002330463946FEF76FFF002800F0CC80E6
:101B200009F1FF33002204998B427BDA002A00F08E
:101B3000968009F1FF390EABABF1180B53F8293041
:101B4000002BF6D058469FED180B0EF0A5FADFF8E3
:101B50006CB009F1010372AA55EC104B4FEAC308AF
:101B600002EBC3074E464FF0000A002E80F2DC80E5
:101B70004C46002CC0F20A81134B1F4672AB03EB9C
:101B8000C40306934FF0000A4FF0000B0026A9EBA8
:101B90000405EFE00223029356E700BFAFF3008095
:101BA0000000000000000000000000000000F03F06
:101BB00004BC0108000020400000F03F0000703E1F
:101BC000000070410000E03F30710108514651F8BB
:101BD000043B54B96BB10132C3F18073914541F8B4
:101BE000043C0ADD0B680AF10801C31A41F8043C01
:101BF000012301328A461C462DE701242EE709F114
:101C0000FF320EAB53F82230C3F316030EA941F88E
:101C100022302EE709F1FF320EAB53F82230C3F326
:101C20001503F3E70EA951F82310013B0A437AE7A5
:101C3000013453F8042D002AFAD00D9B03F51A73D2
:101C40000DEB0305099B22AA4B4409F10107983DBE
:101C500002EBC3064C44BC4204DAA14697E60C9B57
:101C60000124E6E70B9B53F82700FEF7F3FB9FEDFB
:101C7000AE7BE6E802018DED027BDDF82890B246EE
:101C80004FF00008069B984505DD9DED027B01376E
:101C9000A5EC027BDFE77AE90223F9E80201FEF70F
:101CA00043FC02460B46DDE90201FEF787FA08F124
:101CB0000108CDE90201E5E7CBF1000047EC106B2C
:101CC0000EF0EAF955EC104B994B002220462946BC
:101CD000FEF7B0FE00B3974B002220462946FEF7E0
:101CE00023FCFEF7BBFE0646FEF7B4FB904B00223A
:101CF000FEF71AFC0B46024629462046FEF75CFA20
:101D0000FEF7ACFE0EAB0BF1180B43F8290009F1FE
:101D1000010943F8296015E720462946FEF79EFE93
:101D20000EAB43F829000DE70EAB53F82600FEF783
:101D300091FB22462B46FEF7F7FB524667E902016C
:101D40005B4620462946FEF7EFFB013E04460D4662
:101D50000BE70699F1E802230691F7E80201FEF786
:101D6000E3FB02460B4650465946FEF727FA01367A
:101D700082468B46049B9E4201DCB542E9DA4AABBF
:101D800003EBC505C5E900AB013CF2E6A69B022BBF
:101D90000BDC002B38DC5AD0089B03F007000DF554
:101DA0001B7DBDEC028BBDE8F08FA69B032BF3D10E
:101DB00008F51A730DEB0304A4F5A4742546CA466E
:101DC000BAF1000FA5F1080567DC4D46012DA4F11D
:101DD000080400F383804AAB03EB080400200021D1
:101DE000B9F1010F00F39880029BDDE94A78DDE943
:101DF0004C56002B40F0A080019BC3E90078C3E95A
:101E00000256C3E90401C7E74AAB98444C46002098
:101E10000021002C32DA029B002B35D0024601F162
:101E20000043019CC4E9002302460B46DDE94A0158
:101E3000FEF7C2F94CAD0124A14528DA029B13B18B
:101E400001F100431946019BC3E90201A4E74AAB33
:101E5000984400200021B9F1000F08DA029B13B169
:101E600001F100431946019BC3E9000194E778E9B9
:101E70000223FEF7A3F909F1FF39ECE778E9022321
:101E8000FEF79CF9013CC4E702460B46C9E7F5E8BA
:101E90000223FEF793F90134CEE795ED007B8DED3B
:101EA000047B95ED027BDDE9040153EC172B8DEDEE
:101EB000067BFEF783F902460B4606460F46DDE930
:101EC0000401FEF779F9DDE90623FEF777F90AF157
:101ED000FF3AC5E90201C5E9006771E794ED007BAF
:101EE000D4E902AB51EC170B52465B468DED047BF7
:101EF000FEF764F902460B4606460F46DDE904018B
:101F0000FEF75AF952465B46FEF758F9013DC4E91F
:101F10000201C4E9006759E774E90223FEF74EF9AC
:101F200009F1FF395CE700BF00000000000000007D
:101F3000000070410000703E019B019A1F6008F193
:101F400000445C609D6006F10043D36001F10043F2
:101F50001061536120E700BF10B19FED030B704784
:101F60009FED030B704700BF0000000000000080E1
:101F7000000000000000000010B19FED030B70474F
:101F80009FED030B704700BF000000000000F0FF52
:101F9000000000000000F07F2A4B986A03EB8003EA
:101FA00083ED000A00229FED280A1AE0831A043309
:101FB0002649A1FB03C121F0030C0CEB91015B1A34
:101FC00002F1040C224901EB8C01D1ED017A1D498B
:101FD00001EB830393ED007A67EE877A30EE270AF0
:101FE0000132042AE2DD012219E0831A0533174980
:101FF000A1FB03C121F0030C0CEB91015B1A144906
:1020000001EB8201D1ED007A04330E4901EB830329
:1020100093ED017A67EE877A30EE670A0132042A7F
:10202000E3DD0849031D01EB830383ED010A013061
:10203000064BA3FB002323F0030202EB9303C01A19
:10204000886270479C1B002000000000CDCCCCCCE7
:10205000C81B002008B502480BF06CF908BD00BF92
:10206000CC05002000B583B0164B174A5A611749BA
:1020700099611748D86119625A624FF07E521A600E
:10208000144A5A60144A9A60144ADA60144A1A616F
:102090002C220021134814F010F9134B1B6803F095
:1020A0000703022B02D803B05DF804FB4FF4FA5388
:1020B00000934FF47A730D4A03210B480EF0C6FFCC
:1020C000F1E700BFC81B0020AC8BDB3BAC8BDB3CDB
:1020D000C1A8243DE3A517C093181440690087BF29
:1020E000C9E53F3E9C1B0020F404002070710108EC
:1020F00000B583B0134B1B6813F0070F1BD14FF0D3
:10210000FF324FF0FF3310480BF05CF90F4B1A68A9
:102110000F4BA3FB02135B09642101FB132303F59F
:102120000063ADF80630002200230DF106010948D6
:102130000AF036FFE3E7084A012102480EF071FF7A
:10214000DDE700BFF4040020CC050020981B002030
:102150001F85EB516C050020A87101082DE9F043A3
:1021600085B002AF804B1B6803F00703022B0ED82B
:102170007D4B1B6803F00703022B3BD97D230093A3
:1021800064237A4A032178480EF060FF32E0784AEF
:10219000032175480EF045FFEAE76FF000406EE05E
:1021A0006FF01B0184E06FF00040C0E0132840F3A3
:1021B000D78014213AB10520387000207870B870AB
:1021C000F870386818616FF300056FF341056FF31D
:1021D00082056FF3C505032363F38815C1F30A0174
:1021E00061F353256FF31F55002329465E4802F023
:1021F00031FFC5464FF0FF324FF0FF33B91D5D4848
:102200000AF040FF09F030FF0646FB88A3F50063A3
:1022100000EE103AB8EEC00ADFED577A20EE270A3A
:10222000FFF7BAFE09F020FF801BC308534AA2FB48
:1022300003235E08524A116801311160514A126845
:10224000B2EB530F01D24F4B1E604F4B1B68B34292
:1022500001D94D4B1E6044F24723984248D94B4A5E
:10226000136801331360404B1B6813F0070F3FD016
:10227000E8468AB002AB13F110028ED014209AB156
:102280008446042803DDDFF80CE1C3F814E0BCF158
:10229000080F00DD9961BCF10C0F00DDDE61BCF1BF
:1022A000100F01DD6421196213287FF779AF142123
:1022B0003AB10520387000207870B870F87038682E
:1022C00018616FF300046FF341046FF382046FF33E
:1022D000C504012363F38814C1F30A0161F3532495
:1022E0006FF31F54002321461F4802F0B3FEC5467A
:1022F000234B1968264BA3FB01239B094FF47A72E9
:1023000002FB1313002B7FF475AF174B1B6803F010
:102310000703022B7FF66EAF1C4BD3F800E0E846B4
:102320008AB002AB13F110023FF43DAF1420002A33
:102330003FF43CAF8446042803DDDFF85C90C3F82B
:102340001490BCF1080F00DD9961BCF10C0F01DDA8
:10235000C3F81CE0BCF1100F7FF728AF1E6225E721
:102360006FF01B0126E700BFF4040020F87101089C
:10237000D07101086C0500200000003A1986611830
:10238000981B0020901B0020B8000020941B002008
:10239000D34D62101C7201085C72010810B40A4C23
:1023A00024680460094800680860094909681160E8
:1023B000084A1268B2F1FF3F03D01A605DF8044B7F
:1023C00070470022F9E700BF981B0020941B0020F3
:1023D000901B0020B800002010B582B0214B1B6874
:1023E00013F0060F22D11F4B1B6813F0060F23D1E9
:1023F000FFF738FE1C4C00221C49204613F031FD2B
:1024000002220023CDE9002320460CF08FFA154B61
:102410001B6803F00703022B14D8124B1B6803F050
:102420000703022B14D8002002B010BD104A02216D
:102430000C480EF0F6FDD6E70E4A022109480EF0D0
:10244000F0FDD5E70C4A032106480EF0EAFDE4E76B
:10245000642300934FF4FA53084A032101480EF015
:10246000F5FDE0E7F40400200809002055200008ED
:1024700098720108C0720108E8720108207301080F
:1024800038B5836805699C697CB112F4000F06D0E9
:102490002D6801238B401D4201D082F0C062044BA5
:1024A000134002F0B072A04738BD6FF05700FBE751
:1024B0004000000608B5144813F0F0F858B9134B63
:1024C0001B6813F0070F00D108BD114A01210F4806
:1024D0000EF0A7FDF8E74FF4D0110E480DF0CAFE3C
:1024E0000A4B1B6803F00703022B07D809480DF0BD
:1024F000E9FE4FF4FA600DF0F9FEF7E7064A032112
:1025000002480EF08EFDF1E7B468010804050020D2
:102510007C730108707801089473010808B50248BB
:102520000AF008FF08BD00BF9C05002038B5002553
:1025300013E02B46104A032110480EF07CFD104C8E
:1025400001220D2120460DF0B0FE64200DF0CEFEDC
:1025500000220D2120460DF0A8FE4FF0FF324FF073
:10256000FF3308480AF02EFF0135044B1B6803F0C7
:102570000703022BE3D9DCE7AC7301080405002054
:10258000B46801089C05002010B5AC4B1B6803F033
:102590000703022B14D8FFF71FFF031E16DBA74B00
:1025A0001B6803F00703022B26D8A54813F076F822
:1025B00070BBA24B1B6813F0070F23D1002010BD86
:1025C000A04A03219D480EF02CFDE4E79B4A1268C7
:1025D00012F0070F0AD1994B1B6813F0070FE4D0D4
:1025E000994A012195480EF01CFDDEE7974A01212A
:1025F00092480EF020FDEEE7954A03218F480EF039
:1026000010FDD2E7934A01218C480EF00AFDD5E770
:10261000914C4FF4803120460DF02CFE4FF0B86104
:1026200020460DF0F7FD8D498D4B4B6001238B60EB
:1026300083480DF051FE814B1B6803F00703022B0A
:1026400000F2A7807D4B1B6803F00703022B00F20A
:10265000A6807A4B1B6803F00703022B00F2A580CB
:10266000764B1B6803F00703022B00F2A480734B28
:102670001B6803F00703022B00F2A3806F4B1B685B
:1026800003F00703022B00F2A2806C4B1B6803F0DF
:102690000703022B00F2A180684B1B6803F00703BD
:1026A000022B00F2A080654B1B6803F00703022B8E
:1026B00000F29F80614B1B6803F00703022B00F2BE
:1026C0009E805E4B1B6803F00703022B00F29D8087
:1026D0005A4B1B6803F00703022B00F29C80574BF8
:1026E0001B6803F00703022B00F29B80534B1B680F
:1026F00003F00703022B00F29A80504B1B6803F093
:102700000703022B00F2CA804C4B1B6803F007033F
:10271000022B00F2C980494B1B6803F00703022B10
:1027200000F2C880454B1B6803F00703022B00F240
:10273000C780424B1B6803F00703022B00F2C680E0
:102740003E4B1B6803F00703022B00F2C5803B4B96
:102750001B6803F00703022B00F2C480374B1B6891
:1027600003F00703022B00F2C380344B1B6803F015
:102770000703022B00F2C280304B1B6803F00703F3
:10278000022B7FF61BAF374A03212C480EF049FC81
:1027900014E7354A032129480EF043FC52E7334A37
:1027A000032126480EF03DFC53E7314A032123481C
:1027B0000EF037FC54E72F4A032120480EF031FC7D
:1027C00055E72D4A03211D480EF02BFC56E72B4AF6
:1027D00003211A480EF025FC57E7294A0321174820
:1027E0000EF01FFC58E7274A032114480EF019FC8D
:1027F00059E7254A032111480EF013FC5AE7234AF2
:1028000003210E480EF00DFC5BE7214A03210B4823
:102810000EF007FC5CE71A4A032108480EF001FCA1
:102820005DE71C4A032105480EF0FBFB5EE71A4AF0
:10283000032102480EF0F5FB5FE700BF040500200E
:102840008C690108CC7301082C740108FC73010821
:102850005C7401088C74010868780108F01B002082
:102860001D2500081C780108A8740108D07401080F
:10287000F07401080C750108247501085C750108E5
:102880004098010890750108AC750108E0750108D1
:10289000147601083C760108507601081A4A032193
:1028A0001A480EF0BEFB2FE7194A032117480EF015
:1028B000B8FB30E7174A032114480EF0B2FB31E7AA
:1028C000154A032111480EF0ACFB32E7134A0321ED
:1028D0000E480EF0A6FB33E7114A03210B480EF019
:1028E000A0FB34E70F4A032108480EF09AFB35E7B6
:1028F0000D4A032105480EF094FB36E70B4A0321ED
:1029000002480EF08EFB37E78876010804050020A8
:10291000B8760108F0760108207701085877010899
:102920004098010888770108B8770108EC7701081A
:102930002DE9F04F2DED028B85B002AF13F082FA36
:10294000002243182CD21344BD4AA2FB034525F0B4
:10295000030404EB95041B1BC01A61F100014FF046
:10296000CC3300FB03F302FB0133A0FB0202134450
:10297000440844EAC374B34B1B6803F00703022BFB
:1029800010D8B04B1B6803F00703022B77D99623AE
:102990000093C823AC4A0321AA480EF057FB6EE00F
:1029A0000122D0E7A94A0321A6480EF03AFBE8E746
:1029B00001206FE06FF0004105E1132940F31A8117
:1029C00014213AB10520387100207871B871F8717E
:1029D000786818616FF300086FF341086FF382089D
:1029E0006FF3C508022363F38818C1F30A0363F386
:1029F00053286FF31F5800234146924802F02AFBE8
:102A0000D546934B1A688E4BA3FB0213DB0803EBEE
:102A10008303B2EB430F06D18A4B1B6803F0070315
:102A2000022B00F2EA808B490A6801328A4BA3FB31
:102A300002031B09322000FB13230B60C834A20FD2
:102A4000A3001B1942F10002DB18524153EA0201B4
:102A500000F0A1811D4611466FF0010098426FF011
:102A60000043934102D205466FF000416FF0010030
:102A7000401B4FF0FF3363EB01010BF011FB09F03A
:102A8000F3FA0546734B1E6813F0DCF90346002089
:102A90005A188DD202446A48A0FB02CE2EF0030CD5
:102AA0000CEB9E0CA2EB0C029B1A61F100024FF0A2
:102AB000CC3103FB01F100FB0211A3FB0030014408
:102AC0005B0843EAC1736549320101EB061A8B507A
:102AD0005F4A1368591C1160CAF80C300421781839
:102AE00010F054FE7A68DFF89CB1ABFB02139B092F
:102AF0004FF47A7101FB132307EE903AF8EE677AF0
:102B00009FED578A87EE887AF3EE097A77EE277A77
:102B1000B1EE047A77EEC77ACAED017A042178180B
:102B200010F034FE7A68ABFB02131B0A4FF47A6193
:102B300001FB132307EE903AF8EE677A87EE887A66
:102B4000DFED487A77EE277AB3EE047A77EEC77A2C
:102B5000CAED027A0421781810F018FE7B68580933
:102B6000414AA2FB0020C009404A02FB103012F08B
:102B700085FD09F079FA401BC3083D4AA2FB0323F7
:102B80005D083C4A1268B2EB530F01D2394B1D600D
:102B9000394B98427FF635AF384A136801331360DA
:102BA000284B1B6813F0060F3FF42BAF2B4B03EBA6
:102BB0000613D3F80CC0EA468AB002AB13F1100238
:102BC0003FF4F8AE1421002A3FF4F7AE084604297A
:102BD00003DDDFF8B4E0C3F814E0082801DDC3F832
:102BE00018C00C2800DDDD6110287FF7E6AE244810
:102BF0001862E2E66FF01B01E3E6184B03EB0616E2
:102C0000D6F80CA07068FDF737FC41EC180BB068E3
:102C1000FDF732FC41EC170B6E461C230C2213F01F
:102C2000070F02D10832083304E004320433F6E718
:102C30000432043313F0070FFAD10832083327E0C7
:102C4000CDCCCCCC10050020A07801087878010804
:102C5000041C0020081C00201F85EB510C1C0020C8
:102C60000000C84200007042C55A7C0AA0860100DC
:102C700019866118FC1B002027868001001C00209B
:102C8000F0490200D34D6210C078010804320433C9
:102C900013F0030FFAD1111D0B461B3222F007026D
:102CA000ADEB020D02AA29B102F1100C032918D8CC
:102CB0006FF01B036FF300096FF341096FF3820993
:102CC0006FF3C509032161F3881963F353296FF387
:102CD0001F59103200234946314802F0BBF9B5466E
:102CE000A1E6BCF1000F07D0042901DD2D4B536193
:102CF000082901DDC2F818A01C204FF00C0E034675
:102D000010F0070F0DD1F246BCF1000F05D08E4533
:102D100003DA0CEB0E0080ED008B0AF1080A083391
:102D200006E00EF1040E0430E9E70AF1040A043368
:102D30009E4613F0070FF8D15046BCF1000F05D0A6
:102D40008A4503DA0CEB0A0383ED007B08300EF1B1
:102D5000080301E00430043313F0030FFAD10346F3
:102D6000BCF1000F03D0884201DA4CF80050181D66
:102D700081420DDB0346BCF1000F9BD0C0F38700FE
:102D8000387100217971B971F9717868106191E732
:102D90006FF01B03EFE76FF001004FF0FF316CE6BF
:102DA00010050020F8780108044B1B680360044BF1
:102DB0001B680B60034B1B6813607047041C0020EA
:102DC000001C0020FC1B0020094B1B686BB1094B49
:102DD0001A683132084BA3FB02131B09322101FB95
:102DE0001323064800EB031070470020704700BF14
:102DF000041C0020081C00201F85EB510C1C002027
:102E0000F0B5154B1C68322C28BF32240CB3064693
:102E10000D464FF0000EF446A6451BDAAC4519DA14
:102E20000E4B1A68A2EB0E0231320D4BA3FB0213BC
:102E30001B09322101FB132306EB0C17094A02EB95
:102E400003130FCB87E80F000EF1010E0CF1010CFC
:102E5000E2E7A4466046F0BD041C0020081C0020E8
:102E60001F85EB510C1C002030B585B0044601AA2B
:102E700002A903A80DF0C5F92B4920460FF039F936
:102E80002A4920460FF035F9294920460FF031F93B
:102E9000039A284920460FF02CF9029A2649204629
:102EA0000FF027F9254A039BB2FBF3F22449204691
:102EB0000FF01FF9019A234920460FF01AF9224911
:102EC00020460FF016F9214D294620460FF011F942
:102ED0001F4920460FF00DF9019A1E4920460FF0B8
:102EE00008F91D4920460FF004F91C4920460FF04F
:102EF00000F91B4920460FF0FCF81A4920460FF054
:102F0000F8F8294620460FF0F4F8174920460FF04C
:102F1000F0F8164920460FF0ECF8154920460FF05E
:102F2000E8F8002005B030BD40790108707901084B
:102F30009C790108A8790108CC79010840420F006A
:102F4000E8790108087A0108207A0108D087010889
:102F5000387A01085C7A01087C7A0108A07A0108B5
:102F6000C87A0108EC7A0108187B01082C7B01085B
:102F70004C7B010830B52DED028B89B004463F49EA
:102F80000FF0B7F805AA06A907A80DF03AF901ABAA
:102F900002AA03A904A8FFF701FA059A38492046B6
:102FA0000FF0A7F8019A374920460FF0A2F8029ACD
:102FB000354920460FF09DF8049B23B9002009B045
:102FC000BDEC028B30BD029D019BED1A2A462F49B4
:102FD00020460FF08EF8029B059AD31A07EE903A1E
:102FE000F8EE677A07EE102AB8EE477A87EE878AFE
:102FF000DFED277A28EE278A18EE100AFDF73CFA53
:1030000002460B46234920460FF073F8224920461A
:103010000FF06FF8214920460FF06BF8092D18D9F1
:103020001D2D1BD81E4920460FF063F8F3EE047ADD
:10303000B4EEE78AF1EE10FA15DCF2EE047AB4EEA3
:10304000E78AF1EE10FA13DD164920460FF051F829
:10305000B4E7154920460FF04CF8E7E7134920463E
:103060000FF047F8E2E7124920460FF042F8A5E7D3
:10307000104920460FF03DF8A0E700BF807B010813
:10308000AC7B0108CC7B0108E47B0108FC7B0108D8
:103090000000C8420C7C0108D0870108287C010888
:1030A000647C0108C87C0108447C01087C7C010820
:1030B000AC7C0108E87C010830B585B004466B465D
:1030C00001AA02A903A8FFF769F92D4920460FF0CC
:1030D00010F8039A2B4920460FF00BF8029A2A4960
:1030E00020460FF006F8294920460FF002F8009A12
:1030F000274920460EF0FDFF019A264920460EF092
:10310000F8FF039B13B9002005B030BDDDED027A56
:10311000B8EE677A07EE903AF8EE677AC7EE276A5C
:10312000DFED1D7A66EEA77A17EE900AFDF7A4F997
:1031300002460B46194920460EF0DBFF029AB2B94F
:10314000174920460EF0D5FF019B002BDBD0009DD8
:10315000002DD8D05D1B2A46124920460EF0C9FF2B
:10316000142DD0D9104920460EF0C3FFCBE70F49EC
:1031700020460EF0BEFF0E4920460EF0BAFFE3E7F0
:10318000187D0108447D01085C7D0108747D0108FB
:103190008C7D0108A07D01080000C842B47D0108B3
:1031A000CC7D0108FC7B01087C7E0108007E0108C3
:1031B0003C7E01082DE9F0478CB0814665490EF050
:1031C00098FF654948460EF094FF644948460EF062
:1031D00090FF12F037FE03460A46002059181AD213
:1031E00001445F48A0FB014525F0030404EB95046E
:1031F000091B5B1A62F100014FF0CC3203FB02F2B3
:1032000000FB0122A3FB003002444FEA530848EAC6
:10321000C27800252FE00120E2E7DDF80CA007EEE0
:10322000904AB8EEE77ADFED4F7A67EE277A17EE2D
:10323000900AFDF721F941EC100BFDF75DFF57EC0B
:10324000106B5046FDF718F932463B46FCF7B6FFC7
:10325000FDF72CFC03900134B4F57A7FDDDB0135FA
:10326000414BA3FB05235B09642202FB13534BB3C1
:103270000A200DF04BF812F0E5FD0022431832D27F
:103280001344374CA4FB032626F0030202EB9602FC
:103290009B1AC01A61F100014FF0CC3200FB02F220
:1032A00004FB0122A0FB04031A44430843EAC2734F
:1032B000A3EB080347F22F52934216D8002303933F
:1032C0000024C9E707AB06AA05A904A8FFF766F81A
:1032D000069B0193059B0093049B2A46234948467D
:1032E0000EF007FFC4E70122CAE7214948460EF065
:1032F00000FF08AB09AA0AA90BA8FFF74FF81D4960
:1033000048460EF0F6FE1C4948460EF0F2FE2A46EC
:103310001A4948460EF0EDFE0B9A194948460EF040
:10332000E8FE0A9A174948460EF0E3FE0A9B3BB9AD
:10333000154948460EF0DDFE00200CB0BDE8F087D0
:10334000124948460EF0D5FE114948460EF0D1FE0E
:10335000F2E700BFB87E0108E07E0108107F010897
:10336000CDCCCCCCCDCCCC3D1F85EB51547F0108CE
:10337000847F0108D0870108A07F0108C87F010869
:10338000E47F01085C7D01080080010838800108A5
:103390006C8001082DE9F0438FB00546012938D92A
:1033A000506812F098FF0646431F372B2AD8324642
:1033B000994928460EF09DFE984928460EF099FE40
:1033C00012F040FD0022431825D21344944AA2FB78
:1033D000034727F0030404EB97041B1B4FF000087E
:1033E000C01A61F100014FF0CC3300FB03F302FB84
:1033F0000133A0FB02421344640844EAC374274625
:10340000C14634E0874928460EF091FE6FF0150062
:10341000F8E00A26CBE70122D7E7012252E0012299
:103420007FE012F00FFD0022431880F0B0801344BB
:10343000DFF8ECC1ACFB034222F0030404EB92047E
:103440001B1BC01A61F100024FF0CC3100FB01F1EF
:103450000CFB0211A0FB0C031944440844EAC1749C
:10346000DDF81880DDF81C9064200CF04FFF12F09E
:10347000E9FC0022431880F08C801344684AA2FBC8
:1034800003CE2EF0030C0CEB9E0CA3EB0C03C01A26
:1034900061F100034FF0CC3100FB01F102FB03119D
:1034A000A0FB02021144400840EAC170C01B4FF467
:1034B0007A7306FB03F398426DD212F0C3FC00222C
:1034C0004318AAD21344564AA2FB03CE2EF0030C93
:1034D0000CEB9E0CA3EB0C03C01A61F100034FF040
:1034E000CC3100FB01F102FB0311A0FB02031944E4
:1034F000400840EAC170001BB0F57A7FB4D309AB35
:1035000008AA07A906A8FEF749FF069CA4EB080431
:10351000079BA3EB090912F095FC00224318BFF4A6
:103520007EAF1344DFF8F8C0ACFB03E222F0030ED9
:103530000EEB920EA3EB0E03C01A61F100024FF0E6
:10354000CC3100FB01F10CFB0211A0FB0C03194470
:10355000420842EAC172D21B334BA3FB0232099BE1
:103560000493089B0393CDF80890079B0193009464
:10357000069B92092D4928460EF0BBFDB9F1000FBC
:103580003FF44FAF2A4928460EF0B3FD49E7012228
:103590004DE7012271E7274928460EF0AAFD0AAB44
:1035A0000BAA0CA90DA8FEF7F9FE234928460EF038
:1035B000A0FD224928460EF09CFD0D9A2049284680
:1035C0000EF097FD0C9A1F4928460EF092FD0D98BB
:1035D000FCF730FF804689463046FCF73BFF024649
:1035E0000B4640464946FDF7C9F802460B461649C8
:1035F00028460EF07EFD0C9B3BB9144928460EF080
:1036000078FD00200FB0BDE8F083114928460EF088
:1036100070FD0020F6E700BFCC80010800810108A2
:10362000CDCCCCCCA0800108D34D621028810108FC
:103630006C8101089C810108D0870108B8810108CC
:10364000E47F01085C7D0108D4810108F88101084C
:103650003082010810B504461A490EF04AFD1A4995
:1036600020460EF046FD194920460EF042FD18494D
:1036700020460EF03EFD174920460EF03AFD164951
:1036800020460EF036FD154920460EF032FD144955
:1036900020460EF02EFD134920460EF02AFD124959
:1036A00020460EF026FD114920460EF022FD10495D
:1036B00020460EF01EFD0F4920460EF01AFD002098
:1036C00010BD00BF04840108348401085C84010833
:1036D0007484010898840108B0840108C884010832
:1036E000E0840108FC84010814850108388501087C
:1036F000648501088C85010810B52DED028B84B01E
:10370000044601AA02A903A8FFF74EFB2749204659
:103710000EF0EFFC039A264920460EF0EAFC029ACE
:10372000244920460EF0E5FC019A234920460EF07C
:10373000E0FC039B23B9002004B0BDEC028B10BD5C
:10374000DDED027AB8EE677A07EE903AF8EE677A26
:1037500087EE278ADFED197A28EE278A18EE100AFD
:10376000FCF78AFE02460B46154920460EF0C1FCC6
:10377000F1EE047AB4EEE78AF1EE10FA0BD4F2EE31
:103780000E7AB4EEE78AF1EE10FA09D50D4920461B
:103790000EF0AFFCCFE70C4920460EF0AAFCCAE7BA
:1037A0000A4920460EF0A5FCC5E700BFB085010818
:1037B000E08501085C7D0108F88501080000C84229
:1037C00018860108548601083086010874860108AD
:1037D0002DE9F04F8DB08046012936D9506812F09E
:1037E0007AFD0546431F372B28D82A467D49404697
:1037F0000EF07FFC7C4940460EF07BFC12F022FB71
:103800000022431823D21344784AA2FB034626F031
:10381000030404EB96041B1BC01A61F100014FF076
:10382000CC3300FB03F302FB0133A0FB0242134441
:10383000640844EAC374264600273FE06C494046CA
:103840000EF075FC6FF01500C8E00F25CDE70122E2
:10385000D9E701225EE0012289E000200021CDE9C4
:103860000401CDF808B0CDF804A000974B462246DD
:10387000604940460EF03DFC12F0E4FA0022431885
:1038800080F0A3801344594FA7FB034222F00304A6
:1038900004EB92041B1BC01A61F100024FF0CC3103
:1038A00000FB01F107FB0211A0FB070319444408C8
:1038B00044EAC174099F64200CF038FD12F0C2FA8A
:1038C0000022431880F083801344DFF820C1ACFB52
:1038D00003E222F0030E0EEB920EA3EB0E03C01ACE
:1038E00061F100024FF0CC3100FB01F10CFB021141
:1038F000A0FB0C031944400840EAC170801B4FF440
:103900007A7305FB03F3984263D212F09BFA00220C
:1039100043189ED21344DFF8D4C0ACFB03E222F07C
:10392000030E0EEB920EA3EB0E03C01A61F1000220
:103930004FF0CC3100FB01F10CFB0211A0FB0C039A
:103940001944400840EAC170001B40F6B733984262
:10395000B1D90BAA0AA909A8FFF726FAFFF734FA8A
:10396000079012F06FFA00224318BFF474AF1344AB
:103970001E4CA4FB03C222F0030C0CEB920CA3EB35
:103980000C03C01A61F100024FF0CC3100FB01F1D1
:1039900004FB0211A0FB04031944400840EAC17073
:1039A000841B154BA3FB0434A409DDF82490A9EB78
:1039B0000707DDF828A0DDF82CB0079B002B3FF4AB
:1039C0004CAF5868FCF758FD49E701225AE701223D
:1039D0007AE70A4940460EF08CFB00200DB0BDE8A6
:1039E000F08F00BF98860108CC860108CDCCCCCCE6
:1039F000A080010808870108D34D62109C8101084E
:103A000070B50446FFF7E0F9002846D00546264980
:103A100020460EF06EFBEA68244920460EF069FB52
:103A20002A68234920460EF064FB6868FCF724FDF1
:103A300002460B461F4920460EF05BFBA868FCF7C8
:103A40001BFD02460B461C4920460EF052FB12F0AD
:103A5000F9F902460020531824D20344174EA6FB5E
:103A6000030C2CF0030000EB9C001B1AD21A61F12E
:103A700000004FF0CC3102FB01F106FB0011A2FB6C
:103A800006231944520842EAC1722B68D21A0C4923
:103A900020460EF02EFB002070BD0A4920460EF095
:103AA00028FBF8E70120D8E76C8701088487010824
:103AB00094870108A8870108C0870108CDCCCCCC29
:103AC000D4870108488701082DE9F047D6B007469A
:103AD00001293FD9506812F0FEFB0146431E132B0B
:103AE00031D806A8FFF78CF98046A8B302463049C2
:103AF00038460EF0FEFA2F4938460EF0FAFA2E49F3
:103B000038460EF0F6FA12F09DF9034600205A18D6
:103B100027D202442948A0FB024525F0030404EB08
:103B20009504121B9B1A61F100014FF0CC3203FB8C
:103B300002F200FB0122A3FB00310A445D0845EAC2
:103B4000C27500242BE01E4938460EF0F0FA6FF0E3
:103B5000150828E00521C4E71A4938460EF0C9FACD
:103B600021E00120D5E706AA210102EB04135658F3
:103B7000D3F804A0D3F80C90AA1B04929868FCF721
:103B80007BFCCDE902015046FCF776FCCDE9000153
:103B900033464A460C4938460EF0ABFA01344445E8
:103BA000E1DB4FF00008404656B0BDE8F08700BFAB
:103BB0002C8801085888010890880108CDCCCCCC0D
:103BC000E487010810880108C488010810B504467C
:103BD00004490EF08EFA044920460EF08AFA0020BD
:103BE00010BD00BF1C8A0108408A010808B50449BD
:103BF0000EF07FFA002000F061FE002008BD00BF3B
:103C0000788A010810B5044619490EF072FA19496C
:103C100020460EF06EFA184920460EF06AFA12F0AD
:103C200011F90246002053181FD203441348A0FB89
:103C300003CE2EF0030C0CEB9E0CA3EB0C03D21A5C
:103C400061F100014FF0CC3302FB03F300FB0133C1
:103C5000A2FB00200344520842EAC3725B080849F1
:103C600020460EF046FA002010BD0120DDE700BF1F
:103C70009C8A0108B08A0108CC8A0108CDCCCCCC42
:103C8000E08A010810B504461D490EF032FA1D4ABB
:103C90001D4920460EF02DFA42F210721B492046B3
:103CA0000EF027FA12F0CEF802460020531825D263
:103CB00003441748A0FB03CE2EF0030C0CEB9E0C24
:103CC000A3EB0C03D21A61F100014FF0CC3302FBDD
:103CD00003F300FB0133A2FB00200344520842EA35
:103CE000C3725B080B4920460EF003FA4FF4804282
:103CF000094920460EF0FDF9002010BD0120D7E74C
:103D0000F88A0108188B0108248B01083C8B0108F4
:103D1000CDCCCCCC588B01086C8B010810B5044677
:103D200004490EF0E6F92146034812F012F800208B
:103D300010BD00BF8C8B01083D3D000870B50546E5
:103D40000C4611F02CFE064648B1284611F024FE20
:103D500003463246034920460EF0CBF970BD024EB1
:103D6000F3E700BFB88B0108AC8B01082DE9F04FD9
:103D700091B005920293134602F004020092C3F33D
:103D8000C20310F00302019240F02A8280468A4664
:103D90000133041D00284ED0B8F1000F05D0A4EB6C
:103DA00008020432524500F21E82029A551E019A00
:103DB00004920692039200264FF0FF3B0427B94677
:103DC000B8F1000F01D0029A22605A1E0792002B10
:103DD00040F35C81059B13F0020228D00120A4EB84
:103DE00008018B081AB1B1F5007F80F002820399B7
:103DF0000F2900F20182B8F1000F00F05F81DBB201
:103E000001F140026A4402F8103C02F820BC00288C
:103E100000F0508163F07F0301F140026A4402F830
:103E2000103C049B01330493039B0133039304343C
:103E3000002140463DE001F0070A5444CAF1080A57
:103E4000AAE7002634E0002632E0002630E008270A
:103E5000B9462DE0252B2BD10BF1010B01260427B0
:103E6000B94625E0472BEED82A2B14D32A3BDBB2E8
:103E70004FF0010C0CFA03F34FF6DA7C13EA0C0F47
:103E800016D113F0625F40F0C18013F0010F40F0D3
:103E90008D8000260CE0252B03D10BF1FF3B002683
:103EA00006E001D9002603E0202B01D0232BCCD142
:103EB00015466A1C6B78002B00F01981002EC9D0C2
:103EC0007A2BBED84C2BCDD34C3B2E2B62D80FF285
:103ED000080C5CF823F000BFB13E0008953F0008D5
:103EE000953F0008953F0008953F0008953F000862
:103EF000953F0008953F0008953F0008953F000852
:103F0000953F0008953F0008A53F0008953F000831
:103F1000953F0008953F0008953F0008953F000831
:103F2000953F0008953F0008953F00080D400008A8
:103F3000953F0008A53F0008A53F00080D40000878
:103F40000D4000080D400008B13E0008A53F0008E4
:103F50004F3E0008953F0008B13E0008953F00081D
:103F600069400008A53F000869400008953F000827
:103F7000953F0008714000089F3F0008A53F0008DA
:103F8000953F0008953F0008A53F0008953F0008B1
:103F9000993F000800268BE70427B94688E70427E5
:103FA000B94685E72B786C2B24D000263C44013C95
:103FB000B4FBF7F407FB04F420B1231A4B44534538
:103FC00000F21481002958D1B9F1040F00F0878064
:103FD000B9F1080F40F013811A9B073323F0070350
:103FE00003F108051A9593ED007B08B184ED007B81
:103FF00008345DE712F8023C6C2B03D0002604273E
:10400000B946D3E700260827B946CFE72B784C2BD3
:104010001AD01A9B073323F0070303F108061A96F8
:10402000D3E90067073424F0070440B1231A0833AA
:10403000534513D82B784C2B13D0C4E900670834B0
:1040400000260827B94633E71A9B073323F00703F6
:1040500003F108061A96D3E90067E3E76FF01B0047
:10406000BBE0C4E90067EAE700260427B9469DE7FC
:10407000314600260427B94698E780461A9B191D49
:104080001A911B680293079B154699E6624B029AA8
:104090009A4204D3614B9A420AD3002300E00023E2
:1040A000002B7FF497AE059B03F00202002096E6FA
:1040B0000123F5E7069B01330693B5E610B10AF13B
:1040C000010AB1E6009B13B10AF1020AACE60298BC
:1040D000FCF7B8FD0AEB000303F1020AA4E61A9B01
:1040E0001D1D1A951B6800B123600434E0E680466C
:1040F000231AB3F5806F80F0858090B100220260B2
:104100009B080370009B83B1069BC370049B88F8D7
:1041100002301BBB019DDDF80C90DDF810B0029F52
:104120003DE05344A3F1080057E0069B4370EDE7E0
:1041300001339842EED903F140026A4412F8101C90
:1041400012F9102C002AF3DA01F07F01A4EB080227
:104150000132524559D804F8011BE9E7019B039845
:10416000E7E7009B43B305F140036B4413F8203CA1
:1041700004F8013B019EA4EB08033344013353458B
:1041800046D805F140036B4413F8103C04F8013B9A
:1041900032463946204612F068F834440135A945C4
:1041A00019D9BBF1000FDCD005F140036B4413F9C2
:1041B000103C002BD5DAF1E705F140036B4413F80E
:1041C000103C58F82370002248F823203846FCF7AA
:1041D00039FD461CCFE7A4EB080011B0BDE8F08F15
:1041E0006FF00D00F9E76FF01B00F6E76FF01B00B2
:1041F000F3E76FF01500F0E76FF01500EDE76FF0F3
:104200001500EAE76FF01500E7E76FF01B00E4E741
:104210006FF01B00E1E700BF50670108A4BD010873
:104220002DE9F04F97B000AF8346BA61FB60D7F835
:104230008030C3F3C0033B62396111B90CF009F956
:1042400038619BF80260B14636B1D7F8803013F080
:10425000010F0DD1002300E000239BF803207A62B8
:1042600042B1D7F8802012F0020F22D1002202E0E2
:104270000123F2E7002202B9EBB19BF80050AA003B
:10428000BA60DBF804207A610BEB8505BA69F2B1FC
:10429000002B40F00581B9F1000F00F01081D7F834
:1042A000803013F0040F40F00E810020F8610646C4
:1042B000FAE00122DFE7BB691BB1FA6839695846A9
:1042C00098473C6920465C37BD46BDE8F08F3C69A5
:1042D00053BB4D444FF00008D7F8803003F005037E
:1042E000FB604FF0000AC7F81080A046C7F81CB06A
:1042F000D7F804B0BEE00444013501364E45EBD298
:104300002A7800235BF822201946B8690CF0B6F829
:10431000BAF1000FEFD0D7F888309845EBD22AF8E1
:10432000180008F10108E6E70026B046D7F884A097
:10433000E4E700253B6A7BB9002D7DD0D7F88030BB
:1043400013F0010F7DD1FB68002B73D10223A8EB82
:1043500003088CE00125EDE7494678690CF0D4F8B4
:104360000028E9D0B94B1B6813F0060F40D06C460B
:10437000002387F82C30022387F82D308AB0694655
:1043800011F1100237D012251AB1042D01DDB04B06
:104390004B61002387F82830022387F829306ABB55
:1043A000112D44DD122362B1042087F82C00002077
:1043B00087F82D0087F82E00012087F82F00F86A73
:1043C00008616FF3000B6FF3410B6FF3820B6FF318
:1043D000C50B022161F3881BC3F30A0363F3532B5C
:1043E0006FF31F5B00235946984800F033FEA54643
:1043F000A8F102083BE06FF00045C5E72B46082D09
:1044000001DD786988610C2B01DDC1F81C9001F198
:10441000200300200128C3D800F1300C07F1280E3A
:10442000F4441CF830CC03F801CB0130F2E76FF014
:104430001B03B8E701238AE7D7F8803013F0020F97
:1044400015D0002322461946B8690CF017F8D7F8A2
:10445000843053B13B69D7F88820934205D2D7F80E
:10446000842022F8130001333B61013880440AF1B3
:10447000010A35467B6A9A4510D22E4616F8029BF1
:104480006B78FA6952F82340724B9C42FFF451AFAB
:10449000714B9C42FFF45EAF00254BE7444611E7A9
:1044A00007F144000023FB6118B14A46294611F088
:1044B000DCFE4D444FF00008C7F804901EE00020D9
:1044C000F8610646F0E7FE6107F134000026EBE7ED
:1044D00000253B6A33BB002D3BD0D7F8803013F06A
:1044E000010F26D0731C06F1300207F1280156187F
:1044F00006F8149CDEB208F1010825467B6A98454F
:1045000049D22C4614F802AB95F801905BF829309B
:10451000504A9342DCD3504A934201D30025D8E756
:104520000125D6E7514678690BF0EEFF0028D2D07E
:10453000E1E7D7F8803013F0040FDCD0FA69531CA0
:10454000303207F128010A4402F8249CDBB2FB61F7
:10455000D1E7D7F8803013F0020F09D0731C06F1B1
:10456000300207F12801561806F8149CDEB2C2E7A3
:10457000F9694B1C01F1300207F12800024402F8EE
:1045800024AC8A1CD2B2FA6107F1580252FA83F3C2
:1045900003F8249CAFE7D7F804909BF8003087F825
:1045A00054309BF80130334487F85530D7F88030C9
:1045B00013F0020F0ED1FB69C3F3470387F857309E
:1045C000D7F8803013F0010F06D113F0040F3AD161
:1045D000002302E00023F1E7002387F85630DBF8E0
:1045E00000003863786DCBF80000D7F80CA0524675
:1045F000B9685846BB699847041EFFF663AE386B2E
:10460000CBF800005246F96907F13400BB699847BE
:1046100000285DDB04EB0008B9684944786A01EBC7
:10462000400152463869411A2846BB699847041E22
:10463000FFF648AE08EB04054FF00008C7F824B0B9
:10464000B346BC6922E0FB69C7E700BFEC04002069
:10465000348D010850670108A4BD01084FF000091E
:1046600001E04FF000095246012107F12C00A0475C
:1046700000282FDB05444B463246514620460BF0BE
:10468000FDFE002828DB054408F10108D84518D2B2
:1046900008F1300307F12802134413F8143C87F89B
:1046A0002C307A6A52F82360D7F88430002BD5D0AA
:1046B000D7F888309845D4D2D7F8843033F818909A
:1046C000D1E7FA6800210846BB6998472C46F9E50E
:1046D0000446F7E50446F5E50446F3E5014B1860AA
:1046E000704700BFBC00002080B505460E46174647
:1046F000984609F071FD034612F020F80446DFF8F1
:10470000189049F80030424639463046A84754F8D8
:10471000090005F001FD00BF08000000034A5368CE
:1047200043F0020353600020704700BF002004E004
:10473000084B1A6842F480721A601A6842F40072D8
:104740001A601A6842F480621A60034B034A1A60C6
:10475000704700BF003C0240980100200024F40094
:1047600010B584B004468368642103FB01F14268FC
:10477000B1FBF2F1C068029001910092D21A216857
:1047800005480BF0EEFED4E90623044904480BF07B
:10479000E8FE04B010BD00BF008E0108EC8F0108D8
:1047A000408E0108F0B595B00446D0F8B0700E68A0
:1047B00011F0F5F810B10546037833B92346204AC5
:1047C0000B2101A80AF060FA01AD6946204611F0FC
:1047D00028F9024660BB04950597009BFF1A0697CF
:1047E00008A9204611F02AF9044600B101240EA8B8
:1047F00011F031F900B10134B4B9089A099C931849
:1048000044EB04009B1844EB0000410141EAD361F2
:104810005D015B1940EB01019818DDE90E2344EBC3
:104820000101FCF7E3F9079004A8B04715B0F0BD0B
:10483000294604480BF095FE00230093CBE700BF08
:10484000688E01086C8E010810B586B0044600EB36
:1048500000130F4800EBC31005AA4FF4006180302D
:1048600011F0CDF808B106B010BD059BC3F500618D
:10487000642201FB02F2D20A02924FF4006201921A
:1048800000912246034904480BF06BFEEBE700BFA2
:1048900000610020948E0108988E010800B583B055
:1048A000009001916946044811F05DFA0CF02CFA71
:1048B00003B05DF804FB00BFA547000810B504462F
:1048C00003480BF04EFE21460248FFF7E7FF10BDFC
:1048D000D08E01086147000870B506460D46084CA9
:1048E00004E02A463146204698471034054B9C4246
:1048F00004D223689B69002BF3D1F6E770BD00BF9B
:10490000A86C0108C86C010808B511F09BFA0022D8
:10491000431819D213440D4AA2FB03CE2EF0030C08
:104920000CEB9E0CA3EB0C03C01A61F100014FF0DD
:10493000CC3300FB03F302FB0133A0FB0202134460
:10494000400840EAC37008BD0122E3E7CDCCCCCCDF
:104950002DE9F041074605460AE007EA0807144B2F
:1049600003EB06135B680422196820460CF0D0FAAA
:10497000D5B195FAA5F6B6FA86F60D4C04EB0614F9
:104980000123B3406FEA030825EA0305237B002BCC
:10499000EED03301064AD3581B69002BDDD02046E8
:1049A00098470028E4D1D8E73846BDE8F08100BF39
:1049B000A86C01082DE9F04180460F461F4BBFF35C
:1049C0005B8F53E8005F6A1C43E800210029F8D19F
:1049D000BFF35B8F6DBB1A4C002607E063680422AF
:1049E000196820460CF094FA01361034154B9C429D
:1049F00011D2237B002BF7D020460CF09EF92368C0
:104A00001B69002BEAD0204698470028E6D00123F6
:104A1000B3401D43E8E7B8F1000F0BD055B128466D
:104A2000FFF796FF0546002FF8D00A200CF091F909
:104A3000F4E700252846BDE8F08100BF401F0020B4
:104A4000A86C0108C86C010808B5064B186018B1BD
:104A5000054B1B68092B00DC08BD044808F06AFC04
:104A6000FAE700BF341F00203C1F0020B4050020DF
:104A700008B5024808F05EFC08BD00BFB405002080
:104A800038B505460B4C00E010340B4B9C420FD25E
:104A900063685B79002BF7D0294620460CF069F952
:104AA0000028F1D023681B68294620469847EBE789
:104AB00038BD00BFA86C0108C86C010830B589B0CA
:104AC00000220F490F4811F0CCF90F4D00220023AE
:104AD000CDE90623002404940E2303930294019449
:104AE00000940A4B4FF440720949284610F065FFC4
:104AF0000849284608F0ACFD204609B030BD00BF8B
:104B0000714A000888110020700C0020A14E000896
:104B100080500020F48E0108014B53F820007047AC
:104B2000108F010848B108B5054A1060054B19609F
:104B3000084600F08FFD002008BD6FF0150070479B
:104B4000C0000020301F002008B5054B1B781BB1AA
:104B5000034B01221A7008BD024808F0EBFBF7E78F
:104B6000E0390020B405002008B5104BBFF35B8F7F
:104B700053E8001F013143E80012002AF8D1BFF3C7
:104B80005B8F30B90A4811F078F90A4808F0D2FB77
:104B900008BD094BBFF35B8F53E8001F013943E8A1
:104BA0000012002AF8D1BFF35B8FEBE7381F00201B
:104BB00088110020B40500203C1F0020064B002077
:104BC0000146BFF35B8F53E8000F43E80012002A51
:104BD000F9D1BFF35B8F7047381F002038B5FFF75E
:104BE000EDFF0546094C00E01034094B9C420BD206
:104BF00063685B79002BF7D023685B68002BF3D0E8
:104C0000294620469847EFE738BD00BFA86C010849
:104C1000C86C0108034B18680028D4BF002001208D
:104C2000704700BF381F002010B5044C04492046CF
:104C30000BF0FFFD034B1C6010BD00BFA80400205B
:104C4000FC8E01082C1F002008B500230D4A1370AC
:104C50000D4A13600D4A13604FF47A710C48FFF748
:104C600061FFFFF7E1FF00F085F90A4A06E0094B12
:104C7000D31A1B11013351680B711032064B9A4243
:104C8000F5D308BDE1390020381F00203C1F00206B
:104C900009490008A86C0108C86C010808B501465C
:104CA00001480CF088F808BDA804002008B50248A7
:104CB0000BF0A2FE08BD00BFA804002008B5014605
:104CC000024B18680CF07DF808BD00BF2C1F0020B7
:104CD00008B502480CF079F808BD00BFA804002010
:104CE00010B582B000220023CDE900232C4B1878A8
:104CF00008B902B010BD68460CF07FF8044680B1D8
:104D0000FFF7BEFE2046FFF7D9FF264BBFF35B8FB0
:104D100053E8001F013943E80012002AF8D1BFF31D
:104D20005B8FFFF777FF58B91F4A1368516813F577
:104D30007A7341F1000113605160FFF7C9FFD8E7B2
:104D400011F080F80022431827D21344174AA2FB1F
:104D5000034C2CF0030404EB9C041B1BC01A61F1F0
:104D600000014FF0CC3300FB03F302FB0133A0FB47
:104D700002021344400840EAC3705B080A490A680B
:104D80004968801A63EB010340F2E932904273F103
:104D90000003C9D3FFF722FFC6E70122D5E700BF12
:104DA000E03900203C1F002080110020CDCCCCCC6D
:104DB0000F4B1B7803B1704710B500210120FFF79E
:104DC000F9FD0C4C00E010340B4B9C4208D2636898
:104DD0005B79002BF7D023689B6820469847F2E761
:104DE000FFF77EFF0028FBD1014B01221A7010BD96
:104DF000E1390020A86C0108C86C010810B582B028
:104E00001A4BBFF35B8F53E8002F511C43E800108F
:104E10000028F8D1BFF35B8F154B1B7863B9154B96
:104E20001B68B3B1BAB1092A13D1134811F025F8A0
:104E3000124808F07FFA0CE0EFF31184102383F39B
:104E40001288BFF36F8FFFF74BFF84F31188BFF316
:104E50006F8F02B010BD00220023CDE9002342F283
:104E600010720023044809F061FDF2E73C1F0020A6
:104E7000E1390020341F002088110020B4050020F3
:104E800010B50446044B1B689847A06021460348B0
:104E90000BF0B7FF10BD00BFC0000020A804002029
:104EA0002DE9F04100210846FFF784FD804650B10E
:104EB0004FF4FA76002711F041FC154B1858FFF714
:104EC000C3FD002515E04FF0FF364FF0FF37F2E746
:104ED0004046FFF73DFD804670B94FF0FF364FF07A
:104EE000FF3709E02C4632463B460A4808F06AFA8A
:104EF0002546B8F1000FEBD1FFF7F2FE044600287B
:104F0000F6D1002DEED000210846FFF7E5FCEAE7D8
:104F100008000000B4050020014800EB8100704744
:104F2000EC0400200248034BC01AC008704700BFC1
:104F3000A86C0108F86B010810B50C46FFF7F2FFEA
:104F4000A04203D9024B53F8340010BD0020FCE707
:104F5000F86B010810B50C46FFF7E4FFA04204D936
:104F6000034B03EBC403187910BD0020FCE700BF1E
:104F7000F86B010810B500240EE021460020FFF771
:104F8000E9FF094A52F8243023F0070300F0070034
:104F9000184342F824000134044B054A9B1AB4EB31
:104FA000D30FEAD310BD00BFEC040020A86C0108A9
:104FB000F86B01082DE9F8430D461646984600287F
:104FC00012DBC4B2002320460BF053FF074610B19A
:104FD000404500D947463B463246E9B220460BF0F1
:104FE0002AFF3846BDE8F8830C4B0D4AA3EB0209B3
:104FF0004FEA1919002427460DE0094B03EB04136F
:1050000058684346324629460079FFF7D3FF874266
:1050100038BF074601344C45EFD3E2E7C86C0108BE
:10502000A86C010800B589B0059206930023079388
:1050300062B1074A0C9B02930B9B01930A9B00935E
:1050400005ABFFF7EDF809B05DF804FB0022F1E7CE
:10505000610F01082DE9F04F8BB004AF05461E46E5
:105060008846C1F34A24002C00F08F80914600222C
:10507000FA603A617A6104230293FB1801930A23D0
:10508000009307F10C0321464846FFF7C9F8B0F535
:10509000006F5ED3464B1B6813F0060F00F0848050
:1050A000D9F804106D4600233B7302237B738AB04A
:1050B00004AC14F1100221D012201AB1042801DD31
:1050C0003C4B636100233B7002237B70CAB10346F3
:1050D000082800DDA1610C2B02DD40F2FF73E361C3
:1050E00004F12003002101290BD801F118063E44E8
:1050F00016F8186C03F8016B0131F4E76FF000400B
:10510000DBE7112822DD122342B10421397300218B
:105110007973B9730121F973F868206100216FF385
:1051200000016FF341016FF382016FF3C5010220AB
:1051300060F38811C3F30A0363F353210023C1F31F
:1051400013011B480BF08FFFAD462DE06FF01B03E2
:10515000DAE760F35328C0F30A0A0AEB1850173055
:1051600020F007008008FFF799FD8346B0B10423C3
:105170000293FB1801930A230093534600F1100297
:1051800021464846FFF74EFF08E004EB1154173460
:1051900024F00704A008FFF781FD8346334642460A
:1051A000294658460BF0F5FE1C37BD46BDE8F08F8A
:1051B000F8040020308F01082DE9F04F85B08046BB
:1051C0000D4617461E46DDF838B0DDF84090B9F1BF
:1051D000000F46D0119B039300934B460F9A10216A
:1051E0000020FEF7C3FDB0F5006F2DD282460BEB19
:1051F0000003173323F0070300246FF300046FF359
:1052000041046FF3820468F3C50467F3881460F304
:1052100053246BF31F549808FFF740FD074650B125
:105220001030B9F1000F06D0119B00934B460F9A36
:105230005146FEF79BFD33462246294638460BF081
:10524000A8FE05B0BDE8F08F074B1B6813F0060FF2
:10525000F7D040F2FF73054A022103480BF0EBFE42
:10526000EFE70020C2E700BFF8040020708F0108BC
:10527000406820B1034BC01A40F38F0070474FF0D5
:10528000FF307047EC0400200EB400B582B0014638
:1052900003AB53F8042B0193034805F02BFA02B03B
:1052A0005DF804EB03B070479D10010810B584B0A1
:1052B00011F0440F05D01A4B1B6833B9002004B01D
:1052C00010BD1849FFF7E0FFF9E717490968B2FB7D
:1052D000F1F2B2FBF3FC03FB1C224FF47A7E0EFBCF
:1052E00002F2B2FBF3F403FB14210EFB01F1B1FB5C
:1052F000F3F10E4AA2FB0C32D20A4FF4616303FBB6
:1053000012CC0B4BA3FB0CE35B0902910194C3EBA2
:105310000311ACEB810100910649FFF7B5FFCEE721
:10532000481F0020A88F0108441F0020C5B3A29188
:1053300089888888B48F010861B108B52AB1064A06
:1053400052F8232012B9054A00E0044A0449FFF745
:105350009BFF08BD704700BF54900108D08F010823
:10536000D88F01082DE9F04105461746069EDDF865
:105370001C8081B900242EB1324611492846FFF71E
:1053800083FF0444B8F1000F14D06FB1099B042BC4
:1053900013D00C4909E00C4B099A53F822200B4911
:1053A000FFF772FF0446E6E7064942462846FFF744
:1053B0006BFF04442046BDE8F0810549F5E700BFD6
:1053C000F08F0108E08F010868900108E88F01085C
:1053D000DC8F01082DE9F04F87B005460C4604929A
:1053E00005939DF84C7001F0020B01F0010AC1F326
:1053F000C00801F480790BF00AFD18B30246164983
:105400002846FFF741FF0646BBF1000F1CD13A4684
:10541000514628460BF06DFEB9F1000F01D0002374
:1054200011930397129B0293119B0193109B00937E
:105430000023049A41462846FFF794FF304407B002
:10544000BDE8F08F0026DFE7059A21462846FFF7E2
:105450002DFF0644DBE700BFF48F010811F0100FA9
:105460000BD108B511F0200F03D00449FFF70CFF52
:1054700008BD0349FFF708FFFAE77047D087010826
:10548000F88F01082DE9F04105460F46164698466B
:105490000699FFF7E3FF0024444505DA244928462E
:1054A000FFF7F2FE0134F7E7002409E0204928461F
:1054B000FFF7EAFE0BE01F492846FFF7E5FE01343F
:1054C0000F2C0CDC002C02DD14F0070FEED0B442E0
:1054D000F1D23A5D18492846FFF7D6FEEFE71749A3
:1054E0002846FFF7D1FE002409E011492846FFF7BE
:1054F000CBFE0BE012492846FFF7C6FE01340F2C05
:1055000013DC002C02DD14F0070FEED0B44207D2FA
:105510003A5D0C4B9B5C13F0970FEBD12E22E9E721
:1055200003492846FFF7B0FEE8E7BDE8F08100BF79
:10553000EC8F010804900108FC8F01080890010815
:1055400080A2010894BC01082DE9F04184B0044612
:105550009DF82C500C9F0E9E95B9012B1ED019481A
:105560004FF0000827B13B46224617490AF09CFF3E
:10557000C6B905BB20460BF07AFD04B0BDE8F0814A
:1055800003950A980290019300920B4600220F990E
:105590002046FFF71FFF80460C48E3E70B484FF01B
:1055A0000008DFE70F9B0093434632460D992046E3
:1055B0000BF0B7FDDDE72A460F9920460BF0A5FD5D
:1055C000D8E700BFD5100108F5A600089D10010816
:1055D0002DE9F04383B00646056842F20F738B4213
:1055E00028BF0B46184A0521684609F04DFB0446C2
:1055F0007368D3F804900B27DFF8548005E04A461F
:1056000039464046A8473F1A8044002FF7D17368B7
:10561000D3F804806F4605E0424621463846A84745
:10562000241A0744002CF7D173685F681B24074EC7
:1056300005E03A4621463046A847241A0644002C85
:10564000F7D103B0BDE8F083F4B201080C90010873
:1056500028900108074B01221A6004E04008054A1F
:1056600013685B001360044B9842F7D8034B186033
:10567000704700BF441F002040420F00481F002019
:1056800070B506460D46002405E0315D0448836888
:105690005B6898470134AC42F7D3284670BD00BF21
:1056A000B0690108014B036000207047D0900108E9
:1056B000072801D900207047024B034483F8BB1030
:1056C000012070477C1F0020072801D90020704767
:1056D000024B034493F8BB00704700BF7C1F0020BF
:1056E00010B50378C3F341130A33064C54F8233042
:1056F00023B19847002803DB012010BD0020FCE700
:105700000020FAE77C1F00200A30024B43F82010EB
:10571000704700BF7C1F0020014B5862704700BFDC
:105720007C1F0020136800221A705A7001221A7020
:10573000064A92F8C3203AB1022242F001021A70DE
:1057400002230B60012070470022F6E77C1F002037
:1057500030B545884FEA152EAEF10403DBB2012BBC
:1057600021D9EDB2BEF1070F1FD8114B5B6A00249F
:1057700000E00344187840B193F801C0F445F8D133
:10578000A54201D00134F4E7012068B11360BEF1F5
:10579000020F02D01B780B6006E09A78DB7842EAB1
:1057A00003230B6000E0002030BD0020FCE700BFB9
:1057B0007C1F002038B50C460D4B5B6A156800E075
:1057C00013441A788AB193F801C0BCF1040FF7D1E1
:1057D00093F802C0B0F804E0F445F1D16046FFF759
:1057E00073FF28700120206000E0002038BD00BF5A
:1057F0007C1F0020034B93F8BA00003818BF01202B
:10580000704700BF7C1F0020074B5B6A00E0134419
:105810001A783AB159780229F9D119798142F6D921
:1058200001207047002070477C1F002030F080036B
:1058300018D01049104B99421AD210B403E0243109
:105840000D4B99420CD20C6A00230A7F9A42F6D97A
:1058500004EBC3021279824206D00133DBB2F4E7D3
:10586000002002E00120704701205DF8044B7047E2
:1058700000207047C0060020E4060020014B98611C
:10588000704700BF7C1F0020014BD861704700BFEC
:105890007C1F0020F8B506460A4D0B4B9D420FD2E7
:1058A0002F6A002401E00134E4B22B7FA34205D922
:1058B00007EBC400B0470028F5DAF8BD2435ECE763
:1058C0000020FAE7C0060020E406002038B50C4BA3
:1058D00000E024330B4CA3420FD25C680A4D6D6A82
:1058E000AC42F6D31D69002DF3D094F802C0848831
:1058F000E4B2A445EDD1A84701E06FF0850038BDC2
:10590000C0060020E40600207C1F00202DE9F041A5
:10591000054688461746134C05E03A464146284658
:10592000B0471CE02434104B9C4216D263680F4AE7
:10593000526A9342F6D3A669002EF3D09A78B5F84E
:1059400004C05FFA8CFC6245E7D05B79012BE9D19A
:105950003A4641462846B047E4E76FF08500BDE887
:10596000F08100BFC0060020E40600207C1F00205C
:10597000F8B507460E4615460A4C00E024340A4B9B
:105980009C420AD26369002BF8D02A463146384639
:10599000984703460028F1D101E06FF085031846CF
:1059A000F8BD00BFC0060020E406002008B510F0D6
:1059B000700F07D100F07F0310F0800F10D101208D
:1059C000984008BD084B1B6813F0070F01D1002059
:1059D000F7E70346054A012103480BF02CFBF6E7E5
:1059E000103301209840ECE73C050020D0900108DE
:1059F00038B50446007905F07BFB05462079FFF7B2
:105A0000D5FF044AD2F8C43023EA0003C2F8C430F8
:105A1000284638BD7C1F002038B5054605F068FBD8
:105A200010F1780F0ED00446C0B92846FFF7BEFF2C
:105A3000104AD2F8C43023EA0003C2F8C43000246C
:105A4000204638BD0C4B1B6813F0060FEDD02B46DB
:105A50000A4A022108480BF0EEFAE6E7064B1B68FB
:105A600013F0070FECD02B46054A012102480BF03A
:105A7000E2FAE5E77C1F00203C050020EC900108DD
:105A80001091010870B582B00D468488E4B28DF89B
:105A900007402046FFF7CAFE064630B134F08003C7
:105AA00006D0FFF7A7FE18B90646304602B070BD13
:105AB000CDB11A4B1B6803F00703022B0CD89DF8DD
:105AC000070005F083FA164BDB69002BEDD00DF1D2
:105AD000070108209847E8E72346124A03210F48A8
