:020000040800F2
:10000000405B0020AD800008B70C01089980000813
:10001000998000089980000899800008000000007D
:100020000000000000000000000000009D810008AA
:10003000998000080000000025810008799D0008D3
:100040009183000891830008918300089183000840
:100050009183000891830008918300089183000830
:100060009183000891830008918300089183000820
:100070009183000891830008918300089183000810
:100080009183000891830008918300089183000800
:1000900091830008918300089183000891830008F0
:1000A00091830008918300089183000891830008E0
:1000B00091830008918300089183000891830008D0
:1000C00091830008918300089183000891830008C0
:1000D00091830008918300089183000891830008B0
:1000E00091830008918300089183000891830008A0
:1000F0009183000891830008918300089183000890
:10010000918300089183000891830008918300087F
:10011000918300089183000891830008918300086F
:10012000918300089183000891830008918300085F
:10013000918300089183000891830008918300084F
:10014000918300089183000891830008918300083F
:10015000918300089183000891830008918300082F
:10016000918300089183000891830008918300081F
:10017000918300089183000891830008918300080F
:1001800091830008918300089183000891830008FF
:1001900091830008918300089183000891830008EF
:0C01A000918300089183000891830008FF
:1001B00081F0004102E000BF83F0004330B54FEA18
:1001C00041044FEA430594EA050F08BF90EA020F85
:1001D0001FBF54EA000C55EA020C7FEA645C7FEA18
:1001E000655C00F0E2804FEA5454D4EB5555B8BF3B
:1001F0006D420CDD2C4480EA020281EA030382EAAC
:10020000000083EA010180EA020281EA0303362D3D
:1002100088BF30BD11F0004F4FEA01314FF4801C10
:100220004CEA113102D0404261EB410113F0004F22
:100230004FEA03334CEA133302D0524263EB4303D9
:1002400094EA050F00F0A780A4F10104D5F1200E77
:100250000DDB02FA0EFC22FA05F2801841F10001D2
:1002600003FA0EF2801843FA05F359410EE0A5F1A6
:1002700020050EF1200E012A03FA0EFC28BF4CF0D7
:10028000020C43FA05F3C01851EBE37101F000458D
:1002900007D54FF0000EDCF1000C7EEB00006EEB9A
:1002A0000101B1F5801F1BD3B1F5001F0CD3490824
:1002B0005FEA30004FEA3C0C04F101044FEA44527B
:1002C00012F5800F80F09A80BCF1004F08BF5FEA02
:1002D000500C50F1000041EB045141EA050130BDE2
:1002E0005FEA4C0C404141EB0101013C28BFB1F5F4
:1002F000801FE9D291F0000F04BF01460020B1FA3F
:1003000081F308BF2033A3F10B03B3F120020CDA11
:100310000C3208DD02F1140CC2F10C0201FA0CF0EF
:1003200021FA02F10CE002F11402D8BFC2F1200C54
:1003300001FA02F120FA0CFCDCBF41EA0C0190400A
:10034000E41AA2BF01EB0451294330BD6FEA040453
:100350001F3C1CDA0C340EDC04F11404C4F120023E
:1003600020FA04F001FA02F340EA030021FA04F350
:1003700045EA030130BDC4F10C04C4F1200220FAA7
:1003800002F001FA04F340EA0300294630BD21FAE5
:1003900004F0294630BD94F0000F83F4801306BFAB
:1003A00081F480110134013D4EE77FEA645C18BF9F
:1003B0007FEA655C29D094EA050F08BF90EA020F36
:1003C00005D054EA000C04BF1946104630BD91EA2E
:1003D000030F1EBF0021002030BD5FEA545C05D131
:1003E0004000494128BF41F0004130BD14F5800470
:1003F0003CBF01F5801130BD01F0004545F0FE41E4
:1004000041F470014FF0000030BD7FEA645C1ABF18
:10041000194610467FEA655C1CBF0B46024650EA4F
:10042000013406BF52EA033591EA030F41F400217B
:1004300030BD00BF90F0000F04BF0021704730B501
:100440004FF4806404F132044FF000054FF00001D6
:1004500050E700BF90F0000F04BF0021704730B597
:100460004FF4806404F1320410F0004548BF40426C
:100470004FF000013EE700BF42004FEAE2014FEAC1
:1004800031014FEA02701FBF12F07F4393F07F4F9C
:1004900081F06051704732F07F4208BF704793F09F
:1004A0007F4F04BF41F40021704730B54FF46074B2
:1004B00001F0004521F000411CE700BF50EA0102B5
:1004C00008BF704730B54FF000050AE050EA01025E
:1004D00008BF704730B511F0004502D5404261EBCE
:1004E00041014FF4806404F132045FEA915C3FF40F
:1004F000D8AE4FF003025FEADC0C18BF03325FEAAC
:10050000DC0C18BF033202EBDC02C2F1200300FA5C
:1005100003FC20FA02F001FA03FE40EA0E0021FA81
:1005200002F11444BDE600BF80F0004002E000BFCD
:1005300081F0004142001FBF5FEA410392EA030FCE
:100540007FEA226C7FEA236C6AD04FEA1262D2EB18
:100550001363C1BFD218414048404140B8BF5B421D
:10056000192B88BF704710F0004F40F4000020F0B6
:100570007F4018BF404211F0004F41F4000121F0CC
:100580007F4118BF494292EA030F3FD0A2F1010216
:1005900041FA03FC10EB0C00C3F1200301FA03F154
:1005A00000F0004302D5494260EB4000B0F5000F77
:1005B00013D3B0F1807F06D340084FEA310102F136
:1005C0000102FE2A51D2B1F1004F40EBC25008BFE8
:1005D00020F0010040EA03007047490040EB0000B2
:1005E000013A28BFB0F5000FEDD2B0FA80FCACF1B3
:1005F000080CB2EB0C0200FA0CF0AABF00EBC250E0
:1006000052421843BCBFD0401843704792F0000FCD
:1006100081F4000106BF80F400000132013BB5E720
:100620004FEA41037FEA226C18BF7FEA236C21D096
:1006300092EA030F04D092F0000F08BF08467047FB
:1006400090EA010F1CBF0020704712F07F4F04D1C9
:10065000400028BF40F00040704712F100723CBFDC
:1006600000F50000704700F0004343F0FE4040F406
:10067000000070477FEA226216BF08467FEA2363C4
:100680000146420206BF5FEA412390EA010F40F4AF
:10069000800070474FF0000304E000BF10F00043FB
:1006A00048BF40425FEA000C08BF704743F09643E2
:1006B00001464FF000001CE050EA010208BF7047FD
:1006C0004FF000030AE000BF50EA010208BF704784
:1006D00011F0004302D5404261EB41015FEA010C99
:1006E00002BF84460146002043F0B64308BFA3F191
:1006F0008053A3F50003BCFA8CF2083AA3EBC25373
:1007000010DB01FA02FC634400FA02FCC2F1200291
:10071000BCF1004F20FA02F243EB020008BF20F0C8
:100720000100704702F1200201FA02FCC2F120022E
:1007300050EA4C0021FA02F243EB020008BF20EA23
:10074000DC7070474FF0FF0C1CEAD0521EBF1CEA51
:10075000D15392EA0C0F93EA0C0F6FD01A4480EA3F
:10076000010C400218BF5FEA41211ED04FF0006328
:1007700043EA501043EA5111A0FB01310CF0004054
:10078000B1F5000F3EBF490041EAD3715B0040EA7A
:10079000010062F17F02FD2A1DD8B3F1004F40EB4A
:1007A000C25008BF20F00100704790F0000F0CF01D
:1007B000004C08BF49024CEA502040EA51207F3AE1
:1007C000C2BFD2F1FF0340EAC250704740F40000BC
:1007D0004FF00003013A5DDC12F1190FDCBF00F0AD
:1007E00000407047C2F10002410021FA02F1C2F15B
:1007F000200200FA02FC5FEA310040F1000053EAF7
:100800004C0308BF20EADC70704792F0000F00F044
:10081000004C02BF400010F4000F013AF9D040EA4A
:100820000C0093F0000F01F0004C02BF490011F4DE
:10083000000F013BF9D041EA0C018FE70CEAD153DC
:1008400092EA0C0F18BF93EA0C0F0AD030F0004C5C
:1008500018BF31F0004CD8D180EA010000F0004010
:10086000704790F0000F17BF90F0004F084691F0CE
:10087000000F91F0004F14D092EA0C0F01D1420208
:100880000FD193EA0C0F03D14B0218BF084608D1D1
:1008900080EA010000F0004040F0FE4040F400001B
:1008A000704740F0FE4040F4400070474FF0FF0CAE
:1008B0001CEAD0521EBF1CEAD15392EA0C0F93EAF5
:1008C0000C0F69D0A2EB030280EA010C49024FEA47
:1008D000402037D04FF0805343EA111143EA101300
:1008E0000CF000408B4238BF5B0042F17D024FF4B8
:1008F000000C8B4224BF5B1A40EA0C00B3EB510F93
:1009000024BFA3EB510340EA5C00B3EB910F24BF7B
:10091000A3EB910340EA9C00B3EBD10F24BFA3EB00
:10092000D10340EADC001B0118BF5FEA1C1CE0D1C8
:10093000FD2A3FF650AF8B4240EBC25008BF20F07B
:10094000010070470CF0004C4CEA50207F32C2BFCF
:10095000D2F1FF0340EAC250704740F400004FF06C
:100960000003013A37E792F0000F00F0004C02BF9D
:10097000400010F4000F013AF9D040EA0C0093F067
:10098000000F01F0004C02BF490011F4000F013BC1
:10099000F9D041EA0C0195E70CEAD15392EA0C0F29
:1009A00008D142027FF47DAF93EA0C0F7FF470AF61
:1009B000084676E793EA0C0F04D14B023FF44CAFA4
:1009C00008466EE730F0004C18BF31F0004CCAD139
:1009D00030F000427FF45CAF31F000437FF43CAF75
:1009E0005FE700BF4FF0FF3C06E000BF4FF0010C97
:1009F00002E000BF4FF0010C4DF804CD4FEA400279
:100A00004FEA41037FEA226C18BF7FEA236C11D0C2
:100A100001B052EA530C18BF90EA010F58BFB2EB75
:100A2000030088BFC81738BF6FEAE17018BF40F0F5
:100A3000010070477FEA226C02D15FEA402C05D1A9
:100A40007FEA236CE4D15FEA412CE1D05DF8040B2E
:100A5000704700BF844608466146FFE70FB5FFF7C1
:100A6000C9FF002848BF10F1000F0FBD4DF808ED79
:100A7000FFF7F4FF0CBF012000205DF808FB00BF6A
:100A80004DF808EDFFF7EAFF34BF012000205DF8C4
:100A900008FB00BF4DF808EDFFF7E0FF94BF012011
:100AA00000205DF808FB00BF4DF808EDFFF7D2FF0E
:100AB00094BF012000205DF808FB00BF4DF808ED51
:100AC000FFF7C8FF34BF012000205DF808FB00BF1E
:100AD0007BB972B90029BEBF00204FF0004106E08B
:100AE00008BF00281CBF6FF000414FF0FF3000F03E
:100AF00057B8ADF1080C6DE904CE002909DB002BD5
:100B00001ADB00F069F8DDF804E0DDE9022304B047
:100B10007047404261EB4101002B1BDB00F05CF8A9
:100B2000DDF804E0DDE9022304B0404261EB41015D
:100B3000524263EB43037047524263EB430300F0BE
:100B40004BF8DDF804E0DDE9022304B0404261EB3C
:100B500041017047524263EB430300F03DF8DDF87A
:100B600004E0DDE9022304B0524263EB4303704723
:100B700053B94AB9002908BF00281CBF4FF0FF3104
:100B80004FF0FF3000F00CB8ADF1080C6DE904CE69
:100B900000F022F8DDF804E0DDE9022304B070473C
:100BA000704700BF10F8012B11F8013B012A28BF44
:100BB0009A42F7D0D01A7047034611F8012B03F878
:100BC000012B002AF9D17047034613F8012B002AA4
:100BD000FBD1181A013870472DE9F04786468C463C
:100BE0000846089E154674461946002B40F0C28000
:100BF0008542B2FA82F245D94AB1C2F1200300FA25
:100C000002FC2EFA03F3954043EA0C0C94404FEAA1
:100C1000154EA8B2BCFBFEF8230C0EFB18CC08FB4B
:100C200000F943EA0C43994528D9EB1808F1FF373E
:100C300004D2994502D9A8F102072B44A3EB09037A
:100C4000A4B2B3FBFEFC0EFB1C330CFB00F044EA29
:100C50000344A04214D92C190CF1FF3304D2A04252
:100C600002D9ACF102032C44241A43EA07401EB116
:100C7000D440002334607360BDE8F0874746DDE769
:100C80006346F1E792BB431B01214FEA154EAFB219
:100C9000B3FBFEFC200C0EFB1C330CFB07F840EAF8
:100CA0000343984562D9EB180CF1FF3004D2984504
:100CB00002D9ACF102002B44A3EB0803A4B2B3FBAE
:100CC000FEFC0EFB1C330CFB07F744EA0344A7426F
:100CD0004ED92C190CF1FF3304D2A74202D9ACF142
:100CE00002032C44E41B43EA0040C0E7C2F12003A6
:100CF00020FA03F1954090402EFA03F303434FEAA4
:100D0000154EAFB2B1FBFEFC0EFB1C10190C0CFB18
:100D100007F841EA0041884504FA02F422D969182B
:100D20000CF1FF3004D2884502D9ACF1020029440D
:100D3000A1EB08019BB2B1FBFEFC0EFB1C110CFBEE
:100D400007F743EA01439F420ED9EB180CF1FF313C
:100D500004D29F4202D9ACF102012B44DB1B41EAD1
:100D6000004192E76046E3E76146F7E76046A3E7A4
:100D70006346B7E7834206D916B9002108467BE7E8
:100D8000C6E900E0F9E7B3FA83F78FB9834201D3EC
:100D9000724508D8BEEB020460EB030301209C46B9
:100DA0001EB9002168E73846FAE7C6E9004CF8E7C3
:100DB000C7F1200CBB4022FA0CF41C432EFA0CF1B4
:100DC00020FA0CF3B84001434FEA14490EFA07F534
:100DD000B3FBF9F81FFA84FE09FB18300B0C08FB73
:100DE0000EFA43EA00439A4502FA07F240D9E318A3
:100DF00008F1FF3004D29A4502D9A8F10200234439
:100E0000A3EB0A0389B2B3FBF9F809FB183308FB1B
:100E10000EFE41EA03418E452CD9611808F1FF33DB
:100E200004D28E4502D9A8F10203214443EA0040CE
:100E3000A0FB0298A1EB0E014145CE46434602D3EA
:100E400006D14D4504D2B9EB020E68EB040301381C
:100E5000002EA6D0B5EB0E0261EB030101FA0CFCEB
:100E600022FA07F34CEA0303F940C6E9003198E798
:100E70004046C5E74346D9E72DE9F04F8DB00990CC
:100E80000C46154612F068FD0022431880F083805E
:100E900013444B4FA7FB032C2CF0030202EB9C02E4
:100EA0009B1AC01A61F100024FF0CC3100FB01F136
:100EB00007FB0211A0FB07031944420842EAC17272
:100EC0004FEA51099246012C67D06C6821463D4893
:100ED000FFF768FE28B121463B48FFF763FE002874
:100EE00062D135A3D3E9002350464946FFF7F0FD10
:100EF00080460A9130A3D3E9002350464946FFF7C4
:100F0000E7FD15461C46314A002328462146FFF7D7
:100F1000DFFD06460F462D4A002328462146FFF7EF
:100F2000D7FD15461C464EF6602200232846214672
:100F3000FFF7CEFD81460B914EF660220023284636
:100F40002146FFF7C5FD15461C464FF47A72002373
:100F500028462146FFF7BCFD83468A464FF47A7245
:100F6000002328462146FFF7B3FDCDE90623CDF83F
:100F700010B0CDF814A0CDF808900B9A039200960B
:100F8000019742460A9B124909980EF063FE002021
:100F90000DB0BDE8F08F01227AE74B460D49099864
:100FA0000EF058FE0020F3E722460B4909980EF098
:100FB0006FFE6FF00400EBE7005C26050000000008
:100FC000CDCCCCCC906201089462010880EE360052
:100FD000B86201087C620108A062010838B5836824
:100FE00005699C697CB112F4000F06D02D680123BD
:100FF0008B401D4201D082F0C062044B134002F0CE
:10100000B072A04738BD6FF05700FBE74000000604
:1010100008B5144812F0CFF858B9134B1B6813F0F9
:10102000070F00D108BD114A01210F480DF0EDFD59
:10103000F8E74FF4D0110E480CF021FF0A4B1B6863
:1010400003F00703022B07D809480CF040FF4FF4C8
:10105000FA600CF050FFF7E7064A032102480DF052
:10106000D4FDF1E79843010818020020604E010802
:101070003C500108784E010808B5024809F0D6FF37
:1010800008BD00BF7C02002038B5002513E02B46C8
:10109000104A032110480DF0C2FD104C01220D2111
:1010A00020460CF007FF64200CF025FF00220D21E4
:1010B00020460CF0FFFE4FF0FF324FF0FF330848A0
:1010C00009F0FCFF0135044B1B6803F00703022BFA
:1010D000E3D9DCE7904E010818020020984301088C
:1010E0007C02002010B5424B1B6803F00703022B63
:1010F0000AD8404812F05FF890B93D4B1B6813F0D6
:10110000070F07D1002010BD3B4A032138480DF0DE
:101110007CFDEEE7394A012135480DF076FDF1E717
:10112000374C4FF4803120460CF0A9FE4FF0B861E7
:1011300020460CF074FE3349334B4B6001238B6027
:101140002C480CF0CEFE2A4B1B6803F00703022B41
:1011500029D8274B1B6803F00703022B29D8244BFF
:101160001B6803F00703022B29D8214B1B6803F0EF
:101170000703022B29D81E4B1B6803F00703022B21
:1011800029D81B4B1B6803F00703022B29D8184BE7
:101190001B6803F00703022BB4D91C4A032114482F
:1011A0000DF033FDAEE71A4A032111480DF02DFD75
:1011B000CFE7184A03210E480DF027FDCFE7164A66
:1011C00003210B480DF021FDCFE7144A0321084805
:1011D0000DF01BFDCFE7124A032105480DF015FD68
:1011E000CFE7104A032102480DF00FFDCFE700BF03
:1011F0001802002070440108B04E0108DC4E0108BE
:10120000345001082013002079100008D04F010845
:10121000F84E0108184F0108384F0108544F0108D3
:101220006C4F0108A44F01082DE9F04F8BB002AFBD
:1012300012F092FB002243182CD21344B84AA2FBAE
:10124000034626F0030404EB96041B1BC01A61F14D
:1012500000014FF0CC3300FB03F302FB0133A0FB92
:1012600002021344440844EAC374AE4B1B6803F003
:101270000703022B10D8AB4B1B6803F00703022BAC
:1012800077D996230093C823A74A0321A5480DF0D8
:10129000D1FC6EE00122D0E7A44A0321A1480DF061
:1012A000B4FCE8E7012070E06FF0004102E113298F
:1012B00040F3178114213AB1052038770020787760
:1012C000B877F877F86918616FF300056FF3410597
:1012D0006FF382056FF3C505022363F38815C1F32D
:1012E0000A0363F353256FF31F55002329468D48E6
:1012F00001F034FFD5468E4B1A68894BA3FB0213CD
:10130000DB0803EB8303B2EB430F06D1854B1B686D
:1013100003F00703022B00F2E78086490A680132D6
:10132000854BA3FB02031B09322000FB13230B6038
:10133000C834A20FA3001B1942F10002DB1852416E
:1013400053EA020100F0A8811E4611466FF0010029
:1013500098426FF00043934102D206466FF000417D
:101360006FF00100801B4FF0FF3363EB01010AF0C7
:1013700055FD08F0E5FD06466E4BD3F8009012F0DF
:10138000EBFA034600205A188CD202446448A0FBB2
:1013900002CE2EF0030C0CEB9E0CA2EB0C029B1A5F
:1013A00061F100024FF0CC3103FB01F100FB0211AF
:1013B000A3FB003001445B0843EAC1735F494FEA75
:1013C000091201EB091A8B50594A1368591C116014
:1013D000CAF80C30042107F11C000FF06DFFFA6908
:1013E000DFF85CB1ABFB02139B094FF47A7000FB92
:1013F0001320FFF74FF95349FFF758FA5249FFF707
:1014000099F85249FFF794F8CAF80400042107F14B
:101410001C000FF051FFFA69ABFB02131B0A4FF4DB
:101420007A6000FB1320FFF735F94649FFF73EFAD3
:101430004749FFF77FF84749FFF77AF8CAF80800ED
:10144000042107F11C000FF037FFFB695809424ADD
:10145000A2FB0020C009414A02FB103011F09BFEA4
:1014600008F06EFD801BC3083D4AA2FB03235E0803
:101470003C4A1268B2EB530F01D23A4B1E603A4B12
:1014800098427FF638AF394A136801331360254B11
:101490001B6813F0060F3FF42EAF284B03EB091324
:1014A000D3F80CC0EA468AB002AB13F110023FF445
:1014B000FBAE1421002A3FF4FAAE0846042903DDEE
:1014C000DFF8ACE0C3F814E0082801DDC3F818C069
:1014D0000C2800DDDE6110287FF7E9AE2548186290
:1014E000E5E66FF01B01E6E6144B03EB0913D96840
:1014F00058689B68FB60EB461C230C2213F0070F17
:1015000002D10832083304E004320433F6E704322F
:10151000043313F0070FFAD1083208332EE000BF6E
:10152000CDCCCCCC240200206C50010844500108E2
:1015300034130020381300201F85EB513C1300208A
:10154000D34D62100000C8420000C8410000A04016
:10155000000070420000A041C55A7C0AA08601002C
:10156000198661182C130020278680013013002073
:101570008C500108F04902000432043313F0030FC9
:10158000FAD102F1040A53461B3222F00702ADEBF6
:10159000020D0DF10809BAF1000F07D009F110038F
:1015A0003B61BAF1030F19D86FF01B036FF300080A
:1015B0006FF341086FF382086FF3C508032262F3EB
:1015C000881863F353286FF31F5809F110020023A2
:1015D0004146344801F0C2FDDD469EE653B1BAF102
:1015E000040F02DD304BC9F81430BAF1080F01DDE9
:1015F000C9F818101C230C227B6113F0070F10D1BF
:10160000BA603B6943B1524506DA13447B60FEF78A
:1016100033FF7B68C3E90001BA6808327B6908338D
:1016200004E004320433E7E7043204337B6113F04F
:10163000070FF9D1BA603B694BB1524507DA134441
:101640007B60F868FEF718FF7B68C3E90001BA68A1
:1016500008327B69083301E00432043313F0030FCE
:10166000FAD11346396911B1524500DA8E501A1D6C
:1016700092450EDB13463969002997D0C2F38702E1
:101680003A7700227A77BA77FA77F869C9F81000C2
:101690008CE76FF01B03EEE76FF001004FF0FF31B6
:1016A00065E600BF24020020C4500108044B1B68FB
:1016B0000360044B1B680B60034B1B68136070478F
:1016C00034130020301300202C130020094B1B681A
:1016D0006BB1094B1A683132084BA3FB02131B098B
:1016E000322101FB1323064800EB03107047002052
:1016F000704700BF34130020381300201F85EB51C2
:101700003C130020F0B5154B1C68322C28BF322446
:101710000CB306460D464FF0000EF446A6451BDA04
:10172000AC4519DA0E4B1A68A2EB0E0231320D4BA2
:10173000A3FB02131B09322101FB132306EB0C1739
:10174000094A02EB03130FCB87E80F000EF1010EDD
:101750000CF1010CE2E7A4466046F0BD3413002012
:10176000381300201F85EB513C13002010B50446B0
:101770001A490EF06FFA1A4920460EF06BFA194911
:1017800020460EF067FA184920460EF063FA174912
:1017900020460EF05FFA164920460EF05BFA154916
:1017A00020460EF057FA144920460EF053FA13491A
:1017B00020460EF04FFA124920460EF04BFA11491E
:1017C00020460EF047FA104920460EF043FA0F4922
:1017D00020460EF03FFA002010BD00BF0C5101085A
:1017E0003C510108645101087C510108A0510108D5
:1017F000B8510108D0510108E8510108045201080C
:101800001C520108405201086C5201089452010810
:1018100070B584B0044601AA02A903A8FFF746FFE9
:10182000234920460EF016FA039A224920460EF06C
:1018300011FA029A204920460EF00CFA019A1F492B
:1018400020460EF007FA039D15B9002004B070BDC4
:101850000298FEF71FFF06462846FEF71BFF0146CB
:101860003046FFF723F81649FEF76CFF0546FEF7F2
:1018700003FE02460B46134920460EF0EBF91249CF
:101880002846FFF7FDF848B910492846FFF7F8F851
:1018900048B10F4920460EF0DDF9D6E70D49204644
:1018A0000EF0D8F9D1E70C4920460EF0D3F9CCE779
:1018B000B8520108E8520108005301081853010802
:1018C0000000C842385301080000A04000007041E9
:1018D0007453010850530108945301082DE9F04F47
:1018E0008DB08046012936D9506812F07BFA054642
:1018F000431F372B28D82A467D4940460EF0AAF9C7
:101900007C4940460EF0A6F912F026F80022431852
:1019100023D21344784AA2FB034626F0030404EBC7
:1019200096041B1BC01A61F100014FF0CC3300FB81
:1019300003F302FB0133A0FB02421344640844EAB0
:10194000C374264600273FE06C4940460EF0A0F9DC
:101950006FF01500C8E00F25CDE70122D9E701227D
:101960005EE0012289E000200021CDE90401CDF8EC
:1019700008B0CDF804A000974B4622466049404687
:101980000EF068F911F0E8FF0022431880F0A38000
:101990001344594FA7FB034222F0030404EB9204C3
:1019A0001B1BC01A61F100024FF0CC3100FB01F1AA
:1019B00007FB0211A0FB07031944440844EAC17461
:1019C000099F64200CF0A7FA11F0C6FF002243180B
:1019D00080F083801344DFF820C1ACFB03E222F0E7
:1019E000030E0EEB920EA3EB0E03C01A61F1000280
:1019F0004FF0CC3100FB01F10CFB0211A0FB0C03FA
:101A00001944400840EAC170801B4FF47A7305FB0B
:101A100003F3984263D211F09FFF002243189ED235
:101A20001344DFF8D4C0ACFB03E222F0030E0EEB4C
:101A3000920EA3EB0E03C01A61F100024FF0CC31FD
:101A400000FB01F10CFB0211A0FB0C031944400840
:101A500040EAC170001B40F6B7339842B1D90BAAD7
:101A60000AA909A8FFF722FEFFF730FE079011F040
:101A700073FF00224318BFF474AF13441E4CA4FB41
:101A800003C222F0030C0CEB920CA3EB0C03C01A64
:101A900061F100024FF0CC3100FB01F104FB0211B7
:101AA000A0FB04031944400840EAC170841B154B95
:101AB000A3FB0434A409DDF82490A9EB0707DDF8A3
:101AC00028A0DDF82CB0079B002B3FF44CAF5868E2
:101AD000FEF7D2FC49E701225AE701227AE70A49D8
:101AE00040460EF0B7F800200DB0BDE8F08F00BF03
:101AF000E453010818540108CDCCCCCCB8530108EC
:101B000054540108D34D62109454010870B5044632
:101B1000FFF7DCFD002846D00546264920460EF09A
:101B200099F8EA68244920460EF094F82A68234977
:101B300020460EF08FF86868FEF79EFC02460B46C2
:101B40001F4920460EF086F8A868FEF795FC02466D
:101B50000B461C4920460EF07DF811F0FDFE0246B2
:101B60000020531824D20344174EA6FB030C2CF07C
:101B7000030000EB9C001B1AD21A61F100004FF029
:101B8000CC3102FB01F106FB0011A2FB0623194434
:101B9000520842EAC1722B68D21A0C4920460EF054
:101BA00059F8002070BD0A4920460EF053F8F8E7B6
:101BB0000120D8E7D4540108EC540108FC54010872
:101BC0001055010828550108CDCCCCCC3C55010856
:101BD000B05401082DE9F047D6B0074601293FD996
:101BE000506812F0FFF80146431E132B31D806A8A7
:101BF000FFF788FD8046A8B30246304938460EF00C
:101C000029F82F4938460EF025F82E4938460EF0AF
:101C100021F811F0A1FE034600205A1827D20244F1
:101C20002948A0FB024525F0030404EB9504121B90
:101C30009B1A61F100014FF0CC3203FB02F200FB72
:101C40000122A3FB00310A445D0845EAC275002465
:101C50002BE01E4938460EF01BF86FF0150828E0FF
:101C60000521C4E71A4938460DF0F4FF21E00120B0
:101C7000D5E706AA210102EB04135658D3F804A0B5
:101C8000D3F80C90AA1B04929868FEF7F5FBCDE9F7
:101C900002015046FEF7F0FBCDE9000133464A460B
:101CA0000C4938460DF0D6FF01344445E1DB4FF0D6
:101CB0000008404656B0BDE8F08700BF94550108C3
:101CC000C0550108F8550108CDCCCCCC4C550108C5
:101CD000785501082C56010810B5044604490DF04A
:101CE000B9FF044920460DF0B5FF002010BD00BF2C
:101CF000C0570108E457010808B504490DF0AAFFD0
:101D0000002000F065FE002008BD00BF1C5801083F
:101D100010B5044619490DF09DFF194920460DF0F4
:101D200099FF184920460DF095FF11F015FE024667
:101D3000002053181FD203441348A0FB03CE2EF0FB
:101D4000030C0CEB9E0CA3EB0C03D21A61F1000107
:101D50004FF0CC3302FB03F300FB0133A2FB002066
:101D60000344520842EAC3725B08084920460DF05A
:101D700071FF002010BD0120DDE700BF40580108C1
:101D80005458010870580108CDCCCCCC84580108B7
:101D900010B504461D490DF05DFF1D4A1D49204642
:101DA0000DF058FF42F210721B4920460DF052FF11
:101DB00011F0D2FD02460020531825D203441748E3
:101DC000A0FB03CE2EF0030C0CEB9E0CA3EB0C033C
:101DD000D21A61F100014FF0CC3302FB03F300FB98
:101DE0000133A2FB00200344520842EAC3725B089D
:101DF0000B4920460DF02EFF4FF480420949204642
:101E00000DF028FF002010BD0120D7E79C580108E5
:101E1000BC580108C8580108E0580108CDCCCCCC0A
:101E2000FC5801081059010810B5044604490DF08A
:101E300011FF2146034811F016FD002010BD00BF20
:101E400030590108491E000870B505460C4611F0CE
:101E500032FB064648B1284611F02AFB03463246BB
:101E6000034920460DF0F6FE70BD024EF3E700BFB9
:101E70005C590108505901082DE9F04F91B00592C5
:101E80000293134602F004020092C3F3C20210F060
:101E90000303019340F02B8280468A460132041DE1
:101EA00000284FD0B8F1000F05D0A4EB080304338D
:101EB000534500F21F82029B5D1E019B0493069313
:101EC000039300264FF0FF3B0427B946B8F1000FFB
:101ED00001D0029B2360531E0793002A40F35D81CB
:101EE000059B13F0020228D00120A4EB08018B0807
:101EF0001AB1B1F5007F80F0038203990F2900F237
:101F00000282B8F1000F00F06081DBB201F1400203
:101F10006A4402F8103C02F820BC002800F051810D
:101F200063F07F0301F140026A4402F8103C049B15
:101F300001330493039B0133039304340022CC4602
:101F400040463DE001F0070A5444CAF1080AA9E7F7
:101F5000002634E0002632E0002630E00827BC46A8
:101F60002DE025292BD10BF1010B01260427BC46BE
:101F700025E04729EED82A2914D32A39C9B24FF0CF
:101F8000010E0EFA01F14FF6DA7E11EA0E0F16D1AC
:101F900011F0625F40F0C08011F0010F40F08C80C2
:101FA00000260CE0252903D10BF1FF3B002606E0BB
:101FB00001D9002603E0202901D02329CCD11D46D8
:101FC0006B1C6978002900F01981002EC9D07A298C
:101FD000BED84C29CDD34C392E2961D80FF2040E2E
:101FE0005EF821F0BF1F0008A1200008A120000812
:101FF000A1200008A1200008A1200008A1200008BD
:10200000A1200008A1200008A1200008A1200008AC
:10201000A1200008B1200008A1200008A12000088C
:10202000A1200008A1200008A1200008A12000088C
:10203000A1200008A120000819210008A120000803
:10204000B1200008B120000819210008192100085A
:1020500019210008BF1F0008B12000085D1F0008FB
:10206000A1200008BF1F0008A1200008752100085A
:10207000B120000875210008A1200008A120000857
:102080007D210008AB200008B1200008A120000835
:10209000A1200008B1200008A1200008A520000808
:1020A00000268CE70427BC4689E70427BC4686E760
:1020B00029786C2924D000263C44013CB4FBF7F479
:1020C00007FB04F420B1211A6144514500F2158147
:1020D000002A58D1BCF1040F00F08880BCF1080F31
:1020E00040F014811A99073121F0070101F1080528
:1020F0001A95D1E9008908B1C4E9008908345EE77E
:1021000013F8021C6C2903D000260427BC46D3E731
:1021100000260827BC46CFE729784C291AD01A99FF
:10212000073121F0070101F108061A96D1E900678D
:10213000073424F0070440B1211A0831514513D85F
:1021400029784C2913D0C4E90067083400260827F1
:10215000BC4634E71A99073121F0070101F108065E
:102160001A96D1E90067E3E76FF01B00BCE0C4E911
:102170000067EAE700260427BC469DE732460026B2
:102180000427BC4698E7E14680461A9A111D1A9129
:1021900012680292079A1D4698E6624B029A9A428A
:1021A00004D3614B9A420AD3002300E00023002BA2
:1021B0007FF496AE059B03F00202002095E6012312
:1021C000F5E7069B01330693B4E610B10AF1010A64
:1021D000B0E6009B13B10AF1020AABE60298FEF7E3
:1021E000F3FC0AEB000303F1020AA3E61A990D1DA2
:1021F0001A95096800B121600434E0E68046231A8C
:10220000B3F5806F80F0858090B1002202609B085A
:102210000370009B83B1069BC370049B88F8023057
:102220001BBB019DDDF80C90DDF810B0029F3DE076
:102230005344A3F1080057E0069B4370EDE70133D8
:102240009842EED903F140026A4412F8101C12F9C8
:10225000102C002AF3DA01F07F01A4EB080201320E
:10226000524559D804F8011BE9E7019B0398E7E7B9
:10227000009B43B305F140036B4413F8203C04F882
:10228000013B019EA4EB080333440133534546D878
:1022900005F140036B4413F8103C04F8013B32464F
:1022A0003946204611F068FD34440135A94519D955
:1022B000BBF1000FDCD005F140036B4413F9103C77
:1022C000002BD5DAF1E705F140036B4413F8103C1D
:1022D00058F82370002248F823203846FEF774FC93
:1022E000461CCFE7A4EB080011B0BDE8F08F6FF0FB
:1022F0000D00F9E76FF01B00F6E76FF01B00F3E746
:102300006FF01500F0E76FF01500EDE76FF01500C6
:10231000EAE76FF01500E7E76FF01B00E4E76FF006
:102320001B00E1E734420108448901082DE9F04F20
:1023300097B000AF8346BA613B61D7F88030C3F3F2
:10234000C0033B62F96011B90BF078FEF8609BF8AE
:102350000260B14636B1D7F8803013F0010F0DD1CD
:10236000002300E000239BF803207A6242B1D7F8F3
:10237000802012F0020F22D1002202E00123F2E7B6
:10238000002202B9EBB19BF80050AA00BA60DBF85A
:1023900004207A610BEB8505BA69F2B1002B40F09D
:1023A0000581B9F1000F00F01081D7F8803013F0EB
:1023B000040F40F00E810020F8610646FAE0012289
:1023C000DFE7BB691BB13A69F96858469847FC6872
:1023D00020465C37BD46BDE8F08FFC6853BB4D44DA
:1023E0004FF00008D7F8803003F00503FB604FF092
:1023F000000AC7F81080A046C7F81CB0D7F804B090
:10240000BEE00444013501364E45EBD22A78002364
:102410005BF822201946B8690BF025FEBAF1000FCF
:10242000EFD0D7F888309845EBD22AF8180008F199
:102430000108E6E70026B046D7F884A0E4E70025C7
:102440003B6A7BB9002D7DD0D7F8803013F0010FA7
:102450007DD1FB68002B73D10223A8EB03088CE02D
:102460000125EDE7494678690BF043FE0028E9D0E5
:10247000BB4B1B6813F0060F40D06C46002387F857
:102480002C30022387F82D308AB0694611F11002F2
:1024900037D012251AB1042D01DDB24B4B61002358
:1024A00087F82830022387F829306ABB112D44DDD4
:1024B000122362B1042087F82C00002087F82D0039
:1024C00087F82E00012087F82F00F86A08616FF363
:1024D000000B6FF3410B6FF3820B6FF3C50B0221FF
:1024E00061F3881BC3F30A0363F3532B6FF31F5B82
:1024F000002359469A4800F031FEA546A8F102088B
:102500003BE06FF00045C5E72B46082D01DD7869FB
:1025100088610C2B01DDC1F81C9001F12003002023
:102520000128C3D800F1300C07F1280EF4441CF840
:1025300030CC03F801CB0130F2E76FF01B03B8E7B2
:1025400001238AE7D7F8803013F0020F15D000235B
:1025500022461946B8690BF086FDD7F8843053B18E
:102560003B69D7F88820934205D2D7F8842022F817
:10257000130001333B61013880440AF1010A3546FA
:102580007B6A9A4510D22E4616F8029B6B78FA6940
:1025900052F82340744B9C42FFF451AF734B9C4262
:1025A000FFF45EAF00254BE7444611E707F1440016
:1025B0000023FB6118B14A46294611F0DDFB4D446A
:1025C0004FF00008C7F804901EE00020F8610646AE
:1025D000F0E7FE6107F134000026EBE700253B6AD7
:1025E00033BB002D3BD0D7F8803013F0010F26D03D
:1025F000731C06F1300207F12801561806F8149CE6
:10260000DEB208F1010825467B6A98454AD22C467D
:1026100014F802AB95F801905BF82930524A9342C6
:10262000DCD3524A934201D30025D8E70125D6E7EF
:10263000514678690BF05DFD0028D2D0E1E7D7F86C
:10264000803013F0040FDCD0FA69531C303207F1EC
:1026500028010A4402F8249CDBB2FB61D1E7D7F8D9
:10266000803013F0020F09D0731C06F1300207F11D
:102670002801561806F8149CDEB2C2E7F869431C1C
:1026800000F1300107F128028A1802F824AC024652
:102690000232D2B2FA6107F1580252FA83F303F818
:1026A000249CAEE7D7F804909BF8003087F85430AC
:1026B0009BF80130334487F85530D7F8803013F059
:1026C000020F0ED1FB69C3F3470387F85730D7F8E1
:1026D000803013F0010F06D113F0040F3ED1002318
:1026E00002E00023F1E7002387F85630DBF8000012
:1026F0003863786DCBF80000D7F810804246B9688F
:102700005846D7F818A0D047041EFFF661AE386BC4
:10271000CBF80000C7F810804246F96907F1340091
:10272000D04700285EDB04EB0008B96849447B6AA7
:1027300001EB4301D7F810904A46FB68591A284626
:10274000D047041EFFF644AE08EB04054FF0000826
:10275000C7F824B0B3465446CA4621E0FB69C3E734
:1027600008020020D85A01083442010844890108AF
:102770004FF0000901E04FF000095246012107F136
:102780002C00A04700282FDB05444B46324651461B
:1027900020460BF068FC002828DB054408F10108FE
:1027A000D84518D208F1300307F12802134413F872
:1027B000143C87F82C307A6A52F82360D7F88430BA
:1027C000002BD5D0D7F888309845D4D2D7F88430AC
:1027D00033F81890D1E73A6900210846BB69984759
:1027E0002C46F5E50446F3E50446F1E50446EFE53D
:1027F000014B1860704700BFB800002080B5054647
:102800000E461746984609F0A5FB034611F008FD51
:102810000446DFF8189049F8003042463946304601
:10282000A84754F8090005F063FC00BF0800000049
:10283000034A536843F0020353600020704700BF0F
:10284000002004E0084B1A6842F480721A601A688B
:1028500042F400721A601A6842F480621A60034BF4
:10286000034A1A60704700BF003C02408C01002000
:102870000024F40010B584B004468368642103FB8F
:1028800001F14268B1FBF2F1C0680290019100923F
:10289000D21A216805480BF059FCD4E906230449F3
:1028A00004480BF053FC04B010BD00BFA45B01084A
:1028B000805D0108E45B0108F0B595B00446D0F8EE
:1028C000AC700E6810F0F7FD10B10546037833B90F
:1028D0002346204A0B2101A80AF09EF801AD694663
:1028E000204610F028FE024660BB04950597009B29
:1028F000FF1A069708A9204610F02AFE044600B1E8
:1029000001240EA810F031FE00B10134B4B9089AC8
:10291000099C931844EB04009B1844EB0000410110
:1029200041EAD3615D015B1940EB01019818DDE9D3
:102930000E2344EB0101FEF71BF9079004A8B047F2
:1029400015B0F0BD294604480BF000FC00230093AD
:10295000CBE700BF0C5C0108105C010810B586B025
:10296000044600EB40130F4800EB831005AA4FF418
:102970000061403010F0CEFD08B106B010BD059BDF
:10298000C3F50061642201FB02F2D20A02924FF405
:102990000062019200912246034904480BF0D6FBE5
:1029A000EBE700BF80490020385C01083C5C01086F
:1029B00000B583B0009001916946044810F05DFFB6
:1029C0000BF096FF03B05DF804FB00BFB9280008C8
:1029D00010B5044603480BF0B9FB21460248FFF747
:1029E000E7FF10BD745C01087528000870B5064645
:1029F0000D46084C04E02A463146204698471034DC
:102A0000054B9C4204D223689B69002BF3D1F6E767
:102A100070BD00BFF0490108004A010808B510F078
:102A20009BFF0022431819D213440D4AA2FB03CE88
:102A30002EF0030C0CEB9E0CA3EB0C03C01A61F1FF
:102A400000014FF0CC3300FB03F302FB0133A0FB8A
:102A500002021344400840EAC37008BD0122E3E7C4
:102A6000CDCCCCCC2DE9F041074605460AE007EA7B
:102A70000807144B03EB06135B6804221968204611
:102A80000CF03AF8D5B195FAA5F6B6FA86F60D4CE3
:102A900004EB06140123B3406FEA030825EA03059B
:102AA000237B002BEED03301064AD3581B69002B41
:102AB000DDD0204698470028E4D1D8E73846BDE865
:102AC000F08100BFF04901082DE9F04180460F4632
:102AD0001F4BBFF35B8F53E8005F6A1C43E8002184
:102AE0000029F8D1BFF35B8F6DBB1A4C002607E0BD
:102AF00063680422196820460BF0FEFF013610348B
:102B0000154B9C4211D2237B002BF7D020460BF0B3
:102B100008FF23681B69002BEAD02046984700284D
:102B2000E6D00123B3401D43E8E7B8F1000F0BD016
:102B300055B12846FFF796FF0546002FF8D00A202A
:102B40000BF0FBFEF4E700252846BDE8F08100BF4E
:102B500070160020F0490108004A010808B5064B2C
:102B6000186018B1054B1B68092B00DC08BD044830
:102B700008F05CFAFAE700BF641600206C1600202B
:102B80009402002008B5024808F050FA08BD00BFC2
:102B90009402002038B505460B4C00E010340B4B76
:102BA0009C420FD263685B79002BF7D02946204600
:102BB0000BF0D3FE0028F1D023681B68294620467D
:102BC0009847EBE738BD00BFF0490108004A01080B
:102BD00030B589B000220F490F4810F0CCFE0F4DE0
:102BE00000220023CDE90623002404940E2303933E
:102BF0000294019400940A4B4FF44072094928460C
:102C000010F066FC0849284608F0E4FB204609B0AD
:102C100030BD00BF852B0008C80A0020F805002041
:102C2000A92F0008C0390020985C010848B108B5F8
:102C3000054A1060054B1960084600F08FFD002022
:102C400008BD6FF015007047BC0000206016002022
:102C500008B5054B1B781BB1034B01221A7008BD48
:102C6000024808F0E3F9F7E7E03000209402002082
:102C700008B5104BBFF35B8F53E8001F013143E8E9
:102C80000012002AF8D1BFF35B8F30B90A4810F068
:102C90007EFE0A4808F0CAF908BD094BBFF35B8FF6
:102CA00053E8001F013943E80012002AF8D1BFF3AE
:102CB0005B8FEBE768160020C80A00209402002012
:102CC0006C160020064B00200146BFF35B8F53E8D3
:102CD000000F43E80012002AF9D1BFF35B8F704761
:102CE0006816002038B5FFF7EDFF0546094C00E0F7
:102CF0001034094B9C420BD263685B79002BF7D0F0
:102D000023685B68002BF3D0294620469847EFE7FD
:102D100038BD00BFF0490108004A0108034B18689C
:102D20000028D4BF00200120704700BF6816002093
:102D300010B5044C044920460BF06FFB034B1C609C
:102D400010BD00BFC4010020A05C01085C1600207B
:102D500008B500230D4A13700D4A13600D4A136025
:102D60004FF47A710C48FFF761FFFFF7E1FF00F0C5
:102D700085F90A4A06E0094BD31A1B110133516841
:102D80000B711032064B9A42F5D308BDE13000209A
:102D9000681600206C1600201D2A0008F049010862
:102DA000004A010808B5014601480BF0F8FD08BDCE
:102DB000C401002008B502480BF012FC08BD00BF9A
:102DC000C401002008B50146024B18680BF0EDFD68
:102DD00008BD00BF5C16002008B502480BF0E9FDF5
:102DE00008BD00BFC401002010B582B0002200233E
:102DF000CDE900232C4B187808B902B010BD684605
:102E00000BF0EFFD044680B1FFF7C4FE2046FFF74C
:102E1000D9FF264BBFF35B8F53E8001F013943E80E
:102E20000012002AF8D1BFF35B8FFFF777FF58B984
:102E30001F4A1368516813F57A7341F1000113605A
:102E40005160FFF7C9FFD8E710F086FD0022431854
:102E500027D21344174AA2FB034C2CF0030404EBC3
:102E60009C041B1BC01A61F100014FF0CC3300FB26
:102E700003F302FB0133A0FB02021344400840EAC3
:102E8000C3705B080A490A684968801A63EB01034A
:102E900040F2E932904273F10003C9D3FFF722FFF9
:102EA000C6E70122D5E700BFE03000206C16002005
:102EB000C00A0020CDCCCCCC0F4B1B7803B170479F
:102EC00010B500210120FFF7FFFD0C4C00E010348D
:102ED0000B4B9C4208D263685B79002BF7D02368C8
:102EE0009B6820469847F2E7FFF77EFF0028FBD15A
:102EF000014B01221A7010BDE1300020F049010899
:102F0000004A010810B582B01A4BBFF35B8F53E83B
:102F1000002F511C43E800100028F8D1BFF35B8F4D
:102F2000154B1B7863B9154B1B68B3B1BAB1092AAD
:102F300013D1134810F02BFD124808F077F80CE07D
:102F4000EFF31184102383F31288BFF36F8FFFF721
:102F50004BFF84F31188BFF36F8F02B010BD0022C6
:102F60000023CDE9002342F210720023044809F047
:102F700099FBF2E76C160020E13000206416002077
:102F8000C80A00209402002010B50446044B1B68B8
:102F90009847A060214603480BF027FD10BD00BFF5
:102FA000BC000020C40100202DE9F04100210846AA
:102FB000FFF78AFD804650B14FF4FA76002711F0F2
:102FC0002FF9154B1858FFF7C9FD002515E04FF0F4
:102FD000FF364FF0FF37F2E74046FFF743FD8046EC
:102FE00070B94FF0FF364FF0FF3709E02C463246FC
:102FF0003B460A4808F062F82546B8F1000FEBD1CD
:10300000FFF7F2FE04460028F6D1002DEED0002195
:103010000846FFF7EBFCEAE70800000094020020F6
:10302000014800EB81007047080200200248034B72
:10303000C01AC008704700BFF0490108584901088C
:1030400010B50C46FFF7F2FFA04203D9024B53F82C
:10305000340010BD0020FCE75849010810B50C46AB
:10306000FFF7E4FFA04204D9034B03EBC403187934
:1030700010BD0020FCE700BF5849010810B500242E
:103080000EE021460020FFF7E9FF094A52F82430FC
:1030900023F0070300F00700184342F8240001342E
:1030A000044B054A9B1AB4EBD30FEAD310BD00BF03
:1030B00008020020F0490108584901082DE9F843A9
:1030C0000D4616469846002812DBC4B2002320465F
:1030D0000BF0C3FC074610B1404500D947463B46BC
:1030E0003246E9B220460BF09AFC3846BDE8F88338
:1030F0000C4B0D4AA3EB02094FEA1919002427468D
:103100000DE0094B03EB0413586843463246294649
:103110000079FFF7D3FF874238BF074601344C459B
:10312000EFD3E2E7004A0108F049010800B589B091
:10313000059206930023079362B1074A0C9B029302
:103140000B9B01930A9B009305ABFFF7EFF809B0C7
:103150005DF804FB0022F1E749EB00082DE9F04F90
:103160008BB004AF05461E468846C1F34A24002CA6
:1031700000F08F8091460022FA603A617A61042360
:103180000293FB1801930A23009307F10C032146D5
:103190004846FFF7CBF8B0F5006F5ED3464B1B688F
:1031A00013F0060F00F08480D9F804106D46002358
:1031B0003B7302237B738AB004AC14F1100221D05C
:1031C00012201AB1042801DD3C4B636100233B70DF
:1031D00002237B70CAB10346082800DDA1610C2BD5
:1031E00002DD40F2FF73E36104F1200300210129B5
:1031F0000BD801F118063E4416F8186C03F8016B61
:103200000131F4E76FF00040DBE7112822DD1223E3
:1032100042B10421397300217973B9730121F97323
:10322000F868206100216FF300016FF341016FF333
:1032300082016FF3C501022060F38811C3F30A0312
:1032400063F353210023C1F313011B480BF0FFFC70
:10325000AD462DE06FF01B03DAE760F35328C0F3AF
:103260000A0A0AEB1850173020F007008008FFF711
:1032700099FD8346B0B104230293FB1801930A23FE
:103280000093534600F1100221464846FFF74EFFD7
:1032900008E004EB1154173424F00704A008FFF7EA
:1032A00081FD834633464246294658460BF065FC6D
:1032B0001C37BD46BDE8F08F10020020C45C010839
:1032C0002DE9F04F85B080460D4617461E46DDF8C5
:1032D00038B0DDF84090B9F1000F46D0119B039350
:1032E00000934B460F9A10210020FEF7C5FDB0F564
:1032F000006F2DD282460BEB0003173323F0070338
:1033000000246FF300046FF341046FF3820468F349
:10331000C50467F3881460F353246BF31F549808B3
:10332000FFF740FD074650B11030B9F1000F06D04D
:10333000119B00934B460F9A5146FEF79DFD334675
:103340002246294638460BF018FC05B0BDE8F08F40
:10335000074B1B6813F0060FF7D040F2FF73054AC6
:10336000022103480BF05BFCEFE70020C2E700BF3F
:1033700010020020045D0108406820B1034BC01A10
:1033800040F38F0070474FF0FF3070470802002075
:103390000EB400B582B0014603AB53F8042B019381
:1033A000034805F013F902B05DF804EB03B0704771
:1033B00085EC000810B584B011F0440F05D01A4B0D
:1033C0001B6833B9002004B010BD1849FFF7E0FFB7
:1033D000F9E717490968B2FBF1F2B2FBF3FC03FB12
:1033E0001C224FF47A7E0EFB02F2B2FBF3F403FBD5
:1033F00014210EFB01F1B1FBF3F10E4AA2FB0C32DA
:10340000D20A4FF4616303FB12CC0B4BA3FB0CE31A
:103410005B0902910194C3EB0311ACEB81010091B4
:103420000649FFF7B5FFCEE7781600203C5D01089E
:1034300074160020C5B3A29189888888485D010868
:1034400061B108B52AB1064A52F8232012B9054ADB
:1034500000E0044A0449FFF79BFF08BD704700BF26
:10346000E85D0108645D01086C5D01082DE9F0412B
:1034700005461746069EDDF81C8081B900242EB152
:10348000324611492846FFF783FF0444B8F1000F84
:1034900014D06FB1099B042B13D00C4909E00C4BDD
:1034A000099A53F822200B49FFF772FF0446E6E71A
:1034B000064942462846FFF76BFF04442046BDE814
:1034C000F0810549F5E700BF845D0108745D0108DE
:1034D000FC5D01087C5D0108705D01082DE9F04F7D
:1034E00087B005460C46049205939DF84C7001F098
:1034F000020B01F0010AC1F3C00801F480790BF05E
:103500007AFA18B3024616492846FFF741FF0646E5
:10351000BBF1000F1CD13A46514628460BF0DDFBAB
:10352000B9F1000F01D0002311930397129B02936E
:10353000119B0193109B00930023049A4146284657
:10354000FFF794FF304407B0BDE8F08F0026DFE7B7
:10355000059A21462846FFF72DFF0644DBE700BF0A
:10356000885D010811F0100F0BD108B511F0200F84
:1035700003D00449FFF70CFF08BD0349FFF708FF1C
:10358000FAE77047385501088C5D01082DE9F041D4
:1035900005460F46164698460699FFF7E3FF0024B6
:1035A000444505DA24492846FFF7F2FE0134F7E7DF
:1035B000002409E020492846FFF7EAFE0BE01F49F6
:1035C0002846FFF7E5FE01340F2C0CDC002C02DD51
:1035D00014F0070FEED0B442F1D23A5D18492846F4
:1035E000FFF7D6FEEFE717492846FFF7D1FE002484
:1035F00009E011492846FFF7CBFE0BE012492846A7
:10360000FFF7C6FE01340F2C13DC002C02DD14F092
:10361000070FEED0B44207D23A5D0C4B9B5C13F01F
:10362000970FEBD12E22E9E703492846FFF7B0FEBA
:10363000E8E7BDE8F08100BF805D0108985D010802
:10364000905D01089C5D0108C06F01083488010885
:103650002DE9F04184B004469DF82C500C9F0E9E3D
:1036600095B9012B1ED019484FF0000827B13B46F1
:10367000224617490AF00DFDC6B905BB20460BF0DE
:10368000EAFA04B0BDE8F08103950A98029001932C
:1036900000920B4600220F992046FFF71FFF80463D
:1036A0000C48E3E70B484FF00008DFE70F9B00935F
:1036B000434632460D9920460BF027FBDDE72A46AC
:1036C0000F9920460BF015FBD8E700BFBDEC0008B2
:1036D000CD85000885EC00082DE9F04383B006464F
:1036E000056842F20F738B4228BF0B46184A05212A
:1036F000684609F091F904467368D3F804900B27E3
:10370000DFF8508005E04A4639464046A8473F1A50
:103710008044002FF7D17368D3F804806F4605E02A
:10372000424621463846A847241A0744002CF7D1C0
:1037300073685F681B24084E05E03A462146304610
:10374000A847241A0644002CF7D103B0BDE8F08343
:10375000E87F0108BC5D0108A05D0108074B01225C
:103760001A6004E04008054A13685B001360044BCC
:103770009842F7D8034B1860704700BF74160020BA
:1037800040420F0078160020014B03600020704774
:10379000105E0108072801D900207047024B03443E
:1037A00083F8BB10012070477C160020072801D940
:1037B00000207047024B034493F8BB00704700BFE2
:1037C0007C16002010B50378C3F341130A33064C6E
:1037D00054F8233023B19847002803DB012010BDA3
:1037E0000020FCE70020FAE77C1600200A30024B9C
:1037F00043F82010704700BF7C160020014B586230
:10380000704700BF7C160020136800221A705A709F
:1038100001221A70064A92F8C3203AB1022242F0FD
:1038200001021A7002230B60012070470022F6E7A4
:103830007C16002030B545884FEA152EAEF1040302
:10384000DBB2012B21D9EDB2BEF1070F1FD8114B0E
:103850005B6A002400E00344187840B193F801C08B
:10386000F445F8D1A54201D00134F4E7012068B154
:103870001360BEF1020F02D01B780B6006E09A784D
:10388000DB7842EA03230B6000E0002030BD00201B
:10389000FCE700BF7C16002038B50C460D4B5B6A78
:1038A000156800E013441A788AB193F801C0BCF19E
:1038B000040FF7D193F802C0B0F804E0F445F1D159
:1038C0006046FFF773FF28700120206000E00020B1
:1038D00038BD00BF7C160020034B93F8BA000038B7
:1038E00018BF0120704700BF7C160020074B5B6AA1
:1038F00000E013441A783AB159780229F9D11979BC
:103900008142F6D901207047002070477C160020C4
:1039100030F0800318D01049104B994219D210B4DE
:1039200003E024310D4B99420CD20C6A00230A7F2C
:103930009A42F6D904EBC3021279824206D00133CF
:10394000DBB2F4E7002002E001207047012010BC48
:1039500070470020704700BF780300209C030020C0
:10396000014B9861704700BF7C160020014BD86165
:10397000704700BF7C160020F8B506460A4D0B4B79
:103980009D420FD22F6A002401E00134E4B22B7F64
:10399000A34205D907EBC400B0470028F5DAF8BD0B
:1039A0002435ECE70020FAE7780300209C03002090
:1039B00038B50C4B00E024330B4CA3420FD25C68AB
:1039C0000A4D6D6AAC42F6D31D69002DF3D094F810
:1039D00002C08488E4B2A445EDD1A84701E06FF0AD
:1039E000850038BD780300209C0300207C16002051
:1039F0002DE9F041054688461746134C05E03A4646
:103A000041462846B0471CE02434104B9C4216D255
:103A100063680F4A526A9342F6D3A669002EF3D028
:103A20009A78B5F804C05FFA8CFC6245E7D05B7900
:103A3000012BE9D13A4641462846B047E4E76FF00A
:103A40008500BDE8F08100BF780300209C030020C2
:103A50007C160020F8B507460E4615460A4C00E0D5
:103A600024340A4B9C420AD26369002BF8D02A46C0
:103A700031463846984703460028F1D101E06FF0FF
:103A800085031846F8BD00BF780300209C03002082
:103A900008B510F0700F07D100F07F0310F0800F11
:103AA00010D10120984008BD084B1B6813F0070F88
:103AB00001D10020F7E70346054A012103480BF036
:103AC000AEF8F6E7103301209840ECE74C020020F6
:103AD000105E010838B50446007905F075FA054610
:103AE0002079FFF7D5FF044AD2F8C43023EA000357
:103AF000C2F8C430284638BD7C16002038B50546CB
:103B000005F062FA10F1780F0ED00446C0B92846CD
:103B1000FFF7BEFF104AD2F8C43023EA0003C2F810
:103B2000C4300024204638BD0C4B1B6813F0060F30
:103B3000EDD02B460A4A022108480BF070F8E6E760
:103B4000064B1B6813F0070FECD02B46054A0121EA
:103B500002480BF064F8E5E77C1600204C020020D8
:103B60002C5E0108505E010870B582B00D46848855
:103B7000E4B28DF807402046FFF7CAFE064630B192
:103B800034F0800306D0FFF7A7FE18B9064630468A
:103B900002B070BDCDB11A4B1B6803F00703022BB6
:103BA0000CD89DF8070005F07DF9164BDB69002B5A
:103BB000EDD00DF1070108209847E8E72346124AA7
:103BC00003210F480BF02BF8EBE70D4B1B6803F0BC
:103BD0000703022B0CD89DF8070005F08DF9094B5F
:103BE000DB69002BD3D00DF1070109209847CEE700
:103BF0002346064A032102480BF011F8EBE700BF09
:103C00004C0200207C160020745E0108885E0108CA
:103C100030B583B0044680788DF80000A388ADF8F5
:103C20000230E37803F003038DF80430FFF730FF30
:103C30000546314BD3F8C43003421AD168460DF023
:103C4000DDFB10F1780F1FD058BB9DF8000005F088
:103C500081F910F1780F33D000283ED1264B012096
:103C600083F8B900D3F8C4201543C3F8C45003B097
:103C700030BD20460BF099F80FF014FC0028DDD180
:103C8000962008F00DF9D9E71C4B1B6813F0060FBE
:103C9000DBD09DF800301A4A022118480AF0BFFF15
:103CA000D3E7164B1B6813F0070F01D10020DEE7A6
:103CB0009DF80030134A012110480AF0B0FFF5E7E3
:103CC0000E4B1B6813F0060FC8D09DF800300E4A4B
:103CD00002210A480AF0A3FFC0E7084B1B6813F053
:103CE000070F01D10020C2E79DF80030074A0121EB
:103CF00002480AF094FFF5E77C1600204C020020F1
:103D0000A05E0108C45E0108E85E0108085F0108C2
:103D10002DE9F84306461A4B5C6A0027FF25A846A2
:103D2000B94607E094F80380A578B088854213D09F
:103D300023781C442378CBB16378042BF2D0052B75
:103D4000F6D1B3889D42F3D17288D2B24146204663
:103D50000BF040F80746EBE771888845E8D1C9B217
:103D6000C0B2FFF717FD0746A146E1E7044BDB6948
:103D700013B14946072098473846BDE8F88300BF8D
:103D80007C160020024B00221A605A60704700BF68
:103D9000371700202DE9F0410546224B5C6A438825
:103DA0001BB10027FF26B04610E0FFF7EBFF6A8843
:103DB0001C4B83F8BA20DB6913B11B4903209847D9
:103DC00001271EE094F8038023781C442378BBB1BC
:103DD0006378042BF6D0052B07D0022BF4D166793B
:103DE0006B889E42F0D10127EEE76B889E42EBD1B3
:103DF000B8F1000FE8D12046FFF70AFF0746E3E7D6
:103E000017B93846BDE8F081FFF7BCFF6A88054B5B
:103E100083F8BA20DB69002BF3D0034903209847CD
:103E2000EFE700BF7C1600203617002010B514689D
:103E300090F90030002B0ADB4378013B082B3BD87C
:103E4000DFE803F0253A303A1A3A3A3A220043784A
:103E5000062B07D0082B08D00BB1002010BDFFF7B0
:103E6000D3FCFBE7FFF7E6FCF8E7144B93F8BA3016
:103E7000237001200860F1E74088C0B204F058FFC9
:103E8000B0FA80F04009E9E7FFF784FFE6E74388EE
:103E9000012B01D00020E1E7084B002283F8C3206A
:103EA0000120DBE74388012B01D00020D6E7012069
:103EB000024B83F8C300D1E70020CFE77C16002037
:103EC00070B505460E46042803D0012803D0134CD4
:103ED00011E0FFF757FF124B93F8B930002BF6D0E3
:103EE00000F098FD0F48FFF747FD0D4B002283F8C7
:103EF000B920ECE724340C4B9C4207D2E368002B3A
:103F0000F8D03246294620469847F3E7044B1B6A0F
:103F100013B131462846984770BD00BF7803002092
:103F20007C160020D53A00089C03002070B504469A
:103F30000D461646184B9B690BB1984748B123783C
:103F400003F01F03012B0DD0022B13D013B16FF020
:103F5000150070BD324629462046FFF767FF88B13D
:103F60000020F6E73246294620460AF03CFF60B1C1
:103F70000020EEE73246294620460AF07EFF38B19F
:103F80000020E6E76FF01500E3E76FF01500E0E7CB
:103F90006FF01500DDE700BF7C16002070B50E4EF7
:103FA0000E4B9E4215D2356A002401E00134E4B282
:103FB000337F9C420BD205EBC40355F834101879BB
:103FC0000DF011FA0028F1D04FF0FF3070BD24360B
:103FD000E6E70020FAE700BF780300209C030020FA
:103FE0002DE9F8430646894690461F46032504E01E
:103FF00007F086FE6B1EB5B11D463B46424649465C
:10400000304605F009F8044610F10B0F0BD1074BB1
:10401000186810F0060FEBD03346054A022103481A
:104020000AF0FDFDE4E72046BDE8F8834C020020DD
:104030002C5F010810B582B0154B1B7DF3B9144CF1
:10404000E268019201ABA1688020FFF7C9FFA36875
:10405000019A1344A360E3689B1AE360B3B9AAB161
:10406000E28823699A4211DD94F8C82093FBF2F1AB
:1040700002FB113353B90122227507E00021044BE2
:1040800019750B460A46802004F0C6FF02B010BD29
:104090007C16002000B585B000230393002840F073
:1040A000908019B34E4BDA68002A72DD03AB4C499D
:1040B000896800200DF0D7F9002877DB484A93681B
:1040C00003990B449360D3685B1AD360002B7AD1B9
:1040D000104602F1380342F8083F00F11001FFF7E3
:1040E00071FB002869D0FFF7A5FF6CE0082201A949
:1040F0000DF0B9F900282EDB9DF80400384B18703C
:104100009DF805205A70BDF806205A80BDF8082099
:104110009A80BDF80A10D98003F138029A60002213
:104120001A751A61DA6010F0800F02D1802916D852
:1041300039BB2C4A02F10801A2F10800FFF742FB4B
:1041400018B3274BDA8819698A42A8BF0A46DA6091
:10415000FFF770FF37E0802004F0A4FE33E0224B2D
:104160001B6813F0070F06D1802004F09BFE00208F
:1041700004F098FE27E01D4A01211B480AF045FD86
:10418000F2E7174B1961D9601DE0802004F08AFE28
:1041900019E003AB00221249896810460DF063F95B
:1041A000002810DA802004F07DFE0CE0802004F06E
:1041B00079FE002004F076FE05E0802004F072FE17
:1041C00001E0802802D005B05DF804FB044BDB68F9
:1041D0001BB9034B1B7D002BF5D0FFF72BFFF2E73C
:1041E0007C160020841600204C020020545F010839
:1041F00008B5FFF703FB08490020FFF7F7FA074966
:104200000120FFF7F3FA06490220FFF7EFFA05480D
:10421000FFF7A6FB002008BD2D3F0008B1390008BC
:10422000553A0008F139000870B582B005464FF0E4
:10423000FF324FF0FF33544806F022FE534B93F801
:10424000B830002B68D1514B5B6A002B77D001202E
:104250000AF0A9FD041E66DB4C4B5E6A1D624C4CE5
:104260002046FFF783FB204604F05CFD0DF0B3F819
:10427000041E58DB00F000FC041E54DB7378012B95
:1042800074D1F379002B71D0404A82F8C830ADF870
:10429000023000238DF804308DF8003068460DF0B0
:1042A000ADF8041E3FDB80238DF8003068460DF02A
:1042B000A5F8041E37DB374900200DF094F8041EE2
:1042C00031DB344980200DF08EF8041E2BDBFFF724
:1042D00065FE041E27DB002004F03CFE041E22DBEA
:1042E0000020FFF7D5FB294AD2F8C4300343C2F8B7
:1042F000C430802004F02EFE041E14DB8020FFF763
:10430000C7FB224BD3F8C4200243C3F8C4200122C8
:1043100083F8B820002406E01F4B1B6813F0060F3B
:1043200007D16FF07704184806F02AFE204602B045
:1043300070BD1A4A022118480AF067FCF1E700F044
:104340008FF9FFF755FF114B5B6A002B7FF47FAFAE
:10435000114B1B6813F0070F02D14FF0FF34E2E757
:104360000F4A01210C480AF050FCF6E70A4B1B6883
:1043700013F0070F02D16FF01504D4E7094A0121A9
:1043800005480AF042FCF6E7680200207C1600208F
:10439000C13E0008954000084C020020705F0108F3
:1043A000945F0108BC5F01080246064800E0243023
:1043B000054B984203D243689342F8D100E00020B5
:1043C000704700BF780300209C03002010B58AB01E
:1043D0000DF1040C1D4C0FCCACE80F0023688CF8D9
:1043E000003000230693079308930993184A13603B
:1043F00053609360D3601382102106A805F0C4F9BE
:10440000002820DD0828B8BF0820A0F1080C0022F1
:1044100017E00CEB020328336B4413F8103C5100F7
:104420000AA800EB131010F824EC094800F812E079
:1044300003F00F03013128336B4413F8243C435439
:104440000132072AE5DD02480AB010BDF85F010815
:104450004817002070B50446FFF7B8FF98B105462D
:10446000FCF7B2FB064670B1102804D0094B1B685C
:1044700013F0060F08D13246102EA8BF102229468D
:10448000A01C0FF079FC70BD034A022101480AF01C
:10449000BCFBF0E7480200200C6001082DE9F04366
:1044A00083B000AF04464FF001137B600025A8469F
:1044B000A9462E4604E020460AF019FD23781C4444
:1044C0002378002B00F0B3806378052BF6D801A287
:1044D00052F823F0E3450008B74400082B460008D3
:1044E000E3450008ED44000897450008E378002BF9
:1044F000E4D1A3784BB92046FFF756FF814648B177
:10450000836813B141462046984708F101085FFAD5
:1045100088F8D3E74C4B1B6813F0070F32D06D4679
:1045200088B06B4613F110022FD00C213AB1084627
:10453000042901DD454E5E61082800DD9C610B29E0
:1045400026DD0C243AB10321397000217970B9704D
:10455000F9703868186100216FF300016FF34101B1
:104560006FF382016FF3C501012363F38811C4F374
:104570000A0464F353216FF31F5100233248FEF7FE
:10458000EDFDAD464FF0FF3056E06FF00041CDE756
:104590006FF01B04D6E7B9F1000F0ED03A1D494663
:1045A00020460AF0C4FC002888D0274B1B6813F073
:1045B000070F10D14FF0FF303EE0234B1B6813F084
:1045C000070F02D14FF0FF3036E0214A01211E488B
:1045D0000AF01BFBF6E71F4A01211B480AF015FBF6
:1045E000E8E7032D0BD075B98EB1A31BB370C3F3ED
:1045F0000723F37086F804800135EDB25EE72046AC
:10460000FFF728FFEFE720460AF05FFCF4E70E4BC8
:104610001B6813F0070F02D14FF0FF300CE00E4A79
:10462000012109480AF0F1FAF6E7264646E7A01C00
:104630000A4B984204D100200C37BD46BDE8F083F8
:10464000FFF72CFFF8E700BF480200205860010880
:1046500078600108BC600108DC6001087503002077
:1046600008B50D4B1B780BB10C4808BD0B48FFF784
:1046700015FF20B9084B01221A700848F5E7084BCE
:104680001B6813F0070F01D10020EEE7054A012156
:1046900003480AF0BAFAF7E7E2300020AC02002043
:1046A00048020020FC600108002300E00133032BD6
:1046B00012D803EBC302094911F832208242F5D126
:1046C00003EBC301054A02EBC1025268002AEDD098
:1046D000024800EBC1007047002070475C170020C3
:1046E0002DE9F04184B0044610F8345C50F8303CB9
:1046F00013F1100F24D1036913F0020F3DD050F8CD
:10470000282C2AB913F0040F22D143F004030361CB
:1047100003AB54F82C1C2846FFF762FC0346D8B9BB
:1047200054F82C2C039B1A4444F82C2C54F8282CB5
:10473000D21A44F8282C54F8242C134444F8243C6E
:1047400054F8303C13F1100F58D104B0BDE8F0819B
:10475000002340F8303CF3E7364A126812F0070FA6
:1047600004D16FF0150344F8303CE9E70095324A74
:10477000012130480AF05EFAF3E703AB50F8282C29
:1047800050F82C1C284604F0CDFC0346A0B954F880
:104790002C3C039E334444F82C3C54F8283C9B1B8F
:1047A00044F8283C54F8243C334444F8243CA6B94B
:1047B000002344F8303CC3E71E4A126812F0070F8A
:1047C00004D16FF0150344F8303CB9E700951A4A5C
:1047D000012118480AF02EFAF3E728460CF053FEA0
:1047E000B6FBF0F300FB1366002EE1D154F8283C31
:1047F000002BDDD0284604F0FBFCA1E754F8206C28
:1048000054F8247C54F81C8C0EF04CFE68B900233C
:1048100044F8203CA4F1180006F008FC002E94D0C7
:10482000424639462846B0478FE7214603480EF0F6
:10483000D4FD8AE7500200202C610108000B002003
:1048400070B582B006460C46FFF72EFF631EDBB242
:10485000012B0AD8054650B10EF024FE08B1012CF8
:104860001CD105F13400FFF73BFF02B070BD012CF5
:10487000FBD101AB01220DF10301304604F052FCE3
:10488000019B002BF5D1084B1B6813F0070FECD0F0
:10489000064A012104480AF0B8F9E6E705F13401B7
:1048A00003480EF09AFDE0E7500200204C61010839
:1048B000000B00202DE9F84F0546884616461F4696
:1048C0000AF0D8FB002877D1EFF31189102383F386
:1048D0001288BFF36F8F0024032C35D804EBC4007B
:1048E000C0001830364B184404300022002306F074
:1048F000E5FB824608B10134EEE704EBC404E200B4
:104900002F4B03EBC404D4F804B01BF1100F2FD0CD
:104910009D54C4F80880E660002323610A9B63610C
:1049200067640B9BA3616FF00F03636028460CF074
:10493000AAFD70BB17F0020F39D004F134012148F1
:104940000EF04BFDD34606E01F4B1B6813F0070F1C
:1049500008D16FF00B0B89F31188BFF36F8F5846A6
:10496000BDE8F88F194A012117480AF04EF9F0E71F
:10497000154B1B6813F0070F04D104F11C0006F05F
:1049800055FBE8E72B46124A01210F480AF047F988
:10499000F3E728460CF077FDB6FBF0F300FB136657
:1049A000002EC7D0636C43F004036364C2E728465B
:1049B00004F01EFC8346CEE76FF00F0BCFE700BF7D
:1049C0005C170020000B00205002002068610108E5
:1049D0008461010810B5EFF31184102383F312886A
:1049E000BFF36F8FFFF760FE20B10146436813F1FC
:1049F000100F04D084F31188BFF36F8F10BD6FF0D8
:104A00008B034360343102480EF0E7FCF2E700BF4D
:104A1000000B002038B5002404E085F31188BFF3B3
:104A20006F8F0134032C21D8EFF31185102383F30A
:104A30001288BFF36F8F04EBC403DA000C4B1344EE
:104A40005B6813F1100FE8D1094A04EBC401CB00F5
:104A500013446FF08B01596004EBC403D90030316B
:104A60001144043103480EF0B8FCD6E738BD00BF4E
:104A70005C170020000B002070B5002414E0E50056
:104A800004EBC403D8003030094E304409490430E7
:104A90000EF088FC2B19D800183030440430012265
:104AA00011460EF0E9FB0134032CE8D9002070BD5B
:104AB0005C170020E146000808B50169012381F870
:104AC0004B300B6813B191F8493003B908BD083178
:104AD00001480EF082FCF9E7000B002008B50169DF
:104AE000012381F84A300B6813B191F8483003B9BB
:104AF00008BD083101480EF070FCF9E7000B0020FA
:104B000030B583B0054614460A1E17DD04F14C018A
:104B1000D4F88C0009F08CFE012384F84930236816
:104B200013B194F84B3073B9D4F88C2093889189E1
:104B30005B1A9BB21269D31A3F2B0AD994F89E30A4
:104B40005BB903B030BD04F1080109480EF045FC23
:104B5000EAE7012384F8A030F3E70194054B0093C2
:104B60000123402204F14C012846FFF7A3FEE8E7A9
:104B7000000B0020014B000870B50569EFF31186AA
:104B8000102383F31288BFF36F8FD5F8900009F0DC
:104B90004FFE044686F31188BFF36F8F08B9204695
:104BA00070BD0022002305F1180102480EF02BFC15
:104BB000F5E700BF000B002038B50D461446012371
:104BC00082F84830136813B192F84A305BB9D4F8D0
:104BD00090305A89DB8893420BD004F118015DB103
:104BE000002200230BE002F1080107480EF0F5FB5C
:104BF000EDE73DB904F118014FF47A720023024841
:104C00000EF001FC38BD00BF000B002030B583B0B2
:104C10008DF807100469002384F8483006E0174B2C
:104C200001221A7021E001200AF01DFBEFF311852B
:104C3000102383F31288BFF36F8F01220DF1070158
:104C4000D4F8900009F0F4FD85F31188BFF36F8F5D
:104C500001280AD00EF026FC18B994F8A130002BD8
:104C6000E1D1064B1B78002BD9D00A22002304F196
:104C7000180103480EF0C7FB03B030BDE33000203D
:104C8000000B002070B504460E4615468188C9B257
:104C900018480AF0BFF930B394F90020002A18DB55
:104CA0006278202A04D0222A0ED06FF0850019E005
:104CB0002A68116840F8101C9188927920F80C1C21
:104CC00000F80A2C00200DE0628800F8092C002072
:104CD00008E06278212A09D1A0F110032B60072394
:104CE0003360002070BD6FF01200FBE76FF08500AD
:104CF000F8E700BF7C18002008B5014603480AF019
:104D00009DF910B1012200F8072C08BD7C18002085
:104D100008B503464FF0000C80F89EC080F89FC095
:104D200080F849C080F848C00B4A92E80300C3F8F5
:104D30009400A3F89810090C83F89A1083F89CC08B
:104D400083F89BC083F8A0C04022614603F14C0069
:104D50000FF03AF808BD00BF784B010830B583B0BA
:104D60000446D0F8A4305D680139052906D8DFE88B
:104D700001F003050723262AFFF7CAFF03B030BD61
:104D800090F89E30002BF9D1012380F89E302B6AD9
:104D900002460021187BFFF7B3FE94F84830002B41
:104DA000ECD12B6A187D01940B4B00930223002257
:104DB0001146FFF77FFDE1E7FFF7AAFFDEE70123DA
:104DC00080F89F30DAE790F89F30002BD6D0002390
:104DD00080F89F30D2E700BFB94B000838B50C46C9
:104DE0001546014604480AF003F920B12A46214637
:104DF000A438FFF7B3FF38BD7C18002010B5046954
:104E0000C4F8A40004F1A8030022C4F8A8200B4AA7
:104E1000526872B11360094A5360094904F10800ED
:104E20000EF0C0FA074904F118000EF0E0FA002075
:104E300010BD024A53601360EFE700BF7C180020EA
:104E4000A5F00008494E0008F0B585B00446A0F171
:104E50001806D0F88C305B681B6A1D7D28460AF066
:104E600009F910B994F886300BB905B0F0BD4FF4CC
:104E7000806203A9A06F0AF006FA07460028F4D062
:104E8000002384F8303010F03F0F00D1471E019608
:104E9000074B009302233A4603992846FFF70AFD81
:104EA000A06F3A4600F10A0109F0A2FCDDE700BF5D
:104EB000B94B000830B583B0084D002400944FF082
:104EC000FF334FF480620649284606F02FFA054961
:104ED000284606F07FFA204603B030BD000B0020C4
:104EE000003D0020E861010810B5044605F028F8EF
:104EF0000246034920460AF0ADFE002010BD00BF67
:104F00002062010830B583B00546134600220192A5
:104F100001AA0A21586801F03BFE019C24B90AF05D
:104F2000C4F9204603B030BD2246034928460AF0A2
:104F3000AFFE019CF5E700BF5062010808B5034AC7
:104F400003490AF087FE002008BD00BFBC580108D5
:104F5000506301082DE9F04182B005461646002352
:104F6000019301AA0A21B06801F012FE04465FFA1B
:104F700080F8184928460AF07CFE019F8FB9B8F1E5
:104F8000040F15D8706809F080FD00281ADB02B202
:104F9000E3B20021084609F092FD384602B0BDE8B0
:104FA000F0813A460C4928460AF072FE019FF4E768
:104FB000E2B20A4928460AF06BFE28460AF0A9FE2A
:104FC0000127EAE77268064928460AF061FE6FF099
:104FD0001507E2E77C630108E46301080C6401083B
:104FE0002464010800B583B0009000238DF80430DC
:104FF000694604480EF037FC9DF8040003B05DF8E4
:1050000004FB00BFCBF2000810B5044604F078FFA3
:105010000246074920460AF01DFE064920460AF0CE
:1050200019FE214604480EF028FC002010BD00BFE8
:1050300088640108A8640108A950000870B58CB004
:105040000446084606A90EF083FA054600B101257C
:1050500068460EF08AFA00B92DB1114920460AF0CF
:10506000F9FD0CB070BD069D079E681946EB06035E
:10507000401946EB03035A0142EAD062410140184D
:1050800043EB02014019DDE9002346EB0101FBF788
:105090006FFD03462A46034920460AF0DBFDE0E7A0
:1050A000DC640108B464010870B58EB004460D4696
:1050B000D0F8AC600EF0FFF903460FF0B1F8234AC8
:1050C000125894422DD0224A6BB3009323462149B3
:1050D00028460AF0BFFDD4E90A23CDE9002394F95C
:1050E0000E30227B1C4928460AF0B4FD202205A977
:1050F000204606F081F90246636F184928460AF0F7
:10510000A9FD21462846FFF799FF0DA920460EF07C
:1051100012FA024648B1124928460AF09BFD0EB029
:1051200070BD104AD0E7104BCFE70D9BF11A6422F7
:1051300001FB02F2B2FBF6F20292019600913246B6
:105140000A4928460AF086FDE9E700BF080000008A
:10515000805D010804650108106501083C650108CF
:1051600054650108287B0108006501088465010871
:1051700070B590B005460024089409940A940B94E5
:105180000C940D940E940F944FF0203308930993D0
:105190000A930B930C930D93ADF8383001461548E4
:1051A0000EF06BFB14B1002010B070BD04EB441383
:1051B000114E06EB831607AA4FF4006106F140007A
:1051C0000EF0A8F9079AC2F50061642301FB03F30E
:1051D000DB0A05934FF40063049303910292019359
:1051E00008AB009323463246044928460AF032FDB4
:1051F0000134D7E70152000880490020DC6501082E
:10520000F0B589B004460D46D0F8AC6007A90EF0A1
:1052100092F9B8B920460EF04EF90799771A642230
:1052200007FB02F2B2FBF6F2034688B10492039642
:105230000297019100962246064928460AF00AFD87
:1052400009B0F0BD0246044928460AF003FDF7E71D
:10525000024BEBE728660108546501080065010868
:1052600038B50546134610220021586807F074FC33
:105270000446FFF7B7FE78B10EF0D2FF0E4B1B5875
:105280009C4211D0204606F01FFB22460B492846BF
:105290000AF0E0FC002038BD2246094928460AF001
:1052A000F7FC6FF01500F6E7064928460AF0F0FC17
:1052B0006FF01500EFE700BF08000000D46601089A
:1052C00090660108AC66010838B505461346102201
:1052D0000021586807F040FC0446FFF783FE78B1D0
:1052E0000EF09EFF0E4B1B589C4211D0204606F03C
:1052F0007BFC22460B4928460AF0ACFC002038BD56
:105300002246094928460AF0C3FC6FF01500F6E76B
:10531000064928460AF0BCFC6FF01500EFE700BF15
:10532000080000004067010890660108186701083E
:1053300038B50546134610220021586807F00CFCCA
:105340000446FFF74FFE78B10EF06AFF0E4B1B5874
:105350009C4211D0204602F0CBFE22460B49284643
:105360000AF078FC002038BD2246094928460AF098
:105370008FFC6FF01500F6E7064928460AF088FC16
:105380006FF01500EFE700BF08000000A8670108F4
:10539000906601088067010810B503460C46114667
:1053A000006808B1027822B9024A204607F034FBAF
:1053B000204610BDE46701082DE9F04186B006469D
:1053C00005A805F08FFA00EBC000059B03EB8008F1
:1053D000224A082130460AF02FFC059C0CE0204BA5
:1053E000204A082130460AF027FC236A1BB11D68B9
:1053F0000DB12B68A3B9243444452AD2142269463E
:105400002046FFF7C9FF0346174A082130460AF035
:1054100013FC20460DF0CFFE0028E0D0134BDFE751
:10542000134A082130460AF007FC00272B68BB42CC
:1054300009D905EB87035B680E4A082130460AF05C
:10544000FBFB0137F2E70C4A082130460AF0F4FB77
:10545000D1E7002006B0BDE8F08100BF0068010878
:10546000F4670108146801080C680108EC6701087A
:105470001C680108306801083855010808B5102A71
:1054800012D0202A13D0082A06D00A4A08210AF08E
:10549000D3FB6FF0150006E00B78DBB2064A08215B
:1054A0000AF0CAFB002008BD0B889BB2F6E70B6828
:1054B000F4E700BF9C680108B468010808B5029BC6
:1054C000102A0ED0202A10D0082A06D0084A082117
:1054D0000AF0B2FB6FF0150002E0DBB20B700020A7
:1054E00008BD9BB20B800020FAE70B600020F7E7B5
:1054F0009C6801082DE9F04182B004460D4616462D
:1055000010220021706807F027FB0746022D20D8E3
:105510004FF020084346164A082120460AF08CFB2B
:10552000032D1ED910220021F06807F015FB054657
:105530000346104A082120460AF07EFB009500230E
:105540000193424639462046FFF7B8FF02B0BDE856
:10555000F0810A220021B06807F0FEFA5FFA80F8B5
:10556000D8E7424639462046FFF788FFEEE700BFFE
:10557000C8680108E068010838B504460D4611B155
:105580000E4B1B785BB90D4A137883F0010313703F
:105590005BB9294620460AF0D9FB002038BD0849EE
:1055A0000AF076FB6FF00F00F8E7064920460AF094
:1055B00051FB024B01221A70EBE700BFE4300020E0
:1055C000F468010830690108F8B507460E4615462B
:1055D0000023244A1370244A1360244A13600CE009
:1055E00000231C440222224920460EF01CFC98B9DC
:1055F0001C4B01221A700435013E012E1DD96C6826
:1056000002221C4920460EF00EFC0028E8D1A378A7
:10561000002BE6D00123E4E716492046FBF7C2FA47
:1056200050B123782D2B08D1637833B1224612492B
:1056300038460AF00FFBDEE70435002211466868A1
:1056400007F08AFA0D4B186000221146686807F0CF
:1056500083FA0B4B18600B493846FFF78DFF00208B
:10566000F8BD00BFE6300020881800208C1800200C
:10567000606901085C6901086469010894180020E8
:10568000901800208956000838B50546554B1B7800
:10569000182B01D0002305E00B78112B32D000230A
:1056A00000E0013302F1FF3C9E469C4509D9CC5CE9
:1056B000182CF6D18E449EF801001128F1D1012357
:1056C00000E00023F3B911F80C20464B1A700A7859
:1056D000A2F13003DBB2092B09D9A2F16103DBB2DD
:1056E000052B04D9A2F14103DBB2052B05D83E49B5
:1056F0000B683E48C25401330B603B4B1B68022BC6
:105700005DD038BD3A4B1A683A4928460AF0A2FAE9
:1057100000212846FFF730FF374B1B78002BF0D1D4
:1057200013E0364D2A681068030A03F47F4343EA06
:105730001063040204F47F04234343EA006342F845
:10574000043B2A6004392A4B1960294B1968042943
:10575000E7DC11F0030F0FD1284B18680268130A19
:1057600003F47F4343EA1263110201F47F010B4308
:1057700043EA02630360C4E74B4201F0030103F014
:10578000030358BF594202290FD00329B9D11B4B3B
:1057900019680B68C3F3074203F47F4002431B04FC
:1057A00003F47F0313430B60ABE7144B19680B68DA
:1057B000C3F307221B029BB213430B60A1E7102225
:1057C00000210A4807F0C8F90D4A136803F8010BD5
:1057D0001360074A136801331360034B00221A60F9
:1057E0008FE700BFE53000208818002084180020D3
:1057F0008C1800207C690108E630002090180020F9
:10580000941800202DE9F04385B080460F461546D8
:105810001C46DE08002D5DD04FF0000C08E01CF89F
:1058200007300CF110010DEB010C0CF8103C944604
:10583000B54240D30CEB0602102A3CD8102C0DD0F8
:10584000202C1BD0082CEAD0234A082140460AF01D
:10585000F3F96FF0150005B0BDE8F0833CF80730B0
:105860000CF11001694401F8103CC3F307230CF15B
:1058700011010DEB010C0CF8103CD8E75CF8073077
:105880000CF11001694401F8103CC3F307200CF13E
:105890001101694401F8100CC3F307400CF1120127
:1058A000694401F8100C1B0E0CF113010DEB010CF7
:1058B0000CF8103CBBE7A946102D28BF4FF010098B
:1058C0004B466A463946404600F0D6FE1037A5EBF7
:1058D00009059FE70020BEE79C6801082DE9F04319
:1058E00083B081460D46144600230193384B0122B4
:1058F0001A6002F0BDFE4FF0FF364FF02008374629
:10590000344A2146284602F0D7FEB0F1FF3F43D08B
:1059100073281BD077282CD0612804D06FF0150095
:1059200003B0BDE8F08301AA10212B4B186801F0E9
:105930002FF90646019B002BE2D0274B1A68274916
:1059400048460AF0A5F96FF01500E9E701AA002121
:10595000214B186801F01CF90746019B002BCFD0A2
:105960001D4B1A681E4948460AF092F96FF015005F
:10597000D6E701AA0021184B186801F009F9804602
:10598000019B002BBCD0144B1A68164948460AF0FC
:105990007FF96FF01500C3E7B6F1FF3F0AD0B7F10A
:1059A000FF3F0ED05FFA88F33A4631464846FFF78C
:1059B00029FFB5E70C4948460AF06AF96FF015006F
:1059C000AEE70A4948460AF063F96FF01500A7E709
:1059D0005C010020D4690108601C0020986901085E
:1059E000AC690108C0690108DC690108FC690108AB
:1059F00010B50246034653F8404B402141634362D1
:105A0000002383854385038543860386C38500F190
:105A100038010820106211611383D3829382D383EB
:105A200093835383C2F8B8300349204609F064FCDD
:105A3000204609F07BFC10BDFBF400082DE9F04383
:105A400083B080460D464FF000090DE06FF057041B
:105A50004FF00109224605F12801304608F0C8FE42
:105A6000002C32D0BC4230D105F124066A6B01A96A
:105A7000304609F0E4FC074670B10199D8F80830C7
:105A80009B69002BE2D00246404698470446002816
:105A9000E0D04FF00109DDE7114B1B6813F0060F52
:105AA0000AD1D8F808309B6963B101220DF10301D6
:105AB000404698470446D3E70A4A0221084809F0BD
:105AC000A4F8EEE76FF05704CCE7B9F1000F03D06C
:105AD0006B68A9680020984703B0BDE8F08300BF59
