:020000040800F2
:1000000040330020BD1B0008635E0008A91B0008E8
:10001000A91B0008A91B0008A91B0008000000007C
:100020000000000000000000000000007D1C00082F
:10003000A91B0008000000001D1C00080931000871
:100040002D1E00082D1E00082D1E00082D1E000864
:100050002D1E00082D1E00082D1E00082D1E000854
:100060002D1E00082D1E00082D1E00082D1E000844
:100070002D1E00082D1E00082D1E00082D1E000834
:100080002D1E00082D1E00082D1E00082D1E000824
:100090002D1E00082D1E00082D1E00082D1E000814
:1000A0002D1E00082D1E00082D1E00082D1E000804
:1000B0002D1E00082D1E00082D1E00082D1E0008F4
:1000C0002D1E00082D1E00082D1E00082D1E0008E4
:1000D0002D1E00082D1E00082D1E00082D1E0008D4
:1000E0002D1E00082D1E00082D1E00082D1E0008C4
:1000F0002D1E00082D1E00082D1E00082D1E0008B4
:100100002D1E00082D1E00082D1E00082D1E0008A3
:100110002D1E00082D1E00082D1E00082D1E000893
:100120002D1E00082D1E00082D1E00082D1E000883
:100130002D1E00082D1E00082D1E00082D1E000873
:100140002D1E00082D1E00082D1E00082D1E000863
:100150002D1E00082D1E00082D1E00082D1E000853
:100160002D1E00082D1E00082D1E00082D1E000843
:100170002D1E00082D1E00082D1E00082D1E000833
:100180002D1E00082D1E00082D1E00082D1E000823
:100190002D1E00082D1E00082D1E00082D1E000813
:0C01A0002D1E00082D1E00082D1E00085A
:1001AC0053B94AB9002908BF00281CBF4FF0FF31D2
:1001BC004FF0FF3000F00CB8ADF1080C6DE904CE37
:1001CC0000F010F8DDF804E0DDE9022304B070471C
:1001DC00704700BF034613F8012B002AFBD1181AF5
:1001EC00013870472DE9F04786468C460846089E34
:1001FC00154674461946002B40F0C2808542B2FA6F
:10020C0082F245D94AB1C2F1200300FA02FC2EFA5F
:10021C0003F3954043EA0C0C94404FEA154EA8B2F8
:10022C00BCFBFEF8230C0EFB18CC08FB00F943EAD0
:10023C000C43994528D9EB1808F1FF3704D299459E
:10024C0002D9A8F102072B44A3EB0903A4B2B3FB18
:10025C00FEFC0EFB1C330CFB00F044EA0344A042F2
:10026C0014D92C190CF1FF3304D2A04202D9ACF1F1
:10027C0002032C44241A43EA07401EB1D440002345
:10028C0034607360BDE8F0874746DDE76346F1E70D
:10029C0092BB431B01214FEA154EAFB2B3FBFEFCE0
:1002AC00200C0EFB1C330CFB07F840EA034398456B
:1002BC0062D9EB180CF1FF3004D2984502D9ACF19D
:1002CC0002002B44A3EB0803A4B2B3FBFEFC0EFB11
:1002DC001C330CFB07F744EA0344A7424ED92C19F4
:1002EC000CF1FF3304D2A74202D9ACF102032C4427
:1002FC00E41B43EA0040C0E7C2F1200320FA03F1FB
:10030C00954090402EFA03F303434FEA154EAFB2DB
:10031C00B1FBFEFC0EFB1C10190C0CFB07F841EAA0
:10032C000041884504FA02F422D969180CF1FF3017
:10033C0004D2884502D9ACF102002944A1EB080192
:10034C009BB2B1FBFEFC0EFB1C110CFB07F743EA46
:10035C0001439F420ED9EB180CF1FF3104D29F429E
:10036C0002D9ACF102012B44DB1B41EA004192E7BC
:10037C006046E3E76146F7E76046A3E76346B7E705
:10038C00834206D916B9002108467BE7C6E900E08E
:10039C00F9E7B3FA83F78FB9834201D3724508D8D2
:1003AC00BEEB020460EB030301209C461EB9002146
:1003BC0068E73846FAE7C6E9004CF8E7C7F1200CC5
:1003CC00BB4022FA0CF41C432EFA0CF120FA0CF36D
:1003DC00B84001434FEA14490EFA07F5B3FBF9F89C
:1003EC001FFA84FE09FB18300B0C08FB0EFA43EACB
:1003FC0000439A4502FA07F240D9E31808F1FF309E
:10040C0004D29A4502D9A8F102002344A3EB0A03B3
:10041C0089B2B3FBF9F809FB183308FB0EFE41EA6D
:10042C0003418E452CD9611808F1FF3304D28E4557
:10043C0002D9A8F10203214443EA0040A0FB029830
:10044C00A1EB0E014145CE46434602D306D14D45A4
:10045C0004D2B9EB020E68EB04030138002EA6D0CF
:10046C00B5EB0E0261EB030101FA0CFC22FA07F367
:10047C004CEA0303F940C6E9003198E74046C5E76A
:10048C004346D9E7014804F02BB800BF70010020A7
:10049C0038B5064D064C4FF0FF324FF0FF3328466F
:1004AC0004F052F8204605F088FAF4E770010020B9
:1004BC004A7E000810B50D4806F015FE20B9BDE8BF
:1004CC0010400B4805F079BA0A484FF4D01105F0EA
:1004DC00EAF9064B9C684FF400516369034898474E
:1004EC00002142F2107006F029FFF4E7C4760008F0
:1004FC00637E0008407C000870B5184C204606F05E
:10050C00F2FD20B9164805F058FA002070BD1548C8
:10051C004FF4803105F0C7F9A568AE696EB1236957
:10052C001B6813F0010F14BF4FF000734FF0806382
:10053C004FF0A07200212046B0470B490B4B4B608B
:10054C00EB6901228A600BB104489847002000F047
:10055C002BFC08B10648D6E70648D4E78477000898
:10056C008D7E0008387C000860060020910400088D
:10057C00B77E0008D27E0008014B1B68184700BFED
:10058C00B0000020014B1860704700BFB000002085
:10059C0030B585B004460D4610220021684606F0A1
:1005AC0079FF02238DF802302A46044B0193214631
:1005BC00684604F01BFF05B030BD00BF8505000880
:1005CC0080B505460E461746984604F05BFC03467C
:1005DC0006F0CCFFDFF81890044649F8003042468C
:1005EC0030463946A84754F8090001F0FBFA00BF21
:1005FC0008000000034A536823F0020353600020F4
:10060C00704700BF002004E0084B1A6842F4807267
:10061C001A601A6842F400721A601A6842F4806216
:10062C001A60034B034A1A60704700BF003C02403B
:10063C001C0100200024F400014B036000207047D3
:10064C00487C0008F0B40D4B0D4E5F6A0D4BB34265
:10065C0003D36FF08500F0BC70475C68BC420AD3D2
:10066C001D6945B194F802C08488E4B2A44502D156
:10067C002B46F0BC18472433E9E700BF6C0600207A
:10068C006C020020480200202DE9F047144CDFF8E2
:10069C005480DFF8549005460E461746444503D364
:1006AC006FF08500BDE8F0876268D9F824309A4273
:1006BC0013D3A3698BB1A9889078C9B2884205D1AC
:1006CC003A4631462846BDE8F04718475279012A88
:1006DC0003D13A463146284698472434DEE700BF1A
:1006EC00480200206C0200206C0600202DE9F0412D
:1006FC000B4CDFF8308005460E461746444502D3B6
:10070C006FF0850009E063690BB92434F6E73A46CB
:10071C003146284698470028F7D1BDE8F08100BF44
:10072C00480200206C02002010B5044601F07EFF48
:10073C0010F1780F00D050B9054A204605F0E7F9C2
:10074C00D2F8C43023EA0003C2F8C430002010BD34
:10075C006C060020024B00221A605A60704700BFE2
:10076C002707002070B50B4B0B4CA34201D3002084
:10077C0070BD196A1E7F00220439D5B2AE4201D871
:10078C002433F2E7013211F832508542F5D10120C1
:10079C00EEE700BF480200206C02002073B584888D
:1007AC00E4B263060D468DF8074007D02046FFF7EC
:1007BC00D9FF78B10D4B93F8BA0058B10B4E2046C7
:1007CC0055B101F0DFFEF3691BB10DF107010820F3
:1007DC009847012002B070BD01F0EAFEF369002BCE
:1007EC00F7D00DF107010920F2E700BF6C060020DD
:1007FC0008B509480378C3F341130A3350F8233082
:10080C003BB100F1080200F110019847C043C00F42
:10081C0008BD1846FCE700BF6C06002004282DE933
:10082C00F14FDFF8989004460F4616D001282DD1D1
:10083C00DFF88C8098F8B93043B300F0DBFD214D24
:10084C004D4520D2D5F820B04FF0000A2B7F5FFA2F
:10085C008AF6B34204D82435F2E7FFF77BFFE7E7CB
:10086C000BEBC6060AF1010A307901F0DFFE0246F5
:10087C00307905F04CF9D8F8C430002A23EA00038B
:10088C00C8F8C430E2DA002388F8B9300D4D4D4574
:10089C0008D30B4B1B6A6BB13946204601B0BDE83F
:1008AC00F04F1847EB681BB13A462146284698474B
:1008BC002435ECE701B0BDE8F08F00BF6C020020DE
:1008CC006C0600204802002073B586788DF8006015
:1008DC00037942791C4C43EA0223ADF80230C37809
:1008EC00304603F003038DF8043005F010F9D4F80A
:1008FC00C430184205460BD0304600F05DFD304642
:10090C00FFF712FF06F0A7FC10B9962006F03EFD8B
:10091C00684605F00DFB10F1780F03D010B10020E4
:10092C0002B070BD9DF8000001F05CFE10F1780F74
:10093C0001D00028F3D1D4F8C43001202B4384F823
:10094C00B900C4F8C430EBE76C0600202DE9F04781
:10095C00A84EB36904460F461546FBB9237803F03D
:10096C001F03012B00F09E80022B00F0068133BB8D
:10097C0094F900002A686178002834DA062912D02C
:10098C0008292BD0D9B901231370517096F8C330B4
:10099C005B0043F001031370022328E19847002801
:1009AC00DCD100200DE06288100A011F0129844669
:1009BC0005D9072803D8716AD2B20C781CB96FF02C
:1009CC001500BDE8F0874E78664503D19A4200F0D9
:1009DC00098101332144F0E70B7808E196F8BA302D
:1009EC001370012303E101390829E8D801A353F856
:1009FC0021F000BF9B0A0008CB090008A90A0008D7
:100A0C00CB090008250A0008CB090008CB0900080F
:100A1C00CB090008330A00086088C0B201F070FDF1
:100A2C000028BED0CBE76388756A63BBFFF792FEE4
:100A3C00638886F8BA30F369002BB2D06E49032074
:100A4C009847AEE76B78042B10D0052B11D0022BF6
:100A5C0004D16F796388BB4208BF01202B781D44F9
:100A6C002B78002BEED10028A9D0DFE795F8038076
:100A7C00F4E76388BB42F1D1B8F1000FEED1284600
:100A8C00FFF722FFEAE7FF270020B846E8E7638874
:100A9C00012B94D1002386F8C33082E76388012BA5
:100AAC008DD1F8E796F8BA30D5F800C0002B86D077
:100ABC00A388756A5FFA83FE2A46107800283FF4F3
:100ACC007EAF5178022904D192F80480F04500F2EF
:100ADC0095800244F1E78CF800208CF801203960F5
:100AEC005FE7154496E00B2A7FF469AF00274FF0BF
:100AFC00FF08C146BA4606E06B78042B0FD0052BD5
:100B0C0021D02B781D442B78002BF5D1F36913B130
:100B1C00514607209847002F7FF443AF4FE795F8D5
:100B2C000280A38895F803909845EAD1638899458B
:100B3C00E7D1B8F1070F1DD806EB0803AA4683F8D6
:100B4C00BB900127DDE7A3884345DAD16388DBB28C
:100B5C004B450AD0AF78384600F02EFC3846FFF7EC
:100B6C00E3FDB0FA80F77F09CBE72846FFF7ACFE30
:100B7C000746C6E7AA460027C3E794F90020637826
:100B8C00002A19DA002B7FF41AAFA3882D68DCB287
:100B9C005B060AD02046FFF7E5FD00283FF40FAFB7
:100BAC0096F8BA30002B3FF40AAF2946204605F0E0
:100BBC00D4F900236B70EFE6012B08D0032B7FF4E4
:100BCC00FEAE6388002B7FF4FAAE012103E061884E
:100BDC0000297FF4F4AE2046FFF7E0FD00287FF4F7
:100BEC00E0AEECE6022829607FF4F6AE4B883B6061
:100BFC00D7E600BF6C0600202607002094F9000001
:100C0C0062780028BFF66FAF002A3FF464AF0A2A5F
:100C1C007FF4D5AE2A78002A3FF4D1AE6978042946
:100C2C007FF45FAFA9788B427FF45BAF072B96BF45
:100C3C009B19002393F8BB308CF80030D1E600BF31
:100C4C0013B5164C237DF3B9E268A168019201AB90
:100C5C00802004F06AFF019AA3681344A360E36840
:100C6C009B1AE3606BB962B12369E2889A4208DD92
:100C7C0094F8C82093FBF2F102FB11330BB901235A
:100C8C00237502B010BD00231A4619468020237527
:100C9C0002B0BDE8104001F0DDBC00BF6C060020C6
:100CAC0030B585B0002302460D460193002858D17B
:100CBC00002935D108220B460DEB020105F05AF93B
:100CCC00002804DA802001F05DFC05B030BD2A4C10
:100CDC00029A2260039A626004F13802A2609DF9C4
:100CEC000820BDF80E302575002AC4E903550ADB2F
:100CFC00802B04D9802001F045FC0020E3E713B1E0
:100D0C00C4E90333E1E7FFF773FD0028DAD0E2888A
:100D1C0023699A42D4BFE260E360FFF791FFD4E706
:100D2C00154CD4E90215002D01AB04DC05F022F9B9
:100D3C000028CADAC6E72A4605F01CF90028D9DBD8
:100D4C00019AA3681344A360E3689B1AE360002B29
:100D5C00BBD104F13803A360FFF74AFD0028DCD1B6
:100D6C00B0E78028B1D1044BDA68002AD5D11B7DBD
:100D7C00002BD2D1A9E700BF6C060020054B064A18
:100D8C009A62064ADA62064A1A63064A58629A61FD
:100D9C00002070476C060020590900085106000815
:100DAC00F9060008950600082DE9F3410446474D65
:100DBC0047484FF0FF334FF0FF3203F0C9FA95F874
:100DCC00B830002B7BD16B6A83B142482C62E8614E
:100DDC006E6A01F08FFB01F0E9FA041E10DA3C4850
:100DEC0003F02EFB204602B0BDE8F08100F0BEF807
:100DFC00FFF7C4FF6B6A002BE7D14FF0FF34EEE72F
:100E0C0000F01AFB041EEADB7378012B5AD1F3793C
:100E1C00002B57D00026684685F8C830ADF8023054
:100E2C008DF804608DF8006005F082F8041ED6DBA6
:100E3C00802768468DF8007005F07AF8041ECEDB2A
:100E4C002549304605F059F8041EC8DB22493846BE
:100E5C0005F053F8041EC2DB204CDFF884804445B7
:100E6C001AD3002001F0BEFB041EB8DBD5F8C43049
:100E7C00802043F00103C5F8C43001F0B3FB041E1D
:100E8C00ADDBD5F8C43043F48033C5F8C43001234E
:100E9C0085F8B8300024A2E7276A0026227FF3B237
:100EAC009A4201D82434DAE707EBC30257F833101F
:100EBC00107905F022F801360028EFD09DE76FF08D
:100ECC0077048CE76FF0150489E700BF6C060020EF
:100EDC005C01002029080008AD0C00084802002025
:100EEC006C02002030B51F4B8BB005AA03F1100526
:100EFC0018685968144603C40833AB422246F7D12C
:100F0C001B7823701022002101A806F0C3FA1222CC
:100F1C000021154806F0BEFA102101A801F050FE80
:100F2C0000281BDD0828B8BF0820093801AB0E4982
:100F3C001A18002012F8013F0AAC04EB131403F04A
:100F4C000F0328336B44013014F8144C13F8143C81
:100F5C000C7008284B7001F10201EBD102480BB068
:100F6C0030BD00BF227F0008911C00202DE9F04FFE
:100F7C00724B93F800B087B0BBF1000F03D07048F0
:100F8C0007B0BDE8F08F6E4C00264FF0011AB0464A
:100F9C003546B14623783BB96A4B02349C42F3D1B7
:100FAC00664A01231370EAE76378052B1BD8DFE848
:100FBC0003F08E03C38E1D39402304A88DF810B0A6
:100FCC00ADF812308DF814B004F0A2FF40B1082334
:100FDC0004A8ADF8123004F09BFF08B1ADF812B0C4
:100FEC00BDF81230E37123781C44D3E7E378002B6F
:100FFC00F9D1A3786BB108F101085FFA88F8F2E730
:10100C006B689C4207D024354F4B9D42F8D300208F
:10101C00B6E74E4DF8E7AB68002BECD041462046C6
:10102C009847E8E7002DF2D000222B7F9A42EED2AF
:10103C00296AA07801EBC2010B79984201D00132E8
:10104C00F3E70127E07800F003008DF81400207915
:10105C0094F805C040EA0C20ADF8120094F9020097
:10106C000028FBB228DA07F110004FF0010C0CFA43
:10107C0000F010EA0A0F26D143F080008DF8100022
:10108C0004A8CDE90213019204F042FFDDE901212D
:10109C00039BC0B99DF81020A27012F0800F18BFEE
:1010AC0010330A7118BFDBB24FF0010214BF9A4023
:1010BC00BA404AEA020A96E70120B84010EA0A0F41
:1010CC0001D11846DAE70137102FBBD1B7E7032E51
:1010DC001AD1FFF707FF074650B1FFF77BF802461E
:1010EC0030B11028A8BF10223946A01C06F0C4F954
:1010FC0023786FF00201E218091B04EB5303D14271
:10110C0013D50136F6B26EE7002EF1D1B9F1000F0E
:10111C003FF47DAFA4EB090389F80230C3F3072336
:10112C0089F8033089F80480EBE702F801BC13F866
:10113C00010902F8020DE2E7A14654E7901C0020D9
:10114C0080010020470200206C0200204802002091
:10115C0010B5094B00211A461C78844204D15C68F6
:10116C0014B102EB811010BD0131042903F14003CD
:10117C00F2D10020F7E700BF380700202DE9F3413A
:10118C0050F8283C10F82C6C103304460AD1036933
:10119C0050F8202C980736D5D2B9590715D500230D
:1011AC0044F8283C54F8283C10330BD054E907750C
:1011BC0054F8148C06F04FF800284FD02E482146D6
:1011CC0006F02DF802B0BDE8F08143F00403236172
:1011DC0054F8241C01AB304604F0A7FC10B16FF09E
:1011EC001503DDE7019A54F8243C134444F8243CDD
:1011FC0054F8203C9B1A44F8203C54F81C3C1344F3
:10120C0044F81C3CCEE754F8241C01AB304601F0EA
:10121C0073FA0028E3D1019D54F8243C2B4444F884
:10122C00243C54F8203C5B1B44F8203C54F81C3CF8
:10123C002B4444F81C3C002DB1D0304604F0A8FEE1
:10124C00B5FBF0F303FB1055002DA8D154F8203C4E
:10125C00002BA4D0304601F07DFAA3E744F8180C1B
:10126C00A4F1100003F03CF9002DABD042463946F6
:10127C003046A847A6E700BF700300204B1E012B89
:10128C0073B506460D460FD8FFF762FF044668B9E2
:10129C00012D09D101AB01220DF10301304601F002
:1012AC002BFA019B002BF5D102B070BD05F0D3FFDA
:1012BC0004F12C0108B1012D05D1084602B0BDE89E
:1012CC007040FFF75BBF034802B0BDE8704005F00B
:1012DC00A6BF00BF700300202DE9F74F0646019111
:1012EC001546984604F069FC044600285BD1EFF3E0
:1012FC00118A102383F31288BFF36F8FDFF8ACB021
:10130C0000220023584603F01FF970B9DFF8A090B3
:10131C00A70109EB8414636813F1100F14D1019326
:10132C00584603F0DDF8019B06E00134042C0BF168
:10133C00400BE5D16FF00B038AF31188BFF36F8F6D
:10134C00184603B0BDE8F08F019B2061C4E902355B
:10135C000C9B63610D9BA36130466FF00F0309F882
:10136C000760C4F83C80636004F012FE58B130464C
:10137C0004F00EFEB5FBF0F303FB10551DB1E36B4F
:10138C0043F00403E36318F0020F07D007F12C01BC
:10139C000848494405F043FF0023CDE7304601F0EF
:1013AC00D9F90346C8E76FF00F03C9E754070020CB
:1013BC00380700207003002010B5EFF311841023C0
:1013CC0083F31288BFF36F8FFFF7C2FE50B14368EF
:1013DC00103307D16FF08B03436000F12C010448EC
:1013EC0005F01DFF84F31188BFF36F8F10BD00BF94
:1013FC0070030020F8B50E4C04251027EFF311866E
:10140C0087F31288BFF36F8F6368103307D16FF0C7
:10141C008B030848636004F12C0105F000FF86F390
:10142C001188BFF36F8F013D04F14004E6D1F8BD84
:10143C00380700207003002070B50A4C0A4E0025B6
:10144C003146204605F0CFFE0122A4F110001146D2
:10145C00013505F08CFE042D04F14004F0D1002080
:10146C0070BD00BF640700208911000801690123C9
:10147C0081F84B300B6833B191F849301BB10248FD
:10148C00083105F0CCBE70477003002001690123C0
:10149C0081F84A300B6833B191F848301BB10248DF
:1014AC00083105F0BCBE70477003002070B50569AB
:1014BC00EFF31186102383F31288BFF36F8FD5F8E7
:1014CC00900004F0D6FA044686F31188BFF36F8FB0
:1014DC0030B104480022002305F1180103F09CF9F7
:1014EC00204670BD7003002070B5012382F848308F
:1014FC0013680D4614463BB192F84A3023B10E489E
:10150C0002F1080105F08BFED4F890305A89DB8883
:10151C009A4205D17DB904F118014FF47A7204E0B6
:10152C0004F11801002DF8D00022BDE870400248EB
:10153C00002303F071B970BD7003002070B50E4626
:10154C0081880446C9B21548154604F012FB10B345
:10155C0094F900206378002A16DB202B04D0222B70
:10156C000ED06FF085000AE02B681A6840F8102C3A
:10157C009A8820F80C2C9B7900F80A3C002070BD4E
:10158C00638800F8093CF9E7212BEAD110380723CE
:10159C0028603360F2E76FF01200F0E738080020A3
:1015AC0008B50146034804F0F2FA10B1012300F823
:1015BC00073C08BD380800200D4A03460021A0F85E
:1015CC0048101068C3F8940090889279A3F898009A
:1015DC0083F89A2083F89C1083F89B10A3F89E1034
:1015EC0083F8A010402203F14C0005F053BF00BF5C
:1015FC00307C000810B504690023C4F8A8300C4BEB
:10160C00C4F8A400596804F1A80269B9C3E900221E
:10161C0004F10800074905F0E6FD04F1180006493D
:10162C0005F00DFE002010BD0A605A60F0E700BF07
:10163C0038080020F15B0008FD16000830B54FF4A7
:10164C000033426805690D4C85B042F2A100CDE92A
:10165C000103002385F89D30106AADF80C10007959
:10166C000A2201A904F061FA95F89D3023B90120F2
:10167C0005F02AFD013CF7D105B030BDA186010073
:10168C0073B504698DF80710002384F848301025D1
:10169C00EFF3118685F31288BFF36F8F0122D4F814
:1016AC0090000DF1070104F0E4F986F31188BFF303
:1016BC006F8F01280AD005F0CEFD10B994F8A13037
:1016CC006BB9094B1A780AB901221A700A22002345
:1016DC0004F11801054803F09FF802B070BD002119
:1016EC000A2005F02BFED3E7A31C0020700300207A
:1016FC00F0B5D0F88C305B681B6A1F7D85B0054651
:10170C00384604F05AFA064650BB95F886303BB37F
:10171C00A86F0146C38831F80A2F9B1A9BB2B3F508
:10172C00806F28BF4FF4806303AA04F053F904467A
:10173C00B0B18306A5F1180308BF00F1FF3485F89A
:10174C0030600193074B03990093224602233846DD
:10175C00FFF7C2FDA86F224600F10A0104F070F9F0
:10176C0005B0F0BDF514000837B514460A1E054641
:10177C0021DDD4F88C0004F14C0104F07AF901233A
:10178C0084F8493023683BB194F84B3023B11148AD
:10179C0004F1080105F043FDD4F88C20938891895D
:1017AC0012695B1A9BB2D31A3F2B04D8012384F81D
:1017BC00A03003B030BD94F89E30002BF9D0064B0E
:1017CC00009301940123402204F14C012846FFF7B9
:1017DC0083FDEEE77003002075170008F7B50D4682
:1017EC0001461D4804F0B9F9044610B30646691EBB
:1017FC0056F8A4395F6805291BD8DFE801F01C1ADC
:10180C00031C222610F8061C99B9012300F8063C8B
:10181C003B6A3246187BFFF7A7FF14F85C2C42B9E1
:10182C003B6A187D0D4B0093019602231146FFF77E
:10183C0053FD03B0F0BD304603B0BDE8F040FFF7F8
:10184C00BBBE012304F8053CF3E710F8053C002B64
:10185C00EFD00023F6E700BF38080020F51400088D
:10186C0037B5094D0949002400944FF0FF334FF46C
:10187C008062284602F090FF0549284605F0F1FCED
:10188C00204603B030BD00BF700300204021002073
:10189C00417F000830BFFFF7FDBF00BF2DE9F041CD
:1018AC000B4EDFF8308006EB0807CC1B05463246A2
:1018BC000949204605F0E0FDA01942460021083CEC
:1018CC0005F0E8FD2C6707F10800BDE8F08100BFCA
:1018DC000000000004000000307C0008054B5A6931
:1018EC009B689A421FBF044A536843F0805353606D
:1018FC00704700BF5C1C002000ED00E070B5264B6B
:10190C0015469A6A12F0100F9A6A14BF112410240B
:10191C0012F0080F9A6A18BF1224920706460AD5CD
:10192C00586B9A6A140634D519B19A6A22F080025F
:10193C009A62132401E06FF01500174B9A6A12F0AB
:10194C00010F9A6A18BF142412F0200F9A6A18BF5C
:10195C001524D20602D49B6A9B070AD50E4B5B68F2
:10196C00190506D5314600F015FA10B180F3098837
:10197C000224094B9A6A920642BF5A6A22F4005218
:10198C005A629A6A42F0FF029A6200232B70204638
:10199C0070BD6FF01500CCE700ED00E0134B9A6AB8
:1019AC0012F0007F9A6A14BF1E201D2012F0807F57
:1019BC009A6A18BF1F2012F4002F9A6A18BF2120B0
:1019CC0012F4802F9A6A18BF222012F4003F9A6AF0
:1019DC0018BF232012F4803F9A6A6FEA02426FEA22
:1019EC0012429A6218BF2420704700BF00ED00E03D
:1019FC0010B5194B0246986A9C6A10F4805F14BFAC
:101A0C001720162014F4006F9C6A18BF1820A40528
:101A1C0009D5986B986A000404D51AB19A6A22F415
:101A2C0000429A6219200C4B9A6A12F4806F9A6ADF
:101A3C0018BF1A20D2050CD49B6A13F4005F18BF90
:101A4C001C20054A936A43F47F43936200230B7076
:101A5C0010BD1B20F5E700BF00ED00E0F0B5484BD2
:101A6C005B688BB00446C3F30803002585F311882B
:101A7C00BFF36F8F02F07F40B0F17F4F11D102F0B6
:101A8C000C0008280DD010074CBF0C460125002275
:101A9C00033B8DF80720032B05D8DFE803F0246304
:101AAC0067602C46F3E700239DF80720CAB902AE05
:101ABC0004F1200720686168324603C20834BC4236
:101ACC001646F7D1099A002D54D0C2F3080121B95A
:101ADC006FEA52226FEA4222099202A9184604F0D8
:101AEC00B0F90BB0F0BD264BDA6A9107DBD4DA6A99
:101AFC00002AD8DBDA6A5200D5D55A69A16942F4BA
:101B0C0080725A61BFF34F8FBFF36F8F5A6931F8F0
:101B1C00021C22F480725A61BFF34F8FBFF36F8F98
:101B2C004DF6027291420AD09A6AD2B24AB10DF1C4
:101B3C00070201212046FFF7E1FE0346B4E72368C4
:101B4C00B2E79A6A12F47F4F05D00DF1070101201C
:101B5C00FFF74EFFF1E79B6AB3F5803FA3D3FFF786
:101B6C001DFFEAE70DF107020021E3E70DF1070184
:101B7C000020EDE722F4FF7222F00102ACE700BF77
:101B8C0000ED00E0044B5A6942F010025A615A69A8
:101B9C0022F008025A61704700ED00E0EFF3088074
:101BAC00EFF3098101B57246FFF758FF01BD00BF85
:101BBC000A4880F30888102080F3118808484FF4F5
:101BCC000461401880F30988EFF314800221084364
:101BDC0080F31488BFF36F8F00F0A4F8403300201B
:101BEC0080250020084B9B6883420BD1EFF30583C3
:101BFC0043B1064B5A6842F080525A605A6A22F43A
:101C0C0000425A6203F044B95C1C002000ED00E075
:101C1C0014498A684FF030001044EFF3098C80E8C7
:101C2C00F01F102080F31288BFF36F8F0E4F4FF010
:101C3C0000664A698A603E60106F0C4C2060506FE1
:101C4C000023536780F3118804B5104600F006F9A1
:101C5C00BDE8044002F1300090E8F01F8CF30988D5
:101C6C00704700005C1C002004ED00E040080020E0
:101C7C001EF0040F0CBFEFF30880EFF309808169AD
:101C8C0011F8021C0229FFD001B5724604F0DFF8EE
:101C9C0001BD00BF40B2002807DB044A4109012303
:101CAC0000F01F00834042F82130704700E100E053
:101CBC0040B200280CDB4309064900F01F0020331A
:101CCC000122824041F82320BFF34F8FBFF36F8F67
:101CDC00704700BF00E100E040B20028A8BF00F14F
:101CEC00604001F10101B8BF064B4FEA0111ACBFD6
:101CFC0000F5614000F00F00C9B2B4BF195480F870
:101D0C000013704714ED00E0044B054A23F07F03E9
:101D1C009360BFF34F8FBFF36F8F704700000008C5
:101D2C0000ED00E008B5FFF7EFFF0B4AD2F8883062
:101D3C0023F47003C2F88830EFF3148323F0040308
:101D4C0083F31488BFF36F8F02F04CFA03F0D4F9CD
:101D5C0000F05AF802F094FA00ED00E042F8203C52
:101D6C00009B42F81C3C0A49019B42F8183C029B20
:101D7C0042F8143C21F001014FF0807342F8043C0E
:101D8C0042F8081C0023203A02654367704700BFE5
:101D9C00CD050008094A0346906870B113F1160F7F
:101DAC00006E05D0A0F140029A4205D8834203D2BE
:101DBC00814228BF00207047002070475C1C002027
:101DCC0008B51546094A0A4B9060026F1A600E4618
:101DDC0000F044F82C4686F309880020054B984700
:101DEC002046002100220023034C20475C1C0020CD
:101DFC0040080020795E0008CD050008014B102238
:101E0C001A61704700ED00E0044800231021C2184D
:101E1C0001335B2B82F80013F9D1704700E100E02D
:101E2C0008B5EFF30583064A103B02EBC30152F8E9
:101E3C00330049688847BDE80840FFF74FBD00BF35
:101E4C00FC770008024B034A0348012100F076B8E6
:101E5C000000032000000020487C0008026E054BA7
:101E6C00403A1A60044A4021C3E901121846012184
:101E7C0000F06EB84408002000000B15084AC2F8A8
:101E8C0098000B6823F01F03034343F01003C2F8C0
:101E9C009C308B6843F00103C2F8A030704700BF40
:101EAC0000ED00E02DE9F043DFF8608085B00E46D0
:101EBC001F4604464FF00009B14523DA6068D8B1DB
:101ECC003FB1411E08421BD11F2819D92368194262
:101EDC0016D12368019303F0DDFFA368034303933A
:101EEC00D8F89050C5F30725D0B2013DA84207D8C9
:101EFC0001A9FFF7C3FF421C09F101090C34DBE710
:101F0C006FF01502104605B0BDE8F08300ED00E05F
:101F1C00044B0522C3F89420BFF34F8FBFF36F8F90
:101F2C00704700BF00ED00E0BFF35F8F024B002253
:101F3C00C3F89420704700BF00ED00E010B5034CCF
:101F4C0001232278FFF7AEFF207010BDA41C0020E7
:101F5C0008B50B4A00231278FFF7A4FF10F1160FF7
:101F6C0007D0084A0021D2F89030C3F307239842D7
:101F7C0000DB08BDC2F89800C2F8A0100130F2E7EF
:101F8C00A41C002000ED00E02DE9F043534B544C11
:101F9C00D3F890302568C3F307239D4285B000F237
:101FAC009A80FFF7C1FF00200C2685421AD14D4CB8
:101FBC004D4F25706846FEF73FFBDFF82081DFF8B8
:101FCC002C9106460025AE4213D1237843490020BC
:101FDC00D1F89020C2F30722934276DBFFF798FFEB
:101FEC00002042E0616806FB0011FFF747FF01305B
:101FFC00DBE7009800EB05114FEA051CCB683B4072
:10200C00B3F5000F48D00AD8B3F5001F30D0B3F5A4
:10201C00800F36D0B3F5801F10D00135D3E7B3F164
:10202C00807F42D0B3F1007FF7D150F80C30886834
:10203C004A6803F02FFF40F4802009E050F80C3080
:10204C0088684A6803F026FF40F0885040F430203E
:10205C00CDE901230390D8F890302078C3F30723FF
:10206C00013B98422AD96FF0150005B0BDE8F0830A
:10207C0050F80C3088684A6803F00CFF40EA0900FD
:10208C00E6E750F80C3088684A6803F003FF40F02C
:10209C00C06040F40030DBE750F80C3088684A68C8
:1020AC0003F0F8FE40F08270D2E750F80C308868EC
:1020BC004A6803F0EFFE40F08870C9E701A9FFF70A
:1020CC00DDFE237801332370A7E7C1F89830C1F8FF
:1020DC00A00001337CE74FF0FF30C6E700ED00E0D5
:1020EC00547C0008A41C00200000F0FF0000081124
:1020FC0008B5024B1B689847002008BD500800200B
:10210C00034B044A1860937843F0020393707047B2
:10211C0050080020F400002008B50649064821F0BC
:10212C000701C1F1005202F5403203F007FC002018
:10213C0008BD00BFC73F0020540800202DE9F04126
:10214C00104E114F054600244FF001082B78716991
:10215C001A19D2B208FA02F201EA02008A4309D132
:10216C0053FA84F3706157F833201AB107EBC303A9
:10217C00596890476A780134E3B29A42E6D2BDE8D6
:10218C00F08100BF003C014060080020044B184463
:10219C0000230133994200F8012BFADC704700BF91
:1021AC002C01002007B5062201210020FFF7EEFFCD
:1021BC00002211460620FFF78FFD01210846072259
:1021CC00FFF7E4FF002211460720FFF785FD0822E8
:1021DC0001210220FFF7DAFF002211460820FFF749
:1021EC007BFD092201210320FFF7D0FF00221146BD
:1021FC000920FFF771FD0A2201210420FFF7C6FF19
:10220C00002211460A20FFF767FD05210846172218
:10221C00FFF7BCFF002211461720FFF75DFD2822B7
:10222C0006210A20FFF7B2FF002211462820FFF7F3
:10223C0053FD4FF4804307484422CDE900238368C3
:10224C001B6823B16946984703B05DF804FB6FF037
:10225C005700F9E7E4750008034660B1B0FA80F264
:10226C00C2F11F02D2B205498856054A11680B43C8
:10227C001360FFF70FBDFF22F5E700BF2C01002014
:10228C00003C0140024A136823EA000313607047C4
:10229C00003C0140032921D8DFE801F0020C1019A1
:1022AC000F4B9A6822EA00029A60DA6822EA00026E
:1022BC00DA6070470A4B9A680243F5E7084BDA6814
:1022CC000243DA609A6822EA00029A607047044B73
:1022DC009A6802439A60DA681043D860704700BF6E
:1022EC00003C014030B5B0B1B0FA80F3C3F11F032C
:1022FC00DBB20B4850F833408C4204D100EBC305E1
:10230C006D68954205D044B940F8331000EBC3001A
:10231C004260002030BDFF23EBE76FF00F00F9E7C0
:10232C006008002060B1B0FA80F3C3F11F03DBB288
:10233C00044A002142F8331002EBC302516070478B
:10234C00FF23F5E76008002000F00302043292003E
:10235C000F23934043EA9000C3B20233054A52F86C
:10236C002320030C02EA104093FAA3F3B3FA83F38D
:10237C00D84070470038014020F08002052A0BDC61
:10238C00064B10F0800F03F1D8010CBF184608461D
:10239C00242303FB0200704700207047C80D002067
:1023AC00014800F0BDBF00BFE008002073B5484CE9
:1023BC00204604F098FE002800F08780A568AB69E1
:1023CC0013B96FF0040033E04249002220469847CD
:1023DC000028F6D12B68002BF3D03F4920469847B4
:1023EC000028EED1EB68002BEBD02046394901AA2E
:1023FC00984704460028E4D1384B019A9A4219D1E7
:10240C00374A384D136D23F080431365364B2B60E0
:10241C0006232B714FF44073A873EB8001464FF4E5
:10242C00107332482B8101AA03F0E0FF002804DA74
:10243C0002B070BD6FF08500FAE7019B2246197956
:10244C00186800F0D9FB0028F2DB264804F0B2F93A
:10245C000028B6D1234804F03CFA0028B1D1214819
:10246C0004F017FA04460028ABD14023A5F8E83451
:10247C0085F8EC04A5F8C03585F8C4051C4D194841
:10248C00A02104F0A1FB10222146A5F2D45004F0A7
:10249C007CFBA5F2D456012228461146013404F0E7
:1024AC0066FE062C05F1240505D0A922E1B23046C2
:1024BC0004F06BFBEFE7002211464D20FFF70CFCFC
:1024CC004D20FFF7E7FB0020B2E76FF01200AFE7FB
:1024DC00E4750008A47C00089C7C0008006CDC02FD
:1024EC0000380240E008002000000440747C000822
:1024FC00B40E0020014BC3F8E4047047E008002040
:10250C00014608B5044804F00AFA002814BF6FF01D
:10251C000400002008BD00BFE008002008B51346E9
:10252C000206014605D5802800D13BB16FF015009D
:10253C0012E0B3F5007F28BF4FF4007321F0800246
:10254C000648520202F5D362024404F062FA0028F3
:10255C0014BF6FF00400002008BD00BFE00800208D
:10256C00030610B50C4607D431B10146044804F0FB
:10257C006EFA2060002010BD6FF01500FBE700BF65
:10258C00E008002038B50546FFF7F6FE044638B1E2
:10259C000648294604F07DFA28B90123637138BD39
:1025AC006FF01500FBE76FF00400F8E7E00800207F
:1025BC0038B50546FFF7E0FE044650B1437933B118
:1025CC000748294604F09CFA30B96071E06000209D
:1025DC0038BD6FF01500FBE76FF00400F8E700BFA3
:1025EC00E008002070B50446FFF7C6FE0546A0B112
:1025FC000D4E037902882146304604F0A3F978B9D0
:10260C0063B2002B0BDD06EB44212A88204601F532
:10261C00D361BDE87040FFF781BF6FF0150070BD4E
:10262C006FF00400FBE700BFE008002010B5044683
:10263C00FFF7A2FE48B10648214604F0BCF9002879
:10264C0014BF6FF00400002010BD6FF01500FBE705
:10265C00E00800202DE9F8430646894615469846C1
:10266C00FFF78AFE00283ED033063CD500F1140754
:10267C0000220023384601F067FF0446B0BB04F08B
:10268C00EAFD10B94D20FFF713FB802E02D1402D2F
:10269C0028BF40254A4617482B46314604F0DFF93F
:1026AC00024658B1384601F01BFF04F0D4FD10B9B6
:1026BC004D20FFF7EFFA6FF0040411E0802E04D1E7
:1026CC001DB101463046FFF729FF04F0C4FD10B9D7
:1026DC004D20FFF7DFFAB8F1000F01D0C8F8005019
:1026EC002046BDE8F8836FF01504F9E76FF00A0493
:1026FC00F6E700BFE00800202DE9F84304468846C1
:10270C0091461F46FFF738FE0546F0B12306C66812
:10271C001BD4B8F1000F13D003690D4964024E4568
:10272C0004F5D36428BF4E461C443246214440462F
:10273C0004F0A2FEEB689B1BEB602B6933442B610E
:10274C0007B13E600020BDE8F8836FF01500FAE792
:10275C00E008002010B50446FFF70EFE68B1230612
:10276C000BD4C3680BB1002010BD0549028801EBE6
:10277C0044212046FFF7D2FEF5E76FF01500F3E792
:10278C00780F002070B50023402280210D480D4D9C
:10279C0004F0D8F800230B484022194604F0D2F874
:1027AC00002405F2D4563019243401F099FED82CAB
:1027BC00F9D1D5F8E43423B1BDE8704000210120F3
:1027CC00184770BDE0080020034BD3F8E43413B174
:1027DC000021022018477047E0080020034BD3F873
:1027EC00E43413B10021042018477047E00800209E
:1027FC00034BD3F8E43413B100210520184770477C
:10280C00E0080020034BD3F8E43413B10021062078
:10281C0018477047E008002070B5114C0823D4F815
:10282C00A014D4F89C04C4F8F434D4F8F034002583
:10283C0004F5D36686E80300C4F8F8547BB1294646
:10284C0028469847B4F8A2244AB194F99C34AB4278
:10285C0005DB31462846BDE87040FFF75FBE70BD12
:10286C00E008002038B5254B18680B88C3F30B0320
:10287C00072B0D46144611D8CBB1023B052B06D8BD
:10288C00DFE803F0320332301E264FF4FA402060AA
:10289C002B68B3F5805F29D2002038BD402B0DD0BA
:1028AC0008D823F00402302AF1D0382BEFD06FF087
:1028BC008500F2E7442B09D0A82BF7E78008E6E760
:1028CC0000F0B2F84FF4A873C00858434008DEE794
:1028DC0000F0AAF84FF4A873C00858430723B0FBC4
:1028EC00F3F0D4E70648D2E70020D0E7C3F3133364
:1028FC000133B0FBF3F02060CEE700BF1C010020D9
:10290C0000127A00F8B5444F444C00F0ADF838464C
:10291C0003F004FC00F0D0FCA368414AC3F303139A
:10292C001578D35C47FA05F520FA03F6AE4202D2CD
:10293C00284601F0DDFA236823F480232360236802
:10294C0043F480332360354B1A689103FCD55A6FDE
:10295C0042F001025A675A6F9207FCD59A6802F04E
:10296C000C02082A17D11A68940707D41A6842F087
:10297C0001021A60294A13689807FCD5274B9A68FC
:10298C0022F003029A609A6812F00C0FFBD19A683D
:10299C0022F0F0029A60214C236823F080732360AC
:1029AC0023689901FCD4636823F440336360636843
:1029BC0023F0706343F0E063636000F039F8236840
:1029CC0043F080732360154B1A689201FCD59A680A
:1029DC0022F0F0029A609A6822F0030242F002029E
:1029EC009A609A6802F00C02082AFAD1AE4202D31D
:1029FC00284601F07DFA0B4B084A1F60936823F4BC
:102A0C00E05343F4A0539360936823F4604343F47E
:102A1C00004393600020F8BD007A030A003802409E
:102A2C004D8000081C0100200048704700127A00FD
:102A3C00084B09495A681140084A0A435A605A68B7
:102A4C00074922F440325A605A681140054A0A4339
:102A5C005A607047003802400080BFFF08544000A5
:102A6C000080BFF008544007064B1A6C42F08052AD
:102A7C001A641B6C82B003F080530193019B02B06B
:102A8C00704700BF0038024008B5074804F02BFB24
:102A9C0038B10648FFF734FB0448FDF773FD0020FE
:102AAC0008BD6FF01200FBE7A4770008BD2A0008F0
:102ABC000A2838B5074D044604D1AB680D215B6874
:102ACC0028469847AB6803485B68E1B298472046B4
:102ADC0038BD00BFA47700082DE9F843D0F8048076
:102AEC00D0F81090D8F8080017460D461E4603F093
:102AFC00E6F9B7F5001F044616D12846D8F8084069
:102B0C00FFF722FC84420CD1294603F0D8F9044685
:102B1C00FFF7B8FB2046FFF705FC00212046FFF726
:102B2C00B9FB0020BDE8F883B7F5800F20D0B6F1D3
:102B3C00806F19D0B6F1C06F18D0B6F1007F1AD1E2
:102B4C00022610494A462046FFF7CCFBB0B9D8F80C
:102B5C000810284603F0B6F920463146FFF79AFBD9
:102B6C002046FFF779FBDCE70126EAE70326E8E7D6
:102B7C006FF08500D6E76FF01500D3E76FF00F000C
:102B8C00D0E700BF9D63000838B503690446586060
:102B9C000A4D284604F0A7FA60B1AB6861681B685F
:102BAC000C3123B12846984700EAE07038BD6FF02D
:102BBC005700F9E76FF01200F8E700BFE475000862
:102BCC001FB50C4BD3F8182A12BA0192D3F8142A59
:102BDC0012BA02920C29D3F8103A28BF0C211BBA56
:102BEC000C460A4601A9039304F046FC204604B0A7
:102BFC0010BD00BF0070FF1F2DE9F0471E4F0446AB
:102C0C0000EBC1060025B44201D1002014E020687D
:102C1C00C30600F01F0911D4656845F02005C0F308
:102C2C00481AC0F34420102823D857F82080B8F154
:102C3C00000F0DD16FF01200BDE8F087B9F1100F45
:102C4C0004D0B9F1110FEAD16568E8E73025E6E761
:102C5C00404604F048FA0028ECD04B462A460AF0CD
:102C6C000F01404603F0AAFB002804F10804CADA5D
:102C7C00E2E76FF01500DFE7887D000843681B680A
:102C8C0003F1140252E8002F42F0010203F1140088
:102C9C0040E800210029F3D1174A93421BD0A2F53A
:102CAC004C42934217D002F58062934213D002F546
:102CBC00806293420FD002F5806293420BD002F5F2
:102CCC004442934207D0A2F51C42934203D002F532
:102CDC008062934203D11A6942F040021A6103F1F7
:102CEC000C0252E8002F42F4807203F10C0040E811
:102CFC0000210029F3D170470010014043681B6884
:102D0C0003F1140252E8002F22F0010203F1140027
:102D1C0040E800210029F3D1174A93421BD0A2F5B9
:102D2C004C42934217D002F58062934213D002F5C5
:102D3C00806293420FD002F5806293420BD002F571
:102D4C004442934207D0A2F51C42934203D002F5B1
:102D5C008062934203D11A6922F040021A6103F196
:102D6C000C0252E8002F22F4807203F10C0040E8B0
:102D7C0000210029F3D1704700100140F8B5036918
:102D8C000C465E6823794168012B34D09A1E55425B
:102D9C005541AD026279022A9CBF354F37F812C0FB
:102DAC00A27988BF4FF4005C042A27D0003B18BFDF
:102DBC0001231B03E279012A0A680CBF4FF4407708
:102DCC000027A642D1681CD121F4B05129430B43F2
:102DDC00D360136923F4405343EA0C031361436833
:102DEC001A68536923F440733B4353613168BDE85F
:102DFC00F84003F0F9BB4FF4C065CBE74FF48053B8
:102E0C00D8E701F4C0618D421FBFD16821F4C061C5
:102E1C002943D160426811680A6902F44052944512
:102E2C001FBF0A6922F4405242EA0C020A6142684E
:102E3C001168CA6802F4805293421FBFCA6822F418
:102E4C0080521343CB6043681A68536903F4407390
:102E5C009F421FBF536923F440733B435361216866
:102E6C003368994203D003F0BFFB23683360F8BD8D
:102E7C00447E00082DE9F04143681D680369D3F8CE
:102E8C0004800B790C46012B4979A67937D102299C
:102E9C0050D9042E4BD04FF480574FF4C06203230B
:102EAC008B4244D1002F7DD0002A14BF0322042270
:102EBC00B2423CD1E37983B1012B38D13C4B9D42DA
:102ECC000BD0A3F54C439D4207D003F580639D4284
:102EDC0003D003F54C439D4229D1EB6823F40053F6
:102EEC00EB602146FFF74AFFEB6843F40053EB60BD
:102EFC0094E8030088E803000020BDE8F081022B71
:102F0C0008D1022921D9042E11D04FF480624FF43C
:102F1C008057C4E702290A461FD9042E04D133B9BD
:102F2C004FF480571A46BAE763BB0329C0D06FF041
:102F3C008500E2E71F4A042E32F811C0F7D04FF497
:102F4C00C062033B012B10D8F1E71A4A042E32F869
:102F5C0011C0ECD04FF48062F3E7164A042E32F81D
:102F6C0011C016D1002BE2D11A464FF48057BCF594
:102F7C00805F13D0BCF5405F12D0BCF1000F8ED136
:102F8C0001238DE7033B012BD1D90022BFE700229F
:102F9C00D7E7002BFBD11A461F46E8E700237FE753
:102FAC0002237DE7002A14BF0222032280E700BF20
:102FBC0000100140447E00082DE9F3410569476883
:102FCC0004462C48286004F08EF820B96FF01200EB
:102FDC0002B0BDE8F0812868F96883681B68002B93
:102FEC0044D098470028F3DB386A01AA002103F08B
:102FFC00FDF90028ECDB019B002219791868FFF71A
:10300C00FBFD0028E4DB666823693568D3F804808F
:10301C00EB6823F40053EB60706804F064F800284C
:10302C00D4D0D6E901018368DB6803B1984705F178
:10303C000C0353E8003F43F00C0305F10C0141E88D
:10304C000032002AF3D141462046FFF797FE337D2C
:10305C001BB16B6943F008036B61EB6843F40053DD
:10306C00EB6020467B6A98470020B1E76FF0570071
:10307C00AEE700BFE475000810B54FF0E0230F4930
:10308C009C691A6908689B690D4902F4803234B94D
:10309C0093B903464AB90A681044C01A10BD002BF4
:1030AC0008BF03460AB9A342F5D90A6802440A606C
:1030BC004FF0E0221269EEE70446F3E7581C0020BB
:1030CC00541C00200A4B102283F82320094B44F295
:1030DC00A0121A60084B002018604FF0E02344F255
:1030EC009F125A6198611A6942F007021A6170477F
:1030FC0000ED00E0581C0020541C0020684620F015
:10310C0007018D4619B5FFF7B7FF114B1149D3E9EC
:10311C0000420868001942F10002C3E900020E4A9D
:10312C0000230B60D2E9004144F2A013001BB0FB5A
:10313C00F3F043431B1941F10001C2E9003102F0E5
:10314C00C1F8FEF7CBFBBDE819408546704700BFC0
:10315C0018040020541C0020100400202DE9F0411C
:10316C00DFF8DC8099B1421C0BD14FF0E0221369DF
:10317C0023F0010313614FF07F43C8F80030BDE822
:10318C00F081D8F80060012807DC00270BE0431C15
:10319C00D8F80060F7D140F2E53040F2E6339842BF
:1031AC00A8BF1846471EEFF31185102383F312882E
:1031BC00BFF36F8FFFF760FF224C4FF0E02399694C
:1031CC00D4E90023801843F10003C4E900031E4B2B
:1031DC0000221A601D4B1A68831A2ED444F2A01CCC
:1031EC000CFB073303F583431F33B3FBFCF7131AB4
:1031FC000CFB073340F21A42934238BF1346144A71
:10320C00934228BF13464FF0E022C8F80030013B30
:10321C0090695361002393618142A1EB0003D4E9CF
:10322C00001238BF9B195B1842F10002C4E900324E
:10323C0085F31188BFF36F8FA1E740F21A43E2E7E1
:10324C00581C002018040020541C002010040020DE
:10325C002094FF0038B5EFF31185102383F3128807
:10326C00BFF36F8F084B1C68084B1B68E41AFFF701
:10327C0003FF85F31188BFF36F8F44F2A013204432
:10328C00B0FBF3F038BD00BF180400201004002080
:10329C0038B5EFF31185102383F31288BFF36F8FCA
:1032AC00044B1C68FFF7E8FE85F31188BFF36F8FA2
:1032BC00204438BD1804002008B513498B6803F06E
:1032CC000C03042B1CD0082B1CD14A684B68496892
:1032DC0013F4800314BF0D480D48C1F3881118BFB7
:1032EC00002302F03F02A1FB0001FCF759FF064B43
:1032FC005B68C3F3014301335B00B0FBF3F008BD23
:10330C000248FCE70248FAE70038024000127A0053
:10331C000024F400014B1868704700BF1C0100200A
:10332C002DE9F04F066889B00446304603F0B8FE2C
:10333C000390002840F05581206803F083FE00289C
:10334C0000F04F81D6F808382068C3F30D23C4F879
:10335C00D43403F077FE870741BF2268536903F02A
:10336C0002035361206803F06DFEC00606F500658C
:10337C002CD52268936923F010039361D6F8208032
:10338C00C8F34343022B08F00F0740F02D8147F69A
:10339C00F07318EA030F14D0242303FB0747C8F378
:1033AC000A19D7F860124A46304603F0ABFDD7F83D
:1033BC0060324B44C7F86032D7F868324B44C7F8D8
:1033CC0068322268936943F010039361206803F01C
:1033DC0039FE010300F11A81206803F033FE420329
:1033EC000DD5206803F03AFE2746049006F5106BC5
:1033FC004FF0000A049B2068002B40F0D18120681C
:10340C0003F020FE002813DA6B6823F001036B60D5
:10341C0094F8CC34012B40F06B82002184F8CC144E
:10342C00204603F0D5FB2268536903F00043536137
:10343C00206803F007FE01050AD5AB68DA0702D550
:10344C002046FFF7D5F92268536903F400635361F2
:10345C00206803F0F7FDC30433D56B6823F0010338
:10346C006B601021206803F057FC06F510634FF6D3
:10347C007F3122790398824200F23E82EB6943F05D
:10348C000113EB61E37B002B00F05282D5F8843002
:10349C0043F00B03C5F884306B6C43F00B036B6487
:1034AC00D6F8003823F4FE63C6F8003804F29C42C8
:1034BC00A179206800F0F6FC2268536903F480536C
:1034CC005361206803F0BEFD870416D5206803F015
:1034DC00EBFD206803F06BFCE0712768FFF71AFF27
:1034EC00E2790146384600F061FA2046FFF74AF9C6
:1034FC002268536903F400535361206803F0A2FD62
:10350C00000707D5204603F008FA2268536903F038
:10351C0008035361206803F095FD010600F1138246
:10352C00206803F08FFDC2020CD5A04606F5126987
:10353C0001272379BB4200F21F822268536903F4EE
:10354C0080135361206803F07DFD83022CD5234644
:10355C0006F53260012122798A4220D993F87CC287
:10356C000268BCF1010F40F01D82002A80F21A8221
:10357C00D4F8D47402F4803207F00107BA4240F058
:10358C00118283F87BC2B26942F08002B261726927
:10359C00170600F107826B6843F400736B602268B6
:1035AC00536903F400135361206803F04BFD410091
:1035BC0007D52046FFF708F92268536903F08043CA
:1035CC005361206803F03EFD42070AD523685D680D
:1035DC006B0702D52046FFF701F9226853682B438D
:1035EC00536009B0BDE8F08F062B7FF4EAAE0822D9
:1035FC0004F29C41304603F085FC242303FB07476F
:10360C00C8F30A18D7F868324344D8E6206803F0A8
:10361C001DFD06F530680490A2460027049B206827
:10362C00002B3FF4D9AE049BDB0765D55FFA87FB13
:10363C00594603F01BFD10F0010F81461ED00123EB
:10364C00C8F80830206894F806C0016C00F53063A7
:10365C0003EB4713BCF1010F9A687BD112F0080FF2
:10366C0007D0B148814209D9120407D54FF4004262
:10367C0003E012F0200F48D020229A6019F0080FB6
:10368C000FD00823C8F808302368A749186C03F535
:10369C00306303EB471388429A6870D82046FFF7D3
:1036AC00BBF819F0100F1CBF1023C8F8083019F024
:1036BC00020F14D073691A0642BF6B6843F480631F
:1036CC006B609AF85732012B06D100238AF85732D7
:1036DC005946204603F022F90223C8F8083019F0A5
:1036EC00200F1CBF2023C8F8083019F4005F1CBF42
:1036FC004FF40053C8F80830049B5B08013704935F
:10370C0008F120080AF1240A88E712F0280FB5D135
:10371C00DFF814C2614501D91204A7D41A69DAF88A
:10372C007432C2F312029B1ACAF868326FB9D4F819
:10373C0064222AB904F29C42012100F0B3FB04E09C
:10374C00D4F860221A44C4F860225946204602F08C
:10375C0028FC93E7DFF8D4C1614506D1110485D468
:10376C009006F2D520229A60EFE7002FEDD1D4F825
:10377C006432002BE9D104F29C423946DDE7110496
:10378C0044BF4FF400429A602046FFF745F8A179F8
:10379C00012986D1206804F29C4200F083FB80E76B
:1037AC00049BDB0740F19B805FFA8AF31946079371
:1037BC0003F065FC10F0010F804620D06B6B0121EB
:1037CC000AF00F0201FA02F223EA02036B63CBF850
:1037DC000810A17901290DD1D7E9072313443B62C5
:1037EC00BAF1000F06D1636A23B9206804F29C4237
:1037FC0000F058FB5FFA8AF1204602F0E8FB18F063
:10380C00080F1CBF0823CBF8083018F0100F1CBF92
:10381C001023CBF8083018F0400F1CBF4023CBF816
:10382C00083018F0020F10D05146304603F074FAED
:10383C00FB7D012B06D10023FB755FFA8AF1204634
:10384C0002F0D7FB0223CBF808302368059318F05D
:10385C00800F44D0D7E909329A4240D8A3EB020832
:10386C00FB69984528BF9846059B03F5106308F142
:10387C00030803EB4A134FEA98080693069B9969D1
:10388C0089B24145D7E9093227D393420BD8059B1E
:10389C000AF00F00D3F834280121814022EA0102FA
:1038AC00C3F834281BE0A3EB0209FB69079A0598BF
:1038BC00994528BF9946A3790093396A1FFA89F371
:1038CC0003F00DFB3B6A4B443B62BB6A09F10308F6
:1038DC004B444FEA9808BB62D0E79342D7D9049B7C
:1038EC005B080AF1010A049324370BF1200B81E5E4
:1038FC002046FEF787FF96E599601A6822F40012BD
:10390C001A60C3F80812D3F8002222F40012C3F88C
:10391C000022D3F8002242F00062C3F80022039A7E
:10392C00013203922033A4E50A30544F0A31544F2C
:10393C006B6943F4005343F02B036B612B6943F029
:10394C000B032B61ACE5B36923F08003B361012752
:10395C0004F257284FF024092379BB427FF6E0ADDF
:10396C0009FB07F318F80330012B03D1F9B22046F9
:10397C0003F0FBF80137EFE798F83C30D9F800205A
:10398C00012B09D1002A07DA67F07F0188F83B3058
:10399C00C9B2204603F0E9F8013708F1240809F10F
:1039AC002009C6E5013124332030D4E5022A4AD15E
:1039BC00274B284A0B44934239D9274B274A0B44AF
:1039CC00934236D9264AA1F57403A3F510539342BA
:1039DC0031D9244AA1F18373A3F5E74393422CD345
:1039EC00214B224A0B44934229D9214B214A0B44A7
:1039FC00934226D3204B214A0B44934223D3204A93
:103A0C00A1F1B773A3F5585393421ED31D4B1E4A15
:103A1C000B4493422CBF06230723C26822F4705236
:103A2C00C260C26842EA8323C360002070470F2340
:103A3C00F3E70E23F1E70D23EFE70C23EDE70B2360
:103A4C00EBE70A23E9E70923E7E70823E5E700BFEB
:103A5C00405327FFFF340C00401E1BFF3F420F005A
:103A6C007F4F120020D6130060B6E5FE5FE3160010
:103A7C0000D3CEFE40771B00C05BB3FEC09121008B
:103A8C0020753800E05459FEE09C410084B0F8B534
:103A9C00044607A880E80E0000239DF81C509DF8F2
:103AAC002660194603F1400204EB820201330F2B0E
:103ABC005160F7D104F50067002E4FD17B6843F0BD
:103ACC0002037B60A36B43F40013A363A36B23F487
:103ADC000023A363A36B23F48023A3630023C4F804
:103AEC00003E9DF82130012B42D19DF81F1000297A
:103AFC003CD1204603F054F91021204603F00CF978
:103B0C000146204603F02BF90843C0B200230038CD
:103B1C003B6118BF01207B6104F51062FB61002D35
:103B2C004FD0D4F80019994224DA4FF00061C4F850
:103B3C00001900214FF67F3C01339D421161C2F800
:103B4C0008C002F1200218D9D2F800E0BEF1000F33
:103B5C0010DA4FF0904EC2F800E0EDE7A36B23F4BF
:103B6C000013A363A36B43F40023B6E71946C0E725
:103B7C000321BEE700211160DBE7D4F8002B002AFB
:103B8C0004F5306319DA4FF00062C4F8002B002200
:103B9C0000214FF67F3C013295421961C3F808C0F1
:103BAC0003F120030DD9D3F800E0BEF1000F05DAC4
:103BBC004FF0904EC3F800E0EDE7002200211960B1
:103BCC00E6E73B6923F480733B610023A3616FF04C
:103BDC00804363619DF81E301BB9A36943F0100349
:103BEC00A361A2690A4B1343A3619DF822301BB158
:103BFC00A36943F00803A361012E01BFA36943F03D
:103C0C00804343F00403A361BDE8F84004B070475F
:103C1C0000383C8030B54A780B78012A00EB43130E
:103C2C0000F5006029D1D3F80029002A0BDAD3F86B
:103C3C00002942F00062C3F80029D3F8002942F0B1
:103C4C008042C3F800290A78C56B012402F00F02E8
:103C5C0004FA02F225EA0202C2630978C26901F091
:103C6C000F018C4022EA0402C261D3F80019174AF2
:103C7C000A40C3F80029002030BDD3F8002B002ADD
:103C8C000BDAD3F8002B42F00062C3F8002BD3F808
:103C9C00002B42F08042C3F8002B0A78C56B01243C
:103CAC0002F00F0204FA02F225EA0242C26309781A
:103CBC00C26901F00F018C4022EA0442C261D3F8C0
:103CCC00001B034A0A40C3F8002BD4E7007833ECFE
:103CDC000078F3EFF7B54B780F786F4EDFF8BCC177
:103CEC00012B00EB471440F089800D6904F510633B
:103CFC0045BB1D6935401D611D6945F400251D61DD
:103D0C001D6905EA0C05012A1D614CD1CA6902B175
:103D1C005A610B79012B0CD1D0F8083813F4807F41
:103D2C00D4F800390CBF43F0005343F08053C4F86F
:103D3C000039D4F8003943F00443C4F800390020AA
:103D4C0003B0F0BD1D6905EA0C051D611D69354008
:103D5C001D610D698E6867B9B54288BF0E611D691A
:103D6C0045F400251D610D691E69C5F31205354327
:103D7C00C9E74B4FD3F810C03544013DB5FBF6F500
:103D8C00AEB207EAC54545EA0C051D610D79012D5A
:103D9C00E9D11D6925F0C0451D611F69750705F046
:103DAC00C0453D43DEE7D4F8003943F00443C4F882
:103DBC0000390B79012B0DD00B69002BBFD00A7881
:103DCC00D0F8344802F00F02012393402343C0F88B
:103DDC003438B4E7D0F8083813F4807FD4F80039BD
:103DEC000CBF43F0005343F08053C4F800390092E9
:103DFC000B8A0A78C96803F072F8A0E7D4F8105B54
:103E0C0005EA0C05C4F8105BD4F8105B3540C4F817
:103E1C00105B04F530630E698D683FBB06B10D6114
:103E2C000D621E69C5F3120535431D611D6945F40C
:103E3C000025012A1D6102D1CA6802B15A610B79B1
:103E4C00012B0CD1D0F8083813F4807FD4F8003B48
:103E5C000CBF43F0005343F08053C4F8003BD4F83C
:103E6C00003B43F00443C4F8003B68E7002ED8D075
:103E7C002E44013EB6FBF5F6B6B275430D62084D05
:103E8C001F6905EAC6453D431D610D6A1E69C5F3F0
:103E9C0012053543CDE700BFFFFF07E00000F8FF38
:103EAC000000F81F30B5114C056CA54200F53063CD
:103EBC0003D9D0F8004B002C16DB00241C611C69C4
:103ECC0044F400241C611C6944F018041C611C6936
:103EDC00012944F0C0441C6101BF5A61D0F8003B79
:103EEC0043F08023C0F8003B002030BD0A30544F13
:103EFC00002800F0CC80674B1A6802F44042B2F5FF
:103F0C00404F51D102F10F6202F58C52904211D9FF
:103F1C001A6802F44042B2F5004F51D105235D4AB4
:103F2C00126802F44042B2F5804F74D1012B38BFB5
:103F3C00012370E0584A904208D91A6802F44042B2
:103F4C00B2F5004F40F095800423E8E753498842CE
:103F5C0019D8534A90421ED8524A904252D91B68E3
:103F6C0003F44043B3F5004F4FF001033AD0494AF4
:103F7C00126802F44042B2F5804F4CD18842D5D839
:103F8C00474A90423CE01A6802F44042B2F5004FB6
:103F9C0053D00323EBE71A681B6803F44043B3F5D3
:103FAC00804F4FF00203C0E71A6802F44042B2F5AA
:103FBC00004F4DD102F10F6202F5A342904207D996
:103FCC001B6803F44043B3F5804F4FF00503ACE797
:103FDC00314A90424DD8314A90422ED8304A9042C4
:103FEC00DAD800232F4A904213D92A4B1B6803F4CA
:103FFC004043B3F5804F46D1294B98424FF0010313
:10400C0033D993E71A6802F44042B2F5004F1CD141
:10401C000023204A126824490A6822F00F021A432E
:10402C000A600A6802F00F0293421CBF0A6802F091
:10403C000F02981A18BF012070471B6803F4404305
:10404C00B3F5804F4FF003036FE71B680023E2E7E3
:10405C001B6803F44043B3F5804FF7D10F4B9842E4
:10406C000FD80F4B984210D800230E4A9042D2D949
:10407C005CE71B6803F44043B3F5804F4FF0040337
:10408C0053E7032352E70123C5E70223C3E70120CB
:10409C00704700BF00700040000E2707804A5D0586
:1040AC000087930380C3C901003C024038B5EFF38D
:1040BC001185102383F31288BFF36F8F064B9C6816
:1040CC0003F024F885F31188BFF36F8F2046BDE809
:1040DC003840FDF787BD00BF5C1C00200E4B70B54F
:1040EC0053F820400D4E013053F82050A54200D813
:1040FC0070BD54F8040B0028F8D0B04205D3084B1F
:10410C00984202D203689847F0E7037FDB07EDD4AF
:10411C0002F0FFFFEAE700BF207E0008E47700080A
:10412C00FC77000870B52A4B2A4C2B4D012286B027
:10413C0003201A70FFF7D2FF01F03CF90420FFF7BF
:10414C00CDFF2646AE4204F1300410D300F0A6FD9C
:10415C00204C224EAC4226D300F0B4FDFCF7CCF937
:10416C001F4A137B23F00103137306B070BD54F880
:10417C000C3C059354F8103C049354F8143C0393F2
:10418C0054F8183C029354F81C3C019354F8203C0E
:10419C00009354E90A2354E90C0100F067FB54F82E
:1041AC00303C5E65CDE7D4E90A23B3F1FF3F08BF8D
:1041BC00B2F1FF3F05D052EA0301206803D100F0B1
:1041CC003DFE3034C6E73146183000F0EBFFF8E71F
:1041DC00A51C0020D87A0008387B00084173000821
:1041EC00A00400200648074A08B5121A002102F064
:1041FC00A7FF0548054A0021121A02F0A1FF08BDCD
:10420C0070020020A81C002000000010000000100C
:10421C0070B5002386B00122CDE90423134E144D52
:10422C0001930F22CDE902321249142303FB0055EE
:10423C0006EBC01604464FF4C07000FB04110E4B85
:10424C0000954FF4A072304600F010FB737B0B4AC4
:10425C00EE6023F0040373734FF4046304FB033325
:10426C0013442C746B6006B070BD00BF200400209A
:10427C005C1C0020C02D00205571000880250020FA
:10428C00BFB50020FFF72AFF294B83F30888294C80
:10429C00294F636943F4007363610025F02384F8AC
:1042AC002230E57725766576A57684F82050636A0A
:1042BC0043F4E0236362FDF765FCFDF79FFD4FF0CF
:1042CC00FF33A362E362FDF75FFEFDF7BBFD1B4806
:1042DC001B4C00F043FB02F005FFFCF795F90120A5
:1042EC00FFF7FCFE0220FFF7F9FE00F01FFD154B57
:1042FC0015495C61154B05930123CDE903534FF42C
:10430C0080623B46CDE901550095204600F0AEFA9F
:10431C00627B064622F004022046627302F0DEFF46
:10432C002846FFF775FF3A4631462046FDF748FD13
:10433C00C02D002000ED00E03141000820050020D8
:10434C00A00400205C1C0020402F00205D80000891
:10435C002DE9F341044617461E46EFF3118810234E
:10436C0083F31288BFF36F8FC368334A7BB18068C5
:10437C009168884219D057EA060318D188F311883E
:10438C00BFF36F8F6FF00F0002B0BDE8F081916842
:10439C0091F90E1021610133E3609368A36088F3F7
:1043AC001188BFF36F8F0020EEE72169F2E791F9D6
:1043BC000E1090F90E309942A8BF19466FF07E028C
:1043CC009142B8BF11468B422DDD02F0C8FE054666
:1043DC00CDE9007619482246414600F0A5FB00289D
:1043EC00E1D0EFF31186102383F31288BFF36F8FA4
:1043FC00A068D0B1236821699C420AD04BB193F9D3
:10440C000E309942A8BF19466FF07E039942B8BF8F
:10441C00194602F0A4FE40B10848314600F018FCE1
:10442C006FF00A00B0E70025D2E7002DF4D186F337
:10443C001188BFF36F8FF3E75C1C0020A61C0020D3
:10444C00F8B583680546002B3FD0234A9268934207
:10445C003ED1C368012B03D9013BC3600020F8BDDA
:10446C00EFF31187102383F31288BFF36F8F016969
:10447C00806802F074FE2C68A54207D10023C5E9C0
:10448C00023387F31188BFF36F8FE7E7002CF5D069
:10449C00D4E9003213605A60637B002623F00203D8
:1044AC006373C4E90066A66004F1180002F0B8FF5B
:1044BC00AC6094F90E302B612046A66702F00EFF1B
:1044CC000648394600F0C4FBC8E76FF01500C6E794
:1044DC004FF0FF30C3E700BF5C1C0020A61C00207F
:1044EC0070B5EFF31186102383F31288BFF36F8F2F
:1044FC000468A0421AD0CCB1D4E9003213605A60DF
:10450C00637B002523F002036373C4E90055A560A7
:10451C0004F1180002F084FF2046A56702F0DEFECD
:10452C0031460848BDE8704000F092BBD0E9023239
:10453C009A4218BF0133836086F31188BFF36F8FE3
:10454C0070BD00BFA61C002013B5EFF31181102421
:10455C0084F31288BFF36F8F846844B1013C84608C
:10456C0081F31188BFF36F8F002002B010BD52EAA7
:10457C00030406D181F31188BFF36F8F6FF00F0026
:10458C00F3E7CDE900230246014800F0CDFAECE751
:10459C00A61C00202DE9FF414F4E04461027EFF3D7
:1045AC00118887F31288BFF36F8FD4F88450F5B954
:1045BC00022104F19C0002F0E6FD002868D004F111
:1045CC00940500220121284602F0F1FE0028F8D1C2
:1045DC00002302934FF0FF324FF0FF33CDE900235D
:1045EC00414604F18C023D4800F0EEFCD7E7D4F8CC
:1045FC0088202B68C4F88430954208BFC4F88830F2
:10460C00D4F89C3043F00203C4F89C30EB6823F0E0
:10461C00040343F00103EB606B6888F31188BFF36C
:10462C006F8F28469847EFF3118887F31288BFF3F2
:10463C006F8FEB68D80623F0010236D4EA60EB6882
:10464C009A0716D5306823F00203EB6088B1036833
:10465C00002170B14268954235D1036869BB72681C
:10466C003360824200D17360002340F8083BFFF7AF
:10467C0037FFD4F89C3023F00203C4F89C3088F345
:10468C001188BFF36F8FDB0589D400F057FB86E7E9
:10469C00D4F89C30D9069BD5C4F89C0088F31188BB
:1046AC00BFF36F8F04B0BDE8F08123F01103EB6012
:1046BC0005F11000FFF714FFC1E70B60736883422C
:1046CC0008BF7160D0E723B11A680146184613463B
:1046DC00BFE71A46F9E700BF7C1C0020A61C00208F
:1046EC00F8B5C3689A0704460F46C3F340062ED4A8
:1046FC005B071CD40B680BB983680B60E368DD07A0
:10470C0044BFA3683B603D684CBF02260126002DC8
:10471C003CD0204B9A68D5F880309A420AD0D5F814
:10472C009C30D807C3F3800214D46FF01206002318
:10473C003B6025E002F08FFDD5F89C300028F0D1CD
:10474C00D907C3F3C002F0D552B15B0708D46FF0A0
:10475C000F06ECE7002AFAD1C3F3C003002BF6D105
:10476C0000232360D5F8883063B9C5E92144284675
:10477C0002F014FDE36843F00403E3603B68A360BC
:10478C003046F8BD1C60C5F88840F0E76FF01506A0
:10479C00CDE700BF5C1C0020F0B589B004460020BA
:1047AC00C4E921000E9D04F18C00C4E9230004F13E
:1047BC009400C4E9250055B32879002840F2011073
:1047CC0008BF0120C4F89C0000204FF0FF364FF0CA
:1047DC00FF37CDE90330CDE90100CDE906670D4B7C
:1047EC000094204600F08EF855B1296811B120468E
:1047FC0002F037FD6B791BB1237B43F0010323736C
:10480C00204600F01BFBC4F8804009B0F0BD01202D
:10481C00D8E700BFA145000837B501900846EFF373
:10482C001184102181F31288BFF36F8FC16811F0CE
:10483C001E0F16D153EA020508D101A9FFF750FF4C
:10484C0084F31188BFF36F8F03B030BD41F00801C2
:10485C00C160019981620449103000F0A3FC012071
:10486C00EEE70020ECE700BFB77100082DE9F0433C
:10487C00073285B022F007020E461F4610990173CD
:10488C0000F158037F32C0E916330446002322F0AE
:10489C003F020421836041733F2A0F98A073C4E93F
:1048AC000633E37306F14009A2F1400805D883F3FF
:1048BC001188BFF36F8F084602DFB51829462046D2
:1048CC00FCF7ECFF07300E9B20F00700A066C4E954
:1048DC00189802930D9B01932D1A0C9B00932A465A
:1048EC003B4631462046FDF739FA00236365044BFD
:1048FC009B6803B1DB6EE366284605B0BDE8F08328
:10490C005C1C0020F0B587B000250595109D049522
:10491C000F9D03950E9D0295DDE912760D9D019577
:10492C000C9D00950446FFF7A1FFB6F1FF3F08BFB1
:10493C00B7F1FF3F05D056EA070305D1204600F03A
:10494C007DFA204607B0F0BD3A46334604F1180014
:10495C00014900F027FCF4E74173000840F2011311
:10496C0083810023C0E91833C366014B98607047FC
:10497C005C1C0020094A93686FF00A01996708498A
:10498C0058674B6843F080534B60002383F31188C6
:10499C00BFF36F8F9368986F704700BF5C1C00204B
:1049AC0000ED00E070B590F90D20437B002A36DB5A
:1049BC00D90634D11B4C63F07F032246437352F863
:1049CC00183FE169934207D1C0E900210860E0611A
:1049DC0011E09942F8D01B68002BF5D090F90E50DD
:1049EC0093F90E60B542F4D0AE42F2DD5968C0E9DD
:1049FC00003108605860A569954200D005B9E5689A
:104A0C00A3685A7BD20604D1DA897F2A01D9AA6914
:104A1C0032B1AB4202D0284600F016FB656170BD86
:104A2C006361FCE75C1C002038B590F90D20437BDA
:104A3C00002A014604DA03F07F03437302F014FCEE
:104A4C000D4D2A46AB6852F8184F944200D004B969
:104A5C00EC688B4207D05A7BD20604D1DA897F2AC4
:104A6C0001D9A2692AB1A34202D0204600F0ECFA87
:104A7C0023466B6138BD00BF5C1C0020B3F1FF3FC7
:104A8C0008BFB2F1FF3F03D00249183000F08ABBD7
:104A9C00704700BF4173000870B590F90D20437B3F
:104AAC00002A014604DA03F07F03437302F0DCFBB7
:104ABC004B7B1C4C63F07F0322464B7352F8183F20
:104ACC00E069934207D1C1E900200160E16111E086
:104ADC009842F8D01B68002BF5D091F90E5093F941
:104AEC000E60B542F4D0AE42F2DD5868C1E9003038
:104AFC0001605960A569A368954200D005B9E568C5
:104B0C008B4207D05A7BD20604D1DA897F2A01D98D
:104B1C00AA692AB1AB4202D0284600F095FA2B467E
:104B2C00636170BD5C1C0020F8B50E4B0C46114641
:104B3C000D4A98681060DDE90667EFF311821022C8
:104B4C0082F31288BFF36F8F9D68284602F09EFB9C
:104B5C00284632463B46FFF791FF2046BDE8F84019
:104B6C00FFF708BF5C1C0020841C0020F8B504462D
:104B7C00EFF31187102383F31288BFF36F8F437BFE
:104B8C0003F01F02002A0CBF0126002649B239D1BE
:104B9C0003F07F03437302F067FB2C4D437B81735F
:104BAC0063F07F032A46437352F8183F934227D190
:104BBC00E869C4E900200460EC610FE09842F8D089
:104BCC001B68002BF5D093F90EC06145F6D08C45CF
:104BDC00F4DD5968C4E900310C605C60AC69944246
:104BEC0000D004B9EC68AB689C4202D0204600F0BF
:104BFC002BFA6C6187F31188BFF36F8F3046F8BDC9
:104C0C00E869DEE79B071ED5856802F02DFB8173F2
:104C1C002B689D4209D16B68C4E900531C606C6021
:104C2C00E8E76A689342F6D01B68002BF3D093F93F
:104C3C000E209142F5D08A42F3DD5A68C4E9003265
:104C4C0014605C60D6E78173D4E700BF5C1C002065
:104C5C0049B9EFF3058030B9054B5A699B689A4204
:104C6C0001D0FFF787BE81F31188BFF36F8F7047B8
:104C7C005C1C0020034648B9EFF3058232B9064AA2
:104C8C0051699268914201D0FFF774BE83F3118889
:104C9C00BFF36F8F704700BF5C1C0020EFF31181D6
:104CAC00102383F31288BFF36F8F054B9A68D37B65
:104CBC00013BD37381F31188BFF36F8F704700BF33
:104CCC005C1C002070B5EFF31186102383F312885F
:104CDC00BFF36F8F144DAB68DA7B0132DA732A465F
:104CEC0052F8184F944200D004B9EC685A7BD206A3
:104CFC0004D1DA897F2A01D9A2692AB1A34202D050
:104D0C00204600F0A1F923466B6186F31188BFF3AE
:104D1C006F8FEFF31180102383F31288BFF36F8F23
:104D2C00BDE87040FFF7A6BF5C1C0020024B03F1EE
:104D3C001802C3E9062270475C1C002070B5EFF323
:104D4C001186102383F31288BFF36F8F1B4CA1685D
:104D5C00E0690B68814214BF1A46002249680B6057
:104D6C005960A368E1692AB9154AC3E900210B60AF
:104D7C00E3610CE093F90E0092F90E50A84218D0A2
:104D8C00854216DD5168C3E900210B605360A569AB
:104D9C000B4B9D4200D005B9E568A3689D4202D03B
:104DAC00284600F051F965613046BDE87040FFF7C8
:104DBC00E1BD8A42D8D01268D5E700BF5C1C002048
:104DCC00741C0020F8B550EA010306460C4603D1CA
:104DDC00FFF7B4FF0020F8BDEFF31187102383F326
:104DEC001288BFF36F8F124D124BA8681860FFF733
:104DFC001BFEA868104923463246183000F0D2F941
:104E0C00AA68537B43F00403537304463846FFF7F8
:104E1C00B1FDAB68D3E90A23B3F1004F08BF002AF8
:104E2C00D8D102F025FB201A20EAE070D3E700BFAE
:104E3C005C1C0020841C00204173000838B504461B
:104E4C00EFF31185102383F31288BFF36F8F437B2D
:104E5C005B070FD5183002F0E3FA637B23F00403F1
:104E6C0020466373FFF79EFD29460548BDE8384090
:104E7C00FFF7EEBE85F31188BFF36F8F38BD00BF0F
:104E8C00A61C0020014B9868704700BF5C1C0020DA
:104E9C002DE9F8430446077BEFF31185102383F3C8
:104EAC001288BFF36F8F437B190705D585F31188E3
:104EBC00BFF36F8FBDE8F883D90943F008025AD1CC
:104ECC004273A36813B1204602F0D6F904F118001E
:104EDC0002F0A6FAA66D04F15808B04511D04FF0B7
:104EEC00000976B1304602F0C7F906F1180002F05D
:104EFC0097FAC6F878903046FFF754FDA66DB0458A
:104F0C00EFD1DFF8B880D8F808309C423BD1EFF3F2
:104F1C000589B9F1000918BF4FF00109D8F81860DC
:104F2C00274A964200D00EB9D8F80C60B34202D092
:104F3C00304600F089F8C8F81460B9F1000F02D0BF
:104F4C002048FFF70BFDD8F808309C4231D1EFF325
:104F5C00058373BB227BD20718D42846FFF70AFDC2
:104F6C00FB07A7D5002383F31188BFF36F8F0423AE
:104F7C00184602DF9EE703F07F0343F008034373F8
:104F8C0002F072F99DE74FF00009C7E785F311882D
:104F9C00BFF36F8F83F31188BFF36F8F0423184611
:104FAC0002DFEFF31180102383F31288BFF36F8FAE
:104FBC00D4E785F31188BFF36F8FD1E75C1C002019
:104FCC00741C002020050020D3B5DDE90667089C81
:104FDC00CDE90067FFF7A8FD1CB1034B9B681B696B
:104FEC00236002B0D0BD00BF5C1C0020044BC01A73
:104FFC00044BC0105843044B01221A54704700BF95
:10500C00A0050020ABAAAAAAA61C0020C3897F2B4E
:10501C0012D80A4B1B6863B1094B90F90E201B6820
:10502C009A4209DB437BDB0606D1064BC31A18BF39
:10503C00012303F0010070470023FAE72001002050
:10504C00881C00202004002070B50E4B0E4C1E7CDA
:10505C0006EB460304EBC3040546204602F0E0F9D8
:10506C000A4B002228469A55FFF7D0FF48B1084B4F
:10507C0008491A68013A2046D317BDE8704000F081
:10508C0091B870BD5C1C0020A0050020A61C00205F
:10509C0020010020F94F000838B5EFF311851023DB
:1050AC0083F31288BFF36F8F104B114A9C68106802
:1050BC00A04206D1FFF7C8FF85F31188BFF36F8FAD
:1050CC0038BD00211B7C11600A4AD35C002BF3D045
:1050DC002046FFF79BFF0028EED0637BDB0602D156
:1050EC002046FFF7D9FC2046E4E700BF5C1C0020FB
:1050FC00841C0020A61C00200A480B4A0B4908B54A
:10510C00121A02F01FF80A480A4A0B49121A02F046
:10511C0019F80A480A4A0B49BDE80840121A02F06D
:10512C0011B800BF000000206C020020B8800008FD
:10513C000000002000000020B880000800000010D3
:10514C000000001024830008024B1868984208BF26
:10515C000020704724010020034B1B680BB9FEF79D
:10516C0079B80020704700BF8C1C002030B570B19E
:10517C000B4B5B6898420AD0036843B1D3E9042116
:10518C00D0E90445121941EB0501C3E90421D0E92A
:10519C00003213605A600023C0E9003330BD00BFF9
:1051AC0024010020B3F1FF3F08BFB2F1FF3F2DE90E
:1051BC00F84F0446994615461F467AD08160EFF3A6
:1051CC001188102383F31288BFF36F8FB9F1000F8E
:1051DC00DFF8E4A020DBFFF7BFFFDAE90027013599
:1051EC0049F100092D1849EBE073C4E90453AD18DB
:1051FC00064643EB07074FF00109FFF7A5FFDFF861
:10520C00BCE0DEF804A00346EBB9C4E900EACAF836
:10521C000040CEF8044028E0DAE900126FF00103F8
:10522C005B1A4FF0FF3161EB02025B1B62EB090270
:10523C00012B72F10001BCBF01230022C0E9043232
:10524C004FF00009D9E7D3E9041CD4E904208A42C1
:10525C0070EB0C0B24DA891A5A686CEB0000C3E96A
:10526C000410C4E9003214605C60FFF76DFF8442E7
:10527C000ED1134B1B685BB9B9F1000F02D1FFF7CC
:10528C006BFF0646304602F0B4F80021FDF766FFCE
:10529C0088F31188BFF36F8F28463946BDE8F88F25
:1052AC00521A60EB0C009A45C4E90420ADD01B687F
:1052BC00AAE700252F46EFE7B805002024010020BF
:1052CC008C1C00202DE9F047EFF31185102383F39C
:1052DC001288BFF36F8FDFF8A490DFF8A480C9F8B1
:1052EC000000FFF731FF00260027D9F80030D8E97D
:1052FC0000ECD91750B1D0E90442A34271EB020A79
:10530C001CDAE41A62EB0102C0E9044213EB0E034F
:10531C004FF000044CEB01012046C8E90031C9F8FC
:10532C00004002F066F82146FDF718FF85F311885E
:10533C00BFF36F8FBDE8F047FFF7AEBE14EB0E0264
:10534C004CEBE473C0E90467C8E90023FFF70EFFD8
:10535C0085F31188BFF36F8F83689847EFF311853E
:10536C00102383F31288BFF36F8FD9F800301B1B07
:10537C00C9F80030FFF7E8FEB7E700BF8C1C00202F
:10538C00B805002010B5EFF31184102383F31288B5
:10539C00BFF36F8FFFF7E0FE054A0346D2E9000129
:1053AC00181841EBE37184F31188BFF36F8F10BDB4
:1053BC00B8050020014800F000BB00BF6280000867
:1053CC0007B5074B0093074907484FF0FF334FF4DD
:1053DC008062FFF7E1F9002003B05DF804FB00BF29
:1053EC00387E000880330020C00500202DE9F04FE6
:1053FC008DB043680293837815469A07804640F136
:10540C000D8100240E78002E00F00A81252E0BD081
:10541C004B1C03930134029B4146304698470028AD
:10542C00C0F2F6800399EDE74E788B1C252E039382
:10543C00F0D00027B946BB46BBF11F0F38D8A6F1F8
:10544C002003102B0AD8DFE803F02A0909300909D8
:10545C00092109090928092D09091F00A6F13003A2
:10546C00092B33D92A2E37D11BF0400F55F8043BAA
:10547C0040F08280002BA7BF4BF0200B9946C3F164
:10548C0000094BF0280B01E04BF0010B039B13F8C8
:10549C00016B0393002ECFD130E04BF0020B4BF09D
:1054AC00040BF3E74BF0080BF0E74BF0100BEDE7B8
:1054BC00BBF17F0F19D8A6F13003092BD2D81BF002
:1054CC00400F03D00A2101FB0737DFE70A2101FB5C
:1054DC0009394BF0200BD9E72E2E06D11BF0400FCB
:1054EC0040F09E804BF0400BD0E76C2E31D02BD887
:1054FC00682E36D06A2E3CD04C2E3AD0002F46F077
:10550C002003B8BF2BF04002A3F16501BCBF1FFA0A
:10551C0082FB0027022901D9612B2FD1073525F0F9
:10552C000705DFF8ACA2083507271BF0080F66D07B
:10553C000AEB070B56465E4563D1A4EB0A0A06EB51
:10554C000A02A9EB07096FE1742E9FD07A2E9DD029
:10555C00D4E71BF0800F18BF4BF4007B4BF0800B93
:10556C0094E71BF4807F18BF4BF4007B4BF4807BDB
:10557C008CE74BF4207B89E71F4687E7A6F1630194
:10558C00122900F2F080DFE811F013004F00EE005A
:10559C00EE00EE00EE004F00EE00EE00EE00EE002E
:1055AC00EE00FE00E900EE00EE001B00EE00AF0086
:1055BC0055F8043B8DF8183001270DF1180AB4E7A3
:1055CC0055F804AB834BBAF1000F08BF9A461BF099
:1055DC00400F14BF39464FF0FF31504601F062FFC7
:1055EC000746A2E7029B41462020984700280FDB84
:1055FC00013EB742F6D34C44A41BB14698E74E4645
:10560C00F7E716F8010B029B41469847002892DAFF
:10561C0098F8023043F0040388F802304FF0FF345E
:10562C0020460DB0BDE8F08F1BF0800F34D01BF47A
:10563C00007F2CD0073525F00705AA4669685AF873
:10564C00080B2BF010050029ADB237DA404261EBA4
:10565C00410145F480650DF1180B0A235A4601F0FF
:10566C002DFFA0EB0B0301936B0662D5019B25F07C
:10567C0001019F4289B240F3A180002E00F0998075
:10568C0015F0100240F09C80BB460D4623E0AA4664
:10569C005AF8040BC117D4E7AA461BF4807F5AF8BA
:1056AC00041B01D10846F5E71BF4007F15BF48B277
:1056BC0008B241F3C01141F3C031C2E750EA010313
:1056CC00C9D11BF0400FC6D0002FC4D12BF0110252
:1056DC0095B2BB46019740F2064115EA01021CBF88
:1056EC000BF1010B00222CE02BF010021FFA82FBB5
:1056FC000A231BF0800C49D01BF400711DBF073529
:10570C0025F00705AA46AA461ABF5AF8080B69687D
:10571C005AF8040B50EA010545D12BF016051BF085
:10572C00400FADB242D0002F40D12BF0170295B2F2
:10573C00019715F0100248D0019B002E42D103F1C5
:10574C00010B29075AD4EB0706D5D9456FDD019912
:10575C00A9EB0B035F18CB465B4649E04BF0100BF3
:10576C0010237826C5E7782B04D1C6F1780343F0D3
:10577C001003BEE7029B4146252098470028FFF600
:10578C0047AF023447E608230026B2E7AA461BF4CB
:10579C0080715AF8040BBDD01BF400711ABFC0B253
:1057AC00614680B2B6E72BF0060295B20DF1180BEC
:1057BC0054E725F01105ADB2BB468CE70D46B8E7B2
:1057CC003B460D4603F1020BBBE7DDF804B082E764
:1057DC00AF800008A8800008CDE904324146029B46
:1057EC00202098470028FFF613AF049B059A01333D
:1057FC009945F1DCA4EB0B01CC189B460AB3029B38
:10580C004146302098470028FFF602AF8EB901348C
:10581C002744019B391B994224DC1D465DBB019A30
:10582C00A9EB0B09224455461446914435E0019FDF
:10583C0092E7023441463046029B98470028E7DA4B
:10584C00E6E640F206410D42E2D015F0020F14BF1D
:10585C002B20202015F4806F04F10104414618BF61
:10586C002D20E9E7029B414630209847002804F19F
:10587C000104CEDACCE606AB013D4146585D029BF5
:10588C0098470028CADAC3E6029B41462020984775
:10589C00002804F10104FFF6BBAEA9EB0403002BB6
:1058AC00F2DCBFE57047F0B403460A461979DB8891
:1058BC0000681343DC028768066906D513F4402F91
:1058CC0003D0DA0748BF83F44023346801258D40A8
:1058DC0023F48012DB074CBF2C43AC4334603B6891
:1058EC00F0BC184700EBC100408840087047F8B581
:1058FC000346FFF7F7FFB0FA80F0C0F11F0003EB8F
:10590C00800CCA00DCF81060171D0C4606328DB2F4
:10591C0056B9012101FA00F0D9680143D960CCF8DD
:10592C001040DD539D52F8BDF1000431585AD85344
:10593C0003EBC0009E52C5805D52F4E7043A2DE99A
:10594C00F041CC1D114424F0070421F007010E1B7B
:10595C00F708B7FA87F2C2F12405AD004FF0000842
:10596C000735C2F12002ED0804604146A760C4F877
:10597C000C80920004F1100001F08CFD6B0043F0E0
:10598C000103638004EBC5027B1B5900A4F8008063
:10599C005180A21924F83550A2F80280A35304EBCD
:1059AC00C70329465A8842F001025A802046BDE8B6
:1059BC00F041FFF79CBF002070470FB407B504A956
:1059CC0051F8040B0191FAF7E3FD03B05DF804EB19
:1059DC0004B0704770B50C8806468888241A306964
:1059EC00A4B2844285B224BF641BA4B22D1BA8B2FE
:1059FC00984228BF18463368234413600B8803442D
:105A0C000B8070BD70B4838985880669ED1AADB2C0
:105A1C00731B934228BF134670BC0A46011DFFF747
:105A2C00D9BF70B40E460146C58831F80A3FEC1A4E
:105A3C00A3B2934228BF1346324670BCFFF7CABFCD
:105A4C0010B54B880C88E41AA4B294420ED31A44B5
:105A5C0092B28B884A800A800069D21A92B2824232
:105A6C0001D2002010BD03448B80FAE76FF01500C3
:105A7C00F8E72DE9F34106460F4615464FF00008AE
:105A8C002A4601A93046FFF7BDFF044640B1024645
:105A9C003946019801F0F0FC2D1BA0442744EFD1AE
:105AAC004246311D3046FFF7CBFF404602B0BDE801
:105ABC00F0812DE9F34107460E4615464FF00008DC
:105ACC002A4601A93846FFF7ACFF044648B12EB16F
