:020000040800F2
:10000000004F0020896B0008B1E80008756B0008FC
:10001000756B0008756B0008756B00080000000028
:10002000000000000000000000000000796C0008E3
:10003000756B000800000000016C0008F9870008DB
:100040006D6E00086D6E00086D6E00086D6E000824
:100050006D6E00086D6E00086D6E00086D6E000814
:100060006D6E00086D6E00086D6E00086D6E000804
:100070006D6E00086D6E00086D6E00086D6E0008F4
:100080006D6E00086D6E00086D6E00086D6E0008E4
:100090006D6E00086D6E00086D6E00086D6E0008D4
:1000A0006D6E00086D6E00086D6E00086D6E0008C4
:1000B0006D6E00086D6E00086D6E00086D6E0008B4
:1000C0006D6E00086D6E00086D6E00086D6E0008A4
:1000D0006D6E00086D6E00086D6E00086D6E000894
:1000E0006D6E00086D6E00086D6E00086D6E000884
:1000F0006D6E00086D6E00086D6E00086D6E000874
:100100006D6E00086D6E00086D6E00086D6E000863
:100110006D6E00086D6E00086D6E00086D6E000853
:100120006D6E00086D6E00086D6E00086D6E000843
:100130006D6E00086D6E00086D6E00086D6E000833
:100140006D6E00086D6E00086D6E00086D6E000823
:100150006D6E00086D6E00086D6E00086D6E000813
:100160006D6E00086D6E00086D6E00086D6E000803
:100170006D6E00086D6E00086D6E00086D6E0008F3
:100180006D6E00086D6E00086D6E00086D6E0008E3
:100190006D6E00086D6E00086D6E00086D6E0008D3
:0C01A0006D6E00086D6E00086D6E0008AA
:1001B0007BB972B90029BEBF00204FF0004106E0B4
:1001C00008BF00281CBF6FF000414FF0FF3000F067
:1001D00057B8ADF1080C6DE904CE002909DB002BFE
:1001E0001ADB00F069F8DDF804E0DDE9022304B071
:1001F0007047404261EB4101002B1BDB00F05CF8D3
:10020000DDF804E0DDE9022304B0404261EB410186
:10021000524263EB43037047524263EB430300F0E7
:100220004BF8DDF804E0DDE9022304B0404261EB65
:1002300041017047524263EB430300F03DF8DDF8A3
:1002400004E0DDE9022304B0524263EB430370474C
:1002500053B94AB9002908BF00281CBF4FF0FF312D
:100260004FF0FF3000F00CB8ADF1080C6DE904CE92
:1002700000F022F8DDF804E0DDE9022304B0704765
:10028000704700BF10F8012B11F8013B012A28BF6D
:100290009A42F7D0D01A7047034611F8012B03F8A1
:1002A000012B002AF9D17047034613F8012B002ACD
:1002B000FBD1181A013870472DE9F04786468C4665
:1002C0000846089E154674461946002B40F0C28029
:1002D0008542B2FA82F245D94AB1C2F1200300FA4E
:1002E00002FC2EFA03F3954043EA0C0C94404FEACB
:1002F000154EA8B2BCFBFEF8230C0EFB18CC08FB75
:1003000000F943EA0C43994528D9EB1808F1FF3767
:1003100004D2994502D9A8F102072B44A3EB0903A3
:10032000A4B2B3FBFEFC0EFB1C330CFB00F044EA52
:100330000344A04214D92C190CF1FF3304D2A0427B
:1003400002D9ACF102032C44241A43EA07401EB13F
:10035000D440002334607360BDE8F0874746DDE792
:100360006346F1E792BB431B01214FEA154EAFB242
:10037000B3FBFEFC200C0EFB1C330CFB07F840EA21
:100380000343984562D9EB180CF1FF3004D298452D
:1003900002D9ACF102002B44A3EB0803A4B2B3FBD7
:1003A000FEFC0EFB1C330CFB07F744EA0344A74298
:1003B0004ED92C190CF1FF3304D2A74202D9ACF16B
:1003C00002032C44E41B43EA0040C0E7C2F12003CF
:1003D00020FA03F1954090402EFA03F303434FEACD
:1003E000154EAFB2B1FBFEFC0EFB1C10190C0CFB42
:1003F00007F841EA0041884504FA02F422D9691855
:100400000CF1FF3004D2884502D9ACF10200294436
:10041000A1EB08019BB2B1FBFEFC0EFB1C110CFB17
:1004200007F743EA01439F420ED9EB180CF1FF3165
:1004300004D29F4202D9ACF102012B44DB1B41EAFA
:10044000004192E76046E3E76146F7E76046A3E7CD
:100450006346B7E7834206D916B9002108467BE711
:10046000C6E900E0F9E7B3FA83F78FB9834201D315
:10047000724508D8BEEB020460EB030301209C46E2
:100480001EB9002168E73846FAE7C6E9004CF8E7EC
:10049000C7F1200CBB4022FA0CF41C432EFA0CF1DD
:1004A00020FA0CF3B84001434FEA14490EFA07F55D
:1004B000B3FBF9F81FFA84FE09FB18300B0C08FB9C
:1004C0000EFA43EA00439A4502FA07F240D9E318CC
:1004D00008F1FF3004D29A4502D9A8F10200234462
:1004E000A3EB0A0389B2B3FBF9F809FB183308FB45
:1004F0000EFE41EA03418E452CD9611808F1FF3305
:1005000004D28E4502D9A8F10203214443EA0040F7
:10051000A0FB0298A1EB0E014145CE46434602D313
:1005200006D14D4504D2B9EB020E68EB0403013845
:10053000002EA6D0B5EB0E0261EB030101FA0CFC14
:1005400022FA07F34CEA0303F940C6E9003198E7C1
:100550004046C5E74346D9E72DE9F04F8DB00990F5
:100560000C46154610F0DEFF0022431880F0838011
:1005700013444B4FA7FB032C2CF0030202EB9C020D
:100580009B1AC01A61F100024FF0CC3100FB01F15F
:1005900007FB0211A0FB07031944420842EAC1729B
:1005A0004FEA51099246012C67D06C6821463D48BC
:1005B000FFF768FE28B121463B48FFF763FE00289D
:1005C00062D135A3D3E9002350464946FFF7F0FD39
:1005D00080460A9130A3D3E9002350464946FFF7ED
:1005E000E7FD15461C46314A002328462146FFF701
:1005F000DFFD06460F462D4A002328462146FFF719
:10060000D7FD15461C464EF660220023284621469B
:10061000FFF7CEFD81460B914EF66022002328465F
:100620002146FFF7C5FD15461C464FF47A7200239C
:1006300028462146FFF7BCFD83468A464FF47A726E
:10064000002328462146FFF7B3FDCDE90623CDF868
:1006500010B0CDF814A0CDF808900B9A0392009634
:10066000019742460A9B124909980DF0F0F80020C4
:100670000DB0BDE8F08F01227AE74B460D4909988D
:100680000DF0E5F80020F3E722460B4909980DF03C
:10069000FCF86FF00400EBE7005C260500000000AA
:1006A000CDCCCCCC3C3001084030010880EE360087
:1006B00064300108283001084C30010838B58368DF
:1006C00005699C697CB112F4000F06D02D680123E6
:1006D0008B401D4201D082F0C062044B134002F0F7
:1006E000B072A04738BD6FF05700FBE7400000062E
:1006F00008B50A4810F045FB60B14FF4D011084826
:100700000BF0E7F906480BF0EFF94FF47A700BF0B5
:10071000FFF9F7E703480BF016FB08BDA81C01081A
:10072000642501089424010808B5024809F0BEF9BF
:1007300008BD00BF6802002008B54FF0FF324FF03F
:10074000FF33034809F0FAF902480BF0FCFAF4E72A
:1007500068020020C024010810B5104810F011FBF9
:10076000B8B10F4C4FF4803120460BF0B2F94FF086
:10077000B86120460BF07DF90A490B4B4B60012311
:100780008B6006480BF0BAF908480BF0DCFA002041
:1007900010BD07480BF0D7FAF9E700BF801D01082C
:1007A0005C250108381200202907000808250108E7
:1007B000DC24010810B5044604490DF048F804494A
:1007C00020460DF044F8002010BD00BF6C25010844
:1007D0009025010808B504490DF039F8002000F013
:1007E00065FE002008BD00BFC825010810B50446FD
:1007F00019490DF02CF8194920460DF028F8184930
:1008000020460DF024F810F08DFE0246002053180B
:100810001FD203441348A0FB03CE2EF0030C0CEBB5
:100820009E0CA3EB0C03D21A61F100014FF0CC3304
:1008300002FB03F300FB0133A2FB00200344520838
:1008400042EAC3725B08084920460DF000F8002018
:1008500010BD0120DDE700BFEC25010800260108DE
:100860001C260108CDCCCCCC3026010810B504469E
:100870001D490CF0ECFF1D4A1D4920460CF0E7FF16
:1008800042F210721B4920460CF0E1FF10F04AFEC4
:1008900002460020531825D203441748A0FB03CE7C
:1008A0002EF0030C0CEB9E0CA3EB0C03D21A61F19F
:1008B00000014FF0CC3302FB03F300FB0133A2FB3A
:1008C00000200344520842EAC3725B080B492046E9
:1008D0000CF0BDFF4FF48042094920460CF0B7FFF1
:1008E000002010BD0120D7E748260108682601082E
:1008F000742601088C260108CDCCCCCCA826010892
:10090000BC26010810B5044604490CF0A0FF21469E
:10091000034810F08EFD002010BD00BFDC2601084A
:100920002509000870B505460C4610F0AAFB0646DE
:1009300048B1284610F0A2FB034632460349204640
:100940000CF085FF70BD024EF3E700BF08270108D9
:10095000FC2601082DE9F04F91B005920293134651
:1009600002F004020092C3F3C20210F003030193E9
:1009700040F02B8280468A460132041D00284FD069
:10098000B8F1000F05D0A4EB08030433534500F27F
:100990001F82029B5D1E019B049306930393002616
:1009A0004FF0FF3B0427B946B8F1000F01D0029B7E
:1009B0002360531E0793002A40F35D81059B13F0CB
:1009C000020228D00120A4EB08018B081AB1B1F56E
:1009D000007F80F0038203990F2900F20282B8F1B0
:1009E000000F00F06081DBB201F140026A4402F8BE
:1009F000103C02F820BC002800F0518163F07F0316
:100A000001F140026A4402F8103C049B0133049354
:100A1000039B0133039304340022CC4640463DE05F
:100A200001F0070A5444CAF1080AA9E7002634E095
:100A3000002632E0002630E00827BC462DE02529BC
:100A40002BD10BF1010B01260427BC4625E04729D9
:100A5000EED82A2914D32A39C9B24FF0010E0EFA62
:100A600001F14FF6DA7E11EA0E0F16D111F0625F36
:100A700040F0C08011F0010F40F08C8000260CE0A7
:100A8000252903D10BF1FF3B002606E001D9002602
:100A900003E0202901D02329CCD11D466B1C6978A5
:100AA000002900F01981002EC9D07A29BED84C291E
:100AB000CDD34C392E2961D80FF2040E5EF821F007
:100AC0009B0A00087D0B00087D0B00087D0B0008C9
:100AD0007D0B00087D0B00087D0B00087D0B0008D6
:100AE0007D0B00087D0B00087D0B00087D0B0008C6
:100AF0008D0B00087D0B00087D0B00087D0B0008A6
:100B00007D0B00087D0B00087D0B00087D0B0008A5
:100B10007D0B0008F50B00087D0B00088D0B00080D
:100B20008D0B0008F50B0008F50B0008F50B00080D
:100B30009B0A00088D0B0008390A00087D0B00088D
:100B40009B0A00087D0B0008510C00088D0B000863
:100B5000510C00087D0B00087D0B0008590C0008A3
:100B6000870B00088D0B00087D0B00087D0B00082B
:100B70008D0B00087D0B0008810B000800268CE718
:100B80000427BC4689E70427BC4686E729786C29F8
:100B900024D000263C44013CB4FBF7F407FB04F4EA
:100BA00020B1211A6144514500F21581002A58D123
:100BB000BCF1040F00F08880BCF1080F40F01481F4
:100BC0001A99073121F0070101F108051A95D1E9B9
:100BD000008908B1C4E9008908345EE713F8021CF3
:100BE0006C2903D000260427BC46D3E7002608273B
:100BF000BC46CFE729784C291AD01A99073121F041
:100C0000070101F108061A96D1E90067073424F0BC
:100C1000070440B1211A0831514513D829784C29CD
:100C200013D0C4E90067083400260827BC4634E71F
:100C30001A99073121F0070101F108061A96D1E946
:100C40000067E3E76FF01B00BCE0C4E90067EAE778
:100C500000260427BC469DE7324600260427BC46F2
:100C600098E7E14680461A9A111D1A91126802927D
:100C7000079A1D4698E6624B029A9A4204D3614B4A
:100C80009A420AD3002300E00023002B7FF496AEA3
:100C9000059B03F00202002095E60123F5E7069B81
:100CA00001330693B4E610B10AF1010AB0E6009BE5
:100CB00013B10AF1020AABE60298FFF7F5FA0AEB64
:100CC000000303F1020AA3E61A990D1D1A9509689B
:100CD00000B121600434E0E68046231AB3F5806F4A
:100CE00080F0858090B1002202609B080370009B19
:100CF00083B1069BC370049B88F802301BBB019D27
:100D0000DDF80C90DDF810B0029F3DE05344A3F1F4
:100D1000080057E0069B4370EDE701339842EED997
:100D200003F140026A4412F8101C12F9102C002A38
:100D3000F3DA01F07F01A4EB08020132524559D8E1
:100D400004F8011BE9E7019B0398E7E7009B43B325
:100D500005F140036B4413F8203C04F8013B019E6D
:100D6000A4EB080333440133534546D805F140034F
:100D70006B4413F8103C04F8013B324639462046D8
:100D800010F0E0FD34440135A94519D9BBF1000F3D
:100D9000DCD005F140036B4413F9103C002BD5DA8D
:100DA000F1E705F140036B4413F8103C58F8237049
:100DB000002248F823203846FFF776FA461CCFE792
:100DC000A4EB080011B0BDE8F08F6FF00D00F9E75B
:100DD0006FF01B00F6E76FF01B00F3E76FF01500F4
:100DE000F0E76FF01500EDE76FF01500EAE76FF040
:100DF0001500E7E76FF01B00E4E76FF01B00E1E789
:100E0000441B01085C5601082DE9F04F97B000AF74
:100E10008346BA613B61D7F88030C3F3C0033B62BD
:100E2000F96011B90AF007FFF8609BF80260B1465B
:100E300036B1D7F8803013F0010F0DD1002300E058
:100E400000239BF803207A6242B1D7F8802012F089
:100E5000020F22D1002202E00123F2E7002202B9B0
:100E6000EBB19BF80050AA00BA60DBF804207A616D
:100E70000BEB8505BA69F2B1002B40F00581B9F1A1
:100E8000000F00F01081D7F8803013F0040F40F00D
:100E90000E810020F8610646FAE00122DFE7BB6917
:100EA0001BB13A69F96858469847FC6820465C3798
:100EB000BD46BDE8F08FFC6853BB4D444FF00008C1
:100EC000D7F8803003F00503FB604FF0000AC7F845
:100ED0001080A046C7F81CB0D7F804B0BEE00444A8
:100EE000013501364E45EBD22A7800235BF82220EB
:100EF0001946B8690AF0B4FEBAF1000FEFD0D7F87E
:100F000088309845EBD22AF8180008F10108E6E786
:100F10000026B046D7F884A0E4E700253B6A7BB9F9
:100F2000002D7DD0D7F8803013F0010F7DD1FB6804
:100F3000002B73D10223A8EB03088CE00125EDE719
:100F4000494678690AF0D2FE0028E9D0BB4B1B68FD
:100F500013F0060F40D06C46002387F82C30022394
:100F600087F82D308AB0694611F1100237D012256A
:100F70001AB1042D01DDB24B4B61002387F82830F4
:100F8000022387F829306ABB112D44DD122362B198
:100F9000042087F82C00002087F82D0087F82E0009
:100FA000012087F82F00F86A08616FF3000B6FF3D8
:100FB000410B6FF3820B6FF3C50B022161F3881BAA
:100FC000C3F30A0363F3532B6FF31F5B00235946EC
:100FD0009A4800F031FEA546A8F102083BE06FF008
:100FE0000045C5E72B46082D01DD786988610C2B8B
:100FF00001DDC1F81C9001F1200300200128C3D8B5
:1010000000F1300C07F1280EF4441CF830CC03F842
:1010100001CB0130F2E76FF01B03B8E701238AE749
:10102000D7F8803013F0020F15D00023224619465E
:10103000B8690AF015FED7F8843053B13B69D7F888
:101040008820934205D2D7F8842022F81300013378
:101050003B61013880440AF1010A35467B6A9A45B2
:1010600010D22E4616F8029B6B78FA6952F823408C
:10107000744B9C42FFF451AF734B9C42FFF45EAF44
:1010800000254BE7444611E707F144000023FB61CC
:1010900018B14A46294610F055FC4D444FF000085F
:1010A000C7F804901EE00020F8610646F0E7FE61F4
:1010B00007F134000026EBE700253B6A33BB002D27
:1010C0003BD0D7F8803013F0010F26D0731C06F107
:1010D000300207F12801561806F8149CDEB208F118
:1010E000010825467B6A98454AD22C4614F802AB83
:1010F00095F801905BF82930524A9342DCD3524A6A
:10110000934201D30025D8E70125D6E751467869F7
:101110000AF0ECFD0028D2D0E1E7D7F8803013F0D8
:10112000040FDCD0FA69531C303207F128010A445D
:1011300002F8249CDBB2FB61D1E7D7F8803013F0D2
:10114000020F09D0731C06F1300207F1280156186E
:1011500006F8149CDEB2C2E7F869431C00F13001C6
:1011600007F128028A1802F824AC02460232D2B2F1
:10117000FA6107F1580252FA83F303F8249CAEE7B0
:10118000D7F804909BF8003087F854309BF8013072
:10119000334487F85530D7F8803013F0020F0ED162
:1011A000FB69C3F3470387F85730D7F8803013F053
:1011B000010F06D113F0040F3ED1002302E00023FB
:1011C000F1E7002387F85630DBF800003863786DCC
:1011D000CBF80000D7F810804246B9685846D7F8D7
:1011E00018A0D047041EFFF661AE386BCBF80000A4
:1011F000C7F810804246F96907F13400D04700284B
:101200005EDB04EB0008B96849447B6A01EB4301EB
:10121000D7F810904A46FB68591A2846D047041E52
:10122000FFF644AE08EB04054FF00008C7F824B001
:10123000B3465446CA4621E0FB69C3E700020020DA
:1012400084280108441B01085C5601084FF000097E
:1012500001E04FF000095246012107F12C00A047A0
:1012600000282FDB05444B463246514620460AF003
:10127000F7FC002828DB054408F10108D84518D2FE
:1012800008F1300307F12802134413F8143C87F8DF
:101290002C307A6A52F82360D7F88430002BD5D0EE
:1012A000D7F888309845D4D2D7F8843033F81890DE
:1012B000D1E73A6900210846BB6998472C46F5E515
:1012C0000446F3E50446F1E50446EFE5014B1860FA
:1012D000704700BFB000002080B505460E46174697
:1012E000984609F077FB034610F022FC0446DFF82D
:1012F000189049F80030424639463046A84754F81D
:10130000090005F063FC00BF08000000034A5368B1
:1013100043F0020353600020704700BF002004E048
:10132000084B1A6842F480721A601A6842F400721C
:101330001A601A6842F480621A60034B034A1A600A
:10134000704700BF003C0240840100200024F400EC
:1013500010B584B004468368642103FB01F1426840
:10136000B1FBF2F1C068029001910092D21A21689B
:1013700005480AF0E8FCD4E90623044904480AF0C9
:10138000E2FC04B010BD00BF502901082C2B01085D
:1013900090290108F0B595B00446D0F8AC700E68FD
:1013A0000FF06FFE10B10546037833B92346204A8B
:1013B0000B2101A80AF070F801AD694620460FF034
:1013C000A0FE024660BB04950597009BFF1A069796
:1013D00008A920460FF0A2FE044600B101240EA881
:1013E0000FF0A9FE00B10134B4B9089A099C931812
:1013F00044EB04009B1844EB0000410141EAD36137
:101400005D015B1940EB01019818DDE90E2344EB07
:101410000101FEF71DFF079004A8B04715B0F0BD0D
:10142000294604480AF08FFC00230093CBE700BF55
:10143000B8290108BC29010810B586B0044600EBA4
:1014400040130F4800EB831005AA4FF400614030B1
:101450000FF046FE08B106B010BD059BC3F5006154
:10146000642201FB02F2D20A02924FF4006201925E
:1014700000912246034904480AF065FCEBE700BFEF
:1014800040410020E4290108E829010800B583B0A3
:1014900000900191694604480FF0D5FF0BF025F844
:1014A00003B05DF804FB00BF9513000810B50446B7
:1014B00003480AF048FC21460248FFF7E7FF10BD49
:1014C000202A01085113000870B506460D46084C45
:1014D00004E02A463146204698471034054B9C428A
:1014E00004D223689B69002BF3D1F6E770BD00BFDF
:1014F000B8220108C822010808B510F013F800222C
:10150000431819D213440D4AA2FB03CE2EF0030C4C
:101510000CEB9E0CA3EB0C03C01A61F100014FF021
:10152000CC3300FB03F302FB0133A0FB02021344A4
:10153000400840EAC37008BD0122E3E7CDCCCCCC23
:101540002DE9F041074605460AE007EA0807144B73
:1015500003EB06135B680422196820460BF0C9F8F8
:10156000D5B195FAA5F6B6FA86F60D4C04EB06143D
:101570000123B3406FEA030825EA0305237B002B10
:10158000EED03301064AD3581B69002BDDD020462C
:1015900098470028E4D1D8E73846BDE8F08100BF7D
:1015A000B82201082DE9F04180460F461F4BBFF3DA
:1015B0005B8F53E8005F6A1C43E800210029F8D1E3
:1015C000BFF35B8F6DBB1A4C002607E063680422F3
:1015D000196820460BF08DF801361034154B9C42EB
:1015E00011D2237B002BF7D020460AF097FF236807
:1015F0001B69002BEAD0204698470028E6D001233B
:10160000B3401D43E8E7B8F1000F0BD055B12846B1
:10161000FFF796FF0546002FF8D00A200AF08AFF50
:10162000F4E700252846BDE8F08100BF58120020ED
:10163000B8220108C822010808B5064B186018B185
:10164000054B1B68092B00DC08BD044808F02EFA86
:10165000FAE700BF4C120020541200208002002044
:1016600008B5024808F022FA08BD00BF8002002039
:1016700038B505460B4C00E010340B4B9C420FD2A2
:1016800063685B79002BF7D0294620460AF062FF99
:101690000028F1D023681B68294620469847EBE7CD
:1016A00038BD00BFB8220108C822010830B589B092
:1016B00000220F490F480FF044FF0F4D0022002376
:1016C000CDE90623002404940E230393029401948D
:1016D00000940A4B4FF44072094928460FF0DEFC93
:1016E0000849284608F0B6FB204609B030BD00BFC7
:1016F00061160008E009002010050020851A000886
:1017000080310020442A010848B108B5054A10601C
:10171000054B1960084600F08FFD002008BD6FF0F2
:1017200015007047B40000204812002008B5054B92
:101730001B781BB1034B01221A7008BD024808F048
:10174000B5F9F7E7C82C00208002002008B5104B3F
:10175000BFF35B8F53E8001F013143E80012002AFA
:10176000F8D1BFF35B8F30B90A480FF0F6FE0A4894
:1017700008F09CF908BD094BBFF35B8F53E8001FCD
:10178000013943E80012002AF8D1BFF35B8FEBE781
:1017900050120020E0090020800200205412002096
:1017A000064B00200146BFF35B8F53E8000F43E870
:1017B0000012002AF9D1BFF35B8F7047501200204E
:1017C00038B5FFF7EDFF0546094C00E01034094B32
:1017D0009C420BD263685B79002BF7D023685B686F
:1017E000002BF3D0294620469847EFE738BD00BFCD
:1017F000B8220108C8220108034B18680028D4BF8A
:1018000000200120704700BF5012002010B5044C8A
:10181000044920460AF0FEFB034B1C6010BD00BFCC
:10182000BC0100204C2A01084412002008B5002306
:101830000D4A13700D4A13600D4A13604FF47A710C
:101840000C48FFF761FFFFF7E1FF00F085F90A4A56
:1018500006E0094BD31A1B11013351680B7110328A
:10186000064B9A42F5D308BDC92C00205012002027
:1018700054120020F9140008B8220108C8220108F7
:1018800008B5014601480AF087FE08BDBC010020EA
:1018900008B502480AF0A1FC08BD00BFBC01002049
:1018A00008B50146024B18680AF07CFE08BD00BF6F
:1018B0004412002008B502480AF078FE08BD00BFB7
:1018C000BC01002010B582B000220023CDE9002326
:1018D0002C4B187808B902B010BD68460AF07EFE9D
:1018E000044680B1FFF7C4FE2046FFF7D9FF264B20
:1018F000BFF35B8F53E8001F013943E80012002A51
:10190000F8D1BFF35B8FFFF777FF58B91F4A136811
:10191000516813F57A7341F1000113605160FFF7CC
:10192000C9FFD8E70FF0FEFD0022431827D2134469
:10193000174AA2FB034C2CF0030404EB9C041B1B72
:10194000C01A61F100014FF0CC3300FB03F302FB3E
:101950000133A0FB02021344400840EAC3705B0855
:101960000A490A684968801A63EB010340F2E932C8
:10197000904273F10003C9D3FFF722FFC6E70122AB
:10198000D5E700BFC82C002054120020D809002041
:10199000CDCCCCCC0F4B1B7803B1704710B50021D8
:1019A0000120FFF7FFFD0C4C00E010340B4B9C4274
:1019B00008D263685B79002BF7D023689B682046C8
:1019C0009847F2E7FFF77EFF0028FBD1014B012289
:1019D0001A7010BDC92C0020B8220108C8220108C5
:1019E00010B582B01A4BBFF35B8F53E8002F511C28
:1019F00043E800100028F8D1BFF35B8F154B1B782C
:101A000063B9154B1B68B3B1BAB1092A13D1134896
:101A10000FF0A3FD124808F049F80CE0EFF3118431
:101A2000102383F31288BFF36F8FFFF74BFF84F30C
:101A30001188BFF36F8F02B010BD00220023CDE9E3
:101A4000002342F210720023044809F06BFBF2E716
:101A500054120020C92C00204C120020E009002064
:101A60008002002010B50446044B1B689847A06014
:101A7000214603480AF0B6FD10BD00BFB4000020A7
:101A8000BC0100202DE9F04100210846FFF78AFD46
:101A9000804650B14FF4FA76002710F049F8154B04
:101AA0001858FFF7C9FD002515E04FF0FF364FF03D
:101AB000FF37F2E74046FFF743FD804670B94FF02D
:101AC000FF364FF0FF3709E02C4632463B460A48C6
:101AD00008F034F82546B8F1000FEBD1FFF7F2FE1D
:101AE00004460028F6D1002DEED000210846FFF76D
:101AF000EBFCEAE70800000080020020014800EB50
:101B000081007047000200200248034BC01AC00841
:101B1000704700BFB82201083822010810B50C46F2
:101B2000FFF7F2FFA04203D9024B53F8340010BD77
:101B30000020FCE73822010810B50C46FFF7E4FF4F
:101B4000A04204D9034B03EBC403187910BD002055
:101B5000FCE700BF3822010810B500240EE0214642
:101B60000020FFF7E9FF094A52F8243023F0070369
:101B700000F00700184342F824000134044B054AE2
:101B80009B1AB4EBD30FEAD310BD00BF00020020B4
:101B9000B8220108382201082DE9F8430D461646FF
:101BA0009846002812DBC4B2002320460AF052FDFA
:101BB000074610B1404500D947463B463246E9B298
:101BC00020460AF029FD3846BDE8F8830C4B0D4A43
:101BD000A3EB02094FEA1919002427460DE0094B2F
:101BE00003EB041358684346324629460079FFF751
:101BF000D3FF874238BF074601344C45EFD3E2E7B5
:101C0000C8220108B822010800B589B005920693E0
:101C10000023079362B1074A0C9B02930B9B01932D
:101C20000A9B009305ABFFF7EFF809B05DF804FBE2
:101C30000022F1E743C700082DE9F04F8BB004AF55
:101C400005461E468846C1F34A24002C00F08F80CA
:101C500091460022FA603A617A6104230293FB18EC
:101C600001930A23009307F10C0321464846FFF72E
:101C7000CBF8B0F5006F5ED3464B1B6813F0060F30
:101C800000F08480D9F804106D4600233B730223D2
:101C90007B738AB004AC14F1100221D012201AB167
:101CA000042801DD3C4B636100233B7002237B7001
:101CB000CAB10346082800DDA1610C2B02DD40F209
:101CC000FF73E36104F12003002101290BD801F126
:101CD00018063E4416F8186C03F8016B0131F4E75E
:101CE0006FF00040DBE7112822DD122342B104210E
:101CF000397300217973B9730121F973F868206190
:101D000000216FF300016FF341016FF382016FF364
:101D1000C501022060F38811C3F30A0363F3532162
:101D20000023C1F313011B480AF08EFDAD462DE0E0
:101D30006FF01B03DAE760F35328C0F30A0A0AEBDB
:101D40001850173020F007008008FFF799FD8346F0
:101D5000B0B104230293FB1801930A230093534666
:101D600000F1100221464846FFF74EFF08E004EB61
:101D70001154173424F00704A008FFF781FD8346AF
:101D800033464246294658460AF0F4FC1C37BD4605
:101D9000BDE8F08F08020020702A01082DE9F04FFD
:101DA00085B080460D4617461E46DDF838B0DDF892
:101DB0004090B9F1000F46D0119B039300934B461E
:101DC0000F9A10210020FEF7C5FDB0F5006F2DD24F
:101DD00082460BEB0003173323F0070300246FF355
:101DE00000046FF341046FF3820468F3C50467F3E2
:101DF000881460F353246BF31F549808FFF740FDD9
:101E0000074650B11030B9F1000F06D0119B009376
:101E10004B460F9A5146FEF79DFD33462246294612
:101E200038460AF0A7FC05B0BDE8F08F074B1B68E9
:101E300013F0060FF7D040F2FF73054A0221034862
:101E40000AF0EAFCEFE70020C2E700BF080200202A
:101E5000B02A0108406820B1034BC01A40F38F003C
:101E600070474FF0FF307047000200200EB400B5FD
:101E700082B0014603AB53F8042B0193034805F0ED
:101E800013F902B05DF804EB03B070477FC8000897
:101E900010B584B011F0440F05D01A4B1B6833B94C
:101EA000002004B010BD1849FFF7E0FFF9E717491B
:101EB0000968B2FBF1F2B2FBF3FC03FB1C224FF406
:101EC0007A7E0EFB02F2B2FBF3F403FB14210EFB4D
:101ED00001F1B1FBF3F10E4AA2FB0C32D20A4FF42E
:101EE000616303FB12CC0B4BA3FB0CE35B09029178
:101EF0000194C3EB0311ACEB810100910649FFF79C
:101F0000B5FFCEE760120020E82A01085C1200202D
:101F1000C5B3A29189888888F42A010861B108B5FF
:101F20002AB1064A52F8232012B9054A00E0044AB1
:101F30000449FFF79BFF08BD704700BF942B0108C1
:101F4000102B0108182B01082DE9F0410546174612
:101F5000069EDDF81C8081B900242EB1324611495D
:101F60002846FFF783FF0444B8F1000F14D06FB187
:101F7000099B042B13D00C4909E00C4B099A53F828
:101F800022200B49FFF772FF0446E6E70649424666
:101F90002846FFF76BFF04442046BDE8F081054961
:101FA000F5E700BF302B0108202B0108A82B010802
:101FB000282B01081C2B01082DE9F04F87B005469E
:101FC0000C46049205939DF84C7001F0020B01F051
:101FD000010AC1F3C00801F480790AF009FB18B3C3
:101FE000024616492846FFF741FF0646BBF1000F9F
:101FF0001CD13A46514628460AF06CFCB9F1000F54
:1020000001D0002311930397129B0293119B01931C
:10201000109B00930023049A41462846FFF794FF43
:10202000304407B0BDE8F08F0026DFE7059A21466F
:102030002846FFF72DFF0644DBE700BF342B0108DD
:1020400011F0100F0BD108B511F0200F03D0044987
:10205000FFF70CFF08BD0349FFF708FFFAE77047D9
:102060001C2A0108382B01082DE9F04105460F46CE
:10207000164698460699FFF7E3FF0024444505DA23
:1020800024492846FFF7F2FE0134F7E7002409E06F
:1020900020492846FFF7EAFE0BE01F492846FFF7D4
:1020A000E5FE01340F2C0CDC002C02DD14F0070FD0
:1020B000EED0B442F1D23A5D18492846FFF7D6FE79
:1020C000EFE717492846FFF7D1FE002409E0114940
:1020D0002846FFF7CBFE0BE012492846FFF7C6FE65
:1020E00001340F2C13DC002C02DD14F0070FEED0AE
:1020F000B44207D23A5D0C4B9B5C13F0970FEBD1C7
:102100002E22E9E703492846FFF7B0FEE8E7BDE8DD
:10211000F08100BF2C2B0108442B01083C2B010847
:10212000482B01086C3D01084C5501082DE9F04190
:1021300084B004469DF82C500C9F0E9E95B9012B3F
:102140001ED019484FF0000827B13B4622461749D8
:1021500009F09CFDC6B905BB20460AF079FB04B026
:10216000BDE8F08103950A980290019300920B4616
:1021700000220F992046FFF71FFF80460C48E3E737
:102180000B484FF00008DFE70F9B009343463246B1
:102190000D9920460AF0B6FBDDE72A460F99204646
:1021A0000AF0A4FBD8E700BFB7C80008A970000870
:1021B0007FC800082DE9F04383B00646056842F267
:1021C0000F738B4228BF0B46184A0521684609F059
:1021D00063F904467368D3F804900B27DFF8508046
:1021E00005E04A4639464046A8473F1A8044002F3A
:1021F000F7D17368D3F804806F4605E04246214664
:102200003846A847241A0744002CF7D173685F6842
:102210001B24084E05E03A4621463046A847241ABA
:102220000644002CF7D103B0BDE8F083A44D0108AB
:10223000682B01084C2B0108074B01221A6004E0AF
:102240004008054A13685B001360044B9842F7D8B6
:10225000034B1860704700BF5C12002040420F0023
:1022600060120020014B036000207047BC2B010866
:10227000072801D900207047024B034483F8BB10A4
:102280000120704764120020072801D90020704700
:10229000024B034493F8BB00704700BF6412002058
:1022A00010B50378C3F341130A33064C54F82330B6
:1022B00023B19847002803DB012010BD0020FCE774
:1022C0000020FAE7641200200A30024B43F8201085
:1022D000704700BF64120020014B5862704700BF76
:1022E00064120020136800221A705A7001221A70BA
:1022F000064A92F8C3203AB1022242F001021A7053
:1023000002230B60012070470022F6E764120020D0
:1023100030B545884FEA152EAEF10403DBB2012B30
:1023200021D9EDB2BEF1070F1FD8114B5B6A002413
:1023300000E00344187840B193F801C0F445F8D1A7
:10234000A54201D00134F4E7012068B11360BEF169
:10235000020F02D01B780B6006E09A78DB7842EA25
:1023600003230B6000E0002030BD0020FCE700BF2D
:102370006412002038B50C460D4B5B6A156800E00E
:1023800013441A788AB193F801C0BCF1040FF7D155
:1023900093F802C0B0F804E0F445F1D16046FFF7CD
:1023A00073FF28700120206000E0002038BD00BFCE
:1023B00064120020034B93F8BA00003818BF0120C4
:1023C000704700BF64120020074B5B6A00E01344B3
:1023D0001A783AB159780229F9D119798142F6D996
:1023E00001207047002070476412002030F0800305
:1023F00018D01049104B994219D210B403E024317F
:102400000D4B99420CD20C6A00230A7F9A42F6D9EE
:1024100004EBC3021279824206D00133DBB2F4E747
:10242000002002E001207047012010BC704700200E
:10243000704700BF5C03002080030020014B9861BF
:10244000704700BF64120020014BD861704700BF85
:1024500064120020F8B506460A4D0B4B9D420FD280
:102460002F6A002401E00134E4B22B7FA34205D996
:1024700007EBC400B0470028F5DAF8BD2435ECE7D7
:102480000020FAE75C0300208003002038B50C4BE5
:1024900000E024330B4CA3420FD25C680A4D6D6AF6
:1024A000AC42F6D31D69002DF3D094F802C08488A5
:1024B000E4B2A445EDD1A84701E06FF0850038BD36
:1024C0005C03002080030020641200202DE9F0410D
:1024D000054688461746134C05E03A4641462846CD
:1024E000B0471CE02434104B9C4216D263680F4A5C
:1024F000526A9342F6D3A669002EF3D09A78B5F8C3
:1025000004C05FFA8CFC6245E7D05B79012BE9D10E
:102510003A4641462846B047E4E76FF08500BDE8FB
:10252000F08100BF5C0300208003002064120020C3
:10253000F8B507460E4615460A4C00E024340A4B0F
:102540009C420AD26369002BF8D02A4631463846AD
:10255000984703460028F1D101E06FF08503184643
:10256000F8BD00BF5C0300208003002008B510F018
:10257000700F07D100F07F0310F0800F10D1012001
:10258000984008BD084B1B6813F0070F01D10020CD
:10259000F7E70346054A012103480AF03DF9F6E74B
:1025A000103301209840ECE738020020BC2B0108D2
:1025B00038B50446007905F047FA05462079FFF75B
:1025C000D5FF044AD2F8C43023EA0003C2F8C4306D
:1025D000284638BD6412002038B5054605F034FAA7
:1025E00010F1780F0ED00446C0B92846FFF7BEFFA1
:1025F000104AD2F8C43023EA0003C2F8C4300024E1
:10260000204638BD0C4B1B6813F0060FEDD02B464F
:102610000A4A022108480AF0FFF8E6E7064B1B6861
:1026200013F0070FECD02B46054A012102480AF0AF
:10263000F3F8E5E76412002038020020D82B0108E7
:10264000FC2B010870B582B00D468488E4B28DF889
:1026500007402046FFF7CAFE064630B134F080033B
:1026600006D0FFF7A7FE18B90646304602B070BD87
:10267000CDB11A4B1B6803F00703022B0CD89DF851
:10268000070005F04FF9164BDB69002BEDD00DF17B
:10269000070108209847E8E72346124A03210F481C
:1026A0000AF0BAF8EBE70D4B1B6803F00703022BA7
:1026B0000CD89DF8070005F05FF9094BDB69002B8A
:1026C000D3D00DF1070109209847CEE72346064AEB
:1026D000032102480AF0A0F8EBE700BF380200200F
:1026E00064120020202C0108342C010830B583B07E
:1026F000044680788DF80000A388ADF80230E378B6
:1027000003F003038DF80430FFF730FF0546314B2B
:10271000D3F8C43003421AD168460CF055FC10F1CE
:10272000780F1FD058BB9DF8000005F053F910F149
:10273000780F33D000283ED1264B012083F8B90012
:10274000D3F8C4201543C3F8C45003B030BD2046AD
:102750000AF028F90EF08CFC0028DDD1962008F054
:10276000DFF8D9E71C4B1B6813F0060FDBD09DF890
:1027700000301A4A022118480AF04EF8D3E7164BE7
:102780001B6813F0070F01D10020DEE79DF8003031
:10279000134A012110480AF03FF8F5E70E4B1B6879
:1027A00013F0060FC8D09DF800300E4A02210A48E7
:1027B0000AF032F8C0E7084B1B6813F0070F01D18D
:1027C0000020C2E79DF80030074A012102480AF0C4
:1027D00023F8F5E764120020380200204C2C010891
:1027E000702C0108942C0108B42C01082DE9F84341
:1027F00006461A4B5C6A0027FF25A846B94607E043
:1028000094F80380A578B088854213D023781C44BF
:102810002378CBB16378042BF2D0052BF6D1B388A3
:102820009D42F3D17288D2B2414620460AF0CFF8D9
:102830000746EBE771888845E8D1C9B2C0B2FFF717
:1028400017FD0746A146E1E7044BDB6913B1494692
:10285000072098473846BDE8F88300BF641200207F
:10286000024B00221A605A60704700BF1F130020FD
:102870002DE9F0410546224B5C6A43881BB10027D5
:10288000FF26B04610E0FFF7EBFF6A881C4B83F889
:10289000BA20DB6913B11B490320984701271EE0CA
:1028A00094F8038023781C442378BBB16378042B0D
:1028B000F6D0052B07D0022BF4D166796B889E42A7
:1028C000F0D10127EEE76B889E42EBD1B8F1000F03
:1028D000E8D12046FFF70AFF0746E3E717B9384675
:1028E000BDE8F081FFF7BCFF6A88054B83F8BA208A
:1028F000DB69002BF3D0034903209847EFE700BFC3
:10290000641200201E13002010B5146890F90030E6
:10291000002B0ADB4378013B082B3BD8DFE803F0B0
:10292000253A303A1A3A3A3A22004378062B07D031
:10293000082B08D00BB1002010BDFFF7D3FCFBE73C
:10294000FFF7E6FCF8E7144B93F8BA302370012048
:102950000860F1E74088C0B204F02AFFB0FA80F0C6
:102960004009E9E7FFF784FFE6E74388012B01D040
:102970000020E1E7084B002283F8C3200120DBE7B9
:102980004388012B01D00020D6E70120024B83F8B9
:10299000C300D1E70020CFE76412002070B50546E0
:1029A0000E46042803D0012803D0134C11E0FFF792
:1029B00057FF124B93F8B930002BF6D000F098FD7A
:1029C0000F48FFF747FD0D4B002283F8B920ECE7D5
:1029D00024340C4B9C4207D2E368002BF8D03246DB
:1029E000294620469847F3E7044B1B6A13B131464A
:1029F0002846984770BD00BF5C0300206412002089
:102A0000B12500088003002070B504460D46164627
:102A1000184B9B690BB1984748B1237803F01F030B
:102A2000012B0DD0022B13D013B16FF0150070BD28
:102A3000324629462046FFF767FF88B10020F6E7B7
:102A400032462946204609F0CBFF60B10020EEE770
:102A50003246294620460AF00DF838B10020E6E754
:102A60006FF01500E3E76FF01500E0E76FF0150079
:102A7000DDE700BF6412002070B50E4E0E4B9E4283
:102A800015D2356A002401E00134E4B2337F9C4260
:102A90000BD205EBC40355F8341018790CF089FA01
:102AA0000028F1D04FF0FF3070BD2436E6E700205B
:102AB000FAE700BF5C030020800300202DE9F84303
:102AC0000646894690461F46032504E007F058FE57
:102AD0006B1EB5B11D463B4642464946304604F0A2
:102AE000DBFF044610F10B0F0BD1074B186810F0F9
:102AF000060FEBD03346054A0221034809F08CFE4D
:102B0000E4E72046BDE8F88338020020D82C01080D
:102B100010B582B0154B1B7DF3B9144CE2680192DD
:102B200001ABA1688020FFF7C9FFA368019A134495
:102B3000A360E3689B1AE360B3B9AAB1E288236992
:102B40009A4211DD94F8C82093FBF2F102FB113395
:102B500053B90122227507E00021044B19750B4679
:102B60000A46802004F098FF02B010BD64120020D5
:102B700000B585B000230393002840F0908019B37E
:102B80004E4BDA68002A72DD03AB4C49896800209D
:102B90000CF04FFA002877DB484A936803990B44FE
:102BA0009360D3685B1AD360002B7AD1104602F190
:102BB000380342F8083F00F11001FFF771FB0028CD
:102BC00069D0FFF7A5FF6CE0082201A90CF031FAEB
:102BD00000282EDB9DF80400384B18709DF8052066
:102BE0005A70BDF806205A80BDF808209A80BDF8BA
:102BF0000A10D98003F138029A6000221A751A610E
:102C0000DA6010F0800F02D1802916D839BB2C4A27
:102C100002F10801A2F10800FFF742FB18B3274BAD
:102C2000DA8819698A42A8BF0A46DA60FFF770FF9E
:102C300037E0802004F076FE33E0224B1B6813F06F
:102C4000070F06D1802004F06DFE002004F06AFE1C
:102C500027E01D4A01211B4809F0D4FDF2E7174B7C
:102C60001961D9601DE0802004F05CFE19E003AB1F
:102C700000221249896810460CF0DBF9002810DAAE
:102C8000802004F04FFE0CE0802004F04BFE00207A
:102C900004F048FE05E0802004F044FE01E08028B6
:102CA00002D005B05DF804FB044BDB681BB9034B95
:102CB0001B7D002BF5D0FFF72BFFF2E764120020FD
:102CC0006C12002038020020002D010808B5FFF723
:102CD00003FB08490020FFF7F7FA07490120FFF737
:102CE000F3FA06490220FFF7EFFA0548FFF7A6FBC3
:102CF000002008BD092A00088D240008312500089D
:102D0000CD24000870B582B005464FF0FF324FF079
:102D1000FF33544806F0F4FD534B93F8B830002BC2
:102D200068D1514B5B6A002B77D0012009F038FE47
:102D3000041E66DB4C4B5E6A1D624C4C2046FFF75E
:102D400083FB204604F02EFD0CF02BF9041E58DB0B
:102D500000F000FC041E54DB7378012B74D1F3796E
:102D6000002B71D0404A82F8C830ADF80230002301
:102D70008DF804308DF8003068460CF025F9041EFB
:102D80003FDB80238DF8003068460CF01DF9041EEF
:102D900037DB374900200CF00CF9041E31DB3449D5
:102DA00080200CF006F9041E2BDBFFF765FE041EE5
:102DB00027DB002004F00EFE041E22DB0020FFF7BC
:102DC000D5FB294AD2F8C4300343C2F8C43080206E
:102DD00004F000FE041E14DB8020FFF7C7FB224B2B
:102DE000D3F8C4200243C3F8C420012283F8B820DA
:102DF000002406E01F4B1B6813F0060F07D16FF08D
:102E00007704184806F0FCFD204602B070BD1A4A4F
:102E10000221184809F0F6FCF1E700F08FF9FFF7FE
:102E200055FF114B5B6A002B7FF47FAF114B1B6882
:102E300013F0070F02D14FF0FF34E2E70F4A0121F0
:102E40000C4809F0DFFCF6E70A4B1B6813F0070F8C
:102E500002D16FF01504D4E7094A0121054809F0B1
:102E6000D1FCF6E754020020641200209D290008DE
:102E7000712B0008380200201C2D0108402D01088C
:102E8000682D01080246064800E02430054B9842B0
:102E900003D243689342F8D100E00020704700BF9E
:102EA0005C0300208003002010B58AB00DF1040CF3
:102EB0001D4C0FCCACE80F0023688CF800300023C9
:102EC0000693079308930993184A1360536093601D
:102ED000D3601382102106A805F096F9002820DDA2
:102EE0000828B8BF0820A0F1080C002217E00CEB5E
:102EF000020328336B4413F8103C51000AA800EB7E
:102F0000131010F824EC094800F812E003F00F0346
:102F1000013128336B4413F8243C43540132072A0F
:102F2000E5DD02480AB010BDA42D010830130020D1
:102F300070B50446FFF7B8FF98B10546FDF7B4F940
:102F4000064670B1102804D0094B1B6813F0060F19
:102F500008D13246102EA8BF10222946A01C0EF020
:102F6000F1FC70BD034A0221014809F04BFCF0E777
:102F700034020020B82D01082DE9F04383B000AFE2
:102F800004464FF001137B600025A846A9462E4653
:102F900004E0204609F0A8FD23781C442378002B88
:102FA00000F0B3806378052BF6D801A252F823F025
:102FB000BF300008932F000807310008BF30000819
:102FC000C92F000873300008E378002BE4D1A37800
:102FD0004BB92046FFF756FF814648B1836813B1CD
:102FE00041462046984708F101085FFA88F8D3E780
:102FF0004C4B1B6813F0070F32D06D4688B06B4600
:1030000013F110022FD00C213AB10846042901DD3A
:10301000454E5E61082800DD9C610B2926DD0C24ED
:103020003AB10321397000217970B970F9703868AC
:10303000186100216FF300016FF341016FF382010A
:103040006FF3C501012363F38811C4F30A0464F329
:1030500053216FF31F5100233248FEF7EDFDAD46BB
:103060004FF0FF3056E06FF00041CDE76FF01B04EA
:10307000D6E7B9F1000F0ED03A1D4946204609F0B7
:1030800053FD002888D0274B1B6813F0070F10D181
:103090004FF0FF303EE0234B1B6813F0070F02D1C7
:1030A0004FF0FF3036E0214A01211E4809F0AAFB0B
:1030B000F6E71F4A01211B4809F0A4FBE8E7032DAE
:1030C0000BD075B98EB1A31BB370C3F30723F37094
:1030D00086F804800135EDB25EE72046FFF728FF51
:1030E000EFE7204609F0EEFCF4E70E4B1B6813F007
:1030F000070F02D14FF0FF300CE00E4A01210948C2
:1031000009F080FBF6E7264646E7A01C0A4B9842EA
:1031100004D100200C37BD46BDE8F083FFF72CFF3B
:10312000F8E700BF34020020042E0108242E010815
:10313000682E0108882E01085903002008B50D4BA0
:103140001B780BB10C4808BD0B48FFF715FF20B9E1
:10315000084B01221A700848F5E7084B1B6813F06A
:10316000070F01D10020EEE7054A0121034809F0CD
:1031700049FBF7E7CA2C0020980200203402002007
:10318000A82E0108002300E00133032B12D803EB23
:10319000C302094911F832208242F5D103EBC30181
:1031A000054A02EBC1025268002AEDD0024800EB4A
:1031B000C100704700207047441300202DE9F04102
:1031C00084B0044610F8345C50F8303C13F1100F12
:1031D00024D1036913F0020F3DD050F8282C2AB9EE
:1031E00013F0040F22D143F00403036103AB54F83E
:1031F0002C1C2846FFF762FC0346D8B954F82C2C47
:10320000039B1A4444F82C2C54F8282CD21A44F866
:10321000282C54F8242C134444F8243C54F8303C13
:1032200013F1100F58D104B0BDE8F081002340F82D
:10323000303CF3E7364A126812F0070F04D16FF002
:10324000150344F8303CE9E70095324A0121304843
:1032500009F0EDFAF3E703AB50F8282C50F82C1CDA
:10326000284604F09FFC0346A0B954F82C3C039E6A
:10327000334444F82C3C54F8283C9B1B44F8283C2D
:1032800054F8243C334444F8243CA6B9002344F8C1
:10329000303CC3E71E4A126812F0070F04D16FF0EA
:1032A000150344F8303CB9E700951A4A0121184843
:1032B00009F0BDFAF3E728460BF0CBFEB6FBF0F3BE
:1032C00000FB1366002EE1D154F8283C002BDDD022
:1032D000284604F0CDFCA1E754F8206C54F8247C77
:1032E00054F81C8C0DF0C4FE68B9002344F8203C4F
:1032F000A4F1180006F0DAFB002E94D042463946BD
:103300002846B0478FE7214603480DF04CFE8AE778
:103310003C020020D82E0108180A002070B582B0A7
:1033200006460C46FFF72EFF631EDBB2012B0AD8C0
:10333000054650B10DF09CFE08B1012C1CD105F1E1
:103340003400FFF73BFF02B070BD012CFBD101AB95
:1033500001220DF10301304604F024FC019B002BF7
:10336000F5D1084B1B6813F0070FECD0064A01217A
:10337000044809F047FAE6E705F1340103480DF087
:1033800012FEE0E73C020020F82E0108180A002097
:103390002DE9F84F0546884616461F4609F067FC9A
:1033A000002877D1EFF31189102383F31288BFF33C
:1033B0006F8F0024032C35D804EBC400C0001830F4
:1033C000364B184404300022002306F0B7FB824637
:1033D00008B10134EEE704EBC404E2002F4B03EB29
:1033E000C404D4F804B01BF1100F2FD09D54C4F8BE
:1033F0000880E660002323610A9B636167640B9B7E
:10340000A3616FF00F03636028460BF022FE70BBD0
:1034100017F0020F39D004F1340121480DF0C3FD3B
:10342000D34606E01F4B1B6813F0070F08D16FF05F
:103430000B0B89F31188BFF36F8F5846BDE8F88FE7
:10344000194A0121174809F0DDF9F0E7154B1B680F
:1034500013F0070F04D104F11C0006F027FBE8E786
:103460002B46124A01210F4809F0D6F9F3E7284606
:103470000BF0EFFDB6FBF0F300FB1366002EC7D098
:10348000636C43F004036364C2E7284604F0F0FB76
:103490008346CEE76FF00F0BCFE700BF4413002049
:1034A000180A00203C020020142F0108302F0108C8
:1034B00010B5EFF31184102383F31288BFF36F8FDD
:1034C000FFF760FE20B10146436813F1100F04D0EE
:1034D00084F31188BFF36F8F10BD6FF08B034360CF
:1034E000343102480DF05FFDF2E700BF180A0020FA
:1034F00038B5002404E085F31188BFF36F8F0134E1
:10350000032C21D8EFF31185102383F31288BFF326
:103510006F8F04EBC403DA000C4B13445B6813F1A8
:10352000100FE8D1094A04EBC401CB0013446FF03B
:103530008B01596004EBC403D900303111440431CC
:1035400003480DF030FDD6E738BD00BF441300201E
:10355000180A002070B5002414E0E50004EBC40351
:10356000D8003030094E3044094904300DF000FDD8
:103570002B19D800183030440430012211460DF0C8
:1035800061FC0134032CE8D9002070BD44130020F5
:10359000BD31000808B50169012381F84B300B6883
:1035A00013B191F8493003B908BD083101480DF055
:1035B000FAFCF9E7180A002008B50169012381F82F
:1035C0004A300B6813B191F8483003B908BD08318F
:1035D00001480DF0E8FCF9E7180A002030B583B087
:1035E000054614460A1E17DD04F14C01D4F88C0080
:1035F00008F01BFF012384F84930236813B194F8C5
:103600004B3073B9D4F88C20938891895B1A9BB2A4
:103610001269D31A3F2B0AD994F89E305BB903B0D4
:1036200030BD04F1080109480DF0BDFCEAE70123B3
:1036300084F8A030F3E70194054B00930123402266
:1036400004F14C012846FFF7A3FEE8E7180A002022
:10365000DD35000870B50569EFF31186102383F39B
:103660001288BFF36F8FD5F8900008F0DEFE044695
:1036700086F31188BFF36F8F08B9204670BD002212
:10368000002305F1180102480DF0A3FCF5E700BF87
:10369000180A002038B50D461446012382F8483038
:1036A000136813B192F84A305BB9D4F890305A8954
:1036B000DB8893420BD004F118015DB10022002396
:1036C0000BE002F1080107480DF06DFCEDE73DB994
:1036D00004F118014FF47A72002302480DF079FCCE
:1036E00038BD00BF180A002030B583B08DF8071030
:1036F0000469002384F8483006E0174B01221A7051
:1037000021E0012009F0ACFBEFF31185102383F3D6
:103710001288BFF36F8F01220DF10701D4F89000DA
:1037200008F083FE85F31188BFF36F8F01280AD05C
:103730000DF09EFC18B994F8A130002BE1D1064B96
:103740001B78002BD9D00A22002304F1180103486A
:103750000DF03FFC03B030BDCB2C0020180A002038
:1037600070B504460E4615468188C9B2184809F05E
:103770004EFA30B394F90020002A18DB6278202A30
:1037800004D0222A0ED06FF0850019E02A68116853
:1037900040F8101C9188927920F80C1C00F80A2C33
:1037A00000200DE0628800F8092C002008E0627813
:1037B000212A09D1A0F110032B60072333600020D8
:1037C00070BD6FF01200FBE76FF08500F8E700BFF7
:1037D0006414002008B50146034809F02CFA10B122
:1037E000012200F8072C08BD6414002008B5034628
:1037F0004FF0000C80F89EC080F89FC080F849C050
:1038000080F848C00B4A92E80300C3F89400A3F87C
:103810009810090C83F89A1083F89CC083F89BC019
:1038200083F8A0C04022614603F14C000EF0B2F8CC
:1038300008BD00BF3C24010830B583B00446D0F871
:10384000A4305D680139052906D8DFE801F00305D9
:103850000723262AFFF7CAFF03B030BD90F89E3039
:10386000002BF9D1012380F89E302B6A02460021FB
:10387000187BFFF7B3FE94F84830002BECD12B6A8D
:10388000187D01940B4B0093022300221146FFF791
:103890007FFDE1E7FFF7AAFFDEE7012380F89F3015
:1038A000DAE790F89F30002BD6D0002380F89F30C5
:1038B000D2E700BF9536000838B50C4615460146DC
:1038C000044809F092F920B12A462146A438FFF7AE
:1038D000B3FF38BD6414002010B50469C4F8A40017
:1038E00004F1A8030022C4F8A8200B4A526872B160
:1038F0001360094A5360094904F108000DF038FBD0
:10390000074904F118000DF058FB002010BD024AD1
:1039100053601360EFE700BF641400209FCC0008E1
:1039200025390008F0B585B00446A0F11806D0F896
:103930008C305B681B6A1D7D284609F098F910B928
:1039400094F886300BB905B0F0BD4FF4806203A93E
:10395000A06F09F095FA07460028F4D0002384F8F8
:10396000303010F03F0F00D1471E0196074B0093F7
:1039700002233A4603992846FFF70AFDA06F3A460C
:1039800000F10A0108F031FDDDE700BF95360008BF
:1039900030B583B0084D002400944FF0FF334FF44E
:1039A00080620649284606F001FA0549284606F0D5
:1039B00051FA204603B030BD180A0020C034002060
:1039C000942F010810B5044604F0FAFF024603499B
:1039D000204609F03CFF002010BD00BFCC2F01089D
:1039E00030B583B0054613460022019201AA0A2190
:1039F000586801F03BFE019C24B909F053FA2046B7
:103A000003B030BD22460349284609F03EFF019C21
:103A1000F5E700BFFC2F010808B5034A034909F088
:103A200016FF002008BD00BF68260108FC30010811
:103A30002DE9F04182B0054616460023019301AA04
:103A40000A21B06801F012FE04465FFA80F81849B6
:103A5000284609F00BFF019F8FB9B8F1040F15D864
:103A6000706808F00FFE00281ADB02B2E3B20021F2
:103A7000084608F021FE384602B0BDE8F0813A461B
:103A80000C49284609F001FF019FF4E7E2B20A4918
:103A9000284609F0FAFE284609F038FF0127EAE730
:103AA00072680649284609F0F0FE6FF01507E2E754
:103AB0002831010890310108B8310108D0310108DE
:103AC00000B583B0009000238DF8043069460448A7
:103AD0000DF0AFFC9DF8040003B05DF804FB00BFDF
:103AE000C5CE000810B5044604F04AFF0246074957
:103AF000204609F0ACFE0649204609F0A8FE214602
:103B000004480DF0A0FC002010BD00BF34320108B5
:103B100054320108853B000870B58CB00446084655
:103B200006A90DF0FBFA054600B1012568460DF027
:103B300002FB00B92DB11149204609F088FE0CB0F6
:103B400070BD069D079E681946EB0603401946EBBB
:103B500003035A0142EAD0624101401843EB0201DB
:103B60004019DDE9002346EB0101FCF771FB034638
:103B70002A460349204609F06AFEE0E78832010838
:103B80006032010870B58EB004460D46D0F8AC60C6
:103B90000DF077FA03460DF0CBFF234A12589442FA
:103BA0002DD0224A6BB3009323462149284609F0C1
:103BB0004EFED4E90A23CDE9002394F90E30227B8E
:103BC0001C49284609F043FE202205A9204606F09C
:103BD00053F90246636F1849284609F038FE21461A
:103BE0002846FFF799FF0DA920460DF08AFA0246F4
:103BF00048B11249284609F02AFE0EB070BD104A9D
:103C0000D0E7104BCFE70D9BF11A642201FB02F2C3
:103C1000B2FBF6F202920196009132460A4928461A
:103C200009F015FEE9E700BF080000002C2B010891
:103C3000B0320108BC320108E83201080033010843
:103C4000E4480108AC3201083033010870B590B087
:103C500005460024089409940A940B940C940D943E
:103C60000E940F944FF02033089309930A930B930B
:103C70000C930D93ADF83830014615480DF0E3FB79
:103C800014B1002010B070BD04EB4413114E06EBCC
:103C9000831607AA4FF4006106F140000DF020FAE8
:103CA000079AC2F50061642301FB03F3DB0A059365
:103CB0004FF40063049303910292019308AB0093C5
:103CC000234632460449284609F0C1FD0134D7E7AE
:103CD000DD3C00084041002088330108F0B589B080
:103CE00004460D46D0F8AC6007A90DF00AFAB8B941
:103CF00020460DF0C6F90799771A642207FB02F2F5
:103D0000B2FBF6F2034688B1049203960297019142
:103D1000009622460649284609F099FD09B0F0BDF3
:103D200002460449284609F092FDF7E7024BEBE70B
:103D3000D433010800330108AC32010838B5054618
:103D4000134610220021586807F0D0FB0446FFF705
:103D5000B7FE78B10DF0ECFE0E4B1B589C4211D013
:103D6000204606F0F1FA22460B49284609F06FFD7D
:103D7000002038BD22460949284609F086FD6FF02B
:103D80001500F6E70649284609F07FFD6FF015009B
:103D9000EFE700BF08000000803401083C34010850
:103DA0005834010838B505461346102200215868DA
:103DB00007F09CFB0446FFF783FE78B10DF0B8FED8
:103DC0000E4B1B589C4211D0204606F04DFC22465B
:103DD0000B49284609F03BFD002038BD2246094921
:103DE000284609F052FD6FF01500F6E7064928460F
:103DF00009F04BFD6FF01500EFE700BF0800000071
:103E0000EC3401083C340108C434010838B50546D7
:103E1000134610220021586807F068FB0446FFF79C
:103E20004FFE78B10DF084FE0E4B1B589C4211D012
:103E3000204602F0CBFE22460B49284609F007FD3A
:103E4000002038BD22460949284609F01EFD6FF0C2
:103E50001500F6E70649284609F017FD6FF0150032
:103E6000EFE700BF08000000543501083C340108AA
:103E70002C35010810B503460C461146006808B100
:103E8000027822B9024A204607F006FB204610BD00
:103E9000903501082DE9F04186B0064605A805F0E9
:103EA00061FA00EBC000059B03EB8008224A082161
:103EB000304609F0BEFC059C0CE0204B204A08214E
:103EC000304609F0B6FC236A1BB11D680DB12B68A2
:103ED000A3B9243444452AD2142269462046FFF768
:103EE000C9FF0346174A0821304609F0A2FC2046C4
:103EF0000CF047FF0028E0D0134BDFE7134A0821FE
:103F0000304609F096FC00272B68BB4209D905EB27
:103F100087035B680E4A0821304609F08AFC0137A6
:103F2000F2E70C4A0821304609F083FCD1E7002073
:103F300006B0BDE8F08100BFAC350108A03501082E
:103F4000C0350108B835010898350108C8350108A1
:103F5000DC3501081C2A010808B5102A12D0202AD5
:103F600013D0082A06D00A4A082109F062FC6FF033
:103F7000150006E00B78DBB2064A082109F059FC6F
:103F8000002008BD0B889BB2F6E70B68F4E700BF82
:103F9000483601086036010808B5029B102A0ED089
:103FA000202A10D0082A06D0084A082109F041FC2E
:103FB0006FF0150002E0DBB20B70002008BD9BB271
:103FC0000B800020FAE70B600020F7E74836010875
:103FD0002DE9F04182B004460D461646102200211C
:103FE000706807F083FA0746022D20D84FF02008AA
:103FF0004346164A0821204609F01BFC032D1ED912
:1040000010220021F06807F071FA05460346104AB5
:104010000821204609F00DFC00950023019342463B
:1040200039462046FFF7B8FF02B0BDE8F0810A220A
:104030000021B06807F05AFA5FFA80F8D8E74246E4
:1040400039462046FFF788FFEEE700BF74360108C7
:104050008C36010838B504460D4611B10E4B1B785D
:104060005BB90D4A137883F0010313705BB92946DD
:10407000204609F068FC002038BD084909F005FC1D
:104080006FF00F00F8E70649204609F0E0FB024B0D
:1040900001221A70EBE700BFCC2C0020A0360108EB
:1040A000DC360108F8B507460E4615460023244ABB
:1040B0001370244A1360244A13600CE000231C444C
:1040C0000222224920460DF090FC98B91C4B012297
:1040D0001A700435013E012E1DD96C6802221C495C
:1040E00020460DF082FC0028E8D1A378002BE6D012
:1040F0000123E4E716492046FCF7C4F850B12378C1
:104100002D2B08D1637833B122461249384609F085
:104110009EFBDEE7043500221146686807F0E6F9E9
:104120000D4B186000221146686807F0DFF90B4B51
:1041300018600B493846FFF78DFF0020F8BD00BF1F
:10414000CE2C002070140020741400200C370108BD
:1041500008370108103701087C140020781400206B
:104160006541000838B50546554B1B78182B01D022
:10417000002305E00B78112B32D0002300E001333F
:1041800002F1FF3C9E469C4509D9CC5C182CF6D127
:104190008E449EF801001128F1D1012300E0002394
:1041A000F3B911F80C20464B1A700A78A2F13003CB
:1041B000DBB2092B09D9A2F16103DBB2052B04D9CB
:1041C000A2F14103DBB2052B05D83E490B683E48FE
:1041D000C25401330B603B4B1B68022B5DD038BDD2
:1041E0003A4B1A683A49284609F031FB0021284623
:1041F000FFF730FF374B1B78002BF0D113E0364D23
:104200002A681068030A03F47F4343EA1063040238
:1042100004F47F04234343EA006342F8043B2A602A
:1042200004392A4B1960294B19680429E7DC11F07D
:10423000030F0FD1284B18680268130A03F47F4359
:1042400043EA1263110201F47F010B4343EA026364
:104250000360C4E74B4201F0030103F0030358BFBE
:10426000594202290FD00329B9D11B4B19680B6899
:10427000C3F3074203F47F4002431B0403F47F03AC
:1042800013430B60ABE7144B19680B68C3F30722A9
:104290001B029BB213430B60A1E7102200210A48C6
:1042A00007F024F90D4A136803F8010B1360074A5D
:1042B000136801331360034B00221A608FE700BFBD
:1042C000CD2C0020701400206C14002074140020E9
:1042D00028370108CE2C0020781400207C14002000
:1042E0002DE9F04385B080460F4615461C46DE0892
:1042F000002D5DD04FF0000C08E01CF807300CF1E9
:1043000010010DEB010C0CF8103C9446B54240D363
:104310000CEB0602102A3CD8102C0DD0202C1BD000
:10432000082CEAD0234A0821404609F082FA6FF0AF
:10433000150005B0BDE8F0833CF807300CF1100122
:10434000694401F8103CC3F307230CF111010DEB94
:10435000010C0CF8103CD8E75CF807300CF11001A8
:10436000694401F8103CC3F307200CF111016944C2
:1043700001F8100CC3F307400CF11201694401F875
:10438000100C1B0E0CF113010DEB010C0CF8103C82
:10439000BBE7A946102D28BF4FF010094B466A46CF
:1043A0003946404600F0D6FE1037A5EB09059FE7D9
:1043B0000020BEE7483601082DE9F04383B081466E
:1043C0000D46144600230193384B01221A6002F077
:1043D000BDFE4FF0FF364FF020083746344A2146E5
:1043E000284602F0D7FEB0F1FF3F43D073281BD020
:1043F00077282CD0612804D06FF0150003B0BDE8F9
:10440000F08301AA10212B4B186801F02FF9064602
:10441000019B002BE2D0274B1A682749484609F038
:1044200034FA6FF01500E9E701AA0021214B186862
:1044300001F01CF90746019B002BCFD01D4B1A68D9
:104440001E49484609F021FA6FF01500D6E701AA87
:104450000021184B186801F009F98046019B002BD8
:10446000BCD0144B1A681649484609F00EFA6FF092
:104470001500C3E7B6F1FF3F0AD0B7F1FF3F0ED0FA
:104480005FFA88F33A4631464846FFF729FFB5E719
:104490000C49484609F0F9F96FF01500AEE70A49F2
:1044A000484609F0F2F96FF01500A7E75401002023
:1044B00080370108481800204437010858370108A0
:1044C0006C37010888370108A837010810B5024683
:1044D000034653F8404B40214163436200238385E8
:1044E0004385038543860386C38500F13801082090
:1044F000106211611383D3829382D3839383538396
:10450000C2F8B8300349204608F0F3FC204608F012
:104510000AFD10BDF5D000082DE9F04383B08046B8
:104520000D464FF000090DE06FF057044FF0010900
:10453000224605F12801304607F057FF002C32D003
:10454000BC4230D105F124066A6B01A9304608F05F
:1045500073FD074670B10199D8F808309B69002BAC
:10456000E2D002464046984704460028E0D04FF08B
:104570000109DDE7114B1B6813F0060F0AD1D8F8CB
:1045800008309B6963B101220DF103014046984751
:104590000446D3E70A4A0221084808F033F9EEE757
:1045A0006FF05704CCE7B9F1000F03D06B68A9682E
:1045B0000020984703B0BDE8F08300BF1C02002034
:1045C0007439010800B583B009480CF0DAFB60B11A
:1045D000042300930123074A12680549064800F0A6
:1045E0006BFE002003B05DF804FB6FF01200F9E7EA
:1045F000A41D01088C390108C822010883681975B7
:10460000022900D0704710B5044683689B6C03B143
:1046100010BD08F089FDA368D3F8783213F4805FE9
:1046200003D1204609F0B0FCF2E7054B054A03210F
:10463000204609F00CFC0021204608F029FEF0E796
:10464000383A0108182B010810B5044608F003FE9B
:10465000A3685B6C13B1014620469847A36800220B
:10466000C3F820230DF064FA014B185802F0AEFA9B
:104670000800000008B58368D3F8743213F0200FE7
:1046800000D108BD0249406908F00DFFF9E700BFFD
:104690004424010810B504468168183101F042FB3A
:1046A000A168034A1831204609F052FE10BD00BF30
:1046B0007C3A010809B10020704710B504468368B0
:1046C0009B69054A012109F0C2FB2046FFF7E2FF82
:1046D0006FF0150010BD00BF8C3A0108F8B5044614
:1046E00016468068426A72B10D4690F8282092B34F
:1046F00090F82930FF2B25D0AA4226D81344AB428C
:1047000048D2002122E0ABB15A68002A44D0C169E6
:104710008A420AD000F1180E9C46BCE80F00AEE8B1
:104720000F00DCF80030CEF800302046FFF7B2FF73
:1047300001272DE01A4A0121204609F088FB6FF07D
:10474000070725E04FF6FF73D6E700212046FFF765
:10475000B1FF0746E0B90121204608F0F9FDA06845
:1047600000F5437005F04CF9A3685B6A32462946B0
:10477000204698470746A06800F543704FF0FF3287
:104780004FF0FF3305F0BCF80021204608F0E0FDB3
:104790003846F8BD0121D9E76FF00707F8E700BFF9
:1047A000A83A010891B110B504460846D36803B988
:1047B00010BD204609F0A8FA204601F051F8044A3D
:1047C0000121204609F043FB0020F1E7012070475A
:1047D000C83A01082DE9F047A6B006465422002148
:1047E0000CA80DF0D7F800230693059304934FF01F
:1047F000FF330393B36803F1560A304609F084FA95
:10480000304609F013FAC8B1B36800279F61DF6131
:104810001F625F629F62304609F08DF9B168B1F89E
:1048200050205631304608F055FE304609F0F2FF70
:104830000897B8460CACB9463D465BE06C497069D8
:1048400008F031FEE0E700286AD00346694A0121FA
:10485000304609F0FCFA6FF00700A1E0206801F093
:1048600095FA00285FD0089B5BB1B468183407AD97
:104870000FCD0FC42B6823603046FFF70BFF0120DC
:104880008EE05D4A0121304609F0E1FA6FF0070041
:1048900086E022682946304609F0E1FF022868D008
:1048A000032843D0069B013306934FF0010921E012
:1048B00021AA2168384609F0E9F8054639E0069B47
:1048C00093B9B368DB6A23B1DB6813B14FF0010819
:1048D00048E04A4B00930C9B494A0121304609F0BD
:1048E000B6FA4FF001083DE04FF001083AE0069BB0
:1048F00001330693049B012B3BD0069B132B38D826
:10490000039B002B35D002235246214604A800F019
:104910000DFED4F804A0049B002B63D0012B92D091
:10492000069B002B9AD1069B002BB2D1B8F1000F49
:10493000BED00434039B013B0393002DBFD02A4615
:1049400049463046FFF72EFF00284ED0B16803AB32
:10495000019305AB009306AB07AA1831284608F06F
:1049600001FC2F46039B002BC1D1049B022BC1D11C
:10497000BDE7069B132B02D9049B022B13D0B9F180
:10498000000F19D117B17B7CFE2B20D0059907AB06
:104990000CAA02EB81020698411A3046FFF79EFEF0
:1049A00026B0BDE8F087174B174A0121304609F0C1
:1049B0004EFA6FF00700F3E7304609F063FFB26884
:1049C000142356320CA906A800F0B0FDDAE7069BC6
:1049D00026AA02EB830252F8682C002AD6D00133B3
:1049E0000693D3E76FF00700DAE76FF00700D7E729
:1049F0001C2A0108F83A0108A83A0108143B0108EA
:104A00000C3B0108283B010888260108F0B583B05B
:104A100004461D468068B0F85030FF2B49D00F4641
:104A20001646B0F8522000F1560100F5AB700CF0BC
:104A300089FFA368B3F852201344002283F856215B
:104A4000A268142302F5AB723168284600F06EFDAF
:104A50002B68142B30D83268002142F82310A36849
:104A6000B3F85220D2B1013A134493F85630144AA5
:104A7000D35C03F008032C6894B113B9012C0FD058
:104A8000013C00200190099B0093089B326821465D
:104A900009F01FF8386048B101200BE00023EAE775
:104AA0000023089A13603B60012003E034B9012021
:104AB00000E0002003B0F0BD0020FBE70020F9E794
:104AC0004C550108F8B504460E461F4672B3104611
:104AD000FBF7EAFB85B2A26818323946304600F08F
:104AE0004BFD066826B33046FBF7DEFB80B2A842DA
:104AF00020D1A268B2F85230134493F856301649C8
:104B0000CB5C13F0080F21D1D2F8743213F0010FEF
:104B100017D00021204608F05BFC2021204609F038
:104B2000E1F90121204608F053FCF8BD0025D2E749
:104B30000020DCE7421B92B27119204609F0EEF921
:104B4000D7E72021204609F0CDF9EEE701212046E4
:104B500009F087F8E9E700BF4C5501082DE9F0415D
:104B600082B0064649B30F46023294B2D0F80880AC
:104B7000B8F83A50023D95FBF4F5ADB20846FBF7A4
:104B800093FB80B2241AA4B2B8F840305A1CA8F89B
:104B90004020B3FBF5F205FB12339BB293B90097AB
:104BA0000C4B0D4A0621304609F051F9214630469A
:104BB00000F012FE02B0BDE8F08183680022A3F885
:104BC0004020F7E73B46054A0621304609F03FF909
:104BD000ECE700BF4C3B0108503B0108182B0108D3
:104BE0002DE9F84F074689461D460A9EBDF82CB0B0
:104BF000904652B11046FBF757FB1FFA80FA5A460F
:104C000000213846FFF7AAFF08E04FF0000AF6E758
:104C10005A4621683846FFF7A1FF013EA6B1BA689F
:104C200018322946484600F0A7FC04460135B8F181
:104C3000000FEDD000680028EAD0524641460CF043
:104C4000D4FE0028E4D0E9E70449786908F02BFC99
:104C5000384609F099F9BDE8F88F00BF1C2A010811
:104C600010B50446013916290FD8DFE801F00C0F02
:104C70001226292C0E0E0E0E2F320E4C0E500E0E3A
:104C80000E0E540E610009F036F810BD09F047F819
:104C9000FBE709F039F8204608F0C8FF40B10121D0
:104CA000204608F075FB02212046FFF7A7FCECE741
:104CB0002349606908F0F7FBF1E709F033F9E4E70D
:104CC00009F022F8E1E709F035F8DEE709F03FF8EE
:104CD000DBE78368D3F8743213F0200F09D1A3689F
:104CE000D3F8743213F0200F08D1204609F04CF9A4
:104CF000CBE71449406908F0D6FBF0E71249606938
:104D000008F0D1FBF1E7002108F0E0FCBDE701214C
:104D100008F0DCFCB9E708F0EEFF204608F004FAE2
:104D20000121204608F034FB2046FFF7A3FCACE746
:104D300000F03EFE0121204608F02AFBA5E700BF57
:104D40001C2A01084C2401085424010870B586B0BF
:104D50000446002305930CE1606803681D6905ABF8
:104D600001220DF11301A847059B002B00F02381C0
:104D70009DF813109DF91330002BC0F2FA80A26841
:104D8000537D032B00F21981DFE813F004008A0041
:104D90009C00EE00204608F00FFAA8B99DF8131009
:104DA0001B2927D81B2962D8DFE801F0E061616187
:104DB000616161614E3F6161616161616161616118
:104DC000616161616161613BA568B5F850305BB9B3
:104DD000204608F076FB7A49606908F064FB0221FE
:104DE0002046FFF70BFCC4E02046FFF7F3FCC5F8B4
:104DF0002403F4E77F293AD1A368D3F8743213F07F
:104E0000020F00F0B3800121204608F0C1FAA36828
:104E1000D3F8743213F0080F25D0204609F0A1F81A
:104E2000A4E0A36801225A75A0E0A368D3F8743205
:104E300013F0020F00F09A800121204608F0A8FA32
:104E4000204608F0EBFB91E0A368D3F8743213F02E
:104E5000020F00F08B800121204608F099FA2046CD
:104E600009F07FF882E0204609F05CF87EE0554BBF
:104E70005B5C13F0970F09D1A368D3F8743213F079
:104E8000020F73D02046FFF7EBFE6FE001212046B2
:104E900008F07EFA9DF81310204609F023F865E02B
:104EA0005B2908D0D2F8743213F0020F06D1A36840
:104EB00000225A755AE00223537557E0204608F045
:104EC000F6FBF4E700235375A368D3F8742212F0BD
:104ED000020F4ED031391B2948D8DFE801F0262CCB
:104EE00039204747474747474747474747470E13F4
:104EF000181C472247284747472E0121204608F023
:104F0000E5FB33E00021204608F0E0FB2EE02046E0
:104F100008F010FF2AE0204608F001FF26E00322F7
:104F20005A75204608F0F0FE20E003225A7520460C
:104F300008F0E1FE1AE003225A75A368D3F8741250
:104F400001F0010181F00101204608F041FA0DE075
:104F500003225A75A368D3F8743213F0020F05D0F8
:104F6000204608F0DFFF01E000235375606908F078
:104F7000F2FCA3689D6C002D3FF4EEAE6068036800
:104F80001E6905AB10226946B047059B9BB1012104
:104F9000204608F0DDF9059A69462046A847002119
:104FA000204608F0D5F9A3689B6C002BE1D10221C3
:104FB0002046FFF723FB06B070BD00235375D5E7ED
:104FC0001C2A01084C55010838B583681A7D012A4E
:104FD00033D10446D3F8782212F4804F04D0D3F8AA
:104FE000742212F0040F1FD0A06800F5437041F244
:104FF0008832002304F084FC0546D8B908212046F5
:1050000000F0ACFC0E49606908F04DFA0221204620
:10501000FFF7F4FA204608F0C9FFA06800F54370D6
:1050200004F0EEFC284638BDDA6C0146C06909F090
:1050300004F9D9E76FF00F05F4E76FF08505F1E7A4
:105040001C2A010838B504461546003918BF01214D
:1050500008F03EF9A368DD64606803689B6800217E
:10506000984700B138BD2046FFF7AEFFE0B1F9E741
:10507000A06800F5437041F28832002304F040FC40
:105080000028EFD12B461E4A0121204608F0DFFE02
:10509000A06800F5437004F0B3FCE3E79847A0680C
:1050A00000F5437004F0ACFCA06800F52F704FF0E1
:1050B000FF324FF0FF33032106F086F80546002843
:1050C000D6D1A06800F543704FF0FF324FF0FF33A8
:1050D00004F016FC0B4A0221204608F0B9F90A4AEE
:1050E0000021204608F0B4F9084A0121204608F0C2
:1050F000AFF9606803685B69002BCFD1CFE700BFD1
:10510000583B0108494600087FD70008FFD1000836
:1051100010B504460A4908F09AFB0A49204608F0EF
:1051200096FB0949204608F092FB0849204608F002
:105130008EFB074A0021204609F00AF9002010BD25
:10514000703B0108B03B0108103C0108643C0108B9
:10515000003D0108F8B5054617461E460A46244993
:1051600008F075FB002409E02249284608F06FFB8F
:105170000BE02149284608F06AFB01340F2C0CDCB7
:10518000002C02DD14F0070FEED0B442F1D23A5DEC
:105190001A49284608F05BFBEFE71949284608F052
:1051A00056FB002409E01349284608F050FB0BE0A9
:1051B0001449284608F04BFB01340F2C13DC002C5B
:1051C00002DD14F0070FEED0B44207D23A5D0E4B69
:1051D0009B5C13F0970FEBD12E22E9E70549284697
:1051E00008F035FBE8E70949284608F030FBF8BD30
:1051F000183D01082C2B0108442B01083C2B010809
:10520000482B01086C3D01084C550108203D010860
:105210002DE9F0410646884617464FF44A720021B0
:1052200080680CF0B7FB304608F038F9B06800F53C
:1052300043700BF000FE002517E0B0682C0104F568
:105240001E74204404300CF048FBB068031905EBD1
:10525000850C4FEA8C0C0CF52E7C60440433002244
:10526000012104300CF002FB0135032DE5DDB369AB
:1052700000241C600121304608F04AF8B36850222F
:105280005A87B36818221A873168304608F00CFB39
:1052900064F38207B368C3F87472706803681C68AB
:1052A0003346044A4146A04710B9B36801221A7533
:1052B000BDE8F08183D4000870B588B004468068EA
:1052C000D0F8200310BB1D462046FFF7A1FF06467D
:1052D00010B1304608B070BDA06AE16A0022002318
:1052E000CDE90623002304930E2303930C9B029322
:1052F00001950094074B4FF400620BF0CFFEA368BA
:10530000C3F82003616A04F0A5FDE2E76FF07706B9
:10531000DFE700BF4550000810B5044613460A46B3
:105320000146054801F0C0FE23691B7903B910BD91
:10533000204608F010FBFAE76FD9000870B50C465C
:10534000037873B12388C21812F8012C11498A5CC2
:1053500012F0080F06D0013B9BB22380002BF1D145
:10536000037070BD0022C25413461D4601339BB228
:105370004119425D074EB25C12F0080FF5D1002DC5
:10538000EFD02288521B01320CF0EAFA23885B1B13
:105390002380E6E74C5501082DE9F84307460568E8
:1053A00000269CE06C1C4DB12846FAF77DFF82B2C6
:1053B000214628460CF0D4FA254690E00022F7E773
:1053C0006E1C4DB12846FAF76FFF82B2314628466F
:1053D0000CF0C6FA264682E00022F7E76C1C4DB1BD
:1053E0002846FAF761FF82B2214628460CF0B8FA47
:1053F000002674E00022F7E76C1C2846FAF754FFF9
:1054000082B2214628460CF0ABFA254667E04FF001
:1054100000080224042C0CD82B5DA3F13002D2B278
:10542000072A06D842EAC8025FFA82F80134E4B2D9
:10543000F0E7022C6DD904F1FF39A94465B1284683
:10544000FAF732FF82B2023C121B494628460CF0A2
:1054500087FA05F8018B42E00022F4E7A3F161022C
:10546000D2B2052A14D8573BDBB243EA08135FFADD
:1054700083F80134E4B2032C16D82B5DA3F130027B
:10548000D2B2092AEAD842EA08125FFA82F8F0E7B3
:10549000A3F14102D2B2052A06D8373BDBB243EA78
:1054A00008135FFA83F8E4E7022C17D904F1FF39F7
:1054B000A94465B12846FAF7F7FE82B2023C121BF6
:1054C000494628460CF04CFA05F8018B07E000220B
:1054D000F4E7154B1B5D13F0080F20D101352C7834
:1054E000ECB146B9272C3FF46BAF5C2C3FF45AAFBC
:1054F000222C3FF465AFA6423FF470AF002EE8D0F7
:105500005C2CEBD16B789E423FF476AF302B3FF4AE
:105510007EAF782BE2D14FF000080224ABE73D606C
:105520003046BDE8F88300BF4C55010870B582B025
:1055300004460E4601921D460020206007E0531CE1
:1055400001930023137002E001A8FFF725FF019AE1
:10555000117869B1074B5B5C13F0080FEFD123683A
:105560005A1C2260019A46F823202368AB42EBD1F3
:1055700002B070BD4C5501088C46034688B110B589
:105580001446806820B3154B984214D3144B9842AC
:1055900011D203681146604698472068C0B1204682
:1055A00016E01049104A521ABCEB920F01D251F882
:1055B0002C30184670470D4B984202D30C4B984242
:1055C00007D300680CEB8C0C00EB8C0003681BB15C
:1055D00010BD0CF1010CF5E71846F9E73C24010871
:1055E0003C240108F822010824230108242301088F
:1055F0003C240108002835D0F8B50646FAF754FED9
:1056000085B275B30024274606E00137BFB20132E8
:1056100092B20EE00134A4B2AC466B1E9C4220DA7A
:105620002046335D104AD35C13F0080FF2D0621CA1
:1056300092B29542EED906EB020EB35C0A49CB5CFE
:1056400013F0080FE1D1002FE4D00130ACEB0202DF
:105650000132714630440CF083F9EF1BBDB20027D4
:10566000D8E7F8BD704700BF4C550108F0B583B0CE
:10567000164603782D2B19D004460CF059FA05462E
:10568000104F0023C3510A4601A9204605F02EFF02
:10569000EB59222B10D023B9019BA34201D01B78D8
:1056A00043B16FF015033360002003E06FF0150382
:1056B0001360002003B0F0BD6FF0210333600020C1
:1056C000F8E700BF0C00000070B4844600200646D6
:1056D00005E0002B0DDD15E00126013080B213FB43
:1056E00000F411FA84F4A4B20CB9002B0ADB944242
:1056F000EFD01CF80440044D2C5D14F0070FEBD1E3
:10570000002EEAD070BC70474C55010808B583687C
:10571000D3F8743213F0200F00D108BD024940695C
:1057200008F017FAF9E700BF5C24010808B58368A0
:10573000D3F8743213F0200F00D108BD024940693C
:1057400008F007FAF9E700BF6024010808B583688C
:10575000D3F8743213F0200F00D108BD024940691C
:1057600008F0F7F9F9E700BF68240108082915D8FF
:1057700014D008B5836893F83F208A4207D083F895
:105780003F108368D3F8743213F0200F00D108BDA6
:105790000A460349406908F0DCF9F8E7704700BFA2
:1057A0005C3D010808B50A1E09DD4123002A0ADB19
:1057B0008168D1F8741211F0200F06D108BD002ABB
:1057C000FCD04223F2E75242F2E70249406908F076
:1057D000C0F9F3E7683D010808B50A1E09DD432357
:1057E000002A0ADB8168D1F8741211F0200F06D16B
:1057F00008BD002AFCD04423F2E75242F2E70249F6
:10580000406908F0A6F9F3E7683D010810B50446C1
:105810000A468368B3F85210481CA3F852000B44A0
:1058200083F85620A368D3F8741211F0020F0DD03C
:10583000D3F8743213F0040F00D02A2206496069AD
:1058400008F087F9204608F0F1F900B910BD0349C6
:10585000606908F07EF9F9E76C3D01081C2A01082F
:1058600010B5044608F0E2F918B9204608F07FF9AF
:1058700018B10249606908F06CF910BD1C2A0108D2
:10588000F8B505468468B4F85020B4F8521004F115
:10589000300008F0B5F8A78EE68E284608F067F9C4
:1058A00070B9B74211D0E18EA38EC91A2846FFF70E
:1058B00079FF218E638EC91A2846FFF78DFFF8BD48
:1058C0000549686908F045F9EBE7218E638EC91A2E
:1058D0002846FFF781FFF2E71C2A01082DE9F8436B
:1058E0000546846814F1560006D0FAF7DDFC86B24E
:1058F00094F83C7000231BE00026F9E71C44224486
:1059000092F856904FF0000882F85680AA685033FB
:105910001A4406320F49686908F01BF9AB68234442
:1059200083F85690AB685B8FDB1BF61A234647461D
:10593000AA68548FE41BB442E0DB002E01DCBDE812
:10594000F88350331A4406320349686908F001F9B4
:10595000F5E700BF88260108182B0108082921D87F
:1059600008B5836893F83E208A4209D083F83E1038
:1059700008290CD08368D3F8743213F0200F00D1BB
:1059800008BD0A460849406908F0E3F8F8E783686B
:10599000D3F8743213F0200FF2D00449406908F0B4
:1059A000D8F8EDE7704700BF703D01086C2401088E
:1059B0008168B1F85020002A46D070B50546B1F88C
:1059C0005230002B3FD04F330B44063301F1560CBD
:1059D000002402E00134A4B2013B634502D31978EC
:1059E0002029F7D0634506D31978202903D0013444
:1059F000A4B2013BF6E75E1C611C121B1944304641
:105A00000BF0AEFFAA68B2F850301B1BA2F8503062
:105A1000AB68B3F850201344002283F8562061424B
:105A200009B2284608F01DF92846FFF76FFE3346F5
:105A3000064A0821284608F00AFA2846FFF776FEAB
:105A40002846FFF783FE70BD704700BF182B010882
:105A50002DE9F04704460E46904672B9D4F80890F6
:105A6000D9F8743213F0040F2AD0B9F8520050302C
:105A700048440630FAF718FC07E0FFF757FEEDE759
:105A80002F49606908F065F82846451E0028F7D1BF
:105A9000A368B3F85020A3F85220204608F067F816
:105AA00038B1B8F1000F00D01EB12649606908F086
:105AB00050F8714209B2204608F0D3F8BDE8F087EB
:105AC000B9F85070B9F1000F19D04846FAF7ECFB5D
:105AD00083B21F44B9F852502B44B9F83A2093FBD3
