:020000040800F2
:1000000000450020DD360008F1900008C9360008E0
:10001000C9360008C9360008C936000800000000CB
:10002000000000000000000000000000CD370008C4
:10003000C93600080000000055370008094A0008CA
:100040009D3900089D3900089D3900089D39000838
:100050009D3900089D3900089D3900089D39000828
:100060009D3900089D3900089D3900089D39000818
:100070009D3900089D3900089D3900089D39000808
:100080009D3900089D3900089D3900089D390008F8
:100090009D3900089D3900089D3900089D390008E8
:1000A0009D3900089D3900089D3900089D390008D8
:1000B0009D3900089D3900089D3900089D390008C8
:1000C0009D3900089D3900089D3900089D390008B8
:1000D0009D3900089D3900089D3900089D390008A8
:1000E0009D3900089D3900089D3900089D39000898
:1000F0009D3900089D3900089D3900089D39000888
:100100009D3900089D3900089D3900089D39000877
:100110009D3900089D3900089D3900089D39000867
:100120009D3900089D3900089D3900089D39000857
:100130009D3900089D3900089D3900089D39000847
:100140009D3900089D3900089D3900089D39000837
:100150009D3900089D3900089D3900089D39000827
:100160009D3900089D3900089D3900089D39000817
:100170009D3900089D3900089D3900089D39000807
:100180009D3900089D3900089D3900089D390008F7
:100190009D3900089D3900089D3900089D390008E7
:0C01A0009D3900089D3900089D390008B9
:1001B0007BB972B90029BEBF00204FF0004106E0B4
:1001C00008BF00281CBF6FF000414FF0FF3000F067
:1001D00057B8ADF1080C6DE904CE002909DB002BFE
:1001E0001ADB00F069F8DDF804E0DDE9022304B071
:1001F0007047404261EB4101002B1BDB00F05CF8D3
:10020000DDF804E0DDE9022304B0404261EB410186
:10021000524263EB43037047524263EB430300F0E7
:100220004BF8DDF804E0DDE9022304B0404261EB65
:1002300041017047524263EB430300F03DF8DDF8A3
:1002400004E0DDE9022304B0524263EB430370474C
:1002500053B94AB9002908BF00281CBF4FF0FF312D
:100260004FF0FF3000F00CB8ADF1080C6DE904CE92
:1002700000F022F8DDF804E0DDE9022304B0704765
:10028000704700BF10F8012B11F8013B012A28BF6D
:100290009A42F7D0D01A7047034611F8012B03F8A1
:1002A000012B002AF9D17047034613F8012B002ACD
:1002B000FBD1181A013870472DE9F04786468C4665
:1002C0000846089E154674461946002B40F0C28029
:1002D0008542B2FA82F245D94AB1C2F1200300FA4E
:1002E00002FC2EFA03F3954043EA0C0C94404FEACB
:1002F000154EA8B2BCFBFEF8230C0EFB18CC08FB75
:1003000000F943EA0C43994528D9EB1808F1FF3767
:1003100004D2994502D9A8F102072B44A3EB0903A3
:10032000A4B2B3FBFEFC0EFB1C330CFB00F044EA52
:100330000344A04214D92C190CF1FF3304D2A0427B
:1003400002D9ACF102032C44241A43EA07401EB13F
:10035000D440002334607360BDE8F0874746DDE792
:100360006346F1E792BB431B01214FEA154EAFB242
:10037000B3FBFEFC200C0EFB1C330CFB07F840EA21
:100380000343984562D9EB180CF1FF3004D298452D
:1003900002D9ACF102002B44A3EB0803A4B2B3FBD7
:1003A000FEFC0EFB1C330CFB07F744EA0344A74298
:1003B0004ED92C190CF1FF3304D2A74202D9ACF16B
:1003C00002032C44E41B43EA0040C0E7C2F12003CF
:1003D00020FA03F1954090402EFA03F303434FEACD
:1003E000154EAFB2B1FBFEFC0EFB1C10190C0CFB42
:1003F00007F841EA0041884504FA02F422D9691855
:100400000CF1FF3004D2884502D9ACF10200294436
:10041000A1EB08019BB2B1FBFEFC0EFB1C110CFB17
:1004200007F743EA01439F420ED9EB180CF1FF3165
:1004300004D29F4202D9ACF102012B44DB1B41EAFA
:10044000004192E76046E3E76146F7E76046A3E7CD
:100450006346B7E7834206D916B9002108467BE711
:10046000C6E900E0F9E7B3FA83F78FB9834201D315
:10047000724508D8BEEB020460EB030301209C46E2
:100480001EB9002168E73846FAE7C6E9004CF8E7EC
:10049000C7F1200CBB4022FA0CF41C432EFA0CF1DD
:1004A00020FA0CF3B84001434FEA14490EFA07F55D
:1004B000B3FBF9F81FFA84FE09FB18300B0C08FB9C
:1004C0000EFA43EA00439A4502FA07F240D9E318CC
:1004D00008F1FF3004D29A4502D9A8F10200234462
:1004E000A3EB0A0389B2B3FBF9F809FB183308FB45
:1004F0000EFE41EA03418E452CD9611808F1FF3305
:1005000004D28E4502D9A8F10203214443EA0040F7
:10051000A0FB0298A1EB0E014145CE46434602D313
:1005200006D14D4504D2B9EB020E68EB0403013845
:10053000002EA6D0B5EB0E0261EB030101FA0CFC14
:1005400022FA07F34CEA0303F940C6E9003198E7C1
:100550004046C5E74346D9E72DE9F04F8DB00990F5
:100560000C4615460BF04BF80022431880F08380B0
:1005700013444B4FA7FB032C2CF0030202EB9C020D
:100580009B1AC01A61F100024FF0CC3100FB01F15F
:1005900007FB0211A0FB07031944420842EAC1729B
:1005A0004FEA51099246012C67D06C6821463D48BC
:1005B000FFF768FE28B121463B48FFF763FE00289D
:1005C00062D135A3D3E9002350464946FFF7F0FD39
:1005D00080460A9130A3D3E9002350464946FFF7ED
:1005E000E7FD15461C46314A002328462146FFF701
:1005F000DFFD06460F462D4A002328462146FFF719
:10060000D7FD15461C464EF660220023284621469B
:10061000FFF7CEFD81460B914EF66022002328465F
:100620002146FFF7C5FD15461C464FF47A7200239C
:1006300028462146FFF7BCFD83468A464FF47A726E
:10064000002328462146FFF7B3FDCDE90623CDF868
:1006500010B0CDF814A0CDF808900B9A0392009634
:10066000019742460A9B1249099807F0CAFE0020EA
:100670000DB0BDE8F08F01227AE74B460D4909988D
:1006800007F0BFFE0020F3E722460B49099807F068
:10069000D6FE6FF00400EBE7005C260500000000CA
:1006A000CDCCCCCC50C9000854C9000880EE36002F
:1006B00078C900083CC9000860C9000838B58368DB
:1006C00005699C697CB112F4000F06D02D680123E6
:1006D0008B401D4201D082F0C062044B134002F0F7
:1006E000B072A04738BD6FF05700FBE7400000062E
:1006F00008B54FF4D011054807F039F8034807F062
:1007000041F84FF47A7007F051F8F7E7C8C70008CE
:1007100008B5024805F082F808BD00BFC8000020F7
:1007200008B501F037F8044907F06BFE03480021D3
:1007300005F066FFF5E700BF64C40008A08601006D
:1007400010B504461E4907F05CFE1E4B1B7823B310
:100750001D4B186883685B681C4998470246B8B906
:100760001A4B9B681B8800221949204607F049FE56
:10077000184B1B78C3B1184A1849204607F041FEB0
:10078000104B1B7893B9134B1B78B3B1144A0EE08E
:100790001449204607F035FEEAE7134B1A8813493F
:1007A000204607F02EFEE3E7114AE5E70C4A11491F
:1007B000204607F026FE002010BD0F4AF7E700BFD5
:1007C000A4C40008E3210020D0090020B8090020BB
:1007D000C8C40008E221002080C4000814C5000835
:1007E0008CC40008DCC40008E021002000C500081B
:1007F00084C400082CC5000898C4000808B54FF050
:10080000FF324FF0FF33044805F050F800F0C2FF0C
:10081000024907F0F6FDF2E7C800002038C50008DD
:1008200000B583B0504804F07BFD504B18600028A1
:1008300048D04F4804F074FD4E4B1860002847D054
:100840004A4B1868A0B10AF07FFB88B100230093DF
:10085000ADF8043009238DF8003004238DF8013001
:10086000424B186883681B6869469847002835D052
:10087000404B1868A0B10AF067FB88B10023ADF8BF
:1008800000308DF8023001238DF800300C238DF8F4
:100890000130384B186883681B686946984750B325
:1008A000354B1B7813B9354B1B786BB3344B0DF1BB
:1008B00006029A600222DA6000F06CFF314907F00C
:1008C000A0FD35E0304804F02BFD284B1860B0E760
:1008D0002E4804F025FD274B1860B1E70122264B76
:1008E0001A70274B5A600C221A7400F053FF2849E3
:1008F00007F087FDBCE7214B01221A7000F04AFF88
:10090000244907F07EFDCBE700F044FF224907F0C1
:1009100078FDCBE721490B8801335A42C3F30B031F
:10092000C2F30B0258BF53420B80012006F03EFF7A
:10093000114B1B78002BEDD00C4B186883685B685B
:100940000F4998470028F0D1BDF80620134B1A80B4
:100950000A4B1B78002BE8D0064B186883685B684D
:1009600001219847E1E700BF54C50008D0090020E5
:1009700064C50008CC090020E3210020E22100200A
:10098000B8090020F0C500085CC500086CC5000867
:1009900074C5000898C50008BCC50008E021002007
:1009A00010B50446054907F02CFD0549204607F01F
:1009B00028FD002000F05CF9002010BD18C60008DA
:1009C00038C6000810B518480AF0BEFA20B3174C14
:1009D0004FF48031204606F0CAFE4FF0B861204641
:1009E00006F095FE1249134B4B6001238B600E48B5
:1009F00006F0D2FE104806F060FF10480AF0A4FA94
:100A000070B10F4806F059FF0E4806F056FF0E4829
:100A100006F053FF002010BD0C4806F04EFFECE737
:100A20000B4806F04AFFEFE720BE0008C0C70008E9
:100A3000D40900201107000858C6000848BD000866
:100A400094C60008C8C60008E8C6000874C60008B6
:100A5000ACC6000808B5024B1B68984708BD00BF2C
:100A600000000020014B1860704700BF000000200C
:100A700000B585B00A4600230093019302930393C7
:100A800002238DF80230044B01930146684606F0BC
:100A9000E1FB05B05DF804FB550A000880B505468A
:100AA0000E461746984605F011FE03460BF09AF8DD
:100AB0000446DFF8189049F800304246394630467F
:100AC000A84754F8090002F02BFE00BF0800000000
:100AD000034A536843F0020353600020704700BF8D
:100AE000002004E0084B1A6842F480721A601A6809
:100AF00042F400721A601A6842F480621A60034B72
:100B0000034A1A60704700BF003C0240900000207A
:100B10000024F40010B584B004468368642103FB0C
:100B200001F14268B1FBF2F1C068029001910092BC
:100B3000D21A2168054806F0C0FED4E9062304490C
:100B4000044806F0BAFE04B010BD00BFD0C70008CC
:100B5000E4D4000810C80008F0B595B00446D0F8F9
:100B6000AC700E680AF0FAFA10B10546037833B992
:100B70002346204A0B2101A806F0DCFA01AD6946A4
:100B800020460AF02BFB024660BB04950597009BAC
:100B9000FF1A069708A920460AF02DFB044600B16B
:100BA00001240EA80AF034FB00B10134B4B9089A4C
:100BB000099C931844EB04009B1844EB000041018E
:100BC00041EAD3615D015B1940EB01019818DDE951
:100BD0000E2344EB0101FFF73BFB079004A8B0474D
:100BE00015B0F0BD2946044806F067FE00230093C7
:100BF000CBE700BF38C800083CC8000810B586B075
:100C0000044600EB40130F4800EB831005AA4FF495
:100C1000006140300AF0D1FA08B106B010BD059B62
:100C2000C3F50061642201FB02F2D20A02924FF482
:100C300000620192009122460349044806F03DFEFD
:100C4000EBE700BF4037002064C8000868C8000810
:100C500000B583B000900191694604480AF060FC39
:100C600006F0E6FE03B05DF804FB00BF590B000878
:100C700010B50446034806F020FE21460248FFF75F
:100C8000E7FF10BDA0C80008150B0008014B03606A
:100C900000207047B4C8000810B5044603F098FF60
:100CA00002460349204607F0ACFB002010BD00BF00
:100CB000E0C8000830B583B0054613460022019213
:100CC00001AA0A21586801F089FD019C24B906F0A7
:100CD000B8FE204603B030BD22460349284607F03F
:100CE000AEFB019CF5E700BF10C9000808B5034A38
:100CF000034907F086FB002008BD00BF10CA0008AA
:100D00001CCA000800B583B0009000238DF80430A1
:100D1000694604480AF0FAFB9DF8040003B05DF848
:100D200004FB00BF637A000810B5044603F030FFEF
:100D300002460749204607F064FB0649204607F0B3
:100D400060FB214604480AF0EBFB002010BD00BF09
:100D500060CA000880CA0008C90D000870B58CB0D0
:100D60000446084606A90AF046FA054600B10125E0
:100D700068460AF04DFA00B92DB11149204607F036
:100D800040FB0CB070BD069D079E681946EB06033C
:100D9000401946EB03035A0142EAD0624101401870
:100DA00043EB02014019DDE9002346EB0101FFF7A7
:100DB0004FFA03462A460349204607F022FBE0E7A4
:100DC000B4CA00088CCA000870B58EB004460D463F
:100DD000D0F8AC600AF0C2F903460AF003FF234AD8
:100DE000125894422DD0224A6BB3009323462149D6
:100DF000284607F006FBD4E90A23CDE9002394F93D
:100E00000E30227B1C49284607F0FBFA202205A958
:100E1000204604F0E5FE0246636F1849284607F0B5
:100E2000F0FA21462846FFF799FF0DA920460AF05F
:100E3000D5F9024648B11249284607F0E2FA0EB049
:100E400070BD104AD0E7104BCFE70D9BF11A64221A
:100E500001FB02F2B2FBF6F20292019600913246D9
:100E60000A49284607F0CDFAE9E700BF080000006C
:100E7000E4D40008E0CA0008ECCA000818CB000857
:100E800030CB0008D8CA0008DCCA000860CB0008D4
:100E900070B590B005460024089409940A940B9408
:100EA0000C940D940E940F944FF0203308930993F3
:100EB0000A930B930C930D93ADF838300146154807
:100EC0000AF02EFB14B1002010B070BD04EB4413E7
:100ED000114E06EB831607AA4FF4006106F140009D
:100EE0000AF06BF9079AC2F50061642301FB03F372
:100EF000DB0A05934FF4006304930391029201937C
:100F000008AB0093234632460449284607F079FA95
:100F10000134D7E7210F000840370020B8CB000884
:100F2000F0B589B004460D46D0F8AC6007A90AF0C8
:100F300055F9B8B920460AF011F90799771A6422D1
:100F400007FB02F2B2FBF6F2034688B10492039665
:100F500002970191009622460649284607F051FA69
:100F600009B0F0BD02460449284607F04AFAF7E7FF
:100F7000024BEBE704CC000830CB0008DCCA0008C9
:100F800038B50546134610220021586806F0FCF8D3
:100F90000446FFF7B7FE78B10AF024FE0E4B1B584B
:100FA0009C4211D0204605F081F822460B49284684
:100FB00007F027FA002038BD22460949284607F0E5
:100FC0003EFA6FF01500F6E70649284607F037FAB3
:100FD0006FF01500EFE700BF08000000B0CC00087C
:100FE0006CCC000888CC000838B5054613461022A2
:100FF0000021586806F0C8F80446FFF783FE78B170
:101000000AF0F0FD0E4B1B589C4211D0204605F013
:10101000DDF922460B49284607F0F3F9002038BDD8
:1010200022460949284607F00AFA6FF01500F6E74C
:101030000649284607F003FA6FF01500EFE700BFF6
:10104000080000001CCD00086CCC0008F4CC00089F
:1010500038B50546134610220021586806F094F86A
:101060000446FFF74FFE78B10AF0BCFD0E4B1B584B
:101070009C4211D0204602F053FB22460B492846E1
:1010800007F0BFF9002038BD22460949284607F07D
:10109000D6F96FF01500F6E70649284607F0CFF9B4
:1010A0006FF01500EFE700BF0800000084CD0008D6
:1010B0006CCC00085CCD000810B503460C46114608
:1010C000006808B1027822B9024A204606F032F8D8
:1010D000204610BDC0CD00082DE9F04186B006467F
:1010E00005A804F00DF900EBC000059B03EB800898
:1010F000224A0821304607F076F9059C0CE0204B87
:10110000204A0821304607F06EF9236A1BB11D689A
:101110000DB12B68A3B9243444452AD21422694660
:101120002046FFF7C9FF0346174A0821304607F05B
:101130005AF9204609F008FF0028E0D0134BDFE7FA
:10114000134A0821304607F04EF900272B68BB42AE
:1011500009D905EB87035B680E4A0821304607F082
:1011600042F90137F2E70C4A0821304607F03BF913
:10117000D1E7002006B0BDE8F08100BFDCCD00085B
:10118000D0CD0008F0CD0008E8CD0008C8CD00089B
:10119000F8CD00080CCE000850C5000808B5102A8C
:1011A00012D0202A13D0082A06D00A4A082107F0B4
:1011B0001AF96FF0150006E00B78DBB2064A082139
:1011C00007F011F9002008BD0B889BB2F6E70B6809
:1011D000F4E700BF80CE000898CE000808B5029B57
:1011E000102A0ED0202A10D0082A06D0084A08213A
:1011F00007F0F9F86FF0150002E0DBB20B70002089
:1012000008BD9BB20B800020FAE70B600020F7E7D7
:1012100080CE00082DE9F04182B004460D46164606
:1012200010220021706805F0AFFF0746022D20D87C
:101230004FF020084346164A0821204607F0D3F80D
:10124000032D1ED910220021F06805F09DFF0546F0
:101250000346104A0821204607F0C5F800950023F0
:101260000193424639462046FFF7B8FF02B0BDE879
:10127000F0810A220021B06805F086FF5FFA80F84D
:10128000D8E7424639462046FFF788FFEEE700BF21
:10129000ACCE0008C4CE000838B504460D4611B1E6
:1012A0000E4B1B785BB90D4A137883F00103137062
:1012B0005BB92946204607F00BF9002038BD0849E4
:1012C00007F0BDF86FF00F00F8E70649204607F079
:1012D00098F8024B01221A70EBE700BFE4210020CE
:1012E000D8CE000814CF0008F8B507460E461546BC
:1012F0000023244A1370244A1360244A13600CE02C
:1013000000231C440222224920460AF0C7FB98B958
:101310001C4B01221A700435013E012E1DD96C6848
:1013200002221C4920460AF0B9FB0028E8D1A37824
:10133000002BE6D00123E4E716492046FEF7A2FF82
:1013400050B123782D2B08D1637833B1224612494E
:10135000384607F056F8DEE7043500221146686883
:1013600005F012FF0D4B186000221146686805F069
:101370000BFF0B4B18600B493846FFF78DFF002021
:10138000F8BD00BFE6210020E4090020E8090020A4
:1013900044CF000840CF000848CF0008F0090020E3
:1013A000EC090020A913000838B50546554B1B78F9
:1013B000182B01D0002305E00B78112B32D000232D
:1013C00000E0013302F1FF3C9E469C4509D9CC5C0C
:1013D000182CF6D18E449EF801001128F1D101237A
:1013E00000E00023F3B911F80C20464B1A700A787C
:1013F000A2F13003DBB2092B09D9A2F16103DBB200
:10140000052B04D9A2F14103DBB2052B05D83E49D7
:101410000B683E48C25401330B603B4B1B68022BE8
:101420005DD038BD3A4B1A683A49284606F0E9FFC4
:1014300000212846FFF730FF374B1B78002BF0D1F7
:1014400013E0364D2A681068030A03F47F4343EA29
:101450001063040204F47F04234343EA006342F868
:10146000043B2A6004392A4B1960294B1968042966
:10147000E7DC11F0030F0FD1284B18680268130A3C
:1014800003F47F4343EA1263110201F47F010B432B
:1014900043EA02630360C4E74B4201F0030103F037
:1014A000030358BF594202290FD00329B9D11B4B5E
:1014B00019680B68C3F3074203F47F4002431B041F
:1014C00003F47F0313430B60ABE7144B19680B68FD
:1014D000C3F307221B029BB213430B60A1E7102248
:1014E00000210A4805F050FE0D4A136803F8010B6D
:1014F0001360074A136801331360034B00221A601C
:101500008FE700BFE5210020E4090020E00900206A
:10151000E809002060CF0008E6210020EC09002047
:10152000F00900202DE9F04385B080460F461546AE
:101530001C46DE08002D5DD04FF0000C08E01CF8C2
:1015400007300CF110010DEB010C0CF8103C944627
:10155000B54240D30CEB0602102A3CD8102C0DD01B
:10156000202C1BD0082CEAD0234A0821404606F044
:101570003AFF6FF0150005B0BDE8F0833CF8073086
:101580000CF11001694401F8103CC3F307230CF17E
:1015900011010DEB010C0CF8103CD8E75CF807309A
:1015A0000CF11001694401F8103CC3F307200CF161
:1015B0001101694401F8100CC3F307400CF112014A
:1015C000694401F8100C1B0E0CF113010DEB010C1A
:1015D0000CF8103CBBE7A946102D28BF4FF01009AE
:1015E0004B466A463946404600F06CFE1037A5EB84
:1015F00009059FE70020BEE780CE00082DE9F043F3
:1016000083B081460D46144600230193384B0122D6
:101610001A6002F0EBFA4FF0FF364FF02008374621
:10162000344A2146284602F005FBB0F1FF3F43D083
:1016300073281BD077282CD0612804D06FF01500B8
:1016400003B0BDE8F08301AA10212B4B186801F00C
:10165000C5F80646019B002BE2D0274B1A682749A4
:10166000484606F0ECFE6FF01500E9E701AA0021FC
:10167000214B186801F0B2F80746019B002BCFD030
:101680001D4B1A681E49484606F0D9FE6FF015003A
:10169000D6E701AA0021184B186801F09FF8804690
:1016A000019B002BBCD0144B1A681649484606F023
:1016B000C6FE6FF01500C3E7B6F1FF3F0AD0B7F1E1
:1016C000FF3F0ED05FFA88F33A4631464846FFF7AF
:1016D00029FFB5E70C49484606F0B1FE6FF015004A
:1016E000AEE70A49484606F0AAFE6FF01500A7E7E4
:1016F00060000020B8CF0008600D00207CCF0008FB
:1017000090CF0008A4CF0008C0CF0008E0CF0008A9
:1017100010B50246034653F8404B402141634362F3
:10172000002383854385038543860386C38500F1B3
:1017300038010820106211611383D3829382D3830E
:1017400093835383C2F8B8300349204606F090F9DA
:10175000204606F0A7F910BDFD7C000810B582B048
:10176000094809F0F1FB58B1002400940123074A0D
:1017700012680549064800F057FE204602B010BD29
:101780006FF01200FAE700BF44BE0008ACD10008B9
:10179000B4C2000800487047B4C2000883681975D5
:1017A000022900D0704710B5044683689B6C03B1D2
:1017B00010BD06F0BDFAA368D3F8783213F4805F49
:1017C00003D1204607F0A5F9F2E7054B054A0321AE
:1017D000204607F001F90021204606F033FBF0E730
:1017E000F4D1000838D2000810B5044606F010FB0A
:1017F000A3685B6C13B1014620469847A36800229A
:10180000C3F820230AF0EEF9014B185801F088FFC5
:101810000800000008B58368D3F8743213F0200F75
:1018200000D108BD0249406906F017FCF9E700BF86
:1018300014C4000810B504468168183101F02AFB71
:10184000A168034A1831204607F099F910BD00BF7E
:101850003CD2000809B10020704710B504468368E7
:101860009B69054A012107F0B7F82046FFF7E2FF20
:101870006FF0150010BD00BF4CD20008F8B504464B
:1018800016468068426A72B10D4690F8282092B3DD
:1018900090F82930FF2B25D0AA4226D81344AB421A
:1018A00048D2002122E0ABB15A68002A44D0C16975
:1018B0008A420AD000F1180E9C46BCE80F00AEE840
:1018C0000F00DCF80030CEF800302046FFF7B2FF02
:1018D00001272DE01A4A0121204607F07DF86FF01C
:1018E000070725E04FF6FF73D6E700212046FFF7F4
:1018F000B1FF0746E0B90121204606F003FBA068CE
:1019000000F5437003F034FFA3685B6A3246294652
:10191000204698470746A06800F543704FF0FF3215
:101920004FF0FF3303F0A4FE0021204606F0EAFA50
:101930003846F8BD0121D9E76FF00707F8E700BF87
:1019400068D2000891B110B504460846D36803B9BF
:1019500010BD204606F09DFF204601F039F8044AEC
:101960000121204607F038F80020F1E701207047F8
:1019700088D200082DE9F047A6B00646542200217F
:101980000CA80AF060F800230693059304934FF027
:10199000FF330393B36803F1560A304606F079FF2C
:1019A000304606F008FFC8B1B36800279F61DF61C9
:1019B0001F625F629F62304606F082FEB168B1F836
:1019C00050205631304606F05FFB304607F039FBB9
:1019D0000897B8460CACB9463D465BE06C49706967
:1019E00006F03BFBE0E700286AD00346694A012184
:1019F000304606F0F1FF6FF00700A1E0206801F02B
:101A00007DFA00285FD0089B5BB1B468183407AD3D
:101A10000FCD0FC42B6823603046FFF70BFF01206A
:101A20008EE05D4A0121304606F0D6FF6FF00700D8
:101A300086E022682946304607F028FB022868D055
:101A4000032843D0069B013306934FF0010921E0A0
:101A500021AA2168384606F0DEFD054639E0069BDE
:101A600093B9B368DB6A23B1DB6813B14FF00108A7
:101A700048E04A4B00930C9B494A0121304606F04E
:101A8000ABFF4FF001083DE04FF001083AE0069B44
:101A900001330693049B012B3BD0069B132B38D8B4
:101AA000039B002B35D002235246214604A800F0A8
:101AB000F5FDD4F804A0049B002B63D0012B92D039
:101AC000069B002B9AD1069B002BB2D1B8F1000FD8
:101AD000BED00434039B013B0393002DBFD02A46A4
:101AE00049463046FFF72EFF00284ED0B16803ABC1
:101AF000019305AB009306AB07AA1831284606F000
:101B000035F92F46039B002BC1D1049B022BC1D179
:101B1000BDE7069B132B02D9049B022B13D0B9F10E
:101B2000000F19D117B17B7CFE2B20D0059907AB94
:101B30000CAA02EB81020698411A3046FFF79EFE7E
:101B400026B0BDE8F087174B174A0121304606F052
:101B500043FF6FF00700F3E7304607F0AAFAB268D8
:101B6000142356320CA906A800F098FDDAE7069B6C
:101B700026AA02EB830252F8682C002AD6D0013341
:101B80000693D3E76FF00700DAE76FF00700D7E7B7
:101B900050C50008B8D2000868D20008D4D20008A6
:101BA000CCD20008E8D2000874C90008F0B583B0B0
:101BB00004461D468068B0F85030FF2B49D00F46D0
:101BC0001646B0F8522000F1560100F5AB7009F04E
:101BD00012FFA368B3F852201344002283F8562161
:101BE000A268142302F5AB723168284600F056FD56
:101BF0002B68142B30D83268002142F82310A368D8
:101C0000B3F85220D2B1013A134493F85630144A33
:101C1000D35C03F008032C6894B113B9012C0FD0E6
:101C2000013C00200190099B0093089B32682146EB
:101C300006F014FD386048B101200BE00023EAE70C
:101C40000023089A13603B60012003E034B90120AF
:101C500000E0002003B0F0BD0020FBE70020F9E722
:101C600005E40008F8B504460E461F4672B3104658
:101C7000FEF71AFB85B2A26818323946304600F0EA
:101C800033FD066826B33046FEF70EFB80B2A8424D
:101C900020D1A268B2F85230134493F85630164956
:101CA000CB5C13F0080F21D1D2F8743213F0010F7E
:101CB00017D00021204606F065F92021204606F0C5
:101CC000D6FE0121204606F05DF9F8BD0025D2E7D9
:101CD0000020DCE7421B92B27119204606F0E3FEB9
:101CE000D7E72021204606F0C2FEEEE7012120467C
:101CF00006F07CFDE9E700BF05E400082DE9F041AE
:101D000082B0064649B30F46023294B2D0F808803A
:101D1000B8F83A50023D95FBF4F5ADB20846FEF72F
:101D2000C3FA80B2241AA4B2B8F840305A1CA8F8FA
:101D30004020B3FBF5F205FB12339BB293B9009739
:101D40000C4B0D4A0621304606F046FE2146304631
:101D500000F0FAFD02B0BDE8F08183680022A3F82C
:101D60004020F7E73B46054A0621304606F034FEA0
:101D7000ECE700BF0CD3000810D3000838D20008ED
:101D80002DE9F84F074689461D460A9EBDF82CB03E
:101D9000904652B11046FEF787FA1FFA80FA5A466B
:101DA00000213846FFF7AAFF08E04FF0000AF6E7E7
:101DB0005A4621683846FFF7A1FF013EA6B1BA682E
:101DC00018322946484600F08FFC04460135B8F128
:101DD000000FEDD000680028EAD05246414609F0D5
:101DE0005DFE0028E4D0E9E70449786906F035F99A
:101DF000384606F08EFEBDE8F88F00BF50C50008DB
:101E000010B50446013916290FD8DFE801F00C0F90
:101E10001226292C0E0E0E0E2F320E4C0E500E0EC8
:101E20000E0E540E610006F02BFD10BD06F03CFDB9
:101E3000FBE706F02EFD204606F0BDFC40B1012177
:101E4000204606F07FF802212046FFF7A7FCECE7CA
:101E50002349606906F001F9F1E706F028FEE4E79E
:101E600006F017FDE1E706F02AFDDEE706F034FD97
:101E7000DBE78368D3F8743213F0200F09D1A3682D
:101E8000D3F8743213F0200F08D1204606F041FE3B
:101E9000CBE71449406906F0E0F8F0E712496069C1
:101EA00006F0DBF8F1E7002106F0EAF9BDE70121D1
:101EB00006F0E6F9B9E706F0E3FC204605F038FF46
:101EC0000121204606F03EF82046FFF7A3FCACE7D0
:101ED00000F026FE0121204606F034F8A5E700BFF9
:101EE00050C500081CC4000824C4000870B586B0A2
:101EF0000446002305930CE1606803681D6905AB87
:101F000001220DF11301A847059B002B00F023814E
:101F10009DF813109DF91330002BC0F2FA80A268CF
:101F2000537D032B00F21981DFE813F004008A00CF
:101F30009C00EE00204605F043FFA8B99DF8131061
:101F40001B2927D81B2962D8DFE801F0E061616115
:101F5000616161614E3F61616161616161616161A6
:101F6000616161616161613BA568B5F850305BB941
:101F7000204606F080F87A49606906F06EF8022182
:101F80002046FFF70BFCC4E02046FFF7F3FCC5F842
:101F90002403F4E77F293AD1A368D3F8743213F00D
:101FA000020F00F0B3800121204605F0CBFFA368AB
:101FB000D3F8743213F0080F25D0204606F096FDB2
:101FC000A4E0A36801225A75A0E0A368D3F8743294
:101FD00013F0020F00F09A800121204605F0B2FFB5
:101FE000204606F0F5F891E0A368D3F8743213F0B8
:101FF000020F00F08B800121204605F0A3FF204650
:1020000006F074FD82E0204606F051FD7EE0554B5F
:102010005B5C13F0970F09D1A368D3F8743213F007
:10202000020F73D02046FFF7EBFE6FE00121204640
:1020300005F088FF9DF81310204606F018FD65E0B6
:102040005B2908D0D2F8743213F0020F06D1A368CE
:1020500000225A755AE00223537557E0204606F0D5
:1020600000F9F4E700235375A368D3F8742212F043
:10207000020F4ED031391B2948D8DFE801F0262C59
:1020800039204747474747474747474747470E1382
:10209000181C472247284747472E0121204606F0B3
:1020A000EFF833E00021204606F0EAF82EE0204663
:1020B00006F005FC2AE0204606F0F6FB26E00322A7
:1020C0005A75204606F0E5FB20E003225A752046AB
:1020D00006F0D6FB1AE003225A75A368D3F87412EF
:1020E00001F0010181F00101204605F04BFF0DE0F8
:1020F00003225A75A368D3F8743213F0020F05D087
:10210000204606F0D4FC01E000235375606906F018
:10211000E7F9A3689D6C002D3FF4EEAE606803689C
:102120001E6905AB10226946B047059B9BB1012192
:10213000204605F0E7FE059A69462046A84700219B
:10214000204605F0DFFEA3689B6C002BE1D1022145
:102150002046FFF723FB06B070BD00235375D5E77B
:1021600050C5000805E4000838B504468068037DC2
:10217000012B21D100F543704FF4FA72002303F0D4
:1021800077FA0546A8B90821204600F09FFC0C49C3
:10219000606905F062FF02212046FFF7FFFA204642
:1021A00006F0C9FCA06800F5437003F0E1FA284688
:1021B00038BD6FF00F05FAE76FF08505F7E700BF50
:1021C00050C5000838B504461546003918BF01212E
:1021D00005F058FEA368DD64606803689B68002111
:1021E000984700B138BD2046FFF7BEFFE0B1F9E7E0
:1021F000A06800F543704FF4FA72002303F038FA38
:102200000028EFD12B461B4A0121204606F0E4FBB3
:10221000A06800F5437003F0ABFAE3E79847A068C5
:1022200000F5437003F0A4FAA06800F52F704FF09A
:10223000FF324FF0FF33032104F042FE0546002831
:10224000D6D1A06800F543704FF0FF324FF0FF3356
:1022500003F00EFA084A0221204605F0D3FE074A91
:102260000021204605F0CEFE606803685B69002B04
:10227000D4D1D4E718D30008E91700083383000845
:1022800010B504460A4906F0BCF80A49204606F093
:10229000B8F80949204606F0B4F80849204606F087
:1022A000B0F8074A0021204606F069FC002010BD66
:1022B00030D3000870D30008D0D3000824D400081D
:1022C000C0D40008F8B5054617461E460A462449FC
:1022D00006F097F8002409E02249284606F091F814
:1022E0000BE02149284606F08CF801340F2C0CDC59
:1022F000002C02DD14F0070FEED0B442F1D23A5DAB
:102300001A49284606F07DF8EFE71949284606F0F5
:1023100078F8002409E01349284606F072F80BE02B
:102320001449284606F06DF801340F2C13DC002CFC
:1023300002DD14F0070FEED0B44207D23A5D0E4B27
:102340009B5C13F0970FEBD12E22E9E70549284655
:1023500006F057F8E8E70949284606F052F8F8BDB4
:10236000D8D40008E4D40008E8D40008E0D4000879
:10237000ECD400083CD5000805E40008F0D40008BF
:102380002DE9F0410646884617464FF44A7200216F
:10239000806809F058FB304605F05AFEB06800F539
:1023A000437008F02EFE002517E0B0682C0104F5FC
:1023B0001E742044043009F0F1FAB068031905EBEB
:1023C000850C4FEA8C0C0CF52E7C60440433002203
:1023D0000121043009F0ABFA0135032DE5DDB369C5
:1023E00000241C600121304605F06CFDB3685022CA
:1023F0005A87B36818221A873168304606F02EF8DB
:1024000064F38207B368C3F87472706803681C6869
:102410003346044A4146A04710B9B36801221A75F1
:10242000BDE8F0813780000870B588B00446806848
:10243000D0F8200310BB1D462046FFF7A1FF06463B
:1024400010B1304608B070BD606AA16A0022002356
:10245000CDE90623002304930E2303930C9B0293E0
:1024600001950094074B4FF4006208F084FEA368C6
:10247000C3F82003216A03F0A1FBE2E76FF07706BF
:10248000DFE700BFC521000810B5044613460A4621
:102490000146054801F058FB23691B7903B910BDBB
:1024A000204606F01DF8FAE7F984000870B50C46DE
:1024B000037873B12388C21812F8012C11498A5C81
:1024C00012F0080F06D0013B9BB22380002BF1D104
:1024D000037070BD0022C25413461D4601339BB2E7
:1024E0004119425D074EB25C12F0080FF5D1002D84
:1024F000EFD02288521B013209F08BFA23885B1B34
:102500002380E6E705E400082DE9F843074605685F
:1025100000269CE06C1C4DB12846FDF7C5FE82B23A
:102520002146284609F075FA254690E00022F7E793
:102530006E1C4DB12846FDF7B7FE82B231462846E3
:1025400009F067FA264682E00022F7E76C1C4DB1DD
:102550002846FDF7A9FE82B22146284609F059FA1D
:10256000002674E00022F7E76C1C2846FDF79CFE6D
:1025700082B22146284609F04CFA254667E04FF022
:1025800000080224042C0CD82B5DA3F13002D2B237
:10259000072A06D842EAC8025FFA82F80134E4B298
:1025A000F0E7022C6DD904F1FF39A94465B1284642
:1025B000FDF77AFE82B2023C121B4946284609F01A
:1025C00028FA05F8018B42E00022F4E7A3F161024A
:1025D000D2B2052A14D8573BDBB243EA08135FFA9C
:1025E00083F80134E4B2032C16D82B5DA3F130023A
:1025F000D2B2092AEAD842EA08125FFA82F8F0E772
:10260000A3F14102D2B2052A06D8373BDBB243EA36
:1026100008135FFA83F8E4E7022C17D904F1FF39B5
:10262000A94465B12846FDF73FFE82B2023C121B69
:102630004946284609F0EDF905F8018B07E000222C
:10264000F4E7154B1B5D13F0080F20D101352C78F2
:10265000ECB146B9272C3FF46BAF5C2C3FF45AAF7A
:10266000222C3FF465AFA6423FF470AF002EE8D0B5
:102670005C2CEBD16B789E423FF476AF302B3FF46D
:102680007EAF782BE2D14FF000080224ABE73D602B
:102690003046BDE8F88300BF05E4000870B582B09D
:1026A00004460E4601921D460020206007E0531CA0
:1026B00001930023137002E001A8FFF725FF019AA0
:1026C000117869B1074B5B5C13F0080FEFD12368F9
:1026D0005A1C2260019A46F823202368AB42EBD1B2
:1026E00002B070BD05E400088C46034688B110B501
:1026F0001446806820B3154B984214D3144B98426B
:1027000011D203681146604698472068C0B1204640
:1027100016E01049104A521ABCEB920F01D251F840
:102720002C30184670470D4B984202D30C4B984200
:1027300007D300680CEB8C0C00EB8C0003681BB11A
:1027400010BD0CF1010CF5E71846F9E714C40008B8
:1027500014C40008E0C2000810C3000810C3000839
:1027600014C40008002835D0F8B50646FDF79CFDD6
:1027700085B275B30024274606E00137BFB20132A7
:1027800092B20EE00134A4B2AC466B1E9C4220DA39
:102790002046335D104AD35C13F0080FF2D0621C60
:1027A00092B29542EED906EB020EB35C0A49CB5CBD
:1027B00013F0080FE1D1002FE4D00130ACEB02029E
:1027C00001327146304409F024F9EF1BBDB20027F5
:1027D000D8E7F8BD704700BF05E40008F0B583B046
:1027E000164603782D2B19D0044609F0FBF905464F
:1027F000104F0023C3510A4601A9204604F0C4FC2F
:10280000EB59222B10D023B9019BA34201D01B7896
:1028100043B16FF015033360002003E06FF0150340
:102820001360002003B0F0BD6FF02103336000207F
:10283000F8E700BF0C00000070B484460020064694
:1028400005E0002B0DDD15E00126013080B213FB01
:1028500000F411FA84F4A4B20CB9002B0ADB944200
:10286000EFD01CF80440044D2C5D14F0070FEBD1A1
:10287000002EEAD070BC704705E4000808B58368F4
:10288000D3F8743213F0200F00D108BD024940691B
:1028900005F024FFF9E700BF2CC4000808B58368E1
:1028A000D3F8743213F0200F00D108BD02494069FB
:1028B00005F014FFF9E700BF30C4000808B58368CD
:1028C000D3F8743213F0200F00D108BD02494069DB
:1028D00005F004FFF9E700BF38C40008082915D83F
:1028E00014D008B5836893F83F208A4207D083F854
:1028F0003F108368D3F8743213F0200F00D108BD65
:102900000A460349406905F0E9FEF8E7704700BF51
:102910002CD5000808B50A1E09DD4123002A0ADB70
:102920008168D1F8741211F0200F06D108BD002A79
:10293000FCD04223F2E75242F2E70249406905F037
:10294000CDFEF3E738D5000808B50A1E09DD43239C
:10295000002A0ADB8168D1F8741211F0200F06D129
:1029600008BD002AFCD04423F2E75242F2E70249B4
:10297000406905F0B3FEF3E738D5000810B504460A
:102980000A468368B3F85210481CA3F852000B445F
:1029900083F85620A368D3F8741211F0020F0DD0FB
:1029A000D3F8743213F0040F00D02A22064960696C
:1029B00005F094FE204605F0FEFE00B910BD034967
:1029C000606905F08BFEF9E73CD5000850C50008AA
:1029D00010B5044605F0EFFE18B9204605F08CFE50
:1029E00018B10249606905F079FE10BD50C50008B4
:1029F000F8B505468468B4F85020B4F8521004F1D4
:102A0000300005F0C2FDA78EE68E284605F074FE64
:102A100070B9B74211D0E18EA38EC91A2846FFF7CC
:102A200079FF218E638EC91A2846FFF78DFFF8BD06
:102A30000549686905F052FEEBE7218E638EC91ADD
:102A40002846FFF781FFF2E750C500082DE9F8435B
:102A50000546846814F1560006D0FDF725FC86B2C1
:102A600094F83C7000231BE00026F9E71C44224444
:102A700092F856904FF0000882F85680AA685033BA
:102A80001A4406320F49686905F028FEAB682344F2
:102A900083F85690AB685B8FDB1BF61A23464746DC
:102AA000AA68548FE41BB442E0DB002E01DCBDE8D1
:102AB000F88350331A4406320349686905F00EFE64
:102AC000F5E700BF74C9000838D20008082921D8EA
:102AD00008B5836893F83E208A4209D083F83E10F7
:102AE00008290CD08368D3F8743213F0200F00D17A
:102AF00008BD0A460849406905F0F0FDF8E783681B
:102B0000D3F8743213F0200FF2D00449406905F075
:102B1000E5FDEDE7704700BF40D500083CC4000864
:102B20008168B1F85020002A46D070B50546B1F84A
:102B30005230002B3FD04F330B44063301F1560C7B
:102B4000002402E00134A4B2013B634502D31978AA
:102B50002029F7D0634506D31978202903D0013402
:102B6000A4B2013BF6E75E1C611C121B19443046FF
:102B700008F04FFFAA68B2F850301B1BA2F8503083
:102B8000AB68B3F850201344002283F8562061420A
:102B900009B2284605F02AFE2846FFF76FFE3346A5
:102BA000064A0821284605F017FF2846FFF776FE5B
:102BB0002846FFF783FE70BD704700BF38D200087B
:102BC0002DE9F04704460E46904672B9D4F80890B5
:102BD000D9F8743213F0040F2AD0B9F852005030EB
:102BE00048440630FDF760FB07E0FFF757FEEDE7CE
:102BF0002F49606905F072FD2846451E0028F7D16F
:102C0000A368B3F85020A3F85220204605F074FDC5
:102C100038B1B8F1000F00D01EB12649606905F047
:102C20005DFD714209B2204605F0E0FDBDE8F08788
:102C3000B9F85070B9F1000F19D04846FDF734FBD0
:102C400083B21F44B9F852502B44B9F83A2093FB91
:102C5000F2F197FBF2F2914218D1503509EB0503DE
:102C60000633154A0821204605F0B6FEC8E70023C2
:102C7000E7E7A36805F1010A2B4493F856300F4AA1
:102C80000821204605F0A8FE55464B46BB42B7DA60
:102C900003F10109A268528F93FBF2F102FB113399
:102CA000002BE6D10349606905F018FDE1E700BF9C
:102CB000D8CA000850C5000838D200083CD5000822
:102CC00008B58368024A022105F086FE08BD00BFF0
:102CD00038D20008002977D02DE9F84380461746FE
:102CE0000E460BB9002404E01146FFF72DFEF9E76C
:102CF0000134335D354AD35C13F0080FF8D115E089
:102D0000002339E0D8F8140005F0EAFB2A4631190F
:102D1000404605F00CFE09F101042D49D8F81400D5
:102D200005F01FFF39464046FFF70EFE3046FDF71F
:102D3000BBFA83B21B1BD8F80820508FC51B9D42DD
:102D4000DED300259D4207D204EB050916F80920C1
:102D50000A2AD7D00135F5E73119D8F8140005F063
:102D600000FF1B49D8F8140005F0FBFEBDE8F8830E
:102D7000DA1990420CD90133E218B25C1349895C2C
:102D800011F0080FF4D00A2A01D01D46F0E71D46C5
:102D9000D8F8140005F0A4FB2A463119404605F086
:102DA000C6FD2C44335D094AD35C13F0080F01D0F3
:102DB0000134F7E70649D8F8140005F0D2FE394689
:102DC0004046FFF7C1FDB1E7704700BF05E40008CA
:102DD00050C50008F8B505460F4614461E46516812
:102DE00019B100233246FFF775FFA3687BB1314666
:102DF0002846FFF7A9FD3B46054A0821284605F06D
:102E0000EBFD0023F21DA1682846FFF763FFF8BD24
:102E10004CD50008002932D0F0B583B005461C46D9
:102E2000931D9EB20F460B780BB903B0F0BD019114
:102E30000092134B134A082105F0CEFD9CB1104BB4
:102E4000114A0821284605F0C7FD14F0030F03D1ED
:102E500022680E4B9A420BD0002332462146284668
:102E6000FFF738FFE1E70A49686905F07AFEDCE719
:102E70003346224639462846FFF7ACFFD5E7704770
:102E800080D5000858D5000860D50008C40BD2864C
:102E900050C50008F0B583B006460D460F68EFB187
:102EA0003846FDF701FA84B20334A4B2104B009304
:102EB0003B46104A0821304605F08EFD696831B165
:102EC00011F0030F03D10A680B4B9A4208D000237C
:102ED00022463046FFF7FEFE03B0F0BD0024E3E7D4
:102EE00023460A4629683046FFF774FFF4E700BF1F
:102EF0007CD5000868D50008C40BD28610B50446FE
:102F00000749FDF7BFF930B106492046FDF7BAF988
:102F100018B1002010BD0120FCE70120FAE700BF36
:102F200070D5000874D5000810B504468368D3F83E
:102F3000743213F0200F07D1A368D3F8743213F062
:102F4000200F06D1002010BD0449406905F056FE4F
:102F5000F2E70349606905F051FEF3E744C4000855
:102F60004CC4000808B58368D3F8743213F0200FFE
:102F700000D108BD0249406905F040FEF9E700BFF5
:102F800054C4000808B58368D3F8743213F0200FD6
:102F900000D108BD0249406905F030FEF9E700BFE5
:102FA00058C4000810B504468368D3F8743213F08F
:102FB000200F07D1A36850225A87A36818221A87C6
:102FC000002010BD0249406905F018FEF2E700BF7D
:102FD0005CC4000808B583691A68024905F011FA53
:102FE000002008BD84D5000870B582B006460B49A4
:102FF00005F007FA0A4C00220AE0551CADB2236A1C
:103000000093A3680749304605F0FBF92C342A46A3
:10301000054B9C42F1D3002002B070BD94D500084E
:10302000B4C20008ACD50008E0C2000800B583B007
:1030300002290DD08368D3F8743213F0020F11D037
:10304000094A0A4905F0DDF9002003B05DF804FBE8
:1030500053680093064B1268064905F0F0F96FF0CB
:103060001500F2E7044AECE7C0D50008ECD50008EB
:10307000C8D50008E0D50008C4D5000808B5024945
:1030800005F0ECF9002008BD5CCB000870B582B0FB
:103090000446002509E06E1CA36803F5AB732A46BD
:1030A0000B49204605F0ADF93546A2680DF106033F
:1030B00002F5AB720121E06805F0CDFEBDF80630E7
:1030C000002BE8D1A368002083F8560102B070BD40
:1030D00000D600082DE9F04383B004460E4615469D
:1030E00000278DF803700F80178080684FF480727E
:1030F000394600F5AB7008F0A6FC4849606905F058
:103100007DFD606905F0ECF9B846B8F57A7F15D316
:103110006FF073007BE04FF47A7007F005FF08F161
:1031200001081FFA88F8F0E7522B1DD0A2683A4434
:1031300082F856310137BFB2092F62D86068036840
:10314000D3F8109001AB01220DF10301C847019B98
:10315000002BE0D09DF803301B2BE5D0A26892F83D
:1031600056211B2AE0D0E9E7A3683B44002283F8FC
:103170005621A36893F857215B2A15D10222A36830
:10318000134493F856113B2914D02B8803EB830387
:103190005B009BB2013292B20B44303B2B80FF2A82
:1031A000EDD96FF0790032E0002283F856216FF0FC
:1031B00004002CE0013292B2FF2A2BD8A3681344FA
:1031C00093F8561171B1338803EB83035B009BB214
:1031D000013292B20B44303B3380FF2AEED96FF0BC
:1031E000790014E03388FA2B01D9FA2333802B8835
:1031F000FA2B01D9FA232B80A368002083F856010B
:1032000005E0A368002283F856216FF00B0003B09D
:10321000BDE8F0836FF00400F9E700BF4CD600086A
:1032200010B582B00446012904D105F0ABFD58B9B0
:1032300002B010BD536800930A4B12680A4905F0AA
:10324000FEF86FF01500F3E7A36850225A87A368D1
:1032500018221A870549204605F0E2F86FF00700AA
:10326000E6E700BFC8D50008E0D500080CD6000886
:1032700010B5044605F024F902460349204605F03E
:10328000C0F8002010BD00BF48D600082DE9F04767
:1032900086B081460F4616464FF00008414602258B
:1032A0000DE033461C4A0321484605F095FBB8F172
:1032B000000F27D1284606B0BDE8F08721464C1CF8
:1032C00001AA3846FFF710FA82460028EFD0002204
:1032D000DAF80010304606F02BFA0028EED1D9F8C3
:1032E00008003346DAF8002000F1540100F5AB7015
:1032F00005F05DFE05460128D3D00028D7D108F19E
:103300000108DBE7D9F80800324600F1540100F566
:10331000AB7005F056F9CDE718DE000830BFFFF7B7
:10332000FDBF00BF38B50446054D2A46054908F0E3
:1033300062FB054A0021601908F085FB38BD00BF1B
:103340000000000014C400080800000070B5064624
:10335000064D074B1D444C1B2046FFF7E3FF083C7E
:10336000C6F8B84005F1080070BD00BF00000000BD
:1033700008000000054BDA699B689A4204D0044AB1
:10338000536843F080535360704700BFA807002084
:1033900000ED00E038B51546204B9B6A13F4805FC2
:1033A00019D116241D4B9B6A13F4006F00D018240A
:1033B0001A4B9B6A13F4007F10D0184B9A6B9B6AD0
:1033C00013F4004F09D0D9B1144A936A23F400438F
:1033D0009362192402E01724E4E719240F4B9B6A37
:1033E00013F4806F00D01A240C4B9B6A13F4807F77
:1033F00008D10A4B9B6A13F4005F04D01C2402E03E
:103400001924EBE71B24054A936A43F47F43936234
:10341000012105F073FE2870204638BD00ED00E064
:10342000174B9B6A13F0007F25D11D20144B9B6A1C
:1034300013F0807F00D01F20114B9B6A13F4002FE4
:1034400000D021200E4B9B6A13F4802F00D0222045
:103450000B4B9B6A13F4003F00D02320084B9B6A60
:1034600013F4803F09D1064A936A6FEA03436FEA77
:103470001343936270471E20D8E72420F3E700BF70
:1034800000ED00E081690D4B5A6942F480725A6187
:10349000BFF34F8FBFF36F8F31F8021C5A6922F4CC
:1034A00080725A61BFF34F8FBFF36F8F4DF6027377
:1034B000994201D0002070470120704700ED00E0E4
:1034C00070B504461646324B9B6A13F0100F1AD1A2
:1034D00010252F4B9B6A13F0080F00D012252C4BA0
:1034E0009B6A13F0020F10D0294B586B9B6A13F0A4
:1034F000800F3DD000293FD0254A936A23F08003F6
:103500009362132503E01125E3E76FF01500204BCC
:103510009B6A13F0010F00D014251D4B9B6A13F01A
:10352000200F00D015251A4B9B6A13F0100F04D101
:10353000174B9B6A13F0020F04D0154B5B6813F412
:10354000006F1BD1124B9B6A13F0200F04D0104A5E
:10355000536A23F4005353620D4A936A43F0FF0306
:1035600093620121204605F0C9FD3070284670BDE8
:103570006FF015001325CAE71325C8E7214600F0B0
:10358000A5F90028DED080F309880225DAE700BF1C
:1035900000ED00E038B5054600230B701A4BD86AE1
:1035A00010F002002DD10C46DB6A002B2ADB164BF3
:1035B000D86A10F0804025D02846FFF763FF08B195
:1035C00028681FE0104B9B6A13F0FF0F0DD10E4BC4
:1035D000986A10F47F400ED10B4B9B6AB3F5803F85
:1035E00010D32846FFF71CFF0CE022460121284695
:1035F000FFF766FF06E0224601212846FFF7CAFED4
:1036000000E0002038BD00BF00ED00E030B58BB019
:103610000C46264B5968C1F30801002383F3118837
:10362000BFF36F8F02F07F43B3F17F4F15D102F0EC
:103630000C03082B14D012F0080F0BD000250DF14D
:103640002702204605F05FFD86469DF8273053B1DE
:103650000BB030BD04460125F1E700252C46EEE70E
:1036600000252C46EBE70DF1040C20686168A26888
:10367000E368ACE80F0020696169A269E369ACE81E
:103680000F0045B1C3F308025AB96FEA53236FEA3A
:103690004323089305E0089B23F4FF7323F0010301
:1036A000089301A9704605F014FDD1E700ED00E094
:1036B000044B5A6942F010025A615A6922F008021A
:1036C0005A61704700ED00E0EFF30880EFF30981E5
:1036D00001B57246FFF79AFF01BD00BF0E4880F3A7
:1036E0000888102080F311880C484FF0AA014FF48D
:1036F000046207F05BFC09484FF40461401880F352
:103700000988EFF314800221084380F31488BFF383
:103710006F8F00F09DF8000000450020403700202A
:1037200008B50A4B9B68834202D002F0D5FF08BD62
:10373000EFF30583002BF8D0054B5A6842F0805216
:103740005A605A6A22F400425A62EEE7A807002043
:1037500000ED00E001B507F04AFDBDE80140184961
:103760008A684FF040001044EFF3098C80E8F01FA6
:10377000102080F31288BFF36F8F124F4FF0006656
:10378000CA698A603E60D2F8B8000F4C2060D2F857
:10379000BC000023C2F8BC3080F3118804B5104689
:1037A00000F01AF9BDE8044002F1400090E8F01F73
:1037B0008CF3098801B502F0BBFABDE801407047FF
:1037C000A807002004ED00E0400D00201EF0040FCB
:1037D0000CBFEFF30880EFF30980816911F8021C38
:1037E0000229FFD001B5724605F07CFC01BD00BF87
:1037F000002807DB00F01F02400901239340024A22
:1038000042F82030704700BF00E100E0002808DBEC
:103810000901C9B200F1604000F5614080F8001371
:10382000704700F00F000901C9B2014B19547047ED
:1038300014ED00E0044B23F07F03044A9360BFF3D0
:103840004F8FBFF36F8F70470000000800ED00E05E
:1038500008B5FFF7EFFF0B4AD2F8883023F4700366
:10386000C2F88830EFF3148323F0040383F3148841
:10387000BFF36F8F01F050FE03F0DEF800F074F834
:1038800001F0B8FE00ED00E010B4A2F120040E49F2
:1038900042F8081C21F0010142F8081C42F8203CC3
:1038A000019B42F81C3C029B42F8183C039B42F8E7
:1038B000143C4FF0807342F8043C04660023C0F8C7
:1038C000BC3010BC704700BF9D0A0008104B9B68BD
:1038D000BBB110F1160F0BD0D3F8A820A2F1400C09
:1038E000844510D8824210D98A4207D800207047F8
:1038F000D3F8A8208A4201D800207047D3F8A80046
:10390000704700207047002070470020704700BFBC
:10391000A807002008B504460E4615460B4B9860D4
:10392000D0F8B8200A4B1A6002F002FA204600F0E4
:1039300053F82C4686F309880020064B984720460A
:10394000002100220023044C204700BFA8070020CC
:10395000400D00206F9100089D0A0008014B1022C5
:103960001A61704700ED00E0002207E003F16043B8
:1039700003F56143102183F8001301325A2A09DC50
:1039800053B2002BF2DA03F00F030349194410235A
:103990000B76F2E7704700BFFCEC00E008B5EFF3F0
:1039A0000583103B044A02EBC301496852F8330017
:1039B0008847FFF7DFFC08BD80BE000808B5034B51
:1039C000034A0121034805F016FD08BD000003204D
:1039D000000000206CDE000808B5D0F8A830403B9D
:1039E0000448036040234360034B8360012105F0DA
:1039F00006FD08BD440D002000000B15084AC2F862
:103A000098000B6823F01F03034343F01003C2F830
:103A10009C308B6843F00103C2F8A030704700BFB0
:103A200000ED00E0084BD3F89030C3F30723013BCF
:103A3000984205D810B50446FFF7E0FF204610BDB8
:103A40006FF01500704700BF00ED00E010B5034CAB
:103A50000123227805F0CFFB207010BDE721002064
:103A600008B500230B4A127805F0C5FB10F1160FBC
:103A70000FD0024606E0084BC3F898200021C3F897
:103A8000A0100132044BD3F89030C3F307239342C4
:103A9000F1DC08BDE721002000ED00E0044B052229
:103AA000C3F89420BFF34F8FBFF36F8F704700BFF1
:103AB00000ED00E0BFF35F8F024B0022C3F89420BB
:103AC000704700BF00ED00E038B51C4B1D681C4B73
:103AD000D3F89030C3F307239D422BD8FFF7EAFFBA
:103AE000002409E0154B5B6804EB440103EB810102
:103AF0002046FFF783FF0134A542F3D81148057033
:103B000005F0A1FB10F1160F13D00E4B1A780C4BD9
:103B1000D3F89030C3F307239A4207DA084BC3F86F
:103B200098200021C3F8A0100132F0E7FFF7B6FF9C
:103B3000002038BD4FF0FF30FBE700BF78DE000803
:103B400000ED00E0E721002030B587B00D461146BA
:103B50000024009401940294039404940594022296
:103B60008DF80220044A0192049005951A46684691
:103B700003F070FB07B030BD0794000808B5024B96
:103B80001B689847002008BD500D0020034B1860AB
:103B9000034A937843F0020393707047500D00205E
:103BA0003800002008B5064921F00701C1F1005294
:103BB00002F54032034803F03CFE002008BD00BF80
:103BC000874B0020540D002011F0080F0AD008B5D3
:103BD000054B1B5C03F00303012B00D008BD07F06D
:103BE0003AFFFBE7704700BF05E4000808B500F0A6
:103BF000D3F801220260426000238360C360036146
:103C00000649416106490A6006490A60064A13608E
:103C1000064A1360064A136008BD00BF5CCB00086B
:103C20006400002060000020680D0020640D00206A
:103C3000600D00202DE9F04106460F46154600F0C4
:103C4000ABF80446C3681BB943691A78002A54D1FB
:103C50000023E360616857F821306361B14231DAD3
:103C60005A1C62611A782D2A2CD19A1C62615A78EA
:103C7000A2602D2A2ED04AB9394B63612D212846E6
:103C800007F0FFFE002832D02D23A360D4F808806F
:103C90004146284607F0F5FEB8F13A0F32D0002829
:103CA00030D043783A2B38D00023236163691B78E6
:103CB00013B9636801336360204600F053F8A068CD
:103CC000BDE8F081264B6361204600F04BF84FF0D1
:103CD000FF30F5E79B78002BCDD101316160204B9F
:103CE0006361204600F03EF84FF0FF30E8E72046E1
:103CF00000F038F84FF0FF30E2E75A1C42611B78C1
:103D00008360C3E763691B7813B963680133636039
:103D1000204600F027F83F20D2E763691A7832B1D5
:103D200023610F4B6361636801336360C4E76368B9
:103D300001336360B34203DA57F823302361F0E7BD
:103D4000074B63612B783A2B04D0204600F00AF829
:103D50003F20B5E7204600F005F83A20B0E700BF65
:103D60005CCB00080268074B1A604268064B1A6079
:103D70008268064B1A60C268054B1A600269054BDF
:103D80001A6070476400002060000020680D002069
:103D9000640D0020600D002000487047480000209E
:103DA00070B50546002401E00134E4B26B78A3420B
:103DB00015D32B782344DAB201209040084A526987
:103DC00030EA0202F0D1064A5061064A52F83360E6
:103DD000002EE9D002EBC3035968B047E4E770BD99
:103DE000003C01406C0D002000B583B0002300931F
:103DF0000193BDF80030442262F30B03ADF80030AC
:103E00004FF480430193064B9B681B682BB16946B6
:103E10000348984703B05DF804FB6FF05700F9E7DB
:103E20004CBC0008002399420ADD10B400EB030CDF
:103E3000044C04F80C2001339942F7DC10BC7047A5
:103E4000704700BF680000205FFA81FC0CF102029D
:103E50000A4B53F822200B0C22EA114193FAA3F3E8
:103E60004BB1B3FA83F3984001430CF1020C034ABF
:103E700042F82C1070472023F5E700BF00380140BE
:103E8000C3B20233074A52F82320030C02EA10405F
:103E900093FAA3F31BB1B3FA83F3D84070472023FE
:103EA000FBE700BF0038014008B5034668B1B0FA2F
:103EB00080F2C2F11F02D2B205498856054A116844
:103EC0000B43136005F042F908BDFF22F4E700BF81
:103ED00068000020003C0140024A136823EA000306
:103EE00013607047003C0140032926D8DFE801F049
:103EF000020C151E114B9A6822EA00029A60DA68D9
:103F000022EA0002DA6070470C4B9A6802439A601A
:103F1000DA6822EA0002DA607047084BDA68024386
:103F2000DA609A6822EA00029A607047034B9A6846
:103F300002439A60DA681043D8607047003C014041
:103F400010B498B1B0FA80F3C3F11F03DBB29C4602
:103F50000D4850F8330088420AD088B90A4B43F81C
:103F60003C1003EBCC035A6010BC7047FF23EEE714
:103F7000054C04EBC3035B689342EED10020F3E7EA
:103F80006FF00F00F0E700BF6C0D002060B1B0FAD9
:103F900080F3C3F11F03DBB2044A002142F833105F
:103FA00002EBC30251607047FF23F5E76C0D002060
:103FB00020F08003052B0BDC10F0800F06D1054BA1
:103FC00020F080002C2202FB00307047024BF7E704
:103FD00000207047D4120020DC13002008B50248EE
:103FE00006F065FB08BD00BFEC0D002008B50146DA
:103FF000134610F0800F05D1B2F5007F05D94FF4BC
:10400000007302E080280DD17AB921F0800C4FEACC
:104010004C2C0CF5DF6C084800EB0C0206F0FFFAA4
:1040200030B908BD6FF01500FBE76FF01500F8E739
:104030006FF00400F5E700BFEC0D002010F0800FDA
:1040400009D110B50C4649B10146064806F00CFBF3
:104050002060002010BD6FF0150070476FF0150054
:10406000F8E700BFEC0D002010B5124C00234022F1
:104070008021204606F08DFA002340221946204672
:1040800006F087FA00240AE02C2004FB00F000F57B
:10409000C060084B1844043001F0C0FB0134052C0B
:1040A000F2DD044BD3F8E43413B10021012098472A
:1040B00010BD00BFEC0D002008B5044BD3F8E4346C
:1040C00013B100210220984708BD00BFEC0D00206D
:1040D00008B5044BD3F8E43413B100210420984709
:1040E00008BD00BFEC0D002008B5044BD3F8E43444
:1040F00013B100210520984708BD00BFEC0D00203A
:1041000008B5044BD3F8E43413B1002106209847D6
:1041100008BD00BFEC0D002008B50020FFF748FFE8
:1041200003460822C260002202610C4AA2F5177100
:1041300003C982E803009B6853B1002108469847F1
:10414000074BB3F8A2241AB193F99C34002B00DA80
:1041500008BD02490020FFF749FFF9E7E4140020F9
:10416000EC0D00200C4B1B6813F0020F09D10A4A1A
:10417000136843F001031360074B1B6813F0020F31
:10418000FAD0054A936823F003039360024B9B68BF
:1041900013F00C0FFAD17047003802400C4B1A682C
:1041A00022F480221A601A6842F480321A60084BA6
:1041B0001B6813F4003FFAD0054A536F43F0010324
:1041C0005367034B5B6F13F0020FFAD0704700BFC9
:1041D00000380240F8B50C461546404B1E680421D5
:1041E000304605F046FB07460221304605F041FB0C
:1041F0002388C3F30B021346442A29D812B2002A9B
:1042000064D0013B432B64D8DFE803F03D53565A9A
:104210005D3F4963636363636363636363636363B2
:10422000636363636363636363636363636363635E
:1042300063636363636363636363632963636329C2
:104240006363633763636363636363396363633BBC
:10425000A82A01D12E6003E06FF085003BE02E60BC
:104260002368B3F5805F37D32A68C3F31333013370
:10427000B2FBF3F22A6000202DE02E60F0E72F6001
:10428000EEE72860ECE72E60EAE700F0ABF80223E7
:104290004FF4A872082105F0E5FA2860E0E700F085
:1042A000A1F807234FF4A872082105F0DBFA286073
:1042B000D6E700232B60D3E74FF4FA432B60CFE718
:1042C00000232B60CCE7064B2B60C9E76FF085001D
:1042D00001E06FF08500F8BD0020FCE790000020B1
:1042E00000127A0010B5174B9B6803F00C03082BE3
:1042F00020D0144A136823F080731360114B1B689D
:1043000013F0007FFAD10F4C636823F440336360ED
:10431000636823F0706343F0E063636000F066F865
:10432000236843F080732360064B1B6813F0007F03
:10433000FAD010BDFFF716FF024A936823F0F0038E
:104340009360D6E70038024038B500F071F8214C90
:10435000204605F021FB00F04FFC1F4B9B68C3F388
:1043600003131E4AD35C20FA03F513781C41A542BF
:1043700028D3FFF713FFFFF7B5FF174A936823F021
:10438000F0039360936823F0030343F00203936008
:10439000114B9B6803F00C03082BF9D1A54215D2F1
:1043A0000F4B0C4A1A600C4A936823F4E05343F411
:1043B000A0539360936823F4604343F400439360F5
:1043C000002038BD204600F0FDFED2E7204600F078
:1043D000F9FEE5E7007A030A0038024064E20008CB
:1043E000900000200048704700127A0008B505F0E0
:1043F000D4FA0B4B59680B4A0A4040F4A84141F0EB
:1044000008010A435A605A6822F440325A605968D7
:10441000054A0A40054901430A435A6008BD00BFE6
:10442000003802400080BFFF0080BFF00854000742
:1044300082B0064B1A6C42F080521A641B6C03F077
:1044400080530193019B02B0704700BF00380240C7
:1044500010B504460A2806D0E1B2064883685B68B6
:104460009847204610BD034883685B680D21984734
:10447000F2E700BF44BE000810B5044C2046FFF729
:1044800085FB2046FCF7EEFA10BD00BF5144000842
:1044900008B5054806F058FD18B1FFF7EDFF0020FC
:1044A00008BD6FF01200FBE744BE000808B5436882
:1044B00041B103F10C010B4B9B681B685BB10948D0
:1044C000984708BD03F10C01064B9B685B682BB154
:1044D00004489847F5E76FF05700F2E76FF0570090
:1044E000EFE700BF4CBC00082DE9F8430F46164625
:1044F0001C46D0F80480D0F81090D8F8080005F0D9
:1045000066F9B6F5001F0FD00546B6F5800F2DD021
:10451000B4F1806F26D0B4F1C06F25D0B4F1007F24
:1045200009D06FF015041AE03946D8F8080005F0F4
:104530005DFC002413E002264A460F492846FFF797
:10454000FFFC0446A8B9D8F80810384605F042F92F
:1045500031462846FFF7C8FC2846FFF7A5FC204651
:10456000BDE8F8830126E7E70326E5E76FF0850459
:10457000F5E76FF00F04F2E7899A000810B50446DA
:1045800003695860054806F0DFFC20B10449204665
:1045900005F029FA10BD6FF01200FBE74CBC0008D3
:1045A0008F9B0008B0F5887F17D2F8B504460D46FA
:1045B000164603090A4A52F823705FB1384606F0DE
:1045C000C3FC38B133462A4604F00F01384605F0E3
:1045D00025FCF8BD6FF01200FBE76FF01500704787
:1045E00080E1000810B50446B2F5004F2FD04FF01F
:1045F000000C48184CEB0C0C40184CF1000C4FEA26
:10460000CC0C4CEA507CC00040184FEA83024FEAC1
:1046100093734CF10001FBF71BFE2449A1FB00231F
:104620005B091A0192B24FF0640C0CFB13031B01DF
:104630003233A1FB0313C3F34F1303F0F0010A4419
:1046400092B203F00F0313449BB2A36010BD4FF06E
:10465000000C48184CEB0C02401842F10002D2004A
:1046600042EA5072C000401842F10001DA184CEBE7
:104670000C03FBF7EDFD0D49A1FB00235B091A01BB
:1046800092B24FF0640C0CFB1303DB003233A1FB3E
:104690000313C3F34F13590001F4F8710A4492B2A3
:1046A00003F0070313449BB2A360CFE71F85EB51D0
:1046B0002DE9F0410C4643681D6803695E680B797B
:1046C000012B58D0022B59D14FF480676279012A0F
:1046D00059D0022A59D0002A52D04FF4005194F8F0
:1046E00006E0BEF1040F53D0002B54D14FF0000868
:1046F000A3F1030C5FFA8CFCBCF1010F5BD913B181
:10470000BEF1040F5AD0B1F5805F49D0B1F5405FDA
:1047100048D0002942D003239A4252D1B8F1000F69
:1047200042D1002F45D103239E454DD1E37983B17A
:10473000012B4CD1294B9D420BD0A3F54C439D42FC
:1047400007D003F580639D4203D003F54C439D429F
:1047500040D1EB6823F40053EB60214605F01EFCCA
:10476000EB6843F40053EB6094E8030086E8030031
:104770000020BDE8F0814FF4C067A7E70027A5E758
:104780004FF48051ABE70021A9E74FF44051A6E771
:104790004FF48058ACE74FF48058A9E70123BBE7FA
:1047A0000023B9E70223B7E70FB90423BCE70323CB
:1047B000BAE70223B8E76FF08500DAE76FF085000B
:1047C000D7E76FF08500D4E76FF08500D1E76FF091
:1047D0008500CEE76FF08500CBE700BF00100140F9
:1047E00008B5024A05F0AEFC08BD00BFB3A1000841
:1047F00008B5024A05F0C0FC08BD00BFB9A1000819
:1048000010B543681B68DC68DB6814F4805F03D173
:10481000054B05F020FD10BD03F4C063002BF7D15C
:104820006FF08500F7E700BFA9A2000810B5436844
:104830001B68DC68DB6814F4805F03D1054B05F06E
:1048400036FD10BD03F4C063002BF7D16FF0850077
:10485000F7E700BFF7A2000843681A6802F11403E3
:1048600053E8003F43F0010302F1140040E8003137
:104870000029F3D1174B9A421BD0A3F54C439A421F
:1048800017D003F580639A4213D003F580639A42F0
:104890000FD003F580639A420BD003F544439A424C
:1048A00007D0A3F51C439A4203D003F580639A42D4
:1048B00003D1136943F04003136102F10C0353E881
:1048C000003F43F4807302F10C0040E800310029FE
:1048D000F3D170470010014043681A6802F11403D5
:1048E00053E8003F23F0010302F1140040E80031D7
:1048F0000029F3D1174B9A421BD0A3F54C439A429F
:1049000017D003F580639A4213D003F580639A426F
:104910000FD003F580639A420BD003F544439A42CB
:1049200007D0A3F51C439A4203D003F580639A4253
:1049300003D1136923F04003136102F10C0353E820
:10494000003F23F4807302F10C0040E8003100299D
:10495000F3D170470010014038B545680469094833
:10496000206006F0F1FA48B12068E96883681B68A6
:104970000BB1984738BD6FF05700FBE76FF012009E
:10498000F8E700BF4CBC00084FF0E02399691869B4
:104990009A6909B90C4B19680AB90B4B1A6810F4DB
:1049A000803F01D1914208D208490B68064800684F
:1049B00003440B604FF0E0231B69034B1B689B1AF9
:1049C000024A106818447047C4210020C02100200A
:1049D0000A4B102283F82320094B44F2A0121A60DC
:1049E0000020084B18604FF0E02344F29F125A61F8
:1049F00098611A6942F007021A61704700ED00E001
:104A0000C4210020C0210020684620F007018D4607
:104A100019B5FFF7B9FF12480368124A51681468C4
:104A20001B1941F1000113605160002202600E4920
:104A30000A68981A0D4BA3FB0030800B44F2A013B8
:104A400000FB03F3D2184B6843F100030A604B608C
:104A500002F0D4F8FEF78EFCBDE819408546704799
:104A6000C021002010060020080600202D34A9F9DE
:104A7000F8B500294BD0B0F1FF3F3DD03E4B1C684C
:104A800001284CDD40F2E6339842A8BF1846461E86
:104A9000EFF31185102383F31288BFF36F8FFFF7B5
:104AA00073FF4FF0E0239F69344A13685168C318BD
:104AB00041F10001136051600021314A1160314A17
:104AC00011685A1A2DD444F2A01000FB062202F5F8
:104AD00083421F322C4EA6FB0262920BC91A00FBC6
:104AE000021140F21A438B4238BF0B46274A9142CB
:104AF00035D9214B1A6018E04FF0E022136923F0FA
:104B0000010313611C4B4FF07F421A6026E01A4BE1
:104B10001C68B0F1FF3FB3D140F2E530B2E70026A8
:104B2000B6E7154B40F21A421A604FF0E02399693C
:104B3000114A1268013A5A6100229A618F4211D2D9
:104B4000641A3C440D4A136851681B1941F1000175
:104B50001360516085F31188BFF36F8FF8BD064A6B
:104B60001360E2E77F1A054A13685168DB1941F1C7
:104B7000000113605160EDE7C42100201006002001
:104B8000C0210020080600202D34A9F92094FF0040
:104B900038B5EFF31185102383F31288BFF36F8FBD
:104BA000084B1C68084B1B68E41AFFF7EDFE204415
:104BB00085F31188BFF36F8F044BA3FB0030800B8C
:104BC00038BD00BF10060020080600202D34A9F9CA
:104BD00038B5EFF31185102383F31288BFF36F8F7D
:104BE000044B1C68FFF7D0FE204485F31188BFF307
:104BF0006F8F38BD1006002008B5334B9B6803F05B
:104C00000C03042B5BD0082B5BD12F4B5A6802F0AE
:104C10003F025B6813F4800F2CD02B4B5868C0F315
:104C200088104FEA401CBCEB000C6EEB0E0E4FEAF6
:104C30008E1343EA9C634FEA8C11B1EB0C0163EBDA
:104C40000E03DB0043EA5173C90011EB000C43F182
:104C50000003590200234FEA4C2041EADC51FBF7E4
:104C6000F7FA194B5B68C3F3014301335B00B0FBF8
:104C7000F3F027E0144B5868C0F388104FEA401C4B
:104C8000BCEB000C6EEB0E0E4FEA8E1343EA9C63F6
:104C90004FEA8C11B1EB0C0163EB0E03DB0043EA2E
:104CA0005173C90011EB000C43F10003990200237A
:104CB0004FEA8C2041EA9C51FBF7CAFAD1E703483E
:104CC00000E0034808BD00BF0038024000127A002F
:104CD0000024F400014B1868704700BF90000020CA
:104CE00070B504460D460068066C00EB411303F5F1
:104CF00030639A68A179012911D038498E4256D083
:104D00003DB905EBC50304EB8303D3F86432002BF4
:104D10005ED0E9B2204604F078FD002070BD12F0AC
:104D2000080F09D02E498E42F7D912F4004FF4D063
:104D30004FF400429A60F0E712F0200F02D02022D8
:104D40009A60EAE712F0280FE7D125498E4206D98A
:104D500012F4004F03D04FF400429A60DDE705EBF8
:104D6000C50204EB8202D2F874121B69C3F312036A
:104D7000CB1AC2F868327DB905EBC50204EB82029A
:104D8000D2F864226AB105EBC50204EB8202D2F8C4
:104D900060121944C2F86012E9B2204604F035FDF1
:104DA000BBE704F29C42012100F0DEF9F4E712F4C3
:104DB000004F03D04FF400429A60AEE712F0200F8C
:104DC00001D020229A60E9B2204604F01EFDA4E73B
:104DD00004F29C42002100F0C7F99AE70A31544FCF
:104DE0000A30544F38B5044603681D6C03EB411379
:104DF000D3F8081B0E4A954207D903F5306311F426
:104E0000004F02D04FF400429A602046FFF784F929
:104E1000074B9D4202D9A379012B01D0002038BD58
:104E200004F29C420121206800F09EF9F6E700BFE1
:104E30000A30544F022A0AD00922C36823F470535F
:104E4000C360C36843EA8223C36000207047234BDA
:104E50000B44234A93422FD9224B0B44224A9342BC
:104E60002CD9A1F57403A3F51053204A934227D9F6
:104E7000A1F18373A3F5E7431D4A934222D31D4B4F
:104E80000B441D4A93421FD91C4B0B441C4A9342AE
:104E90001CD31C4B0B441C4A934219D3A1F1B7738A
:104EA000A3F55853194A934214D3194B0B44194A8A
:104EB000934211D20722C0E70F22BEE70E22BCE7C1
:104EC0000D22BAE70C22B8E70B22B6E70A22B4E7B4
:104ED0000922B2E70822B0E70622AEE7405327FFD7
:104EE000FF340C00401E1BFF3F420F007F4F12009B
:104EF00020D6130060B6E5FE5FE3160000D3CEFEB9
:104F000040771B00C05BB3FEC091210020753800C4
:104F1000E05459FEE09C4100F0B583B00C784B782A
:104F2000012B2FD000EB441C0CF530631D69ED0CF8
:104F3000ED041D611D6925F0FF5525F4C0151D61A7
:104F4000002C40F0D2800C690CB18C680C618C682C
:104F50000C621D69C4F312042C431C611C6944F4E7
:104F600000241C61012A00F0E3800B79012B00F082
:104F7000E580DCF8003B43F00443CCF8003B002024
:104F800003B0F0BD0B6983BB00EB4413D3F8105999
:104F900025F0FF5525F4C015C3F81059D3F8105962
:104FA00045F40025C3F81059D3F81059ED0CED0461
:104FB000C3F81059012A56D000EB4414D4F8003934
:104FC00043F00443C4F800390B79012B74D00B690A
:104FD000002BD4D0D0F83438097801F00F01012229
:104FE0008A401343C0F83438C9E700EB441303F593
:104FF00010631D69ED0CED041D611D6925F0FF5561
:1050000025F4C0151D6184B90E698D68AE4200D9C2
:105010000D611D6945F400251D611D690E69C6F30A
:10502000120C45EA0C051D61C4E70D698E68354414
:10503000013DB5FBF6F51E691FFA85FC494F07EAED
:10504000C54535431D610D79012DE6D11D6925F05A
:10505000C0451D611D694FEA4C7C0CF0C04C45EA0F
:105060000C051D61D9E7CB691BB100EB4412C2F8F6
:1050700014390B79012B08D000EB4414D4F8003913
:1050800043F00443C4F8003979E7D0F8083813F442
:10509000807F08D100EB4412D2F8003943F000536E
:1050A000C2F80039E8E700EB4412D2F8003943F0C7
:1050B0008053C2F80039DFE7D0F8083813F4807F56
:1050C0000CD1D4F8003943F00053C4F800390092F1
:1050D0000B8A0A78C96805F0AAFE50E7D4F80039AF
:1050E00043F08053C4F80039F1E70C6954B91C69E6
:1050F0008D68C5F312052C431C611C6944F400241F
:105100001C612FE78D682C44013CB4FBF5F4A4B27C
:1051100004FB05F50D621D69124E06EAC4442C43DA
:105120001C611C690D6AC5F312052C431C6119E74B
:10513000CA68002A3FF419AF5A6116E7D0F8083858
:1051400013F4807F06D1DCF8003B43F00053CCF829
:10515000003B0EE7DCF8003B43F08053CCF8003B0B
:1051600007E700BF0000F81F10B4046C144B9C420A
:1051700003D9D0F8003B002B16DB0024C0F8104BFD
:10518000D0F8104B44F40024C0F8104BD0F8104B6A
:1051900044F01804C0F8104BD0F8104B44F0C04451
:1051A000C0F8104B012902D0002010BC7047C0F895
:1051B000142BD0F8003B43F08023C0F8003BF3E70A
:1051C0000A30544F034600287DD0414A126802F449
:1051D0004042B2F5404F22D000223D49096801F417
:1051E0004041B1F5004F3DD03949096801F44041D3
:1051F000B1F5804F55D037490B6823F00F031343A7
:105200000B600221334B1B6803F00F0301399A42F4
:1052100001D00029F6D19A4257D00120704702F1FF
:105220000F6202F58C52904204D82B4A904213D957
:10523000002200E005228AB128498B4201D902B937
:10524000032227498B4200D952B126498B42C4D947
:10525000002AC2D10122C0E70022EDE70422EBE7D9
:105260000222BAE701F10F6101F5A3418B4201D996
:1052700002B9052218498B4201D902B90422174903
:105280008B4201D902B9032215498B4200D932B1B0
:1052900014498B42A8D9002AA6D10122A4E70222F0
:1052A000A2E70E498B4201D902B903220C498B4275
:1052B00000D932B10B498B429DD9002A9BD10122E2
:1052C00099E7022297E7012070470020704700BF4E
:1052D00000700040003C0240000E2707804A5D0538
:1052E0000087930380C3C901034B00E02433034AC2
:1052F0009342FBD3704700BF4CBC000868BE000857
:10530000044B03600448C01A044BA3FB0030C008E0
:10531000704700BF4CBC000868BE0008398EE338F7
:1053200038B50546B8B10378BBB10D4C0D4B9C4266
:105330000ED22168A94205D02846FAF7A3FF08B18A
:105340002434F3E7204605F0FFFD10B9002400E007
:105350000024204638BD0446FBE70024F9E700BFDF
:105360004CBC000868BE000838B5EFF31185102367
:1053700083F31288BFF36F8F054B9C6805F0FCFD2B
:1053800085F31188BFF36F8F2046FEF7C9F938BD4A
:10539000A807002010B586B0C823114C03FB0044B9
:1053A00000EB400CC0EBC0000E4B03EB80030E4A39
:1053B0000592012204920F2203920022029201928E
:1053C00000930A4B4FF4A072094901EBCC1120461F
:1053D00000F042FC637B23F00403637306B010BD4E
:1053E00018060020A807002074E20008BDAF0008DE
:1053F000803F002038B505460F4B53F8204004E0AD
:10540000037F13F0010F12D004346B1C0A4A52F8C8
:105410002330A3420ED920680028F5D0074B9842CC
:10542000EED3074B9842EBD203689847ECE705F0C0
:10543000A6FDE9E738BD00BF84E2000868BE0008A9
:1054400080BE000808B553EA020102D101F01AF942
:1054500008BD0249183001F037FBF9E71BB400081A
:1054600010B586B0184C14E0636A0593236A049360
:10547000E3690393A369029363690193236900932A
:10548000E368A2686168206800F0E6FB23685C6658
:1054900030340E4B9C42E7D300F0CCFF0A4C00E0C6
:1054A00030340A4B9C420BD2A26AE36AB3F1FF3F4D
:1054B00008BFB2F1FF3FF3D02068FFF7C3FFEFE76B
:1054C00000F0D0FF06B010BD58C1000818C2000897
:1054D00008B50A4B01221A700320FFF78BFF01F079
:1054E00021FE0420FFF786FFFFF7BAFFFBF76AFAF9
:1054F000034A137B23F00103137308BDE821002046
:10550000E006002008B50146014A0248FEF702FA0B
:10551000D1540008E006002008B50648064A121AD1
:10552000002105F043FD0548054A121A002105F047
:105530003DFD08BD60010020EC21002000000010AE
:105540000000001010B50446FFF724FFC8230E49E1
:1055500003FB04110D4BC4EBC40203EB8202D160C8
:10556000147404EB44100A4901EB801101F5046145
:105570005160E21C03EB0212C4EBC40403EB84038E
:105580009A610123137210BD18060020A80700209D
:105590004037002070B586B000F09CFF104D114BD5
:1055A000DD61114B059301230493002403940294BD
:1055B000019400940D4B4FF480620D49284600F091
:1055C0004BFB06466B7B23F004036B73284605F008
:1055D000BCFE2046FFF7B6FF304606B070BD00BFE8
:1055E000E0060020A80700207CE20008D154000853
:1055F0000041002008B50020FFF7FCFE194B83F3A3
:105600000888194C636943F400736361F02384F8DC
:1056100022300023E37723766376A37684F8203064
:10562000636A43F4E0236362FEF742F8FEF796F9FB
:105630004FF0FF33A362E362FEF746FAFEF7BEF9CE
:105640000A4800F07DFBFFF74FFEFBF74BFA012005
:10565000FFF7D0FE0220FFF7CDFEFFF79BFFFFF71D
:1056600051FF00BF803F002000ED00E0D008002087
:105670002DE9F04182B00446EFF31187102181F348
:105680001288BFF36F8FC16899B9002950D1364B8A
:105690009B6893F90E3023610131E160324B9B68C6
:1056A000A36087F31188BFF36F8F002002B0BDE8BD
:1056B000F08116461D4682682B4B9B689A42E4D0C7
:1056C00055EA060136D092F90E80414693F90E0054
:1056D00005F081FC804534DC4FF000080096019510
:1056E00022463946214800F099FD0028DED0EFF32C
:1056F0001185102383F31288BFF36F8FA36843B320
:1057000023689C4223D013B3216993F90E0005F05E
:1057100062FC0146204605F069FCE8B9B8F1000FCB
:105720001AD185F31188BFF36F8F6FF00A00BDE7C0
:105730002369B0E787F31188BFF36F8F6FF00F0015
:10574000B4E70146204605F051FC8046C6E72169D2
:10575000E0E7B8F1000FE4D02946044800F020FE4D
:105760006FF00A00A2E700BFA8070020C8210020B0
:10577000F8B58368002B47D00446264A92689342C6
:1057800045D1C368012B04D9013BC36000252846DD
:10579000F8BDEFF31186102383F31288BFF36F8FE8
:1057A000016905F023FC2768BC420CD03D1E18BFE0
:1057B000012557B9A760CDB90023E36086F31188AE
:1057C000BFF36F8FE3E70027F0E77A683B68136069
:1057D0005A6000233B607B607A7B22F002027A737E
:1057E000BB6007F1180005F0D7FEE3E797F90E302C
:1057F00023610025C7F8C050384605F0A6FD3146A4
:10580000054800F0CDFDC2E76FF01505BFE74FF08A
:10581000FF35BCE7A8070020C8210020F8B50446E2
:10582000EFF31186102383F31288BFF36F8F05689F
:10583000A84216D02F1E18BF0127A5B927BBA36801
:10584000E268934228D001221344A360022104F1AC
:10585000100006F084F808BB86F31188BFF36F8F41
:10586000F8BD0025E6E76A682B6813605A600023DC
:105870002B606B606A7B22F002026A73AB6005F1F9
:10588000180005F089FED9E70023C5F8C030284686
:1058900005F05BFD0120DEE70022D5E73146024836
:1058A00000F07EFDDCE700BFC821002010B582B00B
:1058B000EFF31181102484F31288BFF36F8F846893
:1058C00044B1013C846081F31188BFF36F8F0020E5
:1058D00002B010BD53EA020406D0009201930246C2
:1058E000054800F09BFCF3E781F31188BFF36F8F4D
:1058F0006FF00F00ECE700BFC821002000B583B0B7
:10590000064B00934FF0FF334FF480620449054883
:1059100000F000F9002003B05DF804FBA8E20008E5
:1059200040450020E807002080B338B50D46044606
:105930001C4B9A68D0F8C8309A421BD000231A46F4
:10594000D4F8E430C3F38001C3F3C00013F0010FB7
:105950001FD001B102B300B109B300232B60D4F80A
:10596000D03073B11D60C4F8D050204605F063FB01
:10597000012038BD05F0ECFB08B90123DFE7002367
:10598000DDE7C4F8D050C4F8CC50EEE76FF0150056
:1059900070476FF01200ECE76FF00F00E9E76FF06F
:1059A0000F00E6E7A807002010B5C36823F0020344
:1059B000C360134B1C687CB1236803B10CB1002198
:1059C0000FE02346FBE722460D4805F021FB04F1DA
:1059D0000800FFF723FF10BD2346F0E71A461C46D8
:1059E0001346002CF7D062688242ECD02146002B8F
:1059F000F4D01A68002AF2D0002BF0D11A46EEE754
:105A0000C821002070B584B00546EFF3118610233D
:105A100083F31288BFF36F8FD5F8CC40002C3FD0B2
:105A20002368C5F8CC30D5F8D02094424DD0D5F8B5
:105A3000E43043F00203C5F8E430E36843F00102C8
:105A4000E26023F0040343F00103E360636886F33C
:105A50001188BFF36F8F20469847EFF3118610230C
:105A600083F31288BFF36F8FE36823F00103E360D1
:105A700013F0100F44D1E36813F0020F44D1D5F8AE
:105A8000E43023F00203C5F8E430C3F3002386F3C7
:105A90001188BFF36F8F002BB7D100F023FDB4E75F
:105AA000D5F8E43023F00402C5F8E42013F0040F25
:105AB0000ED112F0100F14D00023C5F8E43086F395
:105AC0001188BFF36F8F04B070BDC5F8D030AEE75A
:105AD00005F1DC0400220121204605F0E1FC00284C
