:020000040800F2
:10000000805B0020DD8000086B0D0108C9800008BE
:10001000C9800008C9800008C980000800000000ED
:10002000000000000000000000000000CD8100087A
:10003000C98000080000000055810008A99D000843
:10004000C1830008C1830008C1830008C183000880
:10005000C1830008C1830008C1830008C183000870
:10006000C1830008C1830008C1830008C183000860
:10007000C1830008C1830008C1830008C183000850
:10008000C1830008C1830008C1830008C183000840
:10009000C1830008C1830008C1830008C183000830
:1000A000C1830008C1830008C1830008C183000820
:1000B000C1830008C1830008C1830008C183000810
:1000C000C1830008C1830008C1830008C183000800
:1000D000C1830008C1830008C1830008C1830008F0
:1000E000C1830008C1830008C1830008C1830008E0
:1000F000C1830008C1830008C1830008C1830008D0
:10010000C1830008C1830008C1830008C1830008BF
:10011000C1830008C1830008C1830008C1830008AF
:10012000C1830008C1830008C1830008C18300089F
:10013000C1830008C1830008C1830008C18300088F
:10014000C1830008C1830008C1830008C18300087F
:10015000C1830008C1830008C1830008C18300086F
:10016000C1830008C1830008C1830008C18300085F
:10017000C1830008C1830008C1830008C18300084F
:10018000C1830008C1830008C1830008C18300083F
:10019000C1830008C1830008C1830008C18300082F
:0C01A000C1830008C1830008C18300086F
:1001B00081F0004102E000BF83F0004330B54FEA18
:1001C00041044FEA430594EA050F08BF90EA020F85
:1001D0001FBF54EA000C55EA020C7FEA645C7FEA18
:1001E000655C00F0E2804FEA5454D4EB5555B8BF3B
:1001F0006D420CDD2C4480EA020281EA030382EAAC
:10020000000083EA010180EA020281EA0303362D3D
:1002100088BF30BD11F0004F4FEA01314FF4801C10
:100220004CEA113102D0404261EB410113F0004F22
:100230004FEA03334CEA133302D0524263EB4303D9
:1002400094EA050F00F0A780A4F10104D5F1200E77
:100250000DDB02FA0EFC22FA05F2801841F10001D2
:1002600003FA0EF2801843FA05F359410EE0A5F1A6
:1002700020050EF1200E012A03FA0EFC28BF4CF0D7
:10028000020C43FA05F3C01851EBE37101F000458D
:1002900007D54FF0000EDCF1000C7EEB00006EEB9A
:1002A0000101B1F5801F1BD3B1F5001F0CD3490824
:1002B0005FEA30004FEA3C0C04F101044FEA44527B
:1002C00012F5800F80F09A80BCF1004F08BF5FEA02
:1002D000500C50F1000041EB045141EA050130BDE2
:1002E0005FEA4C0C404141EB0101013C28BFB1F5F4
:1002F000801FE9D291F0000F04BF01460020B1FA3F
:1003000081F308BF2033A3F10B03B3F120020CDA11
:100310000C3208DD02F1140CC2F10C0201FA0CF0EF
:1003200021FA02F10CE002F11402D8BFC2F1200C54
:1003300001FA02F120FA0CFCDCBF41EA0C0190400A
:10034000E41AA2BF01EB0451294330BD6FEA040453
:100350001F3C1CDA0C340EDC04F11404C4F120023E
:1003600020FA04F001FA02F340EA030021FA04F350
:1003700045EA030130BDC4F10C04C4F1200220FAA7
:1003800002F001FA04F340EA0300294630BD21FAE5
:1003900004F0294630BD94F0000F83F4801306BFAB
:1003A00081F480110134013D4EE77FEA645C18BF9F
:1003B0007FEA655C29D094EA050F08BF90EA020F36
:1003C00005D054EA000C04BF1946104630BD91EA2E
:1003D000030F1EBF0021002030BD5FEA545C05D131
:1003E0004000494128BF41F0004130BD14F5800470
:1003F0003CBF01F5801130BD01F0004545F0FE41E4
:1004000041F470014FF0000030BD7FEA645C1ABF18
:10041000194610467FEA655C1CBF0B46024650EA4F
:10042000013406BF52EA033591EA030F41F400217B
:1004300030BD00BF90F0000F04BF0021704730B501
:100440004FF4806404F132044FF000054FF00001D6
:1004500050E700BF90F0000F04BF0021704730B597
:100460004FF4806404F1320410F0004548BF40426C
:100470004FF000013EE700BF42004FEAE2014FEAC1
:1004800031014FEA02701FBF12F07F4393F07F4F9C
:1004900081F06051704732F07F4208BF704793F09F
:1004A0007F4F04BF41F40021704730B54FF46074B2
:1004B00001F0004521F000411CE700BF50EA0102B5
:1004C00008BF704730B54FF000050AE050EA01025E
:1004D00008BF704730B511F0004502D5404261EBCE
:1004E00041014FF4806404F132045FEA915C3FF40F
:1004F000D8AE4FF003025FEADC0C18BF03325FEAAC
:10050000DC0C18BF033202EBDC02C2F1200300FA5C
:1005100003FC20FA02F001FA03FE40EA0E0021FA81
:1005200002F11444BDE600BF80F0004002E000BFCD
:1005300081F0004142001FBF5FEA410392EA030FCE
:100540007FEA226C7FEA236C6AD04FEA1262D2EB18
:100550001363C1BFD218414048404140B8BF5B421D
:10056000192B88BF704710F0004F40F4000020F0B6
:100570007F4018BF404211F0004F41F4000121F0CC
:100580007F4118BF494292EA030F3FD0A2F1010216
:1005900041FA03FC10EB0C00C3F1200301FA03F154
:1005A00000F0004302D5494260EB4000B0F5000F77
:1005B00013D3B0F1807F06D340084FEA310102F136
:1005C0000102FE2A51D2B1F1004F40EBC25008BFE8
:1005D00020F0010040EA03007047490040EB0000B2
:1005E000013A28BFB0F5000FEDD2B0FA80FCACF1B3
:1005F000080CB2EB0C0200FA0CF0AABF00EBC250E0
:1006000052421843BCBFD0401843704792F0000FCD
:1006100081F4000106BF80F400000132013BB5E720
:100620004FEA41037FEA226C18BF7FEA236C21D096
:1006300092EA030F04D092F0000F08BF08467047FB
:1006400090EA010F1CBF0020704712F07F4F04D1C9
:10065000400028BF40F00040704712F100723CBFDC
:1006600000F50000704700F0004343F0FE4040F406
:10067000000070477FEA226216BF08467FEA2363C4
:100680000146420206BF5FEA412390EA010F40F4AF
:10069000800070474FF0000304E000BF10F00043FB
:1006A00048BF40425FEA000C08BF704743F09643E2
:1006B00001464FF000001CE050EA010208BF7047FD
:1006C0004FF000030AE000BF50EA010208BF704784
:1006D00011F0004302D5404261EB41015FEA010C99
:1006E00002BF84460146002043F0B64308BFA3F191
:1006F0008053A3F50003BCFA8CF2083AA3EBC25373
:1007000010DB01FA02FC634400FA02FCC2F1200291
:10071000BCF1004F20FA02F243EB020008BF20F0C8
:100720000100704702F1200201FA02FCC2F120022E
:1007300050EA4C0021FA02F243EB020008BF20EA23
:10074000DC7070474FF0FF0C1CEAD0521EBF1CEA51
:10075000D15392EA0C0F93EA0C0F6FD01A4480EA3F
:10076000010C400218BF5FEA41211ED04FF0006328
:1007700043EA501043EA5111A0FB01310CF0004054
:10078000B1F5000F3EBF490041EAD3715B0040EA7A
:10079000010062F17F02FD2A1DD8B3F1004F40EB4A
:1007A000C25008BF20F00100704790F0000F0CF01D
:1007B000004C08BF49024CEA502040EA51207F3AE1
:1007C000C2BFD2F1FF0340EAC250704740F40000BC
:1007D0004FF00003013A5DDC12F1190FDCBF00F0AD
:1007E00000407047C2F10002410021FA02F1C2F15B
:1007F000200200FA02FC5FEA310040F1000053EAF7
:100800004C0308BF20EADC70704792F0000F00F044
:10081000004C02BF400010F4000F013AF9D040EA4A
:100820000C0093F0000F01F0004C02BF490011F4DE
:10083000000F013BF9D041EA0C018FE70CEAD153DC
:1008400092EA0C0F18BF93EA0C0F0AD030F0004C5C
:1008500018BF31F0004CD8D180EA010000F0004010
:10086000704790F0000F17BF90F0004F084691F0CE
:10087000000F91F0004F14D092EA0C0F01D1420208
:100880000FD193EA0C0F03D14B0218BF084608D1D1
:1008900080EA010000F0004040F0FE4040F400001B
:1008A000704740F0FE4040F4400070474FF0FF0CAE
:1008B0001CEAD0521EBF1CEAD15392EA0C0F93EAF5
:1008C0000C0F69D0A2EB030280EA010C49024FEA47
:1008D000402037D04FF0805343EA111143EA101300
:1008E0000CF000408B4238BF5B0042F17D024FF4B8
:1008F000000C8B4224BF5B1A40EA0C00B3EB510F93
:1009000024BFA3EB510340EA5C00B3EB910F24BF7B
:10091000A3EB910340EA9C00B3EBD10F24BFA3EB00
:10092000D10340EADC001B0118BF5FEA1C1CE0D1C8
:10093000FD2A3FF650AF8B4240EBC25008BF20F07B
:10094000010070470CF0004C4CEA50207F32C2BFCF
:10095000D2F1FF0340EAC250704740F400004FF06C
:100960000003013A37E792F0000F00F0004C02BF9D
:10097000400010F4000F013AF9D040EA0C0093F067
:10098000000F01F0004C02BF490011F4000F013BC1
:10099000F9D041EA0C0195E70CEAD15392EA0C0F29
:1009A00008D142027FF47DAF93EA0C0F7FF470AF61
:1009B000084676E793EA0C0F04D14B023FF44CAFA4
:1009C00008466EE730F0004C18BF31F0004CCAD139
:1009D00030F000427FF45CAF31F000437FF43CAF75
:1009E0005FE700BF4FF0FF3C06E000BF4FF0010C97
:1009F00002E000BF4FF0010C4DF804CD4FEA400279
:100A00004FEA41037FEA226C18BF7FEA236C11D0C2
:100A100001B052EA530C18BF90EA010F58BFB2EB75
:100A2000030088BFC81738BF6FEAE17018BF40F0F5
:100A3000010070477FEA226C02D15FEA402C05D1A9
:100A40007FEA236CE4D15FEA412CE1D05DF8040B2E
:100A5000704700BF844608466146FFE70FB5FFF7C1
:100A6000C9FF002848BF10F1000F0FBD4DF808ED79
:100A7000FFF7F4FF0CBF012000205DF808FB00BF6A
:100A80004DF808EDFFF7EAFF34BF012000205DF8C4
:100A900008FB00BF4DF808EDFFF7E0FF94BF012011
:100AA00000205DF808FB00BF4DF808EDFFF7D2FF0E
:100AB00094BF012000205DF808FB00BF4DF808ED51
:100AC000FFF7C8FF34BF012000205DF808FB00BF1E
:100AD0007BB972B90029BEBF00204FF0004106E08B
:100AE00008BF00281CBF6FF000414FF0FF3000F03E
:100AF00057B8ADF1080C6DE904CE002909DB002BD5
:100B00001ADB00F069F8DDF804E0DDE9022304B047
:100B10007047404261EB4101002B1BDB00F05CF8A9
:100B2000DDF804E0DDE9022304B0404261EB41015D
:100B3000524263EB43037047524263EB430300F0BE
:100B40004BF8DDF804E0DDE9022304B0404261EB3C
:100B500041017047524263EB430300F03DF8DDF87A
:100B600004E0DDE9022304B0524263EB4303704723
:100B700053B94AB9002908BF00281CBF4FF0FF3104
:100B80004FF0FF3000F00CB8ADF1080C6DE904CE69
:100B900000F022F8DDF804E0DDE9022304B070473C
:100BA000704700BF10F8012B11F8013B012A28BF44
:100BB0009A42F7D0D01A7047034611F8012B03F878
:100BC000012B002AF9D17047034613F8012B002AA4
:100BD000FBD1181A013870472DE9F04786468C463C
:100BE0000846089E154674461946002B40F0C28000
:100BF0008542B2FA82F245D94AB1C2F1200300FA25
:100C000002FC2EFA03F3954043EA0C0C94404FEAA1
:100C1000154EA8B2BCFBFEF8230C0EFB18CC08FB4B
:100C200000F943EA0C43994528D9EB1808F1FF373E
:100C300004D2994502D9A8F102072B44A3EB09037A
:100C4000A4B2B3FBFEFC0EFB1C330CFB00F044EA29
:100C50000344A04214D92C190CF1FF3304D2A04252
:100C600002D9ACF102032C44241A43EA07401EB116
:100C7000D440002334607360BDE8F0874746DDE769
:100C80006346F1E792BB431B01214FEA154EAFB219
:100C9000B3FBFEFC200C0EFB1C330CFB07F840EAF8
:100CA0000343984562D9EB180CF1FF3004D2984504
:100CB00002D9ACF102002B44A3EB0803A4B2B3FBAE
:100CC000FEFC0EFB1C330CFB07F744EA0344A7426F
:100CD0004ED92C190CF1FF3304D2A74202D9ACF142
:100CE00002032C44E41B43EA0040C0E7C2F12003A6
:100CF00020FA03F1954090402EFA03F303434FEAA4
:100D0000154EAFB2B1FBFEFC0EFB1C10190C0CFB18
:100D100007F841EA0041884504FA02F422D969182B
:100D20000CF1FF3004D2884502D9ACF1020029440D
:100D3000A1EB08019BB2B1FBFEFC0EFB1C110CFBEE
:100D400007F743EA01439F420ED9EB180CF1FF313C
:100D500004D29F4202D9ACF102012B44DB1B41EAD1
:100D6000004192E76046E3E76146F7E76046A3E7A4
:100D70006346B7E7834206D916B9002108467BE7E8
:100D8000C6E900E0F9E7B3FA83F78FB9834201D3EC
:100D9000724508D8BEEB020460EB030301209C46B9
:100DA0001EB9002168E73846FAE7C6E9004CF8E7C3
:100DB000C7F1200CBB4022FA0CF41C432EFA0CF1B4
:100DC00020FA0CF3B84001434FEA14490EFA07F534
:100DD000B3FBF9F81FFA84FE09FB18300B0C08FB73
:100DE0000EFA43EA00439A4502FA07F240D9E318A3
:100DF00008F1FF3004D29A4502D9A8F10200234439
:100E0000A3EB0A0389B2B3FBF9F809FB183308FB1B
:100E10000EFE41EA03418E452CD9611808F1FF33DB
:100E200004D28E4502D9A8F10203214443EA0040CE
:100E3000A0FB0298A1EB0E014145CE46434602D3EA
:100E400006D14D4504D2B9EB020E68EB040301381C
:100E5000002EA6D0B5EB0E0261EB030101FA0CFCEB
:100E600022FA07F34CEA0303F940C6E9003198E798
:100E70004046C5E74346D9E72DE9F04F8DB00990CC
:100E80000C46154612F0C2FD0022431880F0838004
:100E900013444B4FA7FB032C2CF0030202EB9C02E4
:100EA0009B1AC01A61F100024FF0CC3100FB01F136
:100EB00007FB0211A0FB07031944420842EAC17272
:100EC0004FEA51099246012C67D06C6821463D4893
:100ED000FFF768FE28B121463B48FFF763FE002874
:100EE00062D135A3D3E9002350464946FFF7F0FD10
:100EF00080460A9130A3D3E9002350464946FFF7C4
:100F0000E7FD15461C46314A002328462146FFF7D7
:100F1000DFFD06460F462D4A002328462146FFF7EF
:100F2000D7FD15461C464EF6602200232846214672
:100F3000FFF7CEFD81460B914EF660220023284636
:100F40002146FFF7C5FD15461C464FF47A72002373
:100F500028462146FFF7BCFD83468A464FF47A7245
:100F6000002328462146FFF7B3FDCDE90623CDF83F
:100F700010B0CDF814A0CDF808900B9A039200960B
:100F8000019742460A9B124909980EF0BDFE0020C7
:100F90000DB0BDE8F08F01227AE74B460D49099864
:100FA0000EF0B2FE0020F3E722460B4909980EF03E
:100FB000C9FE6FF00400EBE7005C260500000000AE
:100FC000CDCCCCCCBC630108C063010880EE3600F8
:100FD000E4630108A8630108CC63010838B583689D
:100FE00005699C697CB112F4000F06D02D680123BD
:100FF0008B401D4201D082F0C062044B134002F0CE
:10100000B072A04738BD6FF05700FBE74000000604
:1010100008B5144812F029F958B9134B1B6813F09E
:10102000070F00D108BD114A01210F480DF005FE40
:10103000F8E74FF4D0110E480CF039FF0A4B1B684B
:1010400003F00703022B07D809480CF058FF4FF4B0
:10105000FA600CF068FFF7E7064A032102480DF03A
:10106000ECFDF1E74C44010824020020284F010860
:1010700004510108404F010808B5024809F0EEFF8D
:1010800008BD00BF8802002038B5002513E02B46BC
:10109000104A032110480DF0DAFD104C01220D21F9
:1010A00020460CF01FFF64200CF03DFF00220D21B4
:1010B00020460CF017FF4FF0FF324FF0FF33084887
:1010C0000AF014F80135044B1B6803F00703022BE8
:1010D000E3D9DCE7584F0108240200204C44010802
:1010E0008802002010B5424B1B6803F00703022B57
:1010F0000AD8404812F0B9F890B93D4B1B6813F07C
:10110000070F07D1002010BD3B4A032138480DF0DE
:1011100094FDEEE7394A012135480DF08EFDF1E7E7
:10112000374C4FF4803120460CF0C1FE4FF0B861CF
:1011300020460CF08CFE3349334B4B6001238B600F
:101140002C480CF0E6FE2A4B1B6803F00703022B29
:1011500029D8274B1B6803F00703022B29D8244BFF
:101160001B6803F00703022B29D8214B1B6803F0EF
:101170000703022B29D81E4B1B6803F00703022B21
:1011800029D81B4B1B6803F00703022B29D8184BE7
:101190001B6803F00703022BB4D91C4A032114482F
:1011A0000DF04BFDAEE71A4A032111480DF045FD45
:1011B000CFE7184A03210E480DF03FFDCFE7164A4E
:1011C00003210B480DF039FDCFE7144A03210848ED
:1011D0000DF033FDCFE7124A032105480DF02DFD38
:1011E000CFE7104A032102480DF027FDCFE700BFEB
:1011F0002402002024450108784F0108A44F01086B
:10120000FC5001083813002079100008985001089C
:10121000C04F0108E04F0108005001081C500108B0
:10122000345001086C5001082DE9F04F89B002AF2D
:1012300012F0ECFB002243182CD21344BD4AA2FB4F
:10124000034626F0030404EB96041B1BC01A61F14D
:1012500000014FF0CC3300FB03F302FB0133A0FB92
:1012600002021344440844EAC374B34B1B6803F0FE
:101270000703022B10D8B04B1B6803F00703022BA7
:1012800077D996230093C823AC4A0321AA480DF0CE
:10129000E9FC6EE00122D0E7A94A0321A6480DF03F
:1012A000CCFCE8E7012070E06FF0004102E1132977
:1012B00040F3178114213AB1052038750020787564
:1012C000B875F875786918616FF300056FF341051B
:1012D0006FF382056FF3C505022363F38815C1F32D
:1012E0000A0363F353256FF31F55002329469248E1
:1012F00001F03AFFCD46934B1A688E4BA3FB0213C5
:10130000DB0803EB8303B2EB430F06D18A4B1B6868
:1013100003F00703022B00F2E7808B490A680132D1
:101320008A4BA3FB02031B09322000FB13230B6033
:10133000C834A20FA3001B1942F10002DB1852416E
:1013400053EA020100F0A8811E4611466FF0010029
:1013500098426FF00043934102D206466FF000417D
:101360006FF00100801B4FF0FF3363EB01010AF0C7
:101370006DFD08F0FDFD0646734BD3F800A012F09A
:1013800045FB034600205A188CD202446948A0FB52
:1013900002CE2EF0030C0CEB9E0CA2EB0C029B1A5F
:1013A00061F100024FF0CC3103FB01F100FB0211AF
:1013B000A3FB003001445B0843EAC17364494FEA70
:1013C0000A1201EB0A198B505E4A1368591C11600E
:1013D000C9F80C30042107F114000FF0C7FF7A6937
:1013E000DFF870B1ABFB02139B094FF47A7000FB7E
:1013F0001320FFF74FF95849FFF758FA5749FFF7FD
:1014000099F85749FFF794F8C9F80400042107F147
:1014100014000FF0ABFF7A69ABFB02131B0A4FF409
:101420007A6000FB1320FFF735F94B49FFF73EFACE
:101430004C49FFF77FF84C49FFF77AF8C9F80800E4
:10144000042107F114000FF091FF7B695809474A06
:10145000A2FB0020C009464A02FB103011F0F5FE45
:1014600008F086FD801BC308424AA2FB03235E08E6
:10147000414A1268B2EB530F01D23F4B1E603F4B03
:1014800098427FF638AF3E4A1368013313602A4B07
:101490001B6813F0060F3FF42EAF2D4B03EB0A131E
:1014A000D3F80CC0E9468AB002AB13F110023FF446
:1014B000FBAE1421002A3FF4FAAE0846042903DDEE
:1014C000DFF8C0E0C3F814E0082801DDC3F818C055
:1014D0000C2800DDDE6110287FF7E9AE2A4818628B
:1014E000E5E66FF01B01E6E6194B03EB0A19D9F8A4
:1014F0000CA0D9F80400FEF7BFFFC7E90201D9F834
:101500000800FEF7B9FFC7E90001E9461C230C22D9
:1015100013F0070F02D10832083304E00432043319
:10152000F6E70432043313F0070FFAD10832083318
:101530002EE000BFCDCCCCCC3002002034510108CD
:101540000C5101084C130020501300201F85EB5153
:1015500054130020D34D62100000C8420000C8415F
:101560000000A040000070420000A041C55A7C0A63
:10157000A086010019866118441300202786800187
:101580004813002054510108F0490200043204338A
:1015900013F0030FFAD1111D0B461B3222F0070284
:1015A000ADEB020D02AA29B102F1100C032918D8E3
:1015B0006FF01B036FF300086FF341086FF38208AD
:1015C0006FF3C508032161F3881863F353286FF3A1
:1015D0001F58103200234146324801F0C5FDCD4668
:1015E0009BE6BCF1000F07D0042901DD2E4B5361AF
:1015F000082901DDC2F818A01C204FF00C0E03468C
:1016000010F0070F0DD17046BCF1000F06D08E45CB
:1016100004DAE644D7E902ABCEE900AB0830083380
:1016200005E00EF1040E0430E9E7043004339E4671
:1016300013F0070FF9D10346BCF1000F06D0884222
:1016400004DA6044D7E900ABC0E900AB03F108005D
:101650000EF1080301E00430043313F0030FFAD154
:101660000346BCF1000F03D0884201DA4CF8006059
:10167000181D81420DDB0346BCF1000F9AD0C0F368
:101680008700387500217975B975F9757869106129
:1016900090E76FF01B03EFE76FF001004FF0FF31B1
:1016A00065E600BF300200208C510108044B1B6826
:1016B0000360044B1B680B60034B1B68136070478F
:1016C0004C1300204813002044130020094B1B68D2
:1016D0006BB1094B1A683132084BA3FB02131B098B
:1016E000322101FB1323064800EB03107047002052
:1016F000704700BF4C130020501300201F85EB5192
:1017000054130020F0B5154B1C68322C28BF32242E
:101710000CB306460D464FF0000EF446A6451BDA04
:10172000AC4519DA0E4B1A68A2EB0E0231320D4BA2
:10173000A3FB02131B09322101FB132306EB0C1739
:10174000094A02EB03130FCB87E80F000EF1010EDD
:101750000CF1010CE2E7A4466046F0BD4C130020FA
:10176000501300201F85EB515413002010B5044680
:101770001A490EF0C9FA1A4920460EF0C5FA19495D
:1017800020460EF0C1FA184920460EF0BDFA17495E
:1017900020460EF0B9FA164920460EF0B5FA154962
:1017A00020460EF0B1FA144920460EF0ADFA134966
:1017B00020460EF0A9FA124920460EF0A5FA11496A
:1017C00020460EF0A1FA104920460EF09DFA0F496E
:1017D00020460EF099FA002010BD00BFD451010838
:1017E000045201082C5201084452010868520108B1
:1017F0008052010898520108B0520108CC520108E9
:10180000E452010808530108345301085C530108ED
:1018100070B584B0044601AA02A903A8FFF746FFE9
:10182000234920460EF070FA039A224920460EF012
:101830006BFA029A204920460EF066FA019A1F4977
:1018400020460EF061FA039D15B9002004B070BD6A
:101850000298FEF71FFF06462846FEF71BFF0146CB
:101860003046FFF723F81649FEF76CFF0546FEF7F2
:1018700003FE02460B46134920460EF045FA124974
:101880002846FFF7FDF848B910492846FFF7F8F851
:1018900048B10F4920460EF037FAD6E70D492046E9
:1018A0000EF032FAD1E70C4920460EF02DFACCE7C3
:1018B00080530108B0530108C8530108E0530108E0
:1018C0000000C842005401080000A0400000704120
:1018D0003C540108185401085C5401082DE9F04FEC
:1018E0008DB08046012936D9506812F0D5FA0546E8
:1018F000431F372B28D82A467D4940460EF004FA6C
:101900007C4940460EF000FA12F080F8002243189D
:1019100023D21344784AA2FB034626F0030404EBC7
:1019200096041B1BC01A61F100014FF0CC3300FB81
:1019300003F302FB0133A0FB02421344640844EAB0
:10194000C374264600273FE06C4940460EF0FAF982
:101950006FF01500C8E00F25CDE70122D9E701227D
:101960005EE0012289E000200021CDE90401CDF8EC
:1019700008B0CDF804A000974B4622466049404687
:101980000EF0C2F912F042F80022431880F0A38052
:101990001344594FA7FB034222F0030404EB9204C3
:1019A0001B1BC01A61F100024FF0CC3100FB01F1AA
:1019B00007FB0211A0FB07031944440844EAC17461
:1019C000099F64200CF0BFFA12F020F8002243189F
:1019D00080F083801344DFF820C1ACFB03E222F0E7
:1019E000030E0EEB920EA3EB0E03C01A61F1000280
:1019F0004FF0CC3100FB01F10CFB0211A0FB0C03FA
:101A00001944400840EAC170801B4FF47A7305FB0B
:101A100003F3984263D211F0F9FF002243189ED2DB
:101A20001344DFF8D4C0ACFB03E222F0030E0EEB4C
:101A3000920EA3EB0E03C01A61F100024FF0CC31FD
:101A400000FB01F10CFB0211A0FB0C031944400840
:101A500040EAC170001B40F6B7339842B1D90BAAD7
:101A60000AA909A8FFF722FEFFF730FE079011F040
:101A7000CDFF00224318BFF474AF13441E4CA4FBE7
:101A800003C222F0030C0CEB920CA3EB0C03C01A64
:101A900061F100024FF0CC3100FB01F104FB0211B7
:101AA000A0FB04031944400840EAC170841B154B95
:101AB000A3FB0434A409DDF82490A9EB0707DDF8A3
:101AC00028A0DDF82CB0079B002B3FF44CAF5868E2
:101AD000FEF7D2FC49E701225AE701227AE70A49D8
:101AE00040460EF011F900200DB0BDE8F08F00BFA8
:101AF000AC540108E0540108CDCCCCCC8054010892
:101B00001C550108D34D62105C55010870B50446A0
:101B1000FFF7DCFD002846D00546264920460EF09A
:101B2000F3F8EA68244920460EF0EEF82A682349C3
:101B300020460EF0E9F86868FEF79EFC02460B4668
:101B40001F4920460EF0E0F8A868FEF795FC024613
:101B50000B461C4920460EF0D7F811F057FF0246FD
:101B60000020531824D20344174EA6FB030C2CF07C
:101B7000030000EB9C001B1AD21A61F100004FF029
:101B8000CC3102FB01F106FB0011A2FB0623194434
:101B9000520842EAC1722B68D21A0C4920460EF054
:101BA000B3F8002070BD0A4920460EF0ADF8F8E702
:101BB0000120D8E79C550108B4550108C455010817
:101BC000D8550108F0550108CDCCCCCC04560108FD
:101BD000785501082DE9F047D6B0074601293FD9CD
:101BE000506812F059F90146431E132B31D806A84C
:101BF000FFF788FD8046A8B30246304938460EF00C
:101C000083F82F4938460EF07FF82E4938460EF0FB
:101C10007BF811F0FBFE034600205A1827D202443D
:101C20002948A0FB024525F0030404EB9504121B90
:101C30009B1A61F100014FF0CC3203FB02F200FB72
:101C40000122A3FB00310A445D0845EAC275002465
:101C50002BE01E4938460EF075F86FF0150828E0A5
:101C60000521C4E71A4938460EF04EF821E001205C
:101C7000D5E706AA210102EB04135658D3F804A0B5
:101C8000D3F80C90AA1B04929868FEF7F5FBCDE9F7
:101C900002015046FEF7F0FBCDE9000133464A460B
:101CA0000C4938460EF030F801344445E1DB4FF082
:101CB0000008404656B0BDE8F08700BF5C560108FA
:101CC00088560108C0560108CDCCCCCC145601086A
:101CD00040560108F456010810B5044604490EF0B8
:101CE00013F8044920460EF00FF8002010BD00BF85
:101CF00088580108AC58010808B504490EF004F8EA
:101D0000002000F065FE002008BD00BFE458010877
:101D100010B5044619490DF0F7FF194920460DF09A
:101D2000F3FF184920460DF0EFFF11F06FFE024659
:101D3000002053181FD203441348A0FB03CE2EF0FB
:101D4000030C0CEB9E0CA3EB0C03D21A61F1000107
:101D50004FF0CC3302FB03F300FB0133A2FB002066
:101D60000344520842EAC3725B08084920460DF05A
:101D7000CBFF002010BD0120DDE700BF085901089E
:101D80001C59010838590108CDCCCCCC4C5901085C
:101D900010B504461D490DF0B7FF1D4A1D492046E8
:101DA0000DF0B2FF42F210721B4920460DF0ACFF5D
:101DB00011F02CFE02460020531825D20344174888
:101DC000A0FB03CE2EF0030C0CEB9E0CA3EB0C033C
:101DD000D21A61F100014FF0CC3302FB03F300FB98
:101DE0000133A2FB00200344520842EAC3725B089D
:101DF0000B4920460DF088FF4FF4804209492046E8
:101E00000DF082FF002010BD0120D7E764590108C2
:101E10008459010890590108A8590108CDCCCCCCAF
:101E2000C4590108D859010810B5044604490DF0F9
:101E30006BFF2146034811F070FD002010BD00BF6C
:101E4000F8590108491E000870B505460C4611F006
:101E50008CFB064648B1284611F084FB0346324607
:101E6000034920460DF050FF70BD024EF3E700BF5E
:101E7000245A0108185A01082DE9F04F91B0059233
:101E80000293134602F004020092C3F3C20210F060
:101E90000303019340F02B8280468A460132041DE1
:101EA00000284FD0B8F1000F05D0A4EB080304338D
:101EB000534500F21F82029B5D1E019B0493069313
:101EC000039300264FF0FF3B0427B946B8F1000FFB
:101ED00001D0029B2360531E0793002A40F35D81CB
:101EE000059B13F0020228D00120A4EB08018B0807
:101EF0001AB1B1F5007F80F0038203990F2900F237
:101F00000282B8F1000F00F06081DBB201F1400203
:101F10006A4402F8103C02F820BC002800F051810D
:101F200063F07F0301F140026A4402F8103C049B15
:101F300001330493039B0133039304340022CC4602
:101F400040463DE001F0070A5444CAF1080AA9E7F7
:101F5000002634E0002632E0002630E00827BC46A8
:101F60002DE025292BD10BF1010B01260427BC46BE
:101F700025E04729EED82A2914D32A39C9B24FF0CF
:101F8000010E0EFA01F14FF6DA7E11EA0E0F16D1AC
:101F900011F0625F40F0C08011F0010F40F08C80C2
:101FA00000260CE0252903D10BF1FF3B002606E0BB
:101FB00001D9002603E0202901D02329CCD11D46D8
:101FC0006B1C6978002900F01981002EC9D07A298C
:101FD000BED84C29CDD34C392E2961D80FF2040E2E
:101FE0005EF821F0BF1F0008A1200008A120000812
:101FF000A1200008A1200008A1200008A1200008BD
:10200000A1200008A1200008A1200008A1200008AC
:10201000A1200008B1200008A1200008A12000088C
:10202000A1200008A1200008A1200008A12000088C
:10203000A1200008A120000819210008A120000803
:10204000B1200008B120000819210008192100085A
:1020500019210008BF1F0008B12000085D1F0008FB
:10206000A1200008BF1F0008A1200008752100085A
:10207000B120000875210008A1200008A120000857
:102080007D210008AB200008B1200008A120000835
:10209000A1200008B1200008A1200008A520000808
:1020A00000268CE70427BC4689E70427BC4686E760
:1020B00029786C2924D000263C44013CB4FBF7F479
:1020C00007FB04F420B1211A6144514500F2158147
:1020D000002A58D1BCF1040F00F08880BCF1080F31
:1020E00040F014811A99073121F0070101F1080528
:1020F0001A95D1E9008908B1C4E9008908345EE77E
:1021000013F8021C6C2903D000260427BC46D3E731
:1021100000260827BC46CFE729784C291AD01A99FF
:10212000073121F0070101F108061A96D1E900678D
:10213000073424F0070440B1211A0831514513D85F
:1021400029784C2913D0C4E90067083400260827F1
:10215000BC4634E71A99073121F0070101F108065E
:102160001A96D1E90067E3E76FF01B00BCE0C4E911
:102170000067EAE700260427BC469DE732460026B2
:102180000427BC4698E7E14680461A9A111D1A9129
:1021900012680292079A1D4698E6624B029A9A428A
:1021A00004D3614B9A420AD3002300E00023002BA2
:1021B0007FF496AE059B03F00202002095E6012312
:1021C000F5E7069B01330693B4E610B10AF1010A64
:1021D000B0E6009B13B10AF1020AABE60298FEF7E3
:1021E000F3FC0AEB000303F1020AA3E61A990D1DA2
:1021F0001A95096800B121600434E0E68046231A8C
:10220000B3F5806F80F0858090B1002202609B085A
:102210000370009B83B1069BC370049B88F8023057
:102220001BBB019DDDF80C90DDF810B0029F3DE076
:102230005344A3F1080057E0069B4370EDE70133D8
:102240009842EED903F140026A4412F8101C12F9C8
:10225000102C002AF3DA01F07F01A4EB080201320E
:10226000524559D804F8011BE9E7019B0398E7E7B9
:10227000009B43B305F140036B4413F8203C04F882
:10228000013B019EA4EB080333440133534546D878
:1022900005F140036B4413F8103C04F8013B32464F
:1022A0003946204611F0C2FD34440135A94519D9FB
:1022B000BBF1000FDCD005F140036B4413F9103C77
:1022C000002BD5DAF1E705F140036B4413F8103C1D
:1022D00058F82370002248F823203846FEF774FC93
:1022E000461CCFE7A4EB080011B0BDE8F08F6FF0FB
:1022F0000D00F9E76FF01B00F6E76FF01B00F3E746
:102300006FF01500F0E76FF01500EDE76FF01500C6
:10231000EAE76FF01500E7E76FF01B00E4E76FF006
:102320001B00E1E7E8420108708A01082DE9F04F3F
:1023300097B000AF8346BA613B61D7F88030C3F3F2
:10234000C0033B62F96011B90BF090FEF8609BF896
:102350000260B14636B1D7F8803013F0010F0DD1CD
:10236000002300E000239BF803207A6242B1D7F8F3
:10237000802012F0020F22D1002202E00123F2E7B6
:10238000002202B9EBB19BF80050AA00BA60DBF85A
:1023900004207A610BEB8505BA69F2B1002B40F09D
:1023A0000581B9F1000F00F01081D7F8803013F0EB
:1023B000040F40F00E810020F8610646FAE0012289
:1023C000DFE7BB691BB13A69F96858469847FC6872
:1023D00020465C37BD46BDE8F08FFC6853BB4D44DA
:1023E0004FF00008D7F8803003F00503FB604FF092
:1023F000000AC7F81080A046C7F81CB0D7F804B090
:10240000BEE00444013501364E45EBD22A78002364
:102410005BF822201946B8690BF03DFEBAF1000FB7
:10242000EFD0D7F888309845EBD22AF8180008F199
:102430000108E6E70026B046D7F884A0E4E70025C7
:102440003B6A7BB9002D7DD0D7F8803013F0010FA7
:102450007DD1FB68002B73D10223A8EB03088CE02D
:102460000125EDE7494678690BF05BFE0028E9D0CD
:10247000BB4B1B6813F0060F40D06C46002387F857
:102480002C30022387F82D308AB0694611F11002F2
:1024900037D012251AB1042D01DDB24B4B61002358
:1024A00087F82830022387F829306ABB112D44DDD4
:1024B000122362B1042087F82C00002087F82D0039
:1024C00087F82E00012087F82F00F86A08616FF363
:1024D000000B6FF3410B6FF3820B6FF3C50B0221FF
:1024E00061F3881BC3F30A0363F3532B6FF31F5B82
:1024F000002359469A4800F037FEA546A8F1020885
:102500003BE06FF00045C5E72B46082D01DD7869FB
:1025100088610C2B01DDC1F81C9001F12003002023
:102520000128C3D800F1300C07F1280EF4441CF840
:1025300030CC03F801CB0130F2E76FF01B03B8E7B2
:1025400001238AE7D7F8803013F0020F15D000235B
:1025500022461946B8690BF09EFDD7F8843053B176
:102560003B69D7F88820934205D2D7F8842022F817
:10257000130001333B61013880440AF1010A3546FA
:102580007B6A9A4510D22E4616F8029B6B78FA6940
:1025900052F82340744B9C42FFF451AF734B9C4262
:1025A000FFF45EAF00254BE7444611E707F1440016
:1025B0000023FB6118B14A46294611F037FC4D440F
:1025C0004FF00008C7F804901EE00020F8610646AE
:1025D000F0E7FE6107F134000026EBE700253B6AD7
:1025E00033BB002D3BD0D7F8803013F0010F26D03D
:1025F000731C06F1300207F12801561806F8149CE6
:10260000DEB208F1010825467B6A98454AD22C467D
:1026100014F802AB95F801905BF82930524A9342C6
:10262000DCD3524A934201D30025D8E70125D6E7EF
:10263000514678690BF075FD0028D2D0E1E7D7F854
:10264000803013F0040FDCD0FA69531C303207F1EC
:1026500028010A4402F8249CDBB2FB61D1E7D7F8D9
:10266000803013F0020F09D0731C06F1300207F11D
:102670002801561806F8149CDEB2C2E7F869431C1C
:1026800000F1300107F128028A1802F824AC024652
:102690000232D2B2FA6107F1580252FA83F303F818
:1026A000249CAEE7D7F804909BF8003087F85430AC
:1026B0009BF80130334487F85530D7F8803013F059
:1026C000020F0ED1FB69C3F3470387F85730D7F8E1
:1026D000803013F0010F06D113F0040F3ED1002318
:1026E00002E00023F1E7002387F85630DBF8000012
:1026F0003863786DCBF80000D7F810804246B9688F
:102700005846D7F818A0D047041EFFF661AE386BC4
:10271000CBF80000C7F810804246F96907F1340091
:10272000D04700285EDB04EB0008B96849447B6AA7
:1027300001EB4301D7F810904A46FB68591A284626
:10274000D047041EFFF644AE08EB04054FF0000826
:10275000C7F824B0B3465446CA4621E0FB69C3E734
:1027600010020020A05B0108E8420108708A0108FD
:102770004FF0000901E04FF000095246012107F136
:102780002C00A04700282FDB05444B46324651461B
:1027900020460BF080FC002828DB054408F10108E6
:1027A000D84518D208F1300307F12802134413F872
:1027B000143C87F82C307A6A52F82360D7F88430BA
:1027C000002BD5D0D7F888309845D4D2D7F88430AC
:1027D00033F81890D1E73A6900210846BB69984759
:1027E0002C46F5E50446F3E50446F1E50446EFE53D
:1027F000014B1860704700BFB800002080B5054647
:102800000E461746984609F0BDFB034611F062FDDF
:102810000446DFF8189049F8003042463946304601
:10282000A84754F8090005F07BFC00BF0800000031
:10283000034A536843F0020353600020704700BF0F
:10284000002004E0084B1A6842F480721A601A688B
:1028500042F400721A601A6842F480621A60034BF4
:10286000034A1A60704700BF003C024094010020F8
:102870000024F40010B584B004468368642103FB8F
:1028800001F14268B1FBF2F1C0680290019100923F
:10289000D21A216805480BF071FCD4E906230449DB
:1028A00004480BF06BFC04B010BD00BF6C5C010869
:1028B000585E0108AC5C0108F0B595B00446D0F84C
:1028C000AC700E6810F051FE10B10546037833B9B4
:1028D0002346204A0B2101A80AF0B6F801AD69464B
:1028E000204610F082FE024660BB04950597009BCF
:1028F000FF1A069708A9204610F084FE044600B18E
:1029000001240EA810F08BFE00B10134B4B9089A6E
:10291000099C931844EB04009B1844EB0000410110
:1029200041EAD3615D015B1940EB01019818DDE9D3
:102930000E2344EB0101FEF71BF9079004A8B047F2
:1029400015B0F0BD294604480BF018FC0023009395
:10295000CBE700BFD45C0108D85C010810B586B095
:10296000044600EB40130F4800EB831005AA4FF418
:102970000061403010F028FE08B106B010BD059B84
:10298000C3F50061642201FB02F2D20A02924FF405
:102990000062019200912246034904480BF0EEFBCD
:1029A000EBE700BFC0490020005D0108045D01089D
:1029B00000B583B0009001916946044810F0B7FF5C
:1029C0000BF0AEFF03B05DF804FB00BFB9280008B0
:1029D00010B5044603480BF0D1FB21460248FFF72F
:1029E000E7FF10BD3C5D01087528000870B506467C
:1029F0000D46084C04E02A463146204698471034DC
:102A0000054B9C4204D223689B69002BF3D1F6E767
:102A100070BD00BFA84A0108C84A010808B510F0F7
:102A2000F5FF0022431819D213440D4AA2FB03CE2E
:102A30002EF0030C0CEB9E0CA3EB0C03C01A61F1FF
:102A400000014FF0CC3300FB03F302FB0133A0FB8A
:102A500002021344400840EAC37008BD0122E3E7C4
:102A6000CDCCCCCC2DE9F041074605460AE007EA7B
:102A70000807144B03EB06135B6804221968204611
:102A80000CF052F8D5B195FAA5F6B6FA86F60D4CCB
:102A900004EB06140123B3406FEA030825EA03059B
:102AA000237B002BEED03301064AD3581B69002B41
:102AB000DDD0204698470028E4D1D8E73846BDE865
:102AC000F08100BFA84A01082DE9F04180460F4679
:102AD0001F4BBFF35B8F53E8005F6A1C43E8002184
:102AE0000029F8D1BFF35B8F6DBB1A4C002607E0BD
:102AF00063680422196820460CF016F80136103479
:102B0000154B9C4211D2237B002BF7D020460BF0B3
:102B100020FF23681B69002BEAD020469847002835
:102B2000E6D00123B3401D43E8E7B8F1000F0BD016
:102B300055B12846FFF796FF0546002FF8D00A202A
:102B40000BF013FFF4E700252846BDE8F08100BF35
:102B500088160020A84A0108C84A010808B5064B93
:102B6000186018B1054B1B68092B00DC08BD044830
:102B700008F074FAFAE700BF7C16002084160020E3
:102B8000A002002008B5024808F068FA08BD00BF9E
:102B9000A002002038B505460B4C00E010340B4B6A
:102BA0009C420FD263685B79002BF7D02946204600
:102BB0000BF0EBFE0028F1D023681B682946204665
:102BC0009847EBE738BD00BFA84A0108C84A01088A
:102BD00030B589B000220F490F4810F026FF0F4D85
:102BE00000220023CDE90623002404940E2303933E
:102BF0000294019400940A4B4FF44072094928460C
:102C000010F0C0FC0849284608F0FCFB204609B03B
:102C100030BD00BF852B0008E00A00201006002010
:102C2000B52F0008003A0020605D0108014B53F801
:102C3000200070477C5D010848B108B5054A106066
:102C4000054B1960084600F08FFD002008BD6FF0AD
:102C500015007047BC0000207816002008B5054B11
:102C60001B781BB1034B01221A7008BD024808F003
:102C7000F5F9F7E728310020A002002008B5104B35
:102C8000BFF35B8F53E8001F013143E80012002AB5
:102C9000F8D1BFF35B8F30B90A4810F0D2FE0A4872
:102CA00008F0DCF908BD094BBFF35B8F53E8001F48
:102CB000013943E80012002AF8D1BFF35B8FEBE73C
:102CC00080160020E00A0020A002002084160020C8
:102CD000064B00200146BFF35B8F53E8000F43E82B
:102CE0000012002AF9D1BFF35B8F704780160020D5
:102CF00038B5FFF7EDFF0546094C00E01034094BED
:102D00009C420BD263685B79002BF7D023685B6829
:102D1000002BF3D0294620469847EFE738BD00BF87
:102D2000A84A0108C84A0108034B18680028D4BF04
:102D300000200120704700BF8016002010B5044C11
:102D4000044920460BF081FB034B1C6010BD00BF03
:102D5000CC010020685D01087416002008B500232E
:102D60000D4A13700D4A13600D4A13604FF47A71C7
:102D70000C48FFF761FFFFF7E1FF00F085F90A4A11
:102D800006E0094BD31A1B11013351680B71103245
:102D9000064B9A42F5D308BD293100208016002049
:102DA000841600201D2A0008A84A0108C84A010804
:102DB00008B5014601480BF00AFE08BDCC01002011
:102DC00008B502480BF024FC08BD00BFCC01002070
:102DD00008B50146024B18680BF0FFFD08BD00BFA7
:102DE0007416002008B502480BF0FBFD08BD00BFBB
:102DF000CC01002010B582B000220023CDE90023D1
:102E00002C4B187808B902B010BD68460BF001FED3
:102E1000044680B1FFF7BEFE2046FFF7D9FF264BE0
:102E2000BFF35B8F53E8001F013943E80012002A0B
:102E3000F8D1BFF35B8FFFF777FF58B91F4A1368CC
:102E4000516813F57A7341F1000113605160FFF787
:102E5000C9FFD8E710F0DAFD0022431827D2134447
:102E6000174AA2FB034C2CF0030404EB9C041B1B2D
:102E7000C01A61F100014FF0CC3300FB03F302FBF9
:102E80000133A0FB02021344400840EAC3705B0810
:102E90000A490A684968801A63EB010340F2E93283
:102EA000904273F10003C9D3FFF722FFC6E7012266
:102EB000D5E700BF2831002084160020D80A002062
:102EC000CDCCCCCC0F4B1B7803B1704710B5002193
:102ED0000120FFF7F9FD0C4C00E010340B4B9C4235
:102EE00008D263685B79002BF7D023689B68204683
:102EF0009847F2E7FFF77EFF0028FBD1014B012244
:102F00001A7010BD29310020A84A0108C84A0108DA
:102F100010B582B01A4BBFF35B8F53E8002F511CE2
:102F200043E800100028F8D1BFF35B8F154B1B78E6
:102F300063B9154B1B68B3B1BAB1092A13D1134851
:102F400010F07FFD124808F089F80CE0EFF31184CF
:102F5000102383F31288BFF36F8FFFF74BFF84F3C7
:102F60001188BFF36F8F02B010BD00220023CDE99E
:102F7000002342F210720023044809F0ABFBF2E791
:102F800084160020293100207C160020E00A002051
:102F9000A002002010B50446044B1B689847A060AF
:102FA000214603480BF039FD10BD00BFBC000020D6
:102FB000CC0100202DE9F04100210846FFF784FDF7
:102FC000804650B14FF4FA76002711F083F9154B83
:102FD0001858FFF7C3FD002515E04FF0FF364FF0FE
:102FE000FF37F2E74046FFF73DFD804670B94FF0EE
:102FF000FF364FF0FF3709E02C4632463B460A4881
:1030000008F074F82546B8F1000FEBD1FFF7F2FE97
:1030100004460028F6D1002DEED000210846FFF727
:10302000E5FCEAE708000000A0020020014800EBF0
:1030300081007047100200200248034BC01AC008EC
:10304000704700BFA84A0108084A010810B50C469D
:10305000FFF7F2FFA04203D9024B53F8340010BD32
:103060000020FCE7084A010810B50C46FFF7E4FF12
:10307000A04204D9034B03EBC403187910BD002010
:10308000FCE700BF084A010810B500240EE0214605
:103090000020FFF7E9FF094A52F8243023F0070324
:1030A00000F00700184342F824000134044B054A9D
:1030B0009B1AB4EBD30FEAD310BD00BF100200205F
:1030C000A84A0108084A01082DE9F8430D461646AA
:1030D0009846002812DBC4B2002320460BF0D5FC32
:1030E000074610B1404500D947463B463246E9B253
:1030F00020460BF0ACFC3846BDE8F8830C4B0D4A7B
:10310000A3EB02094FEA1919002427460DE0094BE9
:1031100003EB041358684346324629460079FFF70B
:10312000D3FF874238BF074601344C45EFD3E2E76F
:10313000C84A0108A84A010800B589B0059206935B
:103140000023079362B1074A0C9B02930B9B0193E8
:103150000A9B009305ABFFF7E9F809B05DF804FBA3
:103160000022F1E779EB00082DE9F04F8BB004AFB6
:1031700005461E468846C1F34A24002C00F08F8085
:1031800091460022FA603A617A6104230293FB18A7
:1031900001930A23009307F10C0321464846FFF7E9
:1031A000C5F8B0F5006F5ED3464B1B6813F0060FF1
:1031B00000F08480D9F804106D4600233B7302238D
:1031C0007B738AB004AC14F1100221D012201AB122
:1031D000042801DD3C4B636100233B7002237B70BC
:1031E000CAB10346082800DDA1610C2B02DD40F2C4
:1031F000FF73E36104F12003002101290BD801F1E1
:1032000018063E4416F8186C03F8016B0131F4E718
:103210006FF00040DBE7112822DD122342B10421C8
:10322000397300217973B9730121F973F86820614A
:1032300000216FF300016FF341016FF382016FF31F
:10324000C501022060F38811C3F30A0363F353211D
:103250000023C1F313011B480BF011FDAD462DE017
:103260006FF01B03DAE760F35328C0F30A0A0AEB96
:103270001850173020F007008008FFF799FD8346AB
:10328000B0B104230293FB1801930A230093534621
:1032900000F1100221464846FFF74EFF08E004EB1C
:1032A0001154173424F00704A008FFF781FD83466A
:1032B00033464246294658460BF077FC1C37BD463C
:1032C000BDE8F08F180200209C5D01082DE9F04F49
:1032D00085B080460D4617461E46DDF838B0DDF84D
:1032E0004090B9F1000F46D0119B039300934B46D9
:1032F0000F9A10210020FEF7BFFDB0F5006F2DD210
:1033000082460BEB0003173323F0070300246FF30F
:1033100000046FF341046FF3820468F3C50467F39C
:10332000881460F353246BF31F549808FFF740FD93
:10333000074650B11030B9F1000F06D0119B009331
:103340004B460F9A5146FEF797FD334622462946D3
:1033500038460BF02AFC05B0BDE8F08F074B1B6820
:1033600013F0060FF7D040F2FF73054A022103481D
:103370000BF06DFCEFE70020C2E700BF1802002051
:10338000DC5D0108406820B1034BC01A40F38F0098
:1033900070474FF0FF307047100200200EB400B5A8
:1033A00082B0014603AB53F8042B0193034805F0A8
:1033B00025F902B05DF804EB03B07047B5EC0008E6
:1033C00010B584B011F0440F05D01A4B1B6833B907
:1033D000002004B010BD1849FFF7E0FFF9E71749D6
:1033E0000968B2FBF1F2B2FBF3FC03FB1C224FF4C1
:1033F0007A7E0EFB02F2B2FBF3F403FB14210EFB08
:1034000001F1B1FBF3F10E4AA2FB0C32D20A4FF4E8
:10341000616303FB12CC0B4BA3FB0CE35B09029132
:103420000194C3EB0311ACEB810100910649FFF756
:10343000B5FFCEE790160020145E01088C16002020
:10344000C5B3A29189888888205E010861B108B55A
:103450002AB1064A52F8232012B9054A00E0044A6C
:103460000449FFF79BFF08BD704700BFC05E01081D
:103470003C5E0108445E01082DE9F041054617460F
:10348000069EDDF81C8081B900242EB13246114918
:103490002846FFF783FF0444B8F1000F14D06FB142
:1034A000099B042B13D00C4909E00C4B099A53F8E3
:1034B00022200B49FFF772FF0446E6E70649424621
:1034C0002846FFF76BFF04442046BDE8F08105491C
:1034D000F5E700BF5C5E01084C5E0108D45E0108A0
:1034E000545E0108485E01082DE9F04F87B005469B
:1034F0000C46049205939DF84C7001F0020B01F00C
:10350000010AC1F3C00801F480790BF08CFA18B3FA
:10351000024616492846FFF741FF0646BBF1000F59
:103520001CD13A46514628460BF0EFFBB9F1000F8B
:1035300001D0002311930397129B0293119B0193D7
:10354000109B00930023049A41462846FFF794FFFE
:10355000304407B0BDE8F08F0026DFE7059A21462A
:103560002846FFF72DFF0644DBE700BF605E010839
:1035700011F0100F0BD108B511F0200F03D0044942
:10358000FFF70CFF08BD0349FFF708FFFAE7704794
:1035900000560108645E01082DE9F04105460F461A
:1035A000164698460699FFF7E3FF0024444505DADE
:1035B00024492846FFF7F2FE0134F7E7002409E02A
:1035C00020492846FFF7EAFE0BE01F492846FFF78F
:1035D000E5FE01340F2C0CDC002C02DD14F0070F8B
:1035E000EED0B442F1D23A5D18492846FFF7D6FE34
:1035F000EFE717492846FFF7D1FE002409E01149FB
:103600002846FFF7CBFE0BE012492846FFF7C6FE1F
:1036100001340F2C13DC002C02DD14F0070FEED068
:10362000B44207D23A5D0C4B9B5C13F0970FEBD181
:103630002E22E9E703492846FFF7B0FEE8E7BDE898
:10364000F08100BF585E0108705E0108685E0108E5
:10365000745E0108EC700108608901082DE9F041F1
:1036600084B004469DF82C500C9F0E9E95B9012BFA
:103670001ED019484FF0000827B13B462246174993
:103680000AF01FFDC6B905BB20460BF0FCFA04B0DA
:10369000BDE8F08103950A980290019300920B46D1
:1036A00000220F992046FFF71FFF80460C48E3E7F2
:1036B0000B484FF00008DFE70F9B0093434632466C
:1036C0000D9920460BF039FBDDE72A460F9920467D
:1036D0000BF027FBD8E700BFEDEC0008FD850008E4
:1036E000B5EC00082DE9F04383B00646056842F2C8
:1036F0000F738B4228BF0B46184A0521684609F014
:10370000A3F904467368D3F804900B27DFF85080C0
:1037100005E04A4639464046A8473F1A8044002FF4
:10372000F7D17368D3F804806F4605E0424621461E
:103730003846A847241A0744002CF7D173685F68FD
:103740001B24084E05E03A4621463046A847241A75
:103750000644002CF7D103B0BDE8F08314810108C2
:10376000945E0108785E0108074B01221A6004E0AC
:103770004008054A13685B001360044B9842F7D871
:10378000034B1860704700BF8C16002040420F00AA
:103790009016002070B506460D46002405E0315D08
:1037A000044883685B6898470134AC42F7D32846E5
:1037B00070BD00BF48450108014B03600020704701
:1037C0003C5F0108072801D900207047024B0344E1
:1037D00083F8BB1001207047C4160020072801D9C8
:1037E00000207047024B034493F8BB00704700BFB2
:1037F000C416002010B50378C3F341130A33064CF6
:1038000054F8233023B19847002803DB012010BD72
:103810000020FCE70020FAE7C41600200A30024B23
:1038200043F82010704700BFC4160020014B5862B7
:10383000704700BFC4160020136800221A705A7027
:1038400001221A70064A92F8C3203AB1022242F0CD
:1038500001021A7002230B60012070470022F6E774
:10386000C416002030B545884FEA152EAEF104038A
:10387000DBB2012B21D9EDB2BEF1070F1FD8114BDE
:103880005B6A002400E00344187840B193F801C05B
:10389000F445F8D1A54201D00134F4E7012068B124
:1038A0001360BEF1020F02D01B780B6006E09A781D
:1038B000DB7842EA03230B6000E0002030BD0020EB
:1038C000FCE700BFC416002038B50C460D4B5B6A00
:1038D000156800E013441A788AB193F801C0BCF16E
:1038E000040FF7D193F802C0B0F804E0F445F1D129
:1038F0006046FFF773FF28700120206000E0002081
:1039000038BD00BFC4160020034B93F8BA0000383E
:1039100018BF0120704700BFC4160020074B5B6A28
:1039200000E013441A783AB159780229F9D119798B
:103930008142F6D90120704700207047C41600204C
:1039400030F0800318D01049104B994219D210B4AE
:1039500003E024310D4B99420CD20C6A00230A7FFC
:103960009A42F6D904EBC3021279824206D001339F
:10397000DBB2F4E7002002E001207047012010BC18
:1039800070470020704700BF90030020B403002060
:10399000014B9861704700BFC4160020014BD861ED
:1039A000704700BFC4160020F8B506460A4D0B4B01
:1039B0009D420FD22F6A002401E00134E4B22B7F34
:1039C000A34205D907EBC400B0470028F5DAF8BDDB
:1039D0002435ECE70020FAE790030020B403002030
:1039E00038B50C4B00E024330B4CA3420FD25C687B
:1039F0000A4D6D6AAC42F6D31D69002DF3D094F8E0
:103A000002C08488E4B2A445EDD1A84701E06FF07C
:103A1000850038BD90030020B4030020C4160020A8
:103A20002DE9F041054688461746134C05E03A4615
:103A300041462846B0471CE02434104B9C4216D225
:103A400063680F4A526A9342F6D3A669002EF3D0F8
:103A50009A78B5F804C05FFA8CFC6245E7D05B79D0
:103A6000012BE9D13A4641462846B047E4E76FF0DA
:103A70008500BDE8F08100BF90030020B403002062
:103A8000C4160020F8B507460E4615460A4C00E05D
:103A900024340A4B9C420AD26369002BF8D02A4690
:103AA00031463846984703460028F1D101E06FF0CF
:103AB00085031846F8BD00BF90030020B403002022
:103AC00008B510F0700F07D100F07F0310F0800FE1
:103AD00010D10120984008BD084B1B6813F0070F58
:103AE00001D10020F7E70346054A012103480BF006
:103AF000AEF8F6E7103301209840ECE758020020BA
:103B00003C5F010838B50446007905F075FA0546B2
:103B10002079FFF7D5FF044AD2F8C43023EA000326
:103B2000C2F8C430284638BDC416002038B5054652
:103B300005F062FA10F1780F0ED00446C0B928469D
:103B4000FFF7BEFF104AD2F8C43023EA0003C2F8E0
:103B5000C4300024204638BD0C4B1B6813F0060F00
:103B6000EDD02B460A4A022108480BF070F8E6E730
:103B7000064B1B6813F0070FECD02B46054A0121BA
:103B800002480BF064F8E5E7C41600205802002054
:103B9000585F01087C5F010870B582B00D468488CB
:103BA000E4B28DF807402046FFF7CAFE064630B162
:103BB00034F0800306D0FFF7A7FE18B9064630465A
:103BC00002B070BDCDB11A4B1B6803F00703022B86
:103BD0000CD89DF8070005F07DF9164BDB69002B2A
:103BE000EDD00DF1070108209847E8E72346124A77
:103BF00003210F480BF02BF8EBE70D4B1B6803F08C
:103C00000703022B0CD89DF8070005F08DF9094B2E
:103C1000DB69002BD3D00DF1070109209847CEE7CF
:103C20002346064A032102480BF011F8EBE700BFD8
:103C300058020020C4160020A05F0108B45F0108EC
:103C400030B583B0044680788DF80000A388ADF8C5
:103C50000230E37803F003038DF80430FFF730FF00
:103C60000546314BD3F8C43003421AD168460DF0F3
:103C70001FFC10F1780F1FD058BB9DF8000005F015
:103C800081F910F1780F33D000283ED1264B012066
:103C900083F8B900D3F8C4201543C3F8C45003B067
:103CA00030BD20460BF0DBF80FF056FC0028DDD1CC
:103CB000962008F00DF9D9E71C4B1B6813F0060F8E
:103CC000DBD09DF800301A4A022118480AF0BFFFE5
:103CD000D3E7164B1B6813F0070F01D10020DEE776
:103CE0009DF80030134A012110480AF0B0FFF5E7B3
:103CF0000E4B1B6813F0060FC8D09DF800300E4A1B
:103D000002210A480AF0A3FFC0E7084B1B6813F022
:103D1000070F01D10020C2E79DF80030074A0121BA
:103D200002480AF094FFF5E7C4160020580200206C
:103D3000CC5F0108F05F01081460010834600108DD
:103D40002DE9F84306461A4B5C6A0027FF25A84672
:103D5000B94607E094F80380A578B088854213D06F
:103D600023781C442378CBB16378042BF2D0052B45
:103D7000F6D1B3889D42F3D17288D2B24146204633
:103D80000BF082F80746EBE771888845E8D1C9B2A5
:103D9000C0B2FFF717FD0746A146E1E7044BDB6918
:103DA00013B14946072098473846BDE8F88300BF5D
:103DB000C4160020024B00221A605A60704700BFF0
:103DC0007F1700202DE9F0410546224B5C6A4388AD
:103DD0001BB10027FF26B04610E0FFF7EBFF6A8813
:103DE0001C4B83F8BA20DB6913B11B4903209847A9
:103DF00001271EE094F8038023781C442378BBB18C
:103E00006378042BF6D0052B07D0022BF4D166790A
:103E10006B889E42F0D10127EEE76B889E42EBD182
:103E2000B8F1000FE8D12046FFF70AFF0746E3E7A5
:103E300017B93846BDE8F081FFF7BCFF6A88054B2B
:103E400083F8BA20DB69002BF3D00349032098479D
:103E5000EFE700BFC41600207E17002010B51468DD
:103E600090F90030002B0ADB4378013B082B3BD84C
:103E7000DFE803F0253A303A1A3A3A3A220043781A
:103E8000062B07D0082B08D00BB1002010BDFFF780
:103E9000D3FCFBE7FFF7E6FCF8E7144B93F8BA30E6
:103EA000237001200860F1E74088C0B204F058FF99
:103EB000B0FA80F04009E9E7FFF784FFE6E74388BE
:103EC000012B01D00020E1E7084B002283F8C3203A
:103ED0000120DBE74388012B01D00020D6E7012039
:103EE000024B83F8C300D1E70020CFE7C4160020BF
:103EF00070B505460E46042803D0012803D0134CA4
:103F000011E0FFF757FF124B93F8B930002BF6D0B2
:103F100000F098FD0F48FFF747FD0D4B002283F896
:103F2000B920ECE724340C4B9C4207D2E368002B09
:103F3000F8D03246294620469847F3E7044B1B6ADF
:103F400013B131462846984770BD00BF900300204A
:103F5000C4160020053B0008B403002070B50446D9
:103F60000D461646184B9B690BB1984748B123780C
:103F700003F01F03012B0DD0022B13D013B16FF0F0
:103F8000150070BD324629462046FFF767FF88B10D
:103F90000020F6E73246294620460AF07EFF60B14F
:103FA0000020EEE73246294620460AF0C0FF38B12D
:103FB0000020E6E76FF01500E3E76FF01500E0E79B
:103FC0006FF01500DDE700BFC416002070B50E4E7F
:103FD0000E4B9E4215D2356A002401E00134E4B252
:103FE000337F9C420BD205EBC40355F8341018798B
:103FF0000DF053FA0028F1D04FF0FF3070BD243699
:10400000E6E70020FAE700BF90030020B403002099
:104010002DE9F8430646894690461F46032504E0ED
:1040200007F086FE6B1EB5B11D463B46424649462B
:10403000304605F009F8044610F10B0F0BD1074B81
:10404000186810F0060FEBD03346054A02210348EA
:104050000AF0FDFDE4E72046BDE8F88358020020A1
:104060005860010810B582B0154B1B7DF3B9144C94
:10407000E268019201ABA1688020FFF7C9FFA36845
:10408000019A1344A360E3689B1AE360B3B9AAB131
:10409000E28823699A4211DD94F8C82093FBF2F17B
:1040A00002FB113353B90122227507E00021044BB2
:1040B00019750B460A46802004F0C6FF02B010BDF9
:1040C000C416002000B585B000230393002840F0FB
:1040D000908019B34E4BDA68002A72DD03AB4C496D
:1040E000896800200DF019FA002877DB484A9368A8
:1040F00003990B449360D3685B1AD360002B7AD189
:10410000104602F1380342F8083F00F11001FFF7B2
:1041100071FB002869D0FFF7A5FF6CE0082201A918
:104120000DF0FBF900282EDB9DF80400384B1870C9
:104130009DF805205A70BDF806205A80BDF8082069
:104140009A80BDF80A10D98003F138029A600022E3
:104150001A751A61DA6010F0800F02D1802916D822
:1041600039BB2C4A02F10801A2F10800FFF742FB1B
:1041700018B3274BDA8819698A42A8BF0A46DA6061
:10418000FFF770FF37E0802004F0A4FE33E0224BFD
:104190001B6813F0070F06D1802004F09BFE00205F
:1041A00004F098FE27E01D4A01211B480AF045FD56
:1041B000F2E7174B1961D9601DE0802004F08AFEF8
:1041C00019E003AB00221249896810460DF0A5F9E9
:1041D000002810DA802004F07DFE0CE0802004F03E
:1041E00079FE002004F076FE05E0802004F072FEE7
:1041F00001E0802802D005B05DF804FB044BDB68C9
:104200001BB9034B1B7D002BF5D0FFF72BFFF2E70B
:10421000C4160020CC16002058020020806001083F
:1042200008B5FFF703FB08490020FFF7F7FA074935
:104230000120FFF7F3FA06490220FFF7EFFA0548DD
:10424000FFF7A6FB002008BD5D3F0008E13900082C
:10425000853A0008213A000870B582B005464FF053
:10426000FF324FF0FF33544806F022FE534B93F8D1
:10427000B830002B68D1514B5B6A002B77D00120FE
:104280000AF0EBFD041E66DB4C4B5E6A1D624C4C73
:104290002046FFF783FB204604F05CFD0DF0F5F8A7
:1042A000041E58DB00F000FC041E54DB7378012B65
:1042B00074D1F379002B71D0404A82F8C830ADF840
:1042C000023000238DF804308DF8003068460DF080
:1042D000EFF8041E3FDB80238DF8003068460DF0B8
:1042E000E7F8041E37DB374900200DF0D6F8041E2E
:1042F00031DB344980200DF0D0F8041E2BDBFFF7B2
:1043000065FE041E27DB002004F03CFE041E22DBB9
:104310000020FFF7D5FB294AD2F8C4300343C2F886
:10432000C430802004F02EFE041E14DB8020FFF732
:10433000C7FB224BD3F8C4200243C3F8C420012298
:1043400083F8B820002406E01F4B1B6813F0060F0B
:1043500007D16FF07704184806F02AFE204602B015
:1043600070BD1A4A022118480AF067FCF1E700F014
:104370008FF9FFF755FF114B5B6A002B7FF47FAF7E
:10438000114B1B6813F0070F02D14FF0FF34E2E727
:104390000F4A01210C480AF050FCF6E70A4B1B6853
:1043A00013F0070F02D16FF01504D4E7094A012179
:1043B00005480AF042FCF6E774020020C41600200B
:1043C000F13E0008C5400008580200209C6001082A
:1043D000C0600108E86001080246064800E0243099
:1043E000054B984203D243689342F8D100E0002085
:1043F000704700BF90030020B403002010B58AB0BE
:104400000DF1040C1D4C0FCCACE80F0023688CF8A8
:10441000003000230693079308930993184A13600A
:1044200053609360D3601382102106A805F0C4F98D
:10443000002820DD0828B8BF0820A0F1080C0022C1
:1044400017E00CEB020328336B4413F8103C5100C7
:104450000AA800EB131010F824EC094800F812E049
:1044600003F00F03013128336B4413F8243C435409
:104470000132072AE5DD02480AB010BD24610108B7
:104480009017002070B50446FFF7B8FF98B10546B5
:10449000FCF79AFB064670B1102804D0094B1B6844
:1044A00013F0060F08D13246102EA8BF102229465D
:1044B000A01C0FF0BBFC70BD034A022101480AF0AA
:1044C000BCFBF0E754020020386101082DE9F043FD
:1044D00083B000AF04464FF001137B600025A8466F
:1044E000A9462E4604E020460AF05BFD23781C44D2
:1044F0002378002B00F0B3806378052BF6D801A257
:1045000052F823F013460008E74400085B46000811
:10451000134600081D450008C7450008E378002B36
:10452000E4D1A3784BB92046FFF756FF814648B146
:10453000836813B141462046984708F101085FFAA5
:1045400088F8D3E74C4B1B6813F0070F32D06D4649
:1045500088B06B4613F110022FD00C213AB10846F7
:10456000042901DD454E5E61082800DD9C610B29B0
:1045700026DD0C243AB10321397000217970B9701D
:10458000F9703868186100216FF300016FF3410181
:104590006FF382016FF3C501012363F38811C4F344
:1045A0000A0464F353216FF31F5100233248FEF7CE
:1045B000DBFDAD464FF0FF3056E06FF00041CDE738
:1045C0006FF01B04D6E7B9F1000F0ED03A1D494633
:1045D00020460AF006FD002888D0274B1B6813F000
:1045E000070F10D14FF0FF303EE0234B1B6813F054
:1045F000070F02D14FF0FF3036E0214A01211E485B
:104600000AF01BFBF6E71F4A01211B480AF015FBC5
:10461000E8E7032D0BD075B98EB1A31BB370C3F3BC
:104620000723F37086F804800135EDB25EE720467B
:10463000FFF728FFEFE720460AF0A1FCF4E70E4B56
:104640001B6813F0070F02D14FF0FF300CE00E4A49
:10465000012109480AF0F1FAF6E7264646E7A01CD0
:104660000A4B984204D100200C37BD46BDE8F083C8
:10467000FFF72CFFF8E700BF540200208461010817
:10468000A4610108E8610108086201088F030020A5
:1046900008B50D4B1B780BB10C4808BD0B48FFF754
:1046A00015FF20B9084B01221A700848F5E7084B9E
:1046B0001B6813F0070F01D10020EEE7054A012126
:1046C00003480AF0BAFAF7E72A310020B8020020BE
:1046D0005402002028620108002300E00133032B6C
:1046E00012D803EBC302094911F832208242F5D1F6
:1046F00003EBC301054A02EBC1025268002AEDD068
:10470000024800EBC100704700207047A41700204A
:104710002DE9F04184B0044610F8345C50F8303C88
:1047200013F1100F24D1036913F0020F3DD050F89C
:10473000282C2AB913F0040F22D143F0040303619B
:1047400003AB54F82C1C2846FFF762FC0346D8B98B
:1047500054F82C2C039B1A4444F82C2C54F8282C85
:10476000D21A44F8282C54F8242C134444F8243C3E
:1047700054F8303C13F1100F58D104B0BDE8F0816B
:10478000002340F8303CF3E7364A126812F0070F76
:1047900004D16FF0150344F8303CE9E70095324A44
:1047A000012130480AF05EFAF3E703AB50F8282CF9
:1047B00050F82C1C284604F0CDFC0346A0B954F850
:1047C0002C3C039E334444F82C3C54F8283C9B1B5F
:1047D00044F8283C54F8243C334444F8243CA6B91B
:1047E000002344F8303CC3E71E4A126812F0070F5A
:1047F00004D16FF0150344F8303CB9E700951A4A2C
:10480000012118480AF02EFAF3E728460CF095FE2D
:10481000B6FBF0F300FB1366002EE1D154F8283C00
:10482000002BDDD0284604F0FBFCA1E754F8206CF7
:1048300054F8247C54F81C8C0EF08EFE68B90023CA
:1048400044F8203CA4F1180006F008FC002E94D097
:10485000424639462846B0478FE7214603480EF0C6
:1048600016FE8AE75C02002058620108180B00203F
:1048700070B582B006460C46FFF72EFF631EDBB212
:10488000012B0AD8054650B10EF066FE08B1012C86
:104890001CD105F13400FFF73BFF02B070BD012CC5
:1048A000FBD101AB01220DF10301304604F052FCB3
:1048B000019B002BF5D1084B1B6813F0070FECD0C0
:1048C000064A012104480AF0B8F9E6E705F1340187
:1048D00003480EF0DCFDE0E75C020020786201088E
:1048E000180B00202DE9F84F0546884616461F464E
:1048F0000AF01AFC002877D1EFF31189102383F313
:104900001288BFF36F8F0024032C35D804EBC4004A
:10491000C0001830364B184404300022002306F043
:10492000E5FB824608B10134EEE704EBC404E20083
:104930002F4B03EBC404D4F804B01BF1100F2FD09D
:104940009D54C4F80880E660002323610A9B6361DC
:1049500067640B9BA3616FF00F03636028460CF044
:10496000ECFD70BB17F0020F39D004F1340121487F
:104970000EF08DFDD34606E01F4B1B6813F0070FAA
:1049800008D16FF00B0B89F31188BFF36F8F584676
:10499000BDE8F88F194A012117480AF04EF9F0E7EF
:1049A000154B1B6813F0070F04D104F11C0006F02F
:1049B00055FBE8E72B46124A01210F480AF047F958
:1049C000F3E728460CF0B9FDB6FBF0F300FB1366E5
:1049D000002EC7D0636C43F004036364C2E728462B
:1049E00004F01EFC8346CEE76FF00F0BCFE700BF4D
:1049F000A4170020180B00205C020020946201081C
:104A0000B062010810B5EFF31184102383F312880C
:104A1000BFF36F8FFFF760FE20B10146436813F1CB
:104A2000100F04D084F31188BFF36F8F10BD6FF0A7
:104A30008B034360343102480EF029FDF2E700BFDA
:104A4000180B002038B5002404E085F31188BFF36B
:104A50006F8F0134032C21D8EFF31185102383F3DA
:104A60001288BFF36F8F04EBC403DA000C4B1344BE
:104A70005B6813F1100FE8D1094A04EBC401CB00C5
:104A800013446FF08B01596004EBC403D90030313B
:104A90001144043103480EF0FAFCD6E738BD00BFDC
:104AA000A4170020180B002070B5002414E0E500C6
:104AB00004EBC403D8003030094E304409490430B7
:104AC0000EF0CAFC2B19D8001830304404300122F3
:104AD00011460EF02BFC0134032CE8D9002070BDE8
:104AE000A41700201147000808B50169012381F8C7
:104AF0004B300B6813B191F8493003B908BD083148
:104B000001480EF0C4FCF9E7180B002008B5016954
:104B1000012381F84A300B6813B191F8483003B98A
:104B200008BD083101480EF0B2FCF9E7180B00206F
:104B300030B583B0054614460A1E17DD04F14C015A
:104B4000D4F88C0009F08CFE012384F849302368E6
:104B500013B194F84B3073B9D4F88C2093889189B1
:104B60005B1A9BB21269D31A3F2B0AD994F89E3074
:104B70005BB903B030BD04F1080109480EF087FCB1
:104B8000EAE7012384F8A030F3E70194054B009392
:104B90000123402204F14C012846FFF7A3FEE8E779
:104BA000180B0020314B000870B50569EFF3118632
:104BB000102383F31288BFF36F8FD5F8900009F0AC
:104BC0004FFE044686F31188BFF36F8F08B9204665
:104BD00070BD0022002305F1180102480EF06DFCA3
:104BE000F5E700BF180B002038B50D461446012329
:104BF00082F84830136813B192F84A305BB9D4F8A0
:104C000090305A89DB8893420BD004F118015DB1D2
:104C1000002200230BE002F1080107480EF037FCE8
:104C2000EDE73DB904F118014FF47A720023024810
:104C30000EF043FC38BD00BF180B002030B583B028
:104C40008DF807100469002384F8483006E0174BFC
:104C500001221A7021E001200AF05FFBEFF31185B9
:104C6000102383F31288BFF36F8F01220DF1070128
:104C7000D4F8900009F0F4FD85F31188BFF36F8F2D
:104C800001280AD00EF068FC18B994F8A130002B66
:104C9000E1D1064B1B78002BD9D00A22002304F166
:104CA000180103480EF009FC03B030BD2B31002081
:104CB000180B002070B504460E4615468188C9B20F
:104CC00018480AF001FA30B394F90020002A18DBE2
:104CD0006278202A04D0222A0ED06FF0850019E0D5
:104CE0002A68116840F8101C9188927920F80C1CF1
:104CF00000F80A2C00200DE0628800F8092C002042
:104D000008E06278212A09D1A0F110032B60072363
:104D10003360002070BD6FF01200FBE76FF085007C
:104D2000F8E700BFC418002008B5014603480AF0A0
:104D3000DFF910B1012200F8072C08BDC4180020CB
:104D400008B503464FF0000C80F89EC080F89FC065
:104D500080F849C080F848C00B4A92E80300C3F8C5
:104D60009400A3F89810090C83F89A1083F89CC05B
:104D700083F89BC083F8A0C04022614603F14C0039
:104D80000FF07CF808BD00BF404C010830B583B07F
:104D90000446D0F8A4305D680139052906D8DFE85B
:104DA00001F003050723262AFFF7CAFF03B030BD31
:104DB00090F89E30002BF9D1012380F89E302B6AA9
:104DC00002460021187BFFF7B3FE94F84830002B11
:104DD000ECD12B6A187D01940B4B00930223002227
:104DE0001146FFF77FFDE1E7FFF7AAFFDEE70123AA
:104DF00080F89F30DAE790F89F30002BD6D0002360
:104E000080F89F30D2E700BFE94B000838B50C4668
:104E10001546014604480AF045F920B12A462146C4
:104E2000A438FFF7B3FF38BDC418002010B50469DB
:104E3000C4F8A40004F1A8030022C4F8A8200B4A77
:104E4000526872B11360094A5360094904F10800BD
:104E50000EF002FB074904F118000EF022FB0020BF
:104E600010BD024A53601360EFE700BFC418002072
:104E700059F10008794E0008F0B585B00446A0F15C
:104E80001806D0F88C305B681B6A1D7D28460AF036
:104E90004BF910B994F886300BB905B0F0BD4FF45A
:104EA000806203A9A06F0AF048FA07460028F4D0F0
:104EB000002384F8303010F03F0F00D1471E0196D8
:104EC000074B009302233A4603992846FFF70AFD51
:104ED000A06F3A4600F10A0109F0A2FCDDE700BF2D
:104EE000E94B000830B583B0084D002400944FF022
:104EF000FF334FF480620649284606F02FFA054931
:104F0000284606F07FFA204603B030BD180B00207B
:104F1000403D00201463010810B5044605F028F850
:104F20000246034920460AF0EFFE002010BD00BFF4
:104F30004C63010830B583B0054613460022019248
:104F400001AA0A21586801F03BFE019C24B90AF02D
:104F500006FA204603B030BD2246034928460AF02F
:104F6000F1FE019CF5E700BF7C63010808B5034A28
:104F700003490AF0C9FE002008BD00BF845901089A
:104F80007C6401082DE9F04182B0054616460023F5
:104F9000019301AA0A21B06801F012FE04465FFAEB
:104FA00080F8184928460AF0BEFE019F8FB9B8F173
:104FB000040F15D8706809F080FD00281ADB02B2D2
:104FC000E3B20021084609F092FD384602B0BDE880
:104FD000F0813A460C4928460AF0B4FE019FF4E7F6
:104FE000E2B20A4928460AF0ADFE28460AF0EBFE76
:104FF0000127EAE77268064928460AF0A3FE6FF027
:105000001507E2E7A8640108106501083865010882
:105010005065010800B583B0009000238DF804307E
:10502000694604480EF079FC9DF8040003B05DF871
:1050300004FB00BF7FF3000810B5044604F078FFBE
:105040000246074920460AF05FFE064920460AF05C
:105050005BFE214604480EF06AFC002010BD00BF34
:10506000B4650108D4650108D950000870B58CB04A
:105070000446084606A90EF0C5FA054600B101250A
:1050800068460EF0CCFA00B92DB1114920460AF05D
:105090003BFE0CB070BD069D079E681946EB0603EB
:1050A000401946EB03035A0142EAD062410140181D
:1050B00043EB02014019DDE9002346EB0101FBF758
:1050C00057FD03462A46034920460AF01DFEE0E745
:1050D00008660108E065010870B58EB004460D460B
:1050E000D0F8AC600EF041FA03460FF0F3F8234A13
:1050F000125894422DD0224A6BB300932346214983
:1051000028460AF001FED4E90A23CDE9002394F9E8
:105110000E30227B1C4928460AF0F6FD202205A904
:10512000204606F081F90246636F184928460AF0C6
:10513000EBFD21462846FFF799FF0DA920460EF00A
:1051400054FA024648B1124928460AF0DDFD0EB075
:1051500070BD104AD0E7104BCFE70D9BF11A6422C7
:1051600001FB02F2B2FBF6F2029201960091324686
:105170000A4928460AF0C8FDE9E700BF0800000018
:10518000585E0108306601083C660108686601083F
:1051900080660108547C01082C660108B06601088D
:1051A00070B590B005460024089409940A940B94B5
:1051B0000C940D940E940F944FF0203308930993A0
:1051C0000A930B930C930D93ADF8383001461548B4
:1051D0000EF0ADFB14B1002010B070BD04EB441311
:1051E000114E06EB831607AA4FF4006106F140004A
:1051F0000EF0EAF9079AC2F50061642301FB03F39C
:10520000DB0A05934FF40063049303910292019328
:1052100008AB009323463246044928460AF074FD41
:105220000134D7E731520008C0490020086701085F
:10523000F0B589B004460D46D0F8AC6007A90EF071
:10524000D4F9B8B920460EF090F90799771A64227C
:1052500007FB02F2B2FBF6F2034688B10492039612
:105260000297019100962246064928460AF04CFD15
:1052700009B0F0BD0246044928460AF045FDF7E7AB
:10528000024BEBE754670108806601082C660108B1
:1052900038B50546134610220021586807F074FC03
:1052A0000446FFF7B7FE78B10FF014F80E4B1B5809
:1052B0009C4211D0204606F01FFB22460B4928468F
:1052C0000AF022FD002038BD2246094928460AF08E
:1052D00039FD6FF01500F6E7064928460AF032FD61
:1052E0006FF01500EFE700BF08000000006801083C
:1052F000BC670108D867010838B505461346102277
:105300000021586807F040FC0446FFF783FE78B19F
:105310000EF0E0FF0E4B1B589C4211D0204606F0C9
:105320007BFC22460B4928460AF0EEFC002038BDE3
:105330002246094928460AF005FD6FF01500F6E7F8
:10534000064928460AF0FEFC6FF01500EFE700BFA3
:10535000080000006C680108BC6701084468010887
:1053600038B50546134610220021586807F00CFC9A
:105370000446FFF74FFE78B10EF0ACFF0E4B1B5802
:105380009C4211D0204602F0CBFE22460B49284613
:105390000AF0BAFC002038BD2246094928460AF026
:1053A000D1FC6FF01500F6E7064928460AF0CAFC62
:1053B0006FF01500EFE700BF08000000D468010897
:1053C000BC670108AC68010810B503460C461146DD
:1053D000006808B1027822B9024A204607F034FB7F
:1053E000204610BD106901082DE9F04186B006463F
:1053F00005A805F08FFA00EBC000059B03EB8008C1
:10540000224A082130460AF071FC059C0CE0204B32
:10541000204A082130460AF069FC236A1BB11D6846
:105420000DB12B68A3B9243444452AD2142269460D
:105430002046FFF7C9FF0346174A082130460AF005
:1054400055FC20460DF011FF0028E0D0134BDFE79C
:10545000134A082130460AF049FC00272B68BB425A
:1054600009D905EB87035B680E4A082130460AF02C
:105470003DFC0137F2E70C4A082130460AF036FCC1
:10548000D1E7002006B0BDE8F08100BF2C6901081B
:105490002069010840690108386901081869010894
:1054A000486901085C6901080056010808B5102A1E
:1054B00012D0202A13D0082A06D00A4A08210AF05E
:1054C00015FC6FF0150006E00B78DBB2064A0821E8
:1054D0000AF00CFC002008BD0B889BB2F6E70B68B5
:1054E000F4E700BFC8690108E069010808B5029B3C
:1054F000102A0ED0202A10D0082A06D0084A0821E7
:105500000AF0F4FB6FF0150002E0DBB20B70002034
:1055100008BD9BB20B800020FAE70B600020F7E784
:10552000C86901082DE9F04182B004460D461646CF
:1055300010220021706807F027FB0746022D20D8B3
:105540004FF020084346164A082120460AF0CEFBB9
:10555000032D1ED910220021F06807F015FB054627
:105560000346104A082120460AF0C0FB009500239C
:105570000193424639462046FFF7B8FF02B0BDE826
:10558000F0810A220021B06807F0FEFA5FFA80F885
:10559000D8E7424639462046FFF788FFEEE700BFCE
:1055A000F46901080C6A010838B504460D4611B1CA
:1055B0000E4B1B785BB90D4A137883F0010313700F
:1055C0005BB9294620460AF01BFC002038BD08497B
:1055D0000AF0B8FB6FF00F00F8E7064920460AF022
:1055E00093FB024B01221A70EBE700BF2C31002025
:1055F000206A01085C6A0108F8B507460E461546A0
:105600000023244A1370244A1360244A13600CE0D8
:1056100000231C440222224920460EF05EFC98B969
:105620001C4B01221A700435013E012E1DD96C68F5
:1056300002221C4920460EF050FC0028E8D1A37835
:10564000002BE6D00123E4E716492046FBF7AAFA2F
:1056500050B123782D2B08D1637833B122461249FB
:1056600038460AF051FBDEE704350022114668682F
:1056700007F08AFA0D4B186000221146686807F09F
:1056800083FA0B4B18600B493846FFF78DFF00205B
:10569000F8BD00BF2E310020D0180020D418002003
:1056A0008C6A0108886A0108906A0108DC180020E9
:1056B000D8180020B956000838B50546554B1B7858
:1056C000182B01D0002305E00B78112B32D00023DA
:1056D00000E0013302F1FF3C9E469C4509D9CC5CB9
:1056E000182CF6D18E449EF801001128F1D1012327
:1056F00000E00023F3B911F80C20464B1A700A7829
:10570000A2F13003DBB2092B09D9A2F16103DBB2AC
:10571000052B04D9A2F14103DBB2052B05D83E4984
:105720000B683E48C25401330B603B4B1B68022B95
:105730005DD038BD3A4B1A683A4928460AF0E4FA77
:1057400000212846FFF730FF374B1B78002BF0D1A4
:1057500013E0364D2A681068030A03F47F4343EAD6
:105760001063040204F47F04234343EA006342F815
:10577000043B2A6004392A4B1960294B1968042913
:10578000E7DC11F0030F0FD1284B18680268130AE9
:1057900003F47F4343EA1263110201F47F010B43D8
:1057A00043EA02630360C4E74B4201F0030103F0E4
:1057B000030358BF594202290FD00329B9D11B4B0B
:1057C00019680B68C3F3074203F47F4002431B04CC
:1057D00003F47F0313430B60ABE7144B19680B68AA
:1057E000C3F307221B029BB213430B60A1E71022F5
:1057F00000210A4807F0C8F90D4A136803F8010BA5
:105800001360074A136801331360034B00221A60C8
:105810008FE700BF2D310020D0180020CC180020C9
:10582000D4180020A86A01082E310020D8180020C2
:10583000DC1800202DE9F04385B080460F46154660
:105840001C46DE08002D5DD04FF0000C08E01CF86F
:1058500007300CF110010DEB010C0CF8103C9446D4
:10586000B54240D30CEB0602102A3CD8102C0DD0C8
:10587000202C1BD0082CEAD0234A082140460AF0ED
:1058800035FA6FF0150005B0BDE8F0833CF807303D
:105890000CF11001694401F8103CC3F307230CF12B
:1058A00011010DEB010C0CF8103CD8E75CF8073047
:1058B0000CF11001694401F8103CC3F307200CF10E
:1058C0001101694401F8100CC3F307400CF11201F7
:1058D000694401F8100C1B0E0CF113010DEB010CC7
:1058E0000CF8103CBBE7A946102D28BF4FF010095B
:1058F0004B466A463946404600F0D6FE1037A5EBC7
:1059000009059FE70020BEE7C86901082DE9F043BB
:1059100083B081460D46144600230193384B012283
:105920001A6002F0BDFE4FF0FF364FF020083746F8
:10593000344A2146284602F0D7FEB0F1FF3F43D05B
:1059400073281BD077282CD0612804D06FF0150065
:1059500003B0BDE8F08301AA10212B4B186801F0B9
:105960002FF90646019B002BE2D0274B1A682749E6
:1059700048460AF0E7F96FF01500E9E701AA0021AF
:10598000214B186801F01CF90746019B002BCFD072
:105990001D4B1A681E4948460AF0D4F96FF01500ED
:1059A000D6E701AA0021184B186801F009F98046D2
:1059B000019B002BBCD0144B1A68164948460AF0CC
:1059C000C1F96FF01500C3E7B6F1FF3F0AD0B7F198
:1059D000FF3F0ED05FFA88F33A4631464846FFF75C
:1059E00029FFB5E70C4948460AF0ACF96FF01500FD
:1059F000AEE70A4948460AF0A5F96FF01500A7E797
:105A000064010020006B0108A81C0020C46A010882
:105A1000D86A0108EC6A0108086B0108286B0108C4
:105A200010B50246034653F8404B402141634362A0
:105A3000002383854385038543860386C38500F160
:105A400038010820106211611383D3829382D383BB
:105A500093835383C2F8B8300349204609F0A6FC6B
:105A6000204609F0BDFC10BDAFF500082DE9F0435C
:105A700083B080460D464FF000090DE06FF05704EB
:105A80004FF00109224605F12801304608F0C8FE12
:105A9000002C32D0BC4230D105F124066A6B01A93A
:105AA000304609F026FD074670B10199D8F8083054
:105AB0009B69002BE2D002464046984704460028E6
:105AC000E0D04FF00109DDE7114B1B6813F0060F22
:105AD0000AD1D8F808309B6963B101220DF10301A6
