:020000040800F2
:1000000080310020393000080379000825300008CD
:1000100025300008253000082530000800000000C9
:100020000000000000000000000000002131000876
:100030002530000800000000A9300008294200080F
:10004000B9320008B9320008B9320008B9320008E4
:10005000B9320008B9320008B9320008B9320008D4
:10006000B9320008B9320008B9320008B9320008C4
:10007000B9320008B9320008B9320008B9320008B4
:10008000B9320008B9320008B9320008B9320008A4
:10009000B9320008B9320008B9320008B932000894
:1000A000B9320008B9320008B9320008B932000884
:1000B000B9320008B9320008B9320008B932000874
:1000C000B9320008B9320008B9320008B932000864
:1000D000B9320008B9320008B9320008B932000854
:1000E000B9320008B9320008B9320008B932000844
:1000F000B9320008B9320008B9320008B932000834
:10010000B9320008B9320008B9320008B932000823
:10011000B9320008B9320008B9320008B932000813
:10012000B9320008B9320008B9320008B932000803
:10013000B9320008B9320008B9320008B9320008F3
:10014000B9320008B9320008B9320008B9320008E3
:10015000B9320008B9320008B9320008B9320008D3
:10016000B9320008B9320008B9320008B9320008C3
:10017000B9320008B9320008B9320008B9320008B3
:10018000B9320008B9320008B9320008B9320008A3
:10019000B9320008B9320008B9320008B932000893
:0C01A000B9320008B9320008B93200087A
:1001B0007BB972B90029BEBF00204FF0004106E0B4
:1001C00008BF00281CBF6FF000414FF0FF3000F067
:1001D00057B8ADF1080C6DE904CE002909DB002BFE
:1001E0001ADB00F069F8DDF804E0DDE9022304B071
:1001F0007047404261EB4101002B1BDB00F05CF8D3
:10020000DDF804E0DDE9022304B0404261EB410186
:10021000524263EB43037047524263EB430300F0E7
:100220004BF8DDF804E0DDE9022304B0404261EB65
:1002300041017047524263EB430300F03DF8DDF8A3
:1002400004E0DDE9022304B0524263EB430370474C
:1002500053B94AB9002908BF00281CBF4FF0FF312D
:100260004FF0FF3000F00CB8ADF1080C6DE904CE92
:1002700000F022F8DDF804E0DDE9022304B0704765
:10028000704700BF10F8012B11F8013B012A28BF6D
:100290009A42F7D0D01A7047034611F8012B03F8A1
:1002A000012B002AF9D17047034613F8012B002ACD
:1002B000FBD1181A013870472DE9F04786468C4665
:1002C0000846089E154674461946002B40F0C28029
:1002D0008542B2FA82F245D94AB1C2F1200300FA4E
:1002E00002FC2EFA03F3954043EA0C0C94404FEACB
:1002F000154EA8B2BCFBFEF8230C0EFB18CC08FB75
:1003000000F943EA0C43994528D9EB1808F1FF3767
:1003100004D2994502D9A8F102072B44A3EB0903A3
:10032000A4B2B3FBFEFC0EFB1C330CFB00F044EA52
:100330000344A04214D92C190CF1FF3304D2A0427B
:1003400002D9ACF102032C44241A43EA07401EB13F
:10035000D440002334607360BDE8F0874746DDE792
:100360006346F1E792BB431B01214FEA154EAFB242
:10037000B3FBFEFC200C0EFB1C330CFB07F840EA21
:100380000343984562D9EB180CF1FF3004D298452D
:1003900002D9ACF102002B44A3EB0803A4B2B3FBD7
:1003A000FEFC0EFB1C330CFB07F744EA0344A74298
:1003B0004ED92C190CF1FF3304D2A74202D9ACF16B
:1003C00002032C44E41B43EA0040C0E7C2F12003CF
:1003D00020FA03F1954090402EFA03F303434FEACD
:1003E000154EAFB2B1FBFEFC0EFB1C10190C0CFB42
:1003F00007F841EA0041884504FA02F422D9691855
:100400000CF1FF3004D2884502D9ACF10200294436
:10041000A1EB08019BB2B1FBFEFC0EFB1C110CFB17
:1004200007F743EA01439F420ED9EB180CF1FF3165
:1004300004D29F4202D9ACF102012B44DB1B41EAFA
:10044000004192E76046E3E76146F7E76046A3E7CD
:100450006346B7E7834206D916B9002108467BE711
:10046000C6E900E0F9E7B3FA83F78FB9834201D315
:10047000724508D8BEEB020460EB030301209C46E2
:100480001EB9002168E73846FAE7C6E9004CF8E7EC
:10049000C7F1200CBB4022FA0CF41C432EFA0CF1DD
:1004A00020FA0CF3B84001434FEA14490EFA07F55D
:1004B000B3FBF9F81FFA84FE09FB18300B0C08FB9C
:1004C0000EFA43EA00439A4502FA07F240D9E318CC
:1004D00008F1FF3004D29A4502D9A8F10200234462
:1004E000A3EB0A0389B2B3FBF9F809FB183308FB45
:1004F0000EFE41EA03418E452CD9611808F1FF3305
:1005000004D28E4502D9A8F10203214443EA0040F7
:10051000A0FB0298A1EB0E014145CE46434602D313
:1005200006D14D4504D2B9EB020E68EB0403013845
:10053000002EA6D0B5EB0E0261EB030101FA0CFC14
:1005400022FA07F34CEA0303F940C6E9003198E7C1
:100550004046C5E74346D9E72DE9F047044688B051
:100560008846174608F00DF90A220023FFF770FEAF
:10057000B8F1010F06460D4607D102460B4620464C
:10058000274906F0F1FA002011E07F682548394636
:10059000FFF778FE70B124483946FFF773FE48B183
:1005A000204622493A4606F0FBFA6FF0040008B0F4
:1005B000BDE8F0873046294617A3D3E90023FFF7AB
:1005C000F7FD06460D4610461946194A0023FFF767
:1005D000EFFD80460F46104619464EF66022002376
:1005E000FFF7E6FD82468946104619464FF47A72B7
:1005F0000023FFF7DDFDCDE902A9CDE90623CDE912
:100600000401CDE900870B4932462B46204606F00F
:10061000ABFAB8E7AFF30080005C260500000000ED
:10062000C89F0008D99F0008DC9F0008E59F0008CC
:1006300080EE3600FD9F000810B50649044606F01E
:1006400093FA0549204606F08FFA002000F084FA5C
:10065000002010BD7A9B00089A9B000870B51D4EC3
:100660001D49044606F080FA3378002B2CD01B4B32
:1006700018681B4D836829465B6898470246F0B9A5
:10068000AB6818491B88204606F06EFA164D174BCA
:100690002978174A2046002918BF1A46154906F03E
:1006A00063FA3378A3B92978134A144B002918BF89
:1006B0001A462046124906F057FA002070BD11492B
:1006C000204606F051FAE1E70F4B10491A88F7E788
:1006D0000A4AEEE7430E0020D69B0008500900208E
:1006E00038090020F99B0008420E0020B89B000842
:1006F000BC9B0008439C0008CA9B0008C19B0008E3
:10070000589C00080D9C0008400E0020319C0008F9
:10071000014804F0CBB900BFC800002038B5074D30
:10072000074C4FF0FF324FF0FF33284604F0F8F942
:1007300000F0FAFE214606F017FAF2E7C8000020A2
:10074000629C000870B5064E064C002500F0ECFED9
:10075000314606F009FA2046294607F084FFF5E7FE
:100760007C9C0008A086010008B509484FF4D01110
:1007700005F0E5FE074B9C684FF40051636905489E
:100780009847002142F2107007F06DFFF4E700BFB8
:1007900000950008C48D000883B54048404C03F024
:1007A00039FF206018B93F4803F034FF20603E480D
:1007B0003E4D03F02FFF286018B93D4803F02AFF93
:1007C000286020683B4E3C4FC0B107F016FEA8B130
:1007D00040F20943009300232068ADF80430836899
:1007E00069461B68984748B9012333707B600C2326
:1007F0003B7400F099FE314906F0B6F92868B8B1AB
:1008000007F0FBFDA0B140F60143ADF80030002336
:1008100028688DF80230836869461B68984738B9A4
:10082000274B01221A7000F07FFE264906F09CF942
:1008300033783BB9224B1B7823B900F075FE22496F
:1008400006F092F90223FB60C7F808D000F06CFEB6
:100850001E491F4FDFF86080DFF8649006F084F9CE
:100860003378ABB12068836841465B68984750B9DC
:1008700099F80030BDF800203A8023B128688368D9
:1008800001215B68984700210A2007F0ECFEE7E7AA
:100890003B880133C3F30B033B80F4E7959C0008CE
:1008A000500900209B9C0008A19C00084C090020D6
:1008B000A79C0008430E002038090020AD9C0008CA
:1008C000420E0020D09C0008F39C0008279D0008E1
:1008D000400E002070B51D4C204607F08EFD00280C
:1008E00030D01B484FF4803105F029FEA568AE6971
:1008F0006EB123691B6813F0010F14BF4FF0007332
:100900004FF080634FF0A07200212046B04711499C
:10091000114B4B60EB6901228A600BB10B48984781
:100920000E4805F096FE0E4807F067FD60B10D48D1
:1009300005F08FFE0C4805F08CFE0C4805F089FE92
:10094000002070BD0A48ECE70A48F1E79C8E0008D9
:10095000F894000854090020110700084D9D000874
:10096000C48D0008869D0008B99D0008D79D000829
:10097000679D00089D9D0008014B1B68184700BF3C
:1009800000000020014B1860704700BF00000020ED
:1009900030B585B004460D4610220021684608F0A7
:1009A00096F802238DF802302A46044B0193214623
:1009B000684605F067FB05B030BD00BF7909000847
:1009C00080B505460E461746984604F00BFD0346D3
:1009D00008F046F9DFF81890044649F8003042461E
:1009E00030463946A84754F8090002F047FB00BFDB
:1009F00008000000034A536823F0020353600020FC
:100A0000704700BF002004E0084B1A6842F480726F
:100A10001A601A6842F400721A601A6842F480621E
:100A20001A60034B034A1A60704700BF003C024043
:100A3000800000200024F4001FB5D0E90123C16824
:100A4000029164215943B1FBF2F1CDE90021044642
:100A500001680648D21A05F0FCFDD4E906230449D2
:100A6000044804B0BDE8104005F0F3BD819E0008C5
:100A700011AA0008C19E0008F0B595B0D0F8AC608E
:100A80000F68054607F00AFD044608B1037833B93C
:100A90001A4A2B460B2101A805F064FA01AC6946FD
:100AA000284607F009FD024628B11548214605F001
:100AB000D0FD00230093009BCDE90A460EA9F61A4B
:100AC00028460C9607F0FFFC98B904A807F005FD2E
:100AD00058B90E980F9D6424A0FB0401DDE904239E
:100AE00004FB0511FFF7B4FB0D900AA8B84715B039
:100AF000F0BD04A807F0F1FCF7E700BFE69E000890
:100B0000E99E000800B589B0CDE906010E4806A9A6
:100B100004F0E2FD05AA0D484FF4006107F0C0FCA7
:100B2000024670B9059B6421C3F500604143C90AC0
:100B300002914FF40061CDE900010549054805F037
:100B400088FD09B05DF804FB790A00080024002044
:100B5000119F0008159F000810B50446044805F0D1
:100B600078FD21460348BDE81040FFF7CBBF00BF2A
:100B70004B9F0008390A0008014B036000207047B2
:100B80000895000810B5044603F018FC0349024616
:100B9000204605F0E9FF002010BD00BF739F00084C
:100BA00037B5134600220192054601AA58680A216A
:100BB00001F0DCFB019C4CB920EAE0700A2180FBCB
:100BC000010107F050FD204603B030BD2246034925
:100BD000284605F0E5FF019CF5E700BF9F9F000850
:100BE00008B5034A034905F0BFFF002008BD00BF58
:100BF0008FA000089AA0000807B50023009069465E
:100C000004488DF8043004F04DFD9DF8040003B055
:100C10005DF804FB9167000810B5044603F0B0FBD3
:100C200007490246204605F09FFF2046054905F08A
:100C30009BFF0548214604F04FFD002010BD00BF7A
:100C4000DCA00008FBA000084D0C0008F0B599B02E
:100C500004460D46D0F8AC6007F020FC034607F0D0
:100C6000FFFF324A32491058324A002B18BF1A4649
:100C70000092314A2346844218BF0A462F4928462B
:100C800005F072FFD4E90A23CDE900232C4994F939
:100C90000E30227B284605F067FF202210A920464F
:100CA00003F074FF2749636F0246284605F05CFF96
:100CB00004A9204607F007FC08BB0AA807F00DFCB2
:100CC00000BB049FDDF814E06421A7FB010CDDE903
:100CD0000A2301FB0EC1FFF7BBFA1B4903463A4644
:100CE000284605F041FF0AA9204607F0E5FB024629
:100CF00068B11649284605F037FF19B0F0BD0AA8BB
:100D000007F0EBFB1249284605F02EFFEBE70A9BA4
:100D10006422F11A4A430091B2FBF6F20D49CDE983
:100D200001622846324605F01FFFE6E70800000092
:100D300011AA000805A100083EB2000808A1000899
:100D400014A1000840A1000857A100089FA10008B5
:100D50007CA10008CCA10008F0B5002591B00446A4
:100D6000294608AF1C2209A807F0B1FE134E1A222B
:100D70002021384607F0ABFE2146114804F0ACFCB8
:100D800007AA4FF40061304607F08AFB079A0097E4
:100D9000C2F5006164234B43DB0A05934FF4006303
:100DA000CDE90313CDE90132204606492B46A6F1D1
:100DB000400205F0D9FE284611B0F0BD0024002005
:100DC000C90D00081DA2000870B50446D0F8AC603B
:100DD00088B00D4607A907F06FFB024628B10F49FE
:100DE000284605F0C1FE08B070BD204607F056FB4E
:100DF000079B0096F11ACDE90131094B64224A4361
:100E0000002818BF0346B2FBF6F20649CDE903629B
:100E10002846224605F0A8FEE5E700BF9FA100088E
:100E200005A1000866A2000838B513460546102241
:100E30005868002105F0C0F80446FFF7DDFE38B918
:100E40000E492246284605F0ABFE6FF0150038BD6E
:100E500007F006FF0A4B1B589C4204D1094928465B
:100E600005F09EFEF1E7204604F078F82846064992
:100E7000224605F079FE0020E9E700BFCAA200087B
:100E800008000000E5A200080DA3000838B51346CD
:100E9000054610225868002105F08EF80446FFF739
:100EA000ABFE38B90E492246284605F079FE6FF0B0
:100EB000150038BD07F0D4FE0A4B1B589C4204D1E4
:100EC0000949284605F06CFEF1E7204604F064F974
:100ED00028460649224605F047FE0020E9E700BF04
:100EE000CAA20008080000004CA3000872A3000872
:100EF00038B51346054610225868002105F05CF805
:100F00000446FFF779FE38B90E492246284605F017
:100F100047FE6FF0150038BD07F0A2FE0A4B1B58C4
:100F20009C4204D10949284605F03AFEF1E72046E3
:100F300002F0A4F828460649224605F015FE0020D6
:100F4000E9E700BFCAA2000808000000ADA300083E
:100F5000D2A300082DE9F04F87B00446684603F09D
:100F60004DFB009F284ADFF8A4A0DFF8A4B024239B
:100F700003FB00770821204605F0E9FD009DBD42F6
:100F800003D3002007B0BDE8F08F2B680BB11A78AF
:100F900032B92B461F4A142101A804F0E3FF01AB2C
:100FA00052460821204605F0D2FD284607F025FAD2
:100FB000194B1A4A002808BF5B460821204605F055
:100FC000C6FD2B6AA3B11E6896B1336883B1144A7B
:100FD0000821204605F0BBFDB1464FF000083368FC
:100FE000104A434506D8104A0821204605F0AFFDB7
:100FF0002435C4E759F8043F0821204605F0A7FD31
:1010000008F10108EBE700BF19A4000828A40008B4
:1010100010A4000823A400080AA40008A4AA000839
:101020002DA4000829A4000801A200082DE9F04120
:1010300014468846074610226068002104F0BCFF71
:10104000B8F1020F064607D8254A20230821384662
:1010500005F07DFD336816E00A220021A06804F047
:10106000ABFFC5B21E4A2B460821384605F06FFD7E
:10107000B8F1030F1AD1102D0CD0202DEAD0082D75
:101080000BD13378DBB2174A0821384605F05FFDF3
:10109000002009E033889BB2F5E73846124A082160
:1010A00005F055FD6FF01500BDE8F081E0681022F5
:1010B000002104F081FF0D4A03460446082138460A
:1010C00005F045FD102D06D0202D07D0082DE4D1C8
:1010D000E4B23470DCE7A4B23480D9E73460D7E7F7
:1010E0006EA4000899A4000883A40008AAA400081C
:1010F0002DE9F04F87B000230193524BDFF848A150
:1011000091460122074688461A6002F081FA4FF0A4
:10111000FF3520262C4649465246404602F09CFAAE
:10112000411C06D16A1C41D14849384605F038FDBA
:1011300017E073281AD0772828D0612811D1DFF85A
:1011400010B101AADBF80000102101F00FF9019B9A
:101150000546002BDFD0DBF800203E49384605F07D
:101160001FFD6FF0150007B0BDE8F08FDFF8E0B0AD
:1011700001AADBF80000002101F0F8F8019B044609
:10118000002BC8D0DBF800203349E7E7DFF8C0B018
:1011900001AADBF80000002101F0E8F8019B0646F7
:1011A000002BB8D0DBF800202C49D7E7631C01D115
:1011B0002B49BAE75FFA86F8C6F3C406002C3FD085
:1011C00002AB29461A46A6EB050C0CE0B8F1100F4D
:1011D0001DD0B8F1200F20D0B8F1080F2AD108781F
:1011E000187031443344A64203D80CEB0100102898
:1011F000ECD9102CA14628BF4FF0100929464B46C8
:10120000384600F08BFF1035A4EB0904D6E70888B8
:1012100080B21870000A5870E3E7086818704FEA47
:10122000102E83F801E04FEA104E000E83F802E022
:10123000D870D6E70B4A0821384605F088FC90E7BD
:10124000204690E760000020F8A40008FFA40008F2
:10125000BC0C0020BEA40008D1A40008E4A400082F
:101260001CA5000883A4000870B50F4E044633780F
:101270000D4671B123B1BDE870400C4905F090BC3A
:10128000012333700A49204605F06EFC01233370B8
:1012900004E083F001033370002BF3D1294620468C
:1012A000BDE8704005F0C0BC440E002036A5000823
:1012B00071A5000870B504463B480378182B02D18D
:1012C0000B78112B31D0013A0B468D18AB4225D14A
:1012D0008B5C0A780370A2F13003092B334C04D9DC
:1012E00022F02003413B052B04D823683049CA541F
:1012F000013323602368022B33D110222C480021B4
:1013000004F05AFE2B4A136803F8010B13602A4AB3
:101310001368013313600023236022E013F8016B8C
:10132000182ED3D11E78112ED0D1234D23492A68EF
:10133000204605F019FC20460021FFF795FF204BC1
:10134000187870B91F4A2B681168042B0ADC08B1A1
:1013500011602B6013F003010BD1126813681BBAE4
:10136000136070BD086800BA41F8040B043B01200B
:10137000EBE75B4203F0030358BF5942022904D153
:10138000126813885BBA9BB2EAE70329E9D11068B7
:1013900002681104C2F3074301F47F010B4302F416
:1013A0007F4213430360DCE7450E00206009002004
:1013B000470E00206C090020640900209BA500084E
:1013C000460E0020680900202DE9F84F0C462B49F5
:1013D000DFF8AC80DFF8AC90DFF8ACB000230B6036
:1013E0002A4988F8003006460B601546012C2F4626
:1013F00055F804AF1ED902224946504607F08CFB2F
:1014000080B99AF80220003A18BF0122924420497C
:101410000222504607F080FB30B9012388F80030E3
:10142000013CE3E70022F1E749465046FEF72AFF78
:10143000A8B9043700221146786804F0BDFD154BA9
:10144000002211461860786804F0B6FD124B13496B
:1014500018603046FFF708FF0020BDE8F88F9AF8C3
:1014600000202D2AE6D19AF80120002AE2D0524627
:101470005946304605F078FBD2E700BF60090020EE
:10148000460E0020B5A50008BBA500086409002091
:10149000B8A500086C09002068090020B5120008F2
:1014A00013B5094806F0A9FF58B1084A0649126861
:1014B000074800240094012300F096FE204602B065
:1014C00010BD6FF01200FAE7C08E0008B09500085A
:1014D0003493000810B54468C4E90012A360426860
:1014E0001346402153F8404B53625163002302F1ED
:1014F0003801C2E90413C2E90A33C2E906330821FC
:1015000013631162C2F8B830A36823B19B6C13B1A6
:10151000044920469847A3689B6A0BB12046984728
:10152000002010BD57680008004870473493000839
:1015300010B581680446183101F0AAF9A168034A80
:1015400020461831BDE8104001F03AB93EA7000826
:1015500038B58368D3F87832DB0704461AD440687C
:1015600003685B689847054620B9E06806F0F0F824
:10157000A3681D75A3685B6C13B129462046984784
:10158000A36807F06DFB0022C3F82023034B185813
:1015900001F074FD6FF00F05ECE700BF08000000DC
:1015A000014905F022BA00BF01A20008F7B50446C0
:1015B0008068D0F878325A070D4605D5002105F02D
:1015C0003CFAE06806F096F8E368DB6873B9002D32
:1015D0003BD0A66806F15607384605F013FA0028F6
:1015E00035D0394606F5AB70FEF756FEA268E068C6
:1015F0000DF106035632294606F07FF858B9A06867
:1016000000F5AB715630FEF747FEA068563005F086
:10161000F9F9ADF80600204605F0F9FDA368D3F806
:1016200074329B0603D50B49606905F0DEF920464C
:1016300000F002FFA268BDF80630A2F85230A2689E
:101640002046A2F8503005F047FD03B0F0BD86F803
:101650005601CBE7949400082DE9F04FA7B004465B
:101660005422002111A807F032FA0023CDE90533F6
:10167000A36820465633029305F0D0FD204605F0BE
:1016800014FD10B96069FFF78BFFA06814220021D8
:10169000183007F01CFA204605F0ADFCA168E068A0
:1016A000B1F850205631002606F05EF8204606F0CC
:1016B000EDF84FF0FF37B24603960DF14408B346FC
:1016C0003546B146DDE90532012A6DD0132B6ED8BF
:1016D0005FBBBBF1000F0AD0204606F0F8F8A26805
:1016E0001423563211A90DEB030005F003FBB9F1E9
:1016F000000F0CD099F81130FE2B08D1059B26AABB
:1017000002EB830252F8542C0AB101330593A0680E
:10171000059D436A002B40F0B680CEB1C3699E425E
:101720002DD00D9600F1180524E0029A02234146BF
:1017300006A805F0DFFA0699D8F8042002920346BD
:1017400031B101290AD148B16D4A204605F018FE91
:101750006FF00705284627B0BDE8F08F059B002BEA
:1017600034D0D8F8000001F0C5F898B166B1A5688A
:101770000D9618350CAE0FCE0FC533682B60204682
:10178000FFF7D6FE0125E5E75E4A0121204605F078
:10179000F7FDDDE7059BCBB1D8F8002029462046B0
:1017A00001F04AFA022809D1059B132B91D9069B17
:1017B000022B8ED1544B554A0121C6E7032805D090
:1017C000059B013305934FF0010B7BE7039B33B976
:1017D000D8F8001007AA484605F083FB054608F133
:1017E0000408013F9DB3EB68BBF1000F08D0F3B1D3
:1017F000204605F013FD204605F06EFC444AC4E780
:10180000ABB1A368DDF814A0AE4603F1180CBEE836
:101810000F00ACE80F00DEF80030CCF80030AB6809
:101820002BB96B7CFE2B04BF2F7C07F1FF37D5F85B
:1018300004C0BCF1000F08D0AE46BEE80F000CAEED
:101840000FC6DEF8003033606646A94603E0059B0C
:1018500053B101230393069B17B9022B7FF432AFD8
:10186000059B013305932DE7A368DB6A13B1DB68A1
:10187000002BEED1274B0093274A119B01212046D4
:1018800005F07EFDE5E790F82830A5EB0A05BBB131
:1018900090F829104FF6FF72FF2918BF0A469D42A3
:1018A00002D313449D420BD983691C4A012120466F
:1018B00005F066FD2046FFF73BFE6FF0150549E792
:1018C000012105F0AFF8A06800F5437005F0CEF8EF
:1018D000A36811AA294602EB8A025B6A2046984750
:1018E0000546A0684FF0FF324FF0FF3300F543701C
:1018F00005F063F8A068002105F094F82AE700BF1E
:101900004CA7000860A70008C1A70008549C000865
:101910007EA70008ADA70008D1AA0008E5A7000827
:1019200010B5836802221A7583689B6C0446BBB9A4
:1019300005F01AF88368D3F87832DB040BD503215D
:10194000084B094A05F01CFDA0686FF4805100F5B2
:101950001E7005F023F82046BDE8104000F0F2BEEE
:1019600010BD00BF00A800082AA400082DE9F04F10
:1019700004468068B1B0012100F51E7004F0FFFF3D
:10198000A3681B7D022B20D100230993A368606804
:101990009E6C03681D6909AB0EB310221BA9A847F2
:1019A000099B93B1A068012105F03CF8099A1BA995
:1019B0002046B047A068002105F034F8A3689B6C6E
:1019C000002BE3D12046FFF7ABFFA0686FF00101C9
:1019D00000F51E7031B0BDE8F04F04F0DFBF01220A
:1019E0000DF12301A847099B002BEED09DF9232080
:1019F0009DF82330A068002AC8DB427D032A00F24C
:101A0000F482DFE812F0040075028C02F2020D2B62
:101A100067D00A2B43D0B0F87822092B6FF3CA02A3
:101A2000A0F8782272D029D8002B00F00381082B6F
:101A3000A06800F0E9810246D2F87412890740F1EB
:101A4000F980013B162B00F2F580DFE813F0B702B6
:101A5000FA01FE01F601B1021002F300F300F300F7
:101A6000F30014021802F3002D02F3003202F30017
:101A7000F300F300F3003402F30049021B2BA068CB
:101A800041D07F2B00F0CC81A3F120015E290246DA
:101A9000D2D8012104F0D1FF9DF82310B8E0D0F88E
:101AA0007822C2F3C7022AB1D0F87822C2F3C70263
:101AB0000A2AC0D1B0F8782263F3CA02A0F87822CB
:101AC000A568B5F85010C1B9284604F0B6FFE06823
:101AD00005F010FE6069FFF763FD2046FFF720FF69
:101AE00054E7D0F87822C2F3C702002AE2D0D0F837
:101AF0007822C2F3C7020D2ADBE72046FFF7ACFDD0
:101B0000C5F82403E9E70123437593E0A068D0F802
:101B100074329B0740F18E80012104F08EFFA06893
:101B2000B0F85030FF2B00F08580B0F8522000F163
:101B3000560100F5AB7006F0A2FFA368B3F852207F
:101B40001344002583F85651A2681BA9142302F5FB
:101B5000AB720BA805F0CEF80B9914296AD830ABFC
:101B600003EB810343F8545CA368B3F85220002AC6
:101B700052D0134493F85530202B02D0093B042B4C
:101B80004AD800294BD100250A950A9B30AA02EBBE
:101B90008303002653F854AC504604F033FFB34699
:101BA0008146B046374616AA3946284600F0A4FBBF
:101BB0000346002842D1012E68D10A9B30AA02EBCD
:101BC000830353F8540C04F01DFFA2680646183234
:101BD0004146284600F090FB0568284604F012FFB5
:101BE000864205D0821B92B2A919204605F00FFC4F
:101BF000A068B0F85230034493F85630202B34D00C
:101C0000093B042B31D9D0F87432DF0732D42021BC
:101C1000204600F05FFD0DE00129B4D90139002014
:101C20000CAB009301900AAB1BAA05F085F90546A1
:101C30000028AAD1606904F0FDFFA7E61B680393A2
:101C40004A465146184606F067FF60B9039B18469E
:101C5000FEF72AFB584538BF58461FFA80FB002E76
:101C600008BFB846013601379DE70121204605F03F
:101C700067FADFE7002104F0EAFE2021204600F0A9
:101C800029FDA068012104F0E2FED3E70490D1D938
:101C90000A9A30AB03EB8202C14652F8543C0393DC
:101CA000184604F0AFFEA268049B0590A2F84030ED
:101CB0000496A26849461832284600F01DFB039B93
:101CC000D0F800A009F101094BB1BAF1000F06D01C
:101CD000059A1946504606F01FFF0028E9D1A16871
:101CE000BAF1000F4ED1A1F840A0049B013B049330
:101CF000DFD16069FFF754FC204600F023FD0A9B0A
:101D000030AA02EB830308F1010A53F8540C04F0E3
:101D100079FE414611AA8146284600F0EDFA0746B1
:101D2000A0683968FF2200F5AB7006F007FF3B683A
:101D300003934FF6FF77B84616AA514628460AF194
:101D4000010B00F0D9FA002852D0A168036801F213
:101D50005511002211F801EF985C704503D110B1C4
:101D600001324245F6D1B9F1000F01D04A4507DBF7
:101D7000BA4206F1FF36A8BF3A46012E97B237D0D5
:101D8000DA46D9E79A48069104F03CFE0699079195
:101D90004A8F00EB0B07BFB2121A504692FBF7F2C4
:101DA00092B2069204F02EFE0799069A3F1AB1F8F5
:101DB000400000F1010CA1F840C0B0FBF2F102FBC1
:101DC000110080B2BFB260B9894B8A4ACDF800A039
:101DD0000621204605F0D4FA3946204600F016FBCD
:101DE00083E7854A53460621204605F0C9FAF3E702
:101DF000002F3FF41FAF0399A7EB090292B24944A9
:101E0000204605F004FB15E7D0F874329E077FF5F5
:101E100011AF012104F011FE204605F019FB09E77E
:101E2000D0F874329D077FF505AF012104F005FE5F
:101E3000A368D3F874321807EED4204605F0E9FA07
:101E4000F8E6204605F0F3F9F4E6204605F0E6F959
:101E5000204605F02AF910B96069FFF7A1FBA068D8
:101E6000012104F0EAFD2046FFF75AFDE2E6204694
:101E700005F0E6F9DEE6204605F0EDF9DAE6D2F8FF
:101E800074329F0603D55D49606904F0AEFDA36816
:101E9000D3F874329E0603D55949606904F0A5FD54
:101EA000204600F04FFCC5E600212046FFF77EFBF0
:101EB000C0E60121F9E7204605F0A9F9204604F023
:101EC00053FD0121A06804F0B8FDA368D3F8743273
:101ED0009D067FF5AFAE4B49606904F086FDA9E62B
:101EE000204600F023FBA068012104F0A6FDA1E636
:101EF0005B2B01D1022307E6D0F87422900706D5A8
:101F0000622B08D14FF0FF31204605F042F9A3685B
:101F100000225A758EE6662BF9D10121F4E70022E2
:101F20004275A268D2F8741289077FF52FAD313B54
:101F30001B2B3FF67FAE01A151F823F0B91F00081B
:101F4000C51F0008D91F0008AD1F0008351C000878
:101F5000351C0008351C0008351C0008351C00081D
:101F6000351C0008351C0008351C0008351C00080D
:101F7000351C0008351C0008351C0008B31E00087D
:101F8000A91E00086F1E0008431E0008351C00082B
:101F9000B11F0008351C0008BD1F0008351C0008D3
:101FA000351C0008351C0008C91F000803235375A1
:101FB000204605F033F93DE603235375204605F02E
:101FC00026F937E603235375A068D0F8741201F0A0
:101FD000010181F0010156E603235375A368D3F88C
:101FE00074329B077FF526AE27E700238CE500BF00
:101FF00010AA000844A800082AA400089994000820
:102000009E94000894940008F8B50446806815462C
:1020100000F51E70002935D04FF4804104F0AFFC6C
:10202000A368DD646068036800219B689847002806
:102030004AD1204604F01CFD002845D1234E244FF0
:10204000A06800F52F704FF0FF324FF0FF330321EF
:1020500003F0F6FC0546A068CDB14FF4FA720023F8
:1020600000F5437004F0A9FC70BB20462B46194ACA
:10207000012105F085F9A068BDE8F84000F543703E
:1020800004F0F4BC6FF4804104F088FCC8E74FF022
:10209000FF334FF0FF3200F5437004F08EFC324600
:1020A0000221204604F08BFC20463A46294604F0E3
:1020B00086FC606803685B6903B19847A06800F517
:1020C000437004F0D3FCBBE7F8BD00BF5115000816
:1020D0006D1900084AA8000810B50B49044604F021
:1020E00043FD2046094904F03FFD2046084904F01D
:1020F0003BFD2046074904F037FD2046064A0021F3
:1021000000F05EFB002010BD61A800089FA8000839
:10211000FEA8000852A90008ECA90008F8B5174667
:102120001E460A462949044604F01EFD3EB33A788D
:102130002749204604F018FD01256A0703D12549E7
:10214000204604F011FDAE421ED97A5D204920469A
:1021500004F00AFD0135102DEFD11F49204604F08F
:1021600003FDB6B91B49204604F0FEFC0125AE4232
:102170002B4610D81749204604F0F6FC15E0174905
:10218000204604F0F1FC01251449204604F0ECFC43
:10219000E0E700252B46FA5C1149A2F120035F2BF2
:1021A00028BF2E22204604F0DFFC0135102D06D07A
:1021B0006B07DCD10749204604F0D6FCD7E7204660
:1021C0000849BDE8F84004F0CFBC00BF02AA0008EF
:1021D00009AA000811AA000813AA00080FAA0008FB
:1021E00035AA000815AA00082DE9F04304468068C6
:1021F0008846D0F8201389B015461F46002960D1C3
:102200004FF44A7206F063FCE06805F025FBA06815
:1022100000F5437006F035F94FF42F794FF41F762F
:10222000A068304406F0E9FBA06800228319012170
:102230004844103606F0B3FBB6F52F7F09F11409B8
:10224000EED1A36900261E60A068022100F51E7071
:1022500004F095FBA36850225A87A36818221A87B6
:102260002168204604F0AAFCA368174A66F3820599
:10227000C3F874526068036841461D682346A84746
:102280000546D0B9A36801221A75D4E909010022D4
:102290000023CDE906230E230393109B0495CDE97B
:1022A00001730094094B4FF4006202F03BFDA368F8
:1022B000C3F82003216A02F059FC284609B0BDE8A2
:1022C000F0836FF07705F8E7116A0008092000082D
:1022D00010B5044613460A460146064801F056F971
:1022E00023691B7923B12046BDE8104004F0A2BC4D
:1022F00010BD00BF4D6C000838B50B46154648B9F7
:102300001449154A521AB3EB920F05D251F82350D3
:10231000284638BD84680CB90025F9E70F4A944275
:102320000AD30F4A944207D218462268294690479A
:102330002B68002BECD1EFE70A4A944202D30A4AF9
:10234000944205D3246814225343E518E358F0E778
:102350000133F8E760930008909300089494000814
:10236000949400089093000894940008F7B50378BB
:102370002D2B0446164605D16FF01503336000205F
:1023800003B0F0BD06F06CFC0B4F00230546C351B3
:102390000A46204601A903F00FFEEB59222B02D179
:1023A0006FF02103EAE7002BE6D1019BA342E3D0C3
:1023B0001B78002BE4D0DFE70C0000008368D3F823
:1023C00074329B0603D50249406904F04FBE704742
:1023D000A4940008014904F049BE00BF01A200080E
:1023E0000A1E0DDC0ED042238168D1F874128906D2
:1023F00008D5002A04494069B8BF524204F036BEED
:102400004123F1E7704700BF31AA00080A1E0DDC26
:102410000ED044238168D1F87412890608D5002AA9
:1024200004494069B8BF524204F020BE4323F1E79B
:10243000704700BF31AA00082DE9F0478568DFF832
:102440006890044605F15600FDF72EFF002395F82D
:102450003C7086B29846A268558FED1BB54209DBE9
:10246000002E1FDD563360691049BDE8F0471A445D
:1024700004F0FCBD1D442A44563392F856A082F85D
:102480005680A26860691A44494604F0EFFDA368CB
:102490002B4483F856A0A3685B8FDB1BF61A00273A
:1024A0002B46D8E7BDE8F087549C00082AA4000812
:1024B00008290A4617D8836893F83E10914212D033
:1024C00083F83E208368082AD3F8743205D0990631
:1024D00009D50549406904F0C9BD9B0603D50349E8
:1024E000406904F0C3BD704738AA0008A9940008E9
:1024F00038B50D4609780446FFF7DAFF6A78072AEF
:1025000011D8A36893F83F1091420CD083F83F2074
:10251000A368D3F874329B0605D560690249BDE80B
:10252000384004F0A3BD38BD41AA0008F8B583685F
:10253000B3F850200446002A55D0B3F852100029B1
:1025400051D0553103F156050B441846A84206D325
:10255000014611F80169202E3CD0A8423CD286B237
:102560009DB2AB1B9BB2591C471CD21A0144384682
:1025700006F093FAA268B2F85030711B13FA81F397
:10258000A2F85030A368B3F850201344002283F817
:10259000562009B2204604F0D3FDA368D3F8743264
:1025A0009A0603D51049606904F060FD3B460F4A66
:1025B0000821204604F0E4FE2046FFF7FFFEA36852
:1025C000D3F874329B060ED560690949BDE8F8401E
:1025D00004F04CBD0846B9E7014611F80169202E08
:1025E000BDD00846B9E7F8BDAE9400082AA400089B
:1025F000B29400082DE9F84F04460F4690460AB100
:10260000FFF7DCFEA668D6F87432B6F852505B07C6
:1026100024D505F156003044FDF746FE2A4E054606
:10262000B5B9A368B3F85020A3F85220A06804F00D
:102630002AFD30B1B8F1000F00D017B16069FFF783
:10264000C9FE7942204609B2BDE8F84F04F078BDD2
:102650006069314604F00AFD013DE1E73046FDF7CF
:1026600023FEB6F85090738F19FA80F915FA80F0AE
:10267000B0FBF3F2B9FBF3F39A42AA461BD0134D19
:10268000A3684845CDDA5A8FB0FBF2F302FB13037F
:10269000461C13B96069FFF79DFEA36853442046AA
:1026A00093F856300AF1010B2A46082104F068FE1F
:1026B000DA463046E4E75635054A731908212046C4
:1026C00004F05EFEADE700BF3EB2000835AA000888
:1026D0002AA4000813B583688DF80710D3F8742274
:1026E0000446D00725D5B3F85210B3F850208A42DB
:1026F0001FD0481CA3F852000B449DF8072083F814
:102700005620A368D3F87412890710D5D3F8743211
:1027100060690B4913F0040F18BF2A2204F0A6FCCD
:10272000204604F0C2FC10B16069FFF753FE02B00E
:1027300010BD01220DF10701204604F02EFEF6E740
:1027400035AA000810B504468368094A022104F03E
:1027500017FEA368D3F874329B0707D52046FFF70E
:102760006BFE2046BDE8104004F0C5BC10BD00BFA4
:102770002AA40008014904F093BE00BF01A200088A
:10278000F8B50F465168044615461E4611B11A4663
:1027900004F093FEAB6883B131462046FFF736FE66
:1027A0002046064A3B46082104F0EAFDA968F21DCE
:1027B0002046BDE8F84004F080BEF8BD4AAA0008F3
:1027C0002DE9F04F0F46002189B0044616460D460C
:1027D00003AA384601F10108FFF78EFDA8B98DB1B3
:1027E00026B132460821204604F0CAFDDFF8909059
:1027F000DFF890B0002103AA384601F1010AFFF783
:102800007BFD60B909B0BDE8F08F006810B1FDF73D
:102810004BFD80B2854238BF05464146D8E7D0F827
:102820000080B8F1000F0FD098F8003063B146680F
:10283000154ACDE900584B460821204604F0A0FD7A
:1028400026B96069FFF796FF5146D4E74B465A46D2
:102850000821204604F094FDAB1DB2079BB209D1BC
:1028600031680A4A914205D1324641462046FFF777
:1028700087FFE9E71A463146204604F01EFEE3E7EB
:102880006FAA00085CAA000855AA0008C40BD286EB
:10289000F7B50F6805460E46EFB13846FDF704FD63
:1028A00084B2114B009308213B46104A284604F09D
:1028B00067FD7168E31C9BB279B18A070DD1086886
:1028C0000B4A904209D10A463168284603B0BDE858
:1028D000F040FFF755BF3C46E3E71A46284603B0F1
:1028E000BDE8F04004F0E9BD6BAA000845A8000867
:1028F000C40BD28610B507490446FDF7C3FC38B1B6
:1029000005492046FDF7BEFCB0FA80F0400910BD35
:102910000120FCE761AA000864AA000810B58368DA
:10292000D3F874329B06044603D50649406904F087
:1029300034FEA36850225A87A36818221A87002001
:1029400010BD00BFB694000808B5836902491A6833
:1029500004F00AF9002008BD72AA00082DE9F3412D
:102960000D490E4C0E4EDFF83C80054604F0FCF895
:102970000022B44202F1010703D3002002B0BDE8F7
:10298000F081236A0093A36892B24146284604F07E
:10299000EBF82C343A46ECE782AA0008349300089E
:1029A000609300089AAA000808B5024904F006F9E5
:1029B000002008BD02A2000873B50E4E0446002593
:1029C000A268E0680DF1060302F5AB72012104F084
:1029D00094FEBDF80600A36840B12A4603F5AB7328
:1029E0003146204604F0C0F80135E9E783F8560186
:1029F00002B070BDABAA000810B5044604F00CF993
:102A000003490246204604F0AFF8002010BD00BF85
:102A1000B1A50008022907B50BD1536800931268CD
:102A20000B4B0C4904F0BCF86FF0150003B05DF8D7
:102A300004FB8368084AD3F87432084913F0020F84
:102A4000074B18BF1A4604F08FF80020EEE700BFCE
:102A5000B9AA0008CEAA0008B5AA0008D7AA00089B
:102A6000B2A0000810B58368D3F874329A06044601
:102A700003D50749406904F090FDA368D3F8743288
:102A80009B0603D50349606904F087FD002010BD53
:102A9000BD940008C2940008F0B5012985B0044631
:102AA0000AD05368009312685D4B5E4904F078F8D1
:102AB0006FF0150005B0F0BD8368D3F87432990645
:102AC00003D55949406904F068FD6FF0F9012046CB
:102AD000FFF786FCFA212046FFF798FCA068002546
:102AE0004FF48072294600F5AB708DF80B5005F05D
:102AF000EEFF4E49606904F050FD606904F09AF8F9
:102B00004FF47A766068036801221F690DF10B01AA
:102B100003ABB847039BEBB9013E4FF47A70B6B2F2
:102B200005F05CFC002EEDD1A368D3F874329B064F
:102B300003D53F49606904F030FDA3683D49502248
:102B40005A87A368182220461A8704F01BF86FF0F2
:102B50000700AFE79DF80B20A3681B2A53D093F81A
:102B600056111B29CED1522A4DD15A19002382F871
:102B70005631A66896F857215B2A2BD106F25710DA
:102B8000022510F8011F2A463B2905F10105ADB2C7
:102B900023D1FF2AC8D002F5AB7216FA82F10022C7
:102BA00011F8010F18BB86F85601FA2AA16828BF50
:102BB000FA224A87FA2BA26828BFFA231387A36850
:102BC000D3F874329A0603D51949606904F0E5FC1C
:102BD00000206FE786F85631A6E703EB8303303910
:102BE00001EB4301B5F5807F8BB2CAD19CE701357B
:102BF00002EB8202ADB2303800EB4200B5F5807FC7
:102C000082B2CDD190E72B440135ADB2092D83F8C6
:102C100056217FF677AFA368002283F8562183E719
:102C2000B9AA0008CEAA0008C894000822AB000880
:102C3000CC940008E8AA00082DE9F04F074689B0B7
:102C40001546894621B1104604F00CFE00285BD1E0
:102C5000032455E05C463CE029460AF5AB7005F0DC
:102C600089FF0646002854D0FDF71EFB82B2601C87
:102C700001323146304405F010FF224659463046B5
:102C800005F0FDFE4FF020033355BAF85430013300
:102C90001C44AAF8544008F10108002401994B1C77
:102CA00003AA48460193FFF727FB0646E8B13168BF
:102CB0000022284604F09BFF0028EFD1D6F800B090
:102CC000D7F808A0BBF1000FC4D05846FDF7ECFAC6
:102CD00084B2BAF854302344FF2BBDDD0E4A2B4694
:102CE0000321384604F04CFB0124B8F1000F07D053
:102CF000B8682A4600F1540100F5AB7004F0CAF838
:102D0000204609B0BDE8F08F4FF00008414602248C
:102D1000C5E70224E9E700BFEAAF000830BFFFF7CC
:102D2000FDBF00BF2DE9F0410B4EDFF8308006EB10
:102D30000807CC1B054632460949204605F09FFE90
:102D4000A01942460021083C05F0C1FEC5F8B84074
:102D500007F10800BDE8F081000000000800000055
:102D600094940008054BDA699B689A421FBF044A95
:102D7000536843F080535360704700BF280700201A
:102D800000ED00E070B5264B15469A6A12F0100F60
:102D90009A6A14BF1124102412F0080F9A6A18BFFF
:102DA0001224920706460AD5586B9A6A140634D53F
:102DB00019B19A6A22F080029A62132401E06FF03E
:102DC0001500174B9A6A12F0010F9A6A18BF142463
:102DD00012F0200F9A6A18BF1524D20602D49B6AFB
:102DE0009B070AD50E4B5B68190506D5314600F0E6
:102DF00015FA10B180F309880224094B9A6A9206E9
:102E000042BF5A6A22F400525A629A6A42F0FF02A2
:102E10009A6200232B70204670BD6FF01500CCE73E
:102E200000ED00E0134B9A6A12F0007F9A6A14BF1B
:102E30001E201D2012F0807F9A6A18BF1F2012F4F6
:102E4000002F9A6A18BF212012F4802F9A6A18BFA7
:102E5000222012F4003F9A6A18BF232012F4803F08
:102E60009A6A6FEA02426FEA12429A6218BF2420FD
:102E7000704700BF00ED00E010B5194B0246986A9C
:102E80009C6A10F4805F14BF1720162014F4006FA2
:102E90009C6A18BF1820A40509D5986B986A00048D
:102EA00004D51AB19A6A22F400429A6219200C4B96
:102EB0009A6A12F4806F9A6A18BF1A20D2050CD44D
:102EC0009B6A13F4005F18BF1C20054A936A43F401
:102ED0007F43936200230B7010BD1B20F5E700BFFA
:102EE00000ED00E0F0B5484B5B688BB00446C3F3DF
:102EF0000803002585F31188BFF36F8F02F07F4030
:102F0000B0F17F4F11D102F00C0008280DD010074E
:102F10004CBF0C4601250022033B8DF80720032BF4
:102F200005D8DFE803F0246367602C46F3E700234D
:102F30009DF80720CAB902AE04F120072068616835
:102F4000324603C20834BC421646F7D1099A002D16
:102F500054D0C2F3080121B96FEA52226FEA42222B
:102F6000099202A9184604F0C2FC0BB0F0BD264B32
:102F7000DA6A9107DBD4DA6A002AD8DBDA6A52000F
:102F8000D5D55A69A16942F480725A61BFF34F8F57
:102F9000BFF36F8F5A6931F8021C22F480725A61B4
:102FA000BFF34F8FBFF36F8F4DF6027291420AD07D
:102FB0009A6AD2B24AB10DF1070201212046FFF709
:102FC000E1FE0346B4E72368B2E79A6A12F47F4F42
:102FD00005D00DF107010120FFF74EFFF1E79B6AD5
:102FE000B3F5803FA3D3FFF71DFFEAE70DF107021A
:102FF0000021E3E70DF107010020EDE722F4FF7265
:1030000022F00102ACE700BF00ED00E0044B5A697A
:1030100042F010025A615A6922F008025A61704760
:1030200000ED00E0EFF30880EFF3098101B572468F
:10303000FFF758FF01BD00BF0E4880F3088810203D
:1030400080F311880C484FF0AA014FF4046205F098
:1030500001FA09484FF40461401880F30988EFF33E
:1030600014800221084380F31488BFF36F8F00F0AF
:103070009DF8000080310020C0230020084B9B6891
:1030800083420BD1EFF3058343B1064B5A6842F0FC
:1030900080525A605A6A22F400425A6202F0A8B979
:1030A0002807002000ED00E001B505F00AFABDE8B0
:1030B000014018498A684FF040001044EFF3098C32
:1030C00080E8F01F102080F31288BFF36F8F124F3B
:1030D0004FF00066CA698A603E60D2F8B8000F4CB3
:1030E0002060D2F8BC000023C2F8BC3080F3118805
:1030F00004B5104600F0FEF8BDE8044002F14000BF
:1031000090E8F01F8CF3098801B501F037FEBDE8A7
:10311000014070472807002004ED00E09C0C0020CF
:103120001EF0040F0CBFEFF30880EFF309808169F4
:1031300011F8021C0229FFD001B5724604F0DDFB34
:1031400001BD00BF40B2002807DB044A410901234A
:1031500000F01F00834042F82130704700E100E09A
:1031600040B20028A8BF00F1604001F10101B8BFE2
:10317000064B4FEA0111ACBF00F5614000F00F00B3
:10318000C9B2B4BF195480F80013704714ED00E0C1
:10319000044B054A23F07F039360BFF34F8FBFF3C7
:1031A0006F8F70470000000800ED00E008B5FFF7E2
:1031B000EFFF0B4AD2F8883023F47003C2F888304E
:1031C000EFF3148323F0040383F31488BFF36F8FAA
:1031D00001F0E0FA02F0A6FA00F062F801F036FB26
:1031E00000ED00E042F8203C009B42F81C3C0A49FC
:1031F000019B42F8183C029B42F8143C21F001016B
:103200004FF0807342F8043C42F8081C0023203A37
:103210000266C0F8BC307047C10900080A4A03467C
:10322000906878B113F1160FD0F8A80005D0A0F17E
:1032300040029A4205D8834203D2814228BF00202F
:1032400070470020704700BF2807002008B50D4BCD
:1032500098600D4B04461546D0F8B8201A600E460B
:1032600001F08CFD204600F045F82C4686F30988D5
:103270000020064B98472046002100220023044CE2
:10328000204700BF280700209C0C00201979000867
:10329000C1090008014B10221A61704700ED00E0DF
:1032A000044800231021C21801335B2B82F800135D
:1032B000F9D1704700E100E008B5EFF30583064A55
:1032C000103B02EBC30152F8330049688847BDE860
:1032D0000840FFF747BD00BFFC8E0008024B034AC1
:1032E0000348012100F078B800000320000000200E
:1032F000BC980008D0F8A820054B403A1A60054A4F
:103300004021C3E901121846012100F06FB800BF47
:10331000A00C002000000B15084AC2F898000B68AA
:1033200023F01F03034343F01003C2F89C308B6863
:1033300043F00103C2F8A030704700BF00ED00E089
:103340002DE9F043DFF8608085B00E461F46044645
:103350004FF00009B14523DA6068D8B13FB1411E92
:1033600008421BD11F2819D92368194216D1236896
:10337000019304F0E5FAA36803430393D8F890504F
:10338000C5F30725D0B2013DA84207D801A9FFF730
:10339000C3FF421C09F101090C34DBE76FF0150291
:1033A000104605B0BDE8F08300ED00E0044B0522B7
:1033B000C3F89420BFF34F8FBFF36F8F704700BFE8
:1033C00000ED00E0BFF35F8F024B0022C3F89420B2
:1033D000704700BF00ED00E010B5034C01232278D8
:1033E000FFF7AEFF207010BD670E002008B50B4A36
:1033F00000231278FFF7A4FF10F1160F07D0084A38
:103400000021D2F89030C3F30723984200DB08BDB7
:10341000C2F89800C2F8A0100130F2E7670E002051
:1034200000ED00E02DE9F043534B544CD3F89030BD
:103430002568C3F307239D4285B000F29A80FFF709
:10344000C1FF00200C2685421AD14D4C4D4F2570EE
:103450006846FDF791FBDFF82081DFF82C910646E6
:103460000025AE4213D1237843490020D1F89020A3
:10347000C2F30722934276DBFFF798FF002042E079
:10348000616806FB0011FFF747FF0130DBE700989A
:1034900000EB05114FEA051CCB683B40B3F5000F6C
:1034A00048D00AD8B3F5001F30D0B3F5800F36D01E
:1034B000B3F5801F10D00135D3E7B3F1807F42D040
:1034C000B3F1007FF7D150F80C3088684A6804F0F7
:1034D00037FA40F4802009E050F80C3088684A68D8
:1034E00004F02EFA40F0885040F43020CDE901235A
:1034F0000390D8F890302078C3F30723013B98421B
:103500002AD96FF0150005B0BDE8F08350F80C30F3
:1035100088684A6804F014FA40EA0900E6E750F8BF
:103520000C3088684A6804F00BFA40F0C06040F440
:103530000030DBE750F80C3088684A6804F000FA85
:1035400040F08270D2E750F80C3088684A6804F086
:10355000F7F940F08870C9E701A9FFF7DDFE23788D
:1035600001332370A7E7C1F89830C1F8A0000133F8
:103570007CE74FF0FF30C6E700ED00E0C898000898
:10358000670E00200000F0FF00000811F0B587B0C2
:1035900007460E4614460021102268461D4605F0D7
:1035A00096FA02238DF802302A46054B01932146F4
:1035B0006846CDE9047602F065FD07B0F0BD00BFB6
:1035C0006179000808B5024B1B689847002008BDC8
:1035D000AC0C0020034B044A1860937843F00203BC
:1035E00093707047AC0C00203800002008B50649E5
:1035F000064821F00701C1F1005202F5403202F005
:10360000E9FF002008BD00BF07380020B00C0020F3
:1036100008B500F0B7F80A4941610A490122C0E93A
:1036200000220A6008490A60084A00231360084A19
:1036300003611360C0E90233064A136008BD00BF8E
:1036400002A200086400002060000020C40C0020DA
:10365000C00C0020BC0C00202DE9F04107460E46AE
:10366000154600F08FF8C36804461BB943691A7801
:10367000002A41D10023E3606368BB4256F823204F
:1036800008DB324B6361204600F062F84FF0FF30F8
:10369000BDE8F081511C616192F80080B8F12D0FF6
:1036A000EFD1911C61615178A1602D2904D19278EC
:1036B0006AB901336360E4E749B9244B6361414669
:1036C000284605F01CFA0028DDD0C4F80880D4F89C
:1036D00008802846414605F012FAB8F13A0F6369AE
:1036E00000D070B91B7813B963680133636020465A
:1036F00000F02EF83F20CBE75A1C42611B78836014
:10370000E5E742783A2A0BD0002222611B7813B9F0
:10371000636801336360204600F01AF8A068B7E7D9
:1037200018786268094928B901329742626004DD5D
:1037300056F82230C4E90431EAE761612D783A2D68
:103740002046D5D100F004F82846A1E702A20008DF
:10375000074B02681A60074B42681A60064B826882
:103760001A60064BC2681A60054B02691A607047FE
:103770006400002060000020C40C0020C00C002069
:10378000BC0C002000487047480000202DE9F041A3
:10379000104E114F054600244FF001082B78716937
:1037A0001A19D2B208FA02F201EA02008A4309D1D8
:1037B00053FA84F3706157F833201AB107EBC3034F
:1037C000596890476A780134E3B29A42E6D2BDE87C
:1037D000F08100BF003C0140C80C0020044B18449D
:1037E00000230133994200F8012BFADC704700BF37
:1037F0009800002007B5062201210020FFF7EEFF08
:10380000002211460620FFF7ABFC012108460722E3
:10381000FFF7E4FF002211460720FFF7A1FC082272
:1038200001210220FFF7DAFF002211460820FFF7EE
:1038300097FC092201210320FFF7D0FF0022114647
:103840000920FFF78DFC0A2201210420FFF7C6FFA3
:10385000002211460A20FFF783FC052108461722A3
:10386000FFF7BCFF002211461720FFF779FC282242
:1038700006210A20FFF7B2FF002211462820FFF799
:103880006FFC4FF4804307484422CDE9002383684E
:103890001B6823B16946984703B05DF804FB6FF0DD
:1038A0005700F9E7C88C0008034660B1B0FA80F20F
:1038B000C2F11F02D2B205498856054A11680B436E
:1038C0001360FFF73FBCFF22F5E700BF9800002020
:1038D000003C0140024A136823EA0003136070476A
:1038E000003C0140032921D8DFE801F0020C101947
:1038F0000F4B9A6822EA00029A60DA6822EA000214
:10390000DA6070470A4B9A680243F5E7084BDA68B9
:103910000243DA609A6822EA00029A607047044B18
:103920009A6802439A60DA681043D860704700BF13
:10393000003C014030B5B0B1B0FA80F3C3F11F03D1
:10394000DBB20B4850F833408C4204D100EBC30586
:103950006D68954205D044B940F8331000EBC300C0
:103960004260002030BDFF23EBE76FF00F00F9E766
:10397000C80C002060B1B0FA80F3C3F11F03DBB2C2
:10398000044A002142F8331002EBC3025160704731
:10399000FF23F5E7C80C002000F003020432920078
:1039A0000F23934043EA9000C3B20233054A52F812
:1039B0002320030C02EA104093FAA3F3B3FA83F333
:1039C000D84070470038014038B5254B18680B883F
:1039D000C3F30B03072B0D46144611D8CBB1023BA2
:1039E000052B06D8DFE803F0320332301E264FF4F1
:1039F000FA4020602B68B3F5805F29D2002038BDE3
:103A0000402B0DD008D823F00402302AF1D0382BF7
:103A1000EFD06FF08500F2E7442B09D0A82BF7E731
:103A20008008E6E700F0B2F84FF4A873C0085843E6
:103A30004008DEE700F0AAF84FF4A873C008584326
:103A40000723B0FBF3F0D4E70648D2E70020D0E725
:103A5000C3F313330133B0FBF3F02060CEE700BFB4
:103A60008000002000127A00F8B5444F444C00F06A
:103A7000ADF8384604F067F900F0B4FCA368414A99
:103A8000C3F303131578D35C47FA05F520FA03F660
:103A9000AE4202D2284600F0D3FC236823F48023F0
:103AA0002360236843F480332360354B1A68910305
:103AB000FCD55A6F42F001025A675A6F9207FCD543
:103AC0009A6802F00C02082A17D11A68940707D4E2
:103AD0001A6842F001021A60294A13689807FCD557
:103AE000274B9A6822F003029A609A6812F00C0F32
:103AF000FBD19A6822F0F0029A60214C236823F0EF
:103B00008073236023689901FCD4636823F44033F5
:103B10006360636823F0706343F0E063636000F008
:103B200039F8236843F080732360154B1A689201BB
:103B3000FCD59A6822F0F0029A609A6822F003029B
:103B400042F002029A609A6802F00C02082AFAD146
:103B5000AE4202D3284600F073FC0B4B084A1F60AC
:103B6000936823F4E05343F4A0539360936823F4E1
:103B7000604343F4004393600020F8BD007A030AD9
:103B80000038024096B100088000002000487047CD
:103B900000127A00084B09495A681140084A0A4342
:103BA0005A605A68074922F440325A605A681140F4
:103BB000054A0A435A607047003802400080BFFF40
:103BC000085440000080BFF008544007064B1A6CB0
:103BD00042F080521A641B6C82B003F08053019350
:103BE000019B02B0704700BF0038024008B507488B
:103BF00004F003FC38B10648FFF7ECFC0448FCF77E
:103C0000C1FE002008BD6FF01200FBE7C08E000867
:103C1000153C00080A2838B5074D044604D1AB68A6
:103C20000D215B6828469847AB6803485B68E1B2A2
:103C30009847204638BD00BFC08E00082DE9F843E4
:103C4000D0F80480D0F81090D8F8080017460D4638
:103C50001E4603F0CFFFB7F5001F044616D12846D5
:103C6000D8F80840FFF798FE84420CD1294603F0AB
:103C7000C1FF0446FFF72EFE2046FFF77BFE002122
:103C80002046FFF72FFE0020BDE8F883B7F5800F30
:103C900020D0B6F1806F19D0B6F1C06F18D0B6F150
:103CA000007F1AD1022610494A462046FFF742FEFD
:103CB000B0B9D8F80810284603F09FFF20463146D7
:103CC000FFF710FE2046FFF7EFFDDCE70126EAE7ED
:103CD0000326E8E76FF08500D6E76FF01500D3E71D
:103CE0006FF00F00D0E700BFBB7F000838B5036955
:103CF000044658600A4D284604F07FFB60B1AB686B
:103D000061681B680C3123B12846984700EAE070CF
:103D100038BD6FF05700F9E76FF01200F8E700BF09
:103D2000C88C00082DE9F0471E4F044600EBC10681
:103D30000025B44201D1002014E02068C30600F041
:103D40001F0911D4656845F02005C0F3481AC0F377
:103D50004420102823D857F82080B8F1000F0DD147
:103D60006FF01200BDE8F087B9F1100F04D0B9F17F
:103D7000110FEAD16568E8E73025E6E7404604F030
:103D80003CFB0028ECD04B462A460AF00F01404687
:103D900004F029F9002804F10804CADAE2E76FF018
:103DA0001500DFE7609A000843681B6803F11402FE
:103DB00052E8002F42F0010203F1140040E8002114
:103DC0000029F3D1174A93421BD0A2F54C429342EB
:103DD00017D002F58062934213D002F580629342BD
:103DE0000FD002F5806293420BD002F54442934219
:103DF00007D0A2F51C42934203D002F580629342A1
:103E000003D11A6942F040021A6103F10C0252E830
:103E1000002F42F4807203F10C0040E800210029D9
:103E2000F3D170470010014043681B6803F114028E
:103E300052E8002F22F0010203F1140040E80021B3
:103E40000029F3D1174A93421BD0A2F54C4293426A
:103E500017D002F58062934213D002F5806293423C
:103E60000FD002F5806293420BD002F54442934298
:103E700007D0A2F51C42934203D002F58062934220
:103E800003D11A6922F040021A6103F10C0252E8D0
:103E9000002F22F4807203F10C0040E80021002979
:103EA000F3D1704700100140F8B503690C465E6815
:103EB00023794168012B34D09A1E55425541AD02F9
:103EC0006279022A9CBF354F37F812C0A27988BFA9
:103ED0004FF4005C042A27D0003B18BF01231B03CA
:103EE000E279012A0A680CBF4FF440770027A64206
:103EF000D1681CD121F4B05129430B43D36013691D
:103F000023F4405343EA0C03136143681A6853696E
:103F100023F440733B4353613168BDE8F84004F03B
:103F200078B94FF4C065CBE74FF48053D8E701F47C
:103F3000C0618D421FBFD16821F4C0612943D160A7
:103F4000426811680A6902F4405294451FBF0A6929
:103F500022F4405242EA0C020A6142681168CA68BF
:103F600002F4805293421FBFCA6822F48052134366
:103F7000CB6043681A68536903F440739F421FBFC4
:103F8000536923F440733B4353612168336899427A
:103F900003D004F03EF923683360F8BD749B000839
:103FA0002DE9F04143681D680369D3F804800B795B
:103FB0000C46012B4979A67937D1022950D9042E14
:103FC0004BD04FF480574FF4C06203238B4244D14F
:103FD000002F7DD0002A14BF03220422B2423CD11C
:103FE000E37983B1012B38D13C4B9D420BD0A3F533
:103FF0004C439D4207D003F580639D4203D003F5F7
:104000004C439D4229D1EB6823F40053EB602146D9
:10401000FFF74AFFEB6843F40053EB6094E80300BA
:1040200088E803000020BDE8F081022B08D10229B6
:1040300021D9042E11D04FF480624FF48057C4E789
:1040400002290A461FD9042E04D133B94FF48057F0
:104050001A46BAE763BB0329C0D06FF08500E2E7D8
:104060001F4A042E32F811C0F7D04FF4C062033B50
:10407000012B10D8F1E71A4A042E32F811C0ECD007
:104080004FF48062F3E7164A042E32F811C016D1BD
:10409000002BE2D11A464FF48057BCF5805F13D055
:1040A000BCF5405F12D0BCF1000F8ED101238DE72B
:1040B000033B012BD1D90022BFE70022D7E7002B19
:1040C000FBD11A461F46E8E700237FE702237DE77E
:1040D000002A14BF0222032280E700BF0010014023
:1040E000749B00082DE9F3410569476804462C4894
:1040F000286004F082F920B96FF0120002B0BDE828
:10410000F0812868F96883681B68002B44D09847C1
:104110000028F3DB386A01AA002103F07CFF0028A5
:10412000ECDB019B002219791868FFF7FBFD0028E2
:10413000E4DB666823693568D3F80480EB6823F410
:104140000053EB60706804F058F90028D4D0D6E929
:1041500001018368DB6803B1984705F10C0353E85C
:10416000003F43F00C0305F10C0141E80032002A46
:10417000F3D141462046FFF797FE337D1BB16B69B3
:1041800043F008036B61EB6843F40053EB60204697
:104190007B6A98470020B1E76FF05700AEE700BF99
:1041A000C88C000810B54FF0E0230F499C691A69CC
:1041B00008689B690D4902F4803234B993B903460B
:1041C0004AB90A681044C01A10BD002B08BF034644
:1041D0000AB9A342F5D90A6802440A604FF0E02206
:1041E0001269EEE70446F3E7280E0020240E0020B3
:1041F0000A4B102283F82320094B44F2A0121A60C4
:10420000084B002018604FF0E02344F29F125A61DF
:1042100098611A6942F007021A61704700ED00E0E8
:10422000280E0020240E0020684620F007018D464D
:1042300019B5FFF7B7FF114B1149D3E900420868E0
:10424000001942F10002C3E900020E4A00230B608C
:10425000D2E9004144F2A013001BB0FBF3F043434A
:104260001B1941F10001C2E9003101F041FBFEF7E9
:1042700079FDBDE819408546704700BF90050020D4
:10428000240E0020880500202DE9F041DFF8DC80B5
:1042900099B1421C0BD14FF0E022136923F00103C6
:1042A00013614FF07F43C8F80030BDE8F081D8F8C3
:1042B0000060012807DC00270BE0431CD8F80060F1
:1042C000F7D140F2E53040F2E6339842A8BF1846F5
:1042D000471EEFF31185102383F31288BFF36F8F0E
:1042E000FFF760FF224C4FF0E0239969D4E90023E7
:1042F000801843F10003C4E900031E4B00221A603A
:104300001D4B1A68831A2ED444F2A01C0CFB0733F1
:1043100003F583431F33B3FBFCF7131A0CFB07337E
:1043200040F21A42934238BF1346144A934228BFC0
:1043300013464FF0E022C8F80030013B906953610A
:10434000002393618142A1EB0003D4E9001238BF3E
:104350009B195B1842F10002C4E9003285F3118811
:10436000BFF36F8FA1E740F21A43E2E7280E002067
:1043700090050020240E0020880500202094FF00D6
:1043800038B5EFF31185102383F31288BFF36F8FD5
:10439000084B1C68084B1B68E41AFFF703FF85F302
:1043A0001188BFF36F8F44F2A0132044B0FBF3F0E9
:1043B00038BD00BF900500208805002038B5EFF318
:1043C0001185102383F31288BFF36F8F044B1C6891
:1043D000FFF7E8FE85F31188BFF36F8F204438BDE7
:1043E0009005002008B513498B6803F00C03042BDB
:1043F0001CD0082B1CD14A684B68496813F4800311
:1044000014BF0D480D48C1F3881118BF002302F0F6
:104410003F02A1FB0001FBF71BFF064B5B68C3F3E8
:10442000014301335B00B0FBF3F008BD0248FCE739
:104430000248FAE70038024000127A000024F40033
:10444000002800F0CC80674B1A6802F44042B2F5B5
:10445000404F51D102F10F6202F58C52904211D9B6
:104460001A6802F44042B2F5004F51D105235D4A6B
:10447000126802F44042B2F5804F74D1012B38BF6C
:10448000012370E0584A904208D91A6802F4404269
:10449000B2F5004F40F095800423E8E75349884285
:1044A00019D8534A90421ED8524A904252D91B689A
:1044B00003F44043B3F5004F4FF001033AD0494AAB
:1044C000126802F44042B2F5804F4CD18842D5D8F0
:1044D000474A90423CE01A6802F44042B2F5004F6D
:1044E00053D00323EBE71A681B6803F44043B3F58A
:1044F000804F4FF00203C0E71A6802F44042B2F561
:10450000004F4DD102F10F6202F5A342904207D94C
:104510001B6803F44043B3F5804F4FF00503ACE74D
:10452000314A90424DD8314A90422ED8304A90427A
:10453000DAD800232F4A904213D92A4B1B6803F480
:104540004043B3F5804F46D1294B98424FF00103C9
:1045500033D993E71A6802F44042B2F5004F1CD1F8
:104560000023204A126824490A6822F00F021A43E5
:104570000A600A6802F00F0293421CBF0A6802F048
:104580000F02981A18BF012070471B6803F44043BC
:10459000B3F5804F4FF003036FE71B680023E2E79A
:1045A0001B6803F44043B3F5804FF7D10F4B98429B
:1045B0000FD80F4B984210D800230E4A9042D2D900
:1045C0005CE71B6803F44043B3F5804F4FF00403EE
:1045D00053E7032352E70123C5E70223C3E7012082
:1045E000704700BF00700040000E2707804A5D053D
:1045F0000087930380C3C901003C0240034A044B77
:1046000002609B1A2420B3FBF0F07047C88C0008AE
:10461000E48E000870B5044688B10378C3B10D4D2F
:104620000D4EB54201D3002409E02968A14208D10A
:10463000284603F0E2FE002814BF2C460024204642
:1046400070BD2046FBF71EFE0028F1D02435E8E7B8
:104650001C46F4E7C88C0008E48E000838B5EFF378
:104660001185102383F31288BFF36F8F064B9C686C
:1046700003F0D6FE85F31188BFF36F8F2046BDE8A7
:104680003840FEF7FBBC00BF280700200E4B70B57A
:1046900053F820400D4E013053F82050A54200D869
:1046A00070BD54F8040B0028F8D0B04205D3084B75
:1046B000984202D203689847F0E7037FDB07EDD406
:1046C00003F0B1FEEAE700BF109B0008E48E00088B
:1046D000FC8E000870B52A4B2A4C2B4D012286B067
:1046E00003201A70FFF7D2FF01F0DEFA0420FFF773
:1046F000CDFF2646AE4204F1300410D300F07EFD1B
:10470000204C224EAC4226D300F08CFDFCF7E2F8A0
:104710001F4A137B23F00103137306B070BD54F8D6
:104720000C3C059354F8103C049354F8143C039348
:1047300054F8183C029354F81C3C019354F8203C64
:10474000009354E90A2354E90C0100F061FA54F88B
:10475000303C5E66CDE7D4E90A23B3F1FF3F08BFE2
:10476000B2F1FF3F05D052EA0301206803D100F007
:1047700015FE3034C6E73146183001F029F8F8E765
:10478000680E0020D891000898920008238600083F
:10479000600600200648074A08B5121A002103F0F7
:1047A00059FE0548054A0021121A03F053FE08BDC0
:1047B000E00000206C0E002000000010000000103F
:1047C0002DE9F0411B4E1C4F1C4986B0C82303FB4A
:1047D00000661B4B05934FF001080F231C2505FBBA
:1047E00000750446CDE903384FF4C0700023CDE9CD
:1047F000013300FB0411134B00954FF4A0723046B7
:1048000000F006FA737B104AEE6023F00403737322
:104810004FF4046304FB033313446B60E31C07EBA6
:10482000031307EB04172C74AB6187F8388006B0CC
:10483000BDE8F0819805002028070020002C00200A
:10484000A6B100085D840008C0230020BFB5002089
:10485000FFF71CFF294B83F30888294C294F636914
:1048600043F4007363610025F02384F82230E57778
:1048700025766576A57684F82050636A43F4E023B4
:104880006362FEF7C3FBFEF705FD4FF0FF33A36243
:10489000E362FEF7C7FDFEF721FD1B481B4C00F04D
:1048A00073FA03F0A9FDFCF7AFF80120FFF7EEFE65
:1048B0000220FFF7EBFE00F0E9FC154B1549DC6127
:1048C000154B05930123CDE903534FF480623B461A
:1048D000CDE901550095204600F09AF9627B064625
:1048E00022F004022046627303F05EFE2846FFF7C2
:1048F00067FF3A4631462046FEF7A8FC002C002010
:1049000000ED00E0D54600086807002060060020A2
:1049100028070020802D0020ABB100082DE9F341CD
:10492000044617461E46EFF31188102383F31288BE
:10493000BFF36F8FC368334A7BB180689168884248
:1049400019D057EA060318D188F31188BFF36F8F87
:104950006FF00F0002B0BDE8F081916891F90E1080
:1049600021610133E3609368A36088F31188BFF38A
:104970006F8F0020EEE72169F2E791F90E1090F9B0
:104980000E309942A8BF19466FF07E029142B8BF1F
:1049900011468B422DDD03F06CFD0546CDE9007616
:1049A00019482246414600F051FB0028E1D0EFF3C0
:1049B0001186102383F31288BFF36F8FA068D0B1E4
:1049C000236821699C420AD04BB193F90E30994279
:1049D000A8BF19466FF07E039942B8BF194603F08D
:1049E00048FD40B10848314600F0C4FB6FF00A00B2
:1049F000B0E70025D2E7002DF4D186F31188BFF38C
:104A00006F8FF3E728070020690E0020F8B5836850
:104A10000546002B40D0234A926893423FD1C36899
:104A2000012B03D9013BC3600020F8BDEFF31187D0
:104A3000102383F31288BFF36F8F0169806803F03E
:104A400018FD2C68A54207D10023C5E9023387F37E
:104A50001188BFF36F8FE7E7002CF5D0D4E900325F
:104A600013605A60637B002623F002036373C4E97A
:104A70000066A66004F1180003F057FEAC6094F9DC
:104A80000E302B612046C4F8C06003F08DFD06484F
:104A9000394600F06FFBC7E76FF01500C5E74FF030
:104AA000FF30C2E728070020690E002070B5EFF341
:104AB0001186102383F31288BFF36F8F0468A0421E
:104AC0001BD0D4B1D4E9003213605A60637B002557
:104AD00023F00203C4E900556373A56004F11800D4
:104AE00003F023FEC4F8C050204603F05DFD3146BC
:104AF0000A48BDE8704000F03DBBD0E902329A425E
:104B000018BF013383600221103003F057FF0028E3
:104B1000EDD186F31188BFF36F8F70BD690E002051
:104B200013B5EFF31181102484F31288BFF36F8F54
:104B3000846844B1013C846081F31188BFF36F8FB6
:104B4000002002B010BD52EA030406D181F311889F
:104B5000BFF36F8F6FF00F00F3E7CDE9002302463C
:104B6000014800F073FAECE7690E002010B5044626
:104B700008B9054B9C681F2204F1880003F0DEFF92
:104B8000002084F8A70010BD280700202DE9F84F69
:104B90000C46A1B39AB390F80D90DFF86880571EC9
:104BA0000846B9F1000F25D0DFF85CA00025B8F861
:104BB00004B019EA0B0F19D0B8F80630D8F8001075
:104BC0007E1B9E4228BF1E46324603F058FF2E44ED
:104BD00039EA0B0904EB06000CD0BD1B012D28BFE0
:104BE00001252A46514603F04AFF354408F10808DA
:104BF0006019DCE7002303702046BDE8F88F034806
:104C0000FBE700BF289B0008B0B1000802A2000823
:104C10002DE9F04FD51D85B025F0070504461F4648
:104C20007F3500F16803C0E91A3325F03F05129B78
:104C3000237300200E46119BDDF838B0DDF84C8060
:104C4000A06004213F2DC4E906006173A373E073E3
:104C500006F1400AA5F1400905D880F31188BFF399
:104C60006F8F084602DF4A463544AA21504603F0BA
:104C70002EFF29462046FEF755F80730109B20F0FE
:104C80000700C4E92AA9C4F8B00002930F9B2D1AAB
:104C9000CDE900B32A463B4631462046FEF7A2FA4C
:104CA0000F9BE3674FF00009109BC4F86490C4E9C0
:104CB0001D7BC4F88030EFF31182102181F312883C
:104CC000BFF36F8F164EB16AC4F88410B46282F3DA
:104CD0001188BFF36F8FB8F1000F0FD01F2241462C
:104CE00004F1880003F02AFF84F8A790B36843B961
:104CF000C4F8B430284605B0BDE8F08F84F8888049
:104D0000F4E7D3F8B430C4F8B4301022002104F131
:104D1000300003F0DCFE012384F83830EAE700BFFE
:104D200028070020F0B587B000250595109D049553
:104D30000F9D03950E9D0295DDE912760D9D01955F
:104D40000C9D00950446FFF763FFB6F1FF3F08BFD7
:104D5000B7F1FF3F05D056EA070305D1204600F022
:104D60001DFB204607B0F0BD3A46334604F118005B
:104D7000014900F02DFDF4E723860008014B9868F7
:104D800000F0DEBE2807002040F2011383810023DB
:104D9000C0E92A33C0F8B430014B9860704700BFB7
:104DA000280700200A4A93686FF00A01C3F8C01070
:104DB0000849C3F8BC004B6843F080534B600023A4
:104DC00083F31188BFF36F8F9368D3F8C0007047E7
:104DD0002807002000ED00E070B590F90D20437B1E
:104DE000002A36DBD90634D11B4C63F07F03224600
:104DF000437352F8203F616A934207D1C0E9002112
:104E00000860606211E09942F8D01B68002BF5D071
:104E100090F90E5093F90E60B542F4D0AE42F2DD37
:104E20005968C0E9003108605860256A954200D091
:104E300005B9E568A3685A7BD20604D1DA897F2ACE
:104E400001D9AA6932B1AB4202D0284600F0B0FBCA
:104E5000E56170BDE361FCE72807002038B590F9F3
:104E60000D20437B002A014604DA03F07F034373DD
:104E700003F060FB0D4D2A46AB6852F8204F944278
:104E800000D004B9EC688B4207D05A7BD20604D11B
:104E9000DA897F2A01D9A2692AB1A34202D0204629
:104EA00000F086FB2346EB6138BD00BF28070020D9
:104EB000B3F1FF3F08BFB2F1FF3F03D00249183002
:104EC00000F086BC704700BF2386000870B590F9DB
:104ED0000D20437B002A014604DA03F07F0343736D
:104EE00003F028FB4B7B1C4C63F07F0322464B7383
:104EF00052F8203F606A934207D1C1E90020016067
:104F0000616211E09842F8D01B68002BF5D091F94E
:104F10000E5093F90E60B542F4D0AE42F2DD5868FF
:104F2000C1E9003001605960256AA368954200D04C
:104F300005B9E5688B4207D05A7BD20604D1DA89DD
:104F40007F2A01D9AA692AB1AB4202D0284600F0D3
:104F50002FFB2B46E36170BD28070020F8B5394CC4
:104F6000A2688242074624D1EFF305830BBBEFF31F
:104F70001186102383F31288BFF36F8F537B03F0E6
:104F80007F0343F01003537303F0D4FA234653F81E
:104F9000205F9D4200D005B9E568A3689D4202D01C
:104FA000284600F005FBE5613046BDE8F840FFF714
:104FB000F9BEEFF31185102383F31288BFF36F8FCF
:104FC0007B7BD90604D585F31188BFF36F8FF8BDBD
:104FD000D90943F0100219D17A73266A1A4B9E42FE
:104FE00000D006B9E668A368B34202D0304600F0AC
:104FF000DFFAA368E6619F42E5D1EFF30583002B5A
:10500000E1D13A7BD2070AD42846CEE703F07F03EA
:1050100043F010037B73384603F08CFADDE785F329
:105020001188BFF36F8F83F31188BFF36F8F042351
:10503000184602DFEFF31180102383F31288BFF3C9
:105040006F8FB2E72807002048070020F8B50E4B05
:105050000C4611460D4A98681060DDE90667EFF3CB
:105060001182102282F31288BFF36F8F9D68284649
:1050700003F072FA284632463B46FFF719FF2046F6
:10508000BDE8F840FFF78EBE280700202C0E002058
:10509000F8B50446EFF31187102383F31288BFF3AA
:1050A0006F8F437B03F01F02002A0CBF01260026EE
:1050B00049B239D103F07F03437303F03BFA2C4D1F
:1050C000437B817363F07F032A46437352F8203F8A
:1050D000934227D1686AC4E9002004606C620FE043
:1050E0009842F8D01B68002BF5D093F90EC06145AB
:1050F000F6D08C45F4DD5968C4E900310C605C6081
:105100002C6A944200D004B9EC68AB689C4202D08F
:10511000204600F04DFAEC6187F31188BFF36F8FE2
:105120003046F8BD686ADEE79B071ED5856803F048
:1051300001FA81732B689D4209D16B68C4E9005361
:105140001C606C60E8E76A689342F6D01B68002B2D
:10515000F3D093F90E209142F5D08A42F3DD5A68DC
:10516000C4E9003214605C60D6E78173D4E700BF05
:105170002807002049B9EFF3058030B9054BDA69FB
:105180009B689A4201D0FFF70DBE81F31188BFF3EF
:105190006F8F70472807002010B5EFF3118410229D
:1051A00082F31288BFF36F8F427BD10604D484F35D
:1051B0001188BFF36F8F10BD22F010024273FFF70A
:1051C0000BFE21460248BDE81040FFF7D3BF00BFE9
:1051D000690E0020034648B9EFF3058232B9064A4A
:1051E000D1699268914201D0FFF7DCBD83F3118849
:1051F000BFF36F8F704700BF28070020EFF31181C6
:10520000102383F31288BFF36F8F054B9A68D37B0B
:10521000013BD37381F31188BFF36F8F704700BFD9
:105220002807002070B5EFF31186102383F312884E
:10523000BFF36F8F144DAB68DA7B0132DA732A4605
:1052400052F8204F944200D004B9EC685A7BD20641
:1052500004D1DA897F2A01D9A2692AB1A34202D0F6
:10526000204600F0A5F92346EB6186F31188BFF3D1
:105270006F8FEFF31180102383F31288BFF36F8FCA
:10528000BDE87040FFF7A6BF28070020024B03F1DE
:105290002002C3E9082270472807002070B5EFF309
:1052A0001186102383F31288BFF36F8F1B4CA16804
:1052B000606A0B68814214BF1A46002249680B607D
:1052C0005960A368616A2AB9154AC3E900210B60D5
:1052D00063620CE093F90E0092F90E50A84218D0C8
:1052E000854216DD5168C3E900210B605360256AD1
:1052F0000B4B9D4200D005B9E568A3689D4202D0E2
:10530000284600F055F9E5613046BDE87040FFF7EA
:1053100049BD8A42D8D01268D5E700BF28070020CF
:1053200048070020F8B550EA010306460C4603D1B1
:10533000FFF7B4FF0020F8BDEFF31187102383F3CC
:105340001288BFF36F8F124D124BA8681860FFF7D9
:1053500085FDA868104923463246183000F038FA17
:10536000AA68537B43F00403537304463846FFF79F
:1053700019FDAB68D3E90A23B3F1004F08BF002A37
:10538000D8D103F0FAF9201A20EAE070D3E700BF81
:10539000280700202C0E00202386000838B504467C
:1053A000EFF31185102383F31288BFF36F8F437BD4
:1053B0005B070FD5183003F0B8F9637B23F00403C3
:1053C00020466373FFF708FD29460548BDE83840CD
:1053D000FFF7D0BE85F31188BFF36F8F38BD00BFD4
:1053E000690E0020014B9868704700BF2807002015
:1053F0002DE9F8430446077BEFF31185102383F36F
:105400001288BFF36F8F437B190705D585F3118889
:10541000BFF36F8FBDE8F883D90943F008025DD16F
:105420004273A36813B1204603F08CF804F118000E
:1054300003F07BF9A66E04F16808B04511D04FF077
:10544000000976B1304603F07DF806F1180003F04C
:105450006CF9C6F8C0903046FFF7BEFCA66EB045AA
:10546000EFD1DFF8C080D8F808309C423ED1EFF38E
:105470000589B9F1000918BF4FF00109D8F820607B
:10548000294A964200D00EB9D8F80C60B34202D037
:10549000304600F08DF82046C8F81C6000F0E0F8B7
:1054A000B9F1000F02D02148FFF76EFCD8F80830A0
:1054B0009C4231D1EFF3058373BB227BD20718D412
:1054C0002846FFF76FFCFB07A4D5002383F3118860
:1054D000BFF36F8F0423184602DF9BE703F07F03BF
:1054E00043F00803437303F025F89AE74FF00009EF
:1054F000C4E785F31188BFF36F8F83F31188BFF37F
:105500006F8F0423184602DFEFF31180102383F31B
:105510001288BFF36F8FD4E785F31188BFF36F8FC5
:10552000D1E700BF280700204807002068070020B7
:10553000D3B5DDE90667089CCDE90067FFF786FD76
:105540001CB1034B9B681B69236002B0D0BD00BF38
:1055500028070020044BC01A044BC0105843044BCA
:1055600001221A54704700BF30080020ABAAAAAA33
:10557000690E0020C3897F2B12D80A4B1B6863B1C8
:10558000094B90F90E201B689A4209DB437BDB062E
:1055900006D1064BC31A18BF012303F00100704760
:1055A0000023FAE784000020300E00209805002038
:1055B00070B50E4B0E4C1E7C06EB460304EBC30489
:1055C0000546204603F0B1F80A4B002228469A55BA
:1055D000FFF7D0FF48B1084B08491A68013A204646
:1055E000D317BDE8704000F0F3B870BD2807002065
:1055F00030080020690E0020840000205555000866
:1056000038B5EFF31185102383F31288BFF36F8F42
:10561000104B114A9C681068A04206D1FFF7C8FFE2
:1056200085F31188BFF36F8F38BD00211B7C11609B
:105630000A4AD35C002BF3D02046FFF79BFF0028DB
:10564000EED0637BDB0602D12046FFF73FFC20460D
:10565000E4E700BF280700202C0E0020690E002080
:10566000EFF31181102383F31288BFF36F8F0C4A7D
:10567000936A834208D1D3F88430936281F311880E
:10568000BFF36F8F70471346002BF7D0D3F88420F9
:105690008242F8D1D0F88420C3F88420EEE700BF1E
:1056A00028070020F8B505460E46EFF311871023B2
:1056B00083F31288BFF36F8F064B9C6A24B987F37C
:1056C0001188BFF36F8FF8BD20463146A847D4F844
:1056D0008440F3E728070020F8B506460F46EFF3AD
:1056E0001183102282F31288BFF36F8F0C498C6AEA
:1056F000154624B983F31188BFF36F8FF8BD83F388
:105700001188BFF36F8F39462046B047EFF31183FE
:1057100085F31288BFF36F8FD4F88440E9E700BFA8
:10572000280700200A480B4A0B4908B5121A02F054
:1057300093FE0A480A4A0B49121A02F08DFE0A48E3
:105740000A4A0B49BDE80840121A02F085BE00BFA4
:1057500000000020E000002040B20008000000200F
:105760000000002040B200080000001000000010FF
:1057700020B30008024B1868984208BF0020704709
:1057800088000020034B1B680BB9FEF7F9BD002011
:10579000704700BF340E002030B570B10B4B5B6812
:1057A00098420AD0036843B1D3E90421D0E9044503
:1057B000121941EB0501C3E90421D0E9003213605D
:1057C0005A600023C0E9003330BD00BF88000020CC
:1057D000B3F1FF3F08BFB2F1FF3F2DE9F84F044698
:1057E000994615461F467AD08160EFF31188102341
:1057F00083F31288BFF36F8FB9F1000FDFF8E4A0D5
:1058000020DBFFF7BFFFDAE90027013549F1000986
:105810002D1849EBE073C4E90453AD18064643EB79
:1058200007074FF00109FFF7A5FFDFF8BCE0DEF83E
:1058300004A00346EBB9C4E900EACAF80040CEF878
:10584000044028E0DAE900126FF001035B1A4FF020
:10585000FF3161EB02025B1B62EB0902012B72F16B
:105860000001BCBF01230022C0E904324FF000094F
:10587000D9E7D3E9041CD4E904208A4270EB0C0B6D
:1058800024DA891A5A686CEB0000C3E90410C4E9F1
:10589000003214605C60FFF76DFF84420ED1134B41
:1058A0001B685BB9B9F1000F02D1FFF76BFF064629
:1058B000304602F023FF0021FEF7E6FC88F3118852
:1058C000BFF36F8F28463946BDE8F88F521A60EB58
:1058D0000C009A45C4E90420ADD01B68AAE7002556
:1058E0002F46EFE74808002088000020340E0020F3
:1058F0002DE9F047EFF31185102383F31288BFF3EE
:105900006F8FDFF8A490DFF8A480C9F80000FFF7DC
:1059100031FF00260027D9F80030D8E900ECD9176C
:1059200050B1D0E90442A34271EB020A1CDAE41A36
:1059300062EB0102C0E9044213EB0E034FF00004D6
:105940004CEB01012046C8E90031C9F8004002F0E3
:10595000D5FE2146FEF798FC85F31188BFF36F8FC3
:10596000BDE8F047FFF74CBE14EB0E024CEBE473BE
:10597000C0E90467C8E90023FFF70EFF85F311882B
:10598000BFF36F8F83689847EFF31185102383F37C
:105990001288BFF36F8FD9F800301B1BC9F8003095
:1059A000FFF7E8FEB7E700BF340E002048080020EC
:1059B00010B5EFF31184102383F31288BFF36F8FB8
:1059C000FFF7E0FE054A0346D2E90001181841EB53
:1059D000E37184F31188BFF36F8F10BD4808002076
:1059E000F0B51423154E03FB01000024102701B964
:1059F000F0BD10F8073C40F80C4C03F03F03102BAF
:105A0000A0F1140C0CD826FA03F3DB0708D550F8E4
:105A1000143C2BB150F8105C2B605D6040E90544EC
:105A200082F31188BFF36F8FEFF3118287F312882F
:105A3000BFF36F8F01396046D9E700BF160101003F
:105A40002DE9F74F1D46274B9F68012387F87030DB
:105A500087F8713052EA050316460CBF0123002374
:105A600007F17002804602F0D4FE8146EFF3118BFD
:105A70004FF0100A8AF31288BFF36F8F97F87040C7
:105A80004CB901465A464046FFF7AAFF8BF31188EE
:105A9000BFF36F8F0BE0002387F8703056EA0503E1
:105AA00009D18BF31188BFF36F8F6FF00A04204682
:105AB00003B0BDE8F08FCDE900650B4A0B485946AD
:105AC000FFF7C4FA0446EFF311858AF31288BFF397
:105AD0006F8F2A4649464046FFF782FF85F31188BB
